{
	"smart-contract/FoodSafe.sol": {
		"FoodTraceability": {
			"abi": [
				{
					"inputs": [
						{
							"internalType": "address",
							"name": "_regulator",
							"type": "address"
						}
					],
					"stateMutability": "nonpayable",
					"type": "constructor"
				},
				{
					"anonymous": false,
					"inputs": [
						{
							"indexed": false,
							"internalType": "uint256",
							"name": "lotId",
							"type": "uint256"
						},
						{
							"indexed": false,
							"internalType": "string",
							"name": "productName",
							"type": "string"
						},
						{
							"indexed": true,
							"internalType": "address",
							"name": "producer",
							"type": "address"
						}
					],
					"name": "LotRegistered",
					"type": "event"
				},
				{
					"anonymous": false,
					"inputs": [
						{
							"indexed": false,
							"internalType": "uint256",
							"name": "lotId",
							"type": "uint256"
						},
						{
							"indexed": true,
							"internalType": "address",
							"name": "regulator",
							"type": "address"
						}
					],
					"name": "RecallTriggered",
					"type": "event"
				},
				{
					"anonymous": false,
					"inputs": [
						{
							"indexed": false,
							"internalType": "uint256",
							"name": "lotId",
							"type": "uint256"
						},
						{
							"indexed": false,
							"internalType": "enum FoodTraceability.Status",
							"name": "newStatus",
							"type": "uint8"
						},
						{
							"indexed": true,
							"internalType": "address",
							"name": "updater",
							"type": "address"
						}
					],
					"name": "StatusUpdated",
					"type": "event"
				},
				{
					"inputs": [
						{
							"internalType": "uint256",
							"name": "_lotId",
							"type": "uint256"
						},
						{
							"internalType": "address",
							"name": "_distributor",
							"type": "address"
						}
					],
					"name": "assignDistributor",
					"outputs": [],
					"stateMutability": "nonpayable",
					"type": "function"
				},
				{
					"inputs": [
						{
							"internalType": "uint256",
							"name": "_lotId",
							"type": "uint256"
						},
						{
							"internalType": "address",
							"name": "_retailer",
							"type": "address"
						}
					],
					"name": "assignRetailer",
					"outputs": [],
					"stateMutability": "nonpayable",
					"type": "function"
				},
				{
					"inputs": [],
					"name": "auditAllLots",
					"outputs": [
						{
							"components": [
								{
									"internalType": "uint256",
									"name": "lotId",
									"type": "uint256"
								},
								{
									"internalType": "string",
									"name": "productName",
									"type": "string"
								},
								{
									"internalType": "string",
									"name": "origin",
									"type": "string"
								},
								{
									"internalType": "string",
									"name": "ipfsHash",
									"type": "string"
								},
								{
									"internalType": "address",
									"name": "producer",
									"type": "address"
								},
								{
									"internalType": "address",
									"name": "distributor",
									"type": "address"
								},
								{
									"internalType": "address",
									"name": "retailer",
									"type": "address"
								},
								{
									"internalType": "enum FoodTraceability.Status",
									"name": "status",
									"type": "uint8"
								}
							],
							"internalType": "struct FoodTraceability.FoodLot[]",
							"name": "",
							"type": "tuple[]"
						}
					],
					"stateMutability": "view",
					"type": "function"
				},
				{
					"inputs": [
						{
							"internalType": "uint256",
							"name": "_lotId",
							"type": "uint256"
						}
					],
					"name": "getLot",
					"outputs": [
						{
							"components": [
								{
									"internalType": "uint256",
									"name": "lotId",
									"type": "uint256"
								},
								{
									"internalType": "string",
									"name": "productName",
									"type": "string"
								},
								{
									"internalType": "string",
									"name": "origin",
									"type": "string"
								},
								{
									"internalType": "string",
									"name": "ipfsHash",
									"type": "string"
								},
								{
									"internalType": "address",
									"name": "producer",
									"type": "address"
								},
								{
									"internalType": "address",
									"name": "distributor",
									"type": "address"
								},
								{
									"internalType": "address",
									"name": "retailer",
									"type": "address"
								},
								{
									"internalType": "enum FoodTraceability.Status",
									"name": "status",
									"type": "uint8"
								}
							],
							"internalType": "struct FoodTraceability.FoodLot",
							"name": "",
							"type": "tuple"
						}
					],
					"stateMutability": "view",
					"type": "function"
				},
				{
					"inputs": [],
					"name": "lotCounter",
					"outputs": [
						{
							"internalType": "uint256",
							"name": "",
							"type": "uint256"
						}
					],
					"stateMutability": "view",
					"type": "function"
				},
				{
					"inputs": [
						{
							"internalType": "uint256",
							"name": "",
							"type": "uint256"
						}
					],
					"name": "lots",
					"outputs": [
						{
							"internalType": "uint256",
							"name": "lotId",
							"type": "uint256"
						},
						{
							"internalType": "string",
							"name": "productName",
							"type": "string"
						},
						{
							"internalType": "string",
							"name": "origin",
							"type": "string"
						},
						{
							"internalType": "string",
							"name": "ipfsHash",
							"type": "string"
						},
						{
							"internalType": "address",
							"name": "producer",
							"type": "address"
						},
						{
							"internalType": "address",
							"name": "distributor",
							"type": "address"
						},
						{
							"internalType": "address",
							"name": "retailer",
							"type": "address"
						},
						{
							"internalType": "enum FoodTraceability.Status",
							"name": "status",
							"type": "uint8"
						}
					],
					"stateMutability": "view",
					"type": "function"
				},
				{
					"inputs": [
						{
							"internalType": "string",
							"name": "_productName",
							"type": "string"
						},
						{
							"internalType": "string",
							"name": "_origin",
							"type": "string"
						},
						{
							"internalType": "string",
							"name": "_ipfsHash",
							"type": "string"
						}
					],
					"name": "registerLot",
					"outputs": [],
					"stateMutability": "nonpayable",
					"type": "function"
				},
				{
					"inputs": [],
					"name": "regulator",
					"outputs": [
						{
							"internalType": "address",
							"name": "",
							"type": "address"
						}
					],
					"stateMutability": "view",
					"type": "function"
				},
				{
					"inputs": [
						{
							"internalType": "uint256",
							"name": "_lotId",
							"type": "uint256"
						}
					],
					"name": "triggerRecall",
					"outputs": [],
					"stateMutability": "nonpayable",
					"type": "function"
				},
				{
					"inputs": [
						{
							"internalType": "uint256",
							"name": "_lotId",
							"type": "uint256"
						},
						{
							"internalType": "string",
							"name": "_newIPFSHash",
							"type": "string"
						},
						{
							"internalType": "enum FoodTraceability.Status",
							"name": "_newStatus",
							"type": "uint8"
						}
					],
					"name": "updateIPFS",
					"outputs": [],
					"stateMutability": "nonpayable",
					"type": "function"
				}
			],
			"devdoc": {
				"kind": "dev",
				"methods": {},
				"version": 1
			},
			"evm": {
				"assembly": "    /* \"smart-contract/FoodSafe.sol\":194:3490  contract FoodTraceability {... */\n  mstore(0x40, 0x80)\n    /* \"smart-contract/FoodSafe.sol\":911:982  constructor(address _regulator) {... */\n  callvalue\n  dup1\n  iszero\n  tag_1\n  jumpi\n  0x00\n  dup1\n  revert\ntag_1:\n  pop\n  mload(0x40)\n  sub(codesize, bytecodeSize)\n  dup1\n  bytecodeSize\n  dup4\n  codecopy\n  dup2\n  dup2\n  add\n  0x40\n  mstore\n  dup2\n  add\n  swap1\n  tag_2\n  swap2\n  swap1\n  tag_3\n  jump\t// in\ntag_2:\n    /* \"smart-contract/FoodSafe.sol\":965:975  _regulator */\n  dup1\n    /* \"smart-contract/FoodSafe.sol\":953:962  regulator */\n  0x01\n  0x00\n    /* \"smart-contract/FoodSafe.sol\":953:975  regulator = _regulator */\n  0x0100\n  exp\n  dup2\n  sload\n  dup2\n  0xffffffffffffffffffffffffffffffffffffffff\n  mul\n  not\n  and\n  swap1\n  dup4\n  0xffffffffffffffffffffffffffffffffffffffff\n  and\n  mul\n  or\n  swap1\n  sstore\n  pop\n    /* \"smart-contract/FoodSafe.sol\":911:982  constructor(address _regulator) {... */\n  pop\n    /* \"smart-contract/FoodSafe.sol\":194:3490  contract FoodTraceability {... */\n  jump(tag_6)\n    /* \"#utility.yul\":88:205   */\ntag_8:\n    /* \"#utility.yul\":197:198   */\n  0x00\n    /* \"#utility.yul\":194:195   */\n  dup1\n    /* \"#utility.yul\":187:199   */\n  revert\n    /* \"#utility.yul\":334:460   */\ntag_10:\n    /* \"#utility.yul\":371:378   */\n  0x00\n    /* \"#utility.yul\":411:453   */\n  0xffffffffffffffffffffffffffffffffffffffff\n    /* \"#utility.yul\":404:409   */\n  dup3\n    /* \"#utility.yul\":400:454   */\n  and\n    /* \"#utility.yul\":389:454   */\n  swap1\n  pop\n    /* \"#utility.yul\":334:460   */\n  swap2\n  swap1\n  pop\n  jump\t// out\n    /* \"#utility.yul\":466:562   */\ntag_11:\n    /* \"#utility.yul\":503:510   */\n  0x00\n    /* \"#utility.yul\":532:556   */\n  tag_20\n    /* \"#utility.yul\":550:555   */\n  dup3\n    /* \"#utility.yul\":532:556   */\n  tag_10\n  jump\t// in\ntag_20:\n    /* \"#utility.yul\":521:556   */\n  swap1\n  pop\n    /* \"#utility.yul\":466:562   */\n  swap2\n  swap1\n  pop\n  jump\t// out\n    /* \"#utility.yul\":568:690   */\ntag_12:\n    /* \"#utility.yul\":641:665   */\n  tag_22\n    /* \"#utility.yul\":659:664   */\n  dup2\n    /* \"#utility.yul\":641:665   */\n  tag_11\n  jump\t// in\ntag_22:\n    /* \"#utility.yul\":634:639   */\n  dup2\n    /* \"#utility.yul\":631:666   */\n  eq\n    /* \"#utility.yul\":621:684   */\n  tag_23\n  jumpi\n    /* \"#utility.yul\":680:681   */\n  0x00\n    /* \"#utility.yul\":677:678   */\n  dup1\n    /* \"#utility.yul\":670:682   */\n  revert\n    /* \"#utility.yul\":621:684   */\ntag_23:\n    /* \"#utility.yul\":568:690   */\n  pop\n  jump\t// out\n    /* \"#utility.yul\":696:839   */\ntag_13:\n    /* \"#utility.yul\":753:758   */\n  0x00\n    /* \"#utility.yul\":784:790   */\n  dup2\n    /* \"#utility.yul\":778:791   */\n  mload\n    /* \"#utility.yul\":769:791   */\n  swap1\n  pop\n    /* \"#utility.yul\":800:833   */\n  tag_25\n    /* \"#utility.yul\":827:832   */\n  dup2\n    /* \"#utility.yul\":800:833   */\n  tag_12\n  jump\t// in\ntag_25:\n    /* \"#utility.yul\":696:839   */\n  swap3\n  swap2\n  pop\n  pop\n  jump\t// out\n    /* \"#utility.yul\":845:1196   */\ntag_3:\n    /* \"#utility.yul\":915:921   */\n  0x00\n    /* \"#utility.yul\":964:966   */\n  0x20\n    /* \"#utility.yul\":952:961   */\n  dup3\n    /* \"#utility.yul\":943:950   */\n  dup5\n    /* \"#utility.yul\":939:962   */\n  sub\n    /* \"#utility.yul\":935:967   */\n  slt\n    /* \"#utility.yul\":932:1051   */\n  iszero\n  tag_27\n  jumpi\n    /* \"#utility.yul\":970:1049   */\n  tag_28\n  tag_8\n  jump\t// in\ntag_28:\n    /* \"#utility.yul\":932:1051   */\ntag_27:\n    /* \"#utility.yul\":1090:1091   */\n  0x00\n    /* \"#utility.yul\":1115:1179   */\n  tag_29\n    /* \"#utility.yul\":1171:1178   */\n  dup5\n    /* \"#utility.yul\":1162:1168   */\n  dup3\n    /* \"#utility.yul\":1151:1160   */\n  dup6\n    /* \"#utility.yul\":1147:1169   */\n  add\n    /* \"#utility.yul\":1115:1179   */\n  tag_13\n  jump\t// in\ntag_29:\n    /* \"#utility.yul\":1105:1179   */\n  swap2\n  pop\n    /* \"#utility.yul\":1061:1189   */\n  pop\n    /* \"#utility.yul\":845:1196   */\n  swap3\n  swap2\n  pop\n  pop\n  jump\t// out\n    /* \"smart-contract/FoodSafe.sol\":194:3490  contract FoodTraceability {... */\ntag_6:\n  dataSize(sub_0)\n  dup1\n  dataOffset(sub_0)\n  0x00\n  codecopy\n  0x00\n  return\nstop\n\nsub_0: assembly {\n        /* \"smart-contract/FoodSafe.sol\":194:3490  contract FoodTraceability {... */\n      mstore(0x40, 0x80)\n      callvalue\n      dup1\n      iszero\n      tag_1\n      jumpi\n      0x00\n      dup1\n      revert\n    tag_1:\n      pop\n      jumpi(tag_2, lt(calldatasize, 0x04))\n      shr(0xe0, calldataload(0x00))\n      dup1\n      0xab995d12\n      gt\n      tag_13\n      jumpi\n      dup1\n      0xab995d12\n      eq\n      tag_8\n      jumpi\n      dup1\n      0xb6edc223\n      eq\n      tag_9\n      jumpi\n      dup1\n      0xc4ce88fd\n      eq\n      tag_10\n      jumpi\n      dup1\n      0xdd8fee14\n      eq\n      tag_11\n      jumpi\n      dup1\n      0xf1648e84\n      eq\n      tag_12\n      jumpi\n      jump(tag_2)\n    tag_13:\n      dup1\n      0x565cf74f\n      eq\n      tag_3\n      jumpi\n      dup1\n      0x5d389a79\n      eq\n      tag_4\n      jumpi\n      dup1\n      0x639a7e72\n      eq\n      tag_5\n      jumpi\n      dup1\n      0x723f6099\n      eq\n      tag_6\n      jumpi\n      dup1\n      0xaa9a533f\n      eq\n      tag_7\n      jumpi\n    tag_2:\n      0x00\n      dup1\n      revert\n        /* \"smart-contract/FoodSafe.sol\":2699:2928  function triggerRecall(uint256 _lotId) public {... */\n    tag_3:\n      tag_14\n      0x04\n      dup1\n      calldatasize\n      sub\n      dup2\n      add\n      swap1\n      tag_15\n      swap2\n      swap1\n      tag_16\n      jump\t// in\n    tag_15:\n      tag_17\n      jump\t// in\n    tag_14:\n      stop\n        /* \"smart-contract/FoodSafe.sol\":1928:2141  function assignRetailer(uint256 _lotId, address _retailer) public {... */\n    tag_4:\n      tag_18\n      0x04\n      dup1\n      calldatasize\n      sub\n      dup2\n      add\n      swap1\n      tag_19\n      swap2\n      swap1\n      tag_20\n      jump\t// in\n    tag_19:\n      tag_21\n      jump\t// in\n    tag_18:\n      stop\n        /* \"smart-contract/FoodSafe.sol\":1038:1588  function registerLot(... */\n    tag_5:\n      tag_22\n      0x04\n      dup1\n      calldatasize\n      sub\n      dup2\n      add\n      swap1\n      tag_23\n      swap2\n      swap1\n      tag_24\n      jump\t// in\n    tag_23:\n      tag_25\n      jump\t// in\n    tag_22:\n      stop\n        /* \"smart-contract/FoodSafe.sol\":3174:3488  function auditAllLots() public view returns (FoodLot[] memory) {... */\n    tag_6:\n      tag_26\n      tag_27\n      jump\t// in\n    tag_26:\n      mload(0x40)\n      tag_28\n      swap2\n      swap1\n      tag_29\n      jump\t// in\n    tag_28:\n      mload(0x40)\n      dup1\n      swap2\n      sub\n      swap1\n      return\n        /* \"smart-contract/FoodSafe.sol\":1647:1869  function assignDistributor(uint256 _lotId, address _distributor) public {... */\n    tag_7:\n      tag_30\n      0x04\n      dup1\n      calldatasize\n      sub\n      dup2\n      add\n      swap1\n      tag_31\n      swap2\n      swap1\n      tag_20\n      jump\t// in\n    tag_31:\n      tag_32\n      jump\t// in\n    tag_30:\n      stop\n        /* \"smart-contract/FoodSafe.sol\":2992:3097  function getLot(uint256 _lotId) public view returns (FoodLot memory) {... */\n    tag_8:\n      tag_33\n      0x04\n      dup1\n      calldatasize\n      sub\n      dup2\n      add\n      swap1\n      tag_34\n      swap2\n      swap1\n      tag_16\n      jump\t// in\n    tag_34:\n      tag_35\n      jump\t// in\n    tag_33:\n      mload(0x40)\n      tag_36\n      swap2\n      swap1\n      tag_37\n      jump\t// in\n    tag_36:\n      mload(0x40)\n      dup1\n      swap2\n      sub\n      swap1\n      return\n        /* \"smart-contract/FoodSafe.sol\":2198:2652  function updateIPFS(uint256 _lotId, string memory _newIPFSHash, Status _newStatus) public {... */\n    tag_9:\n      tag_38\n      0x04\n      dup1\n      calldatasize\n      sub\n      dup2\n      add\n      swap1\n      tag_39\n      swap2\n      swap1\n      tag_40\n      jump\t// in\n    tag_39:\n      tag_41\n      jump\t// in\n    tag_38:\n      stop\n        /* \"smart-contract/FoodSafe.sol\":226:251  uint256 public lotCounter */\n    tag_10:\n      tag_42\n      tag_43\n      jump\t// in\n    tag_42:\n      mload(0x40)\n      tag_44\n      swap2\n      swap1\n      tag_45\n      jump\t// in\n    tag_44:\n      mload(0x40)\n      dup1\n      swap2\n      sub\n      swap1\n      return\n        /* \"smart-contract/FoodSafe.sol\":257:281  address public regulator */\n    tag_11:\n      tag_46\n      tag_47\n      jump\t// in\n    tag_46:\n      mload(0x40)\n      tag_48\n      swap2\n      swap1\n      tag_49\n      jump\t// in\n    tag_48:\n      mload(0x40)\n      dup1\n      swap2\n      sub\n      swap1\n      return\n        /* \"smart-contract/FoodSafe.sol\":626:665  mapping(uint256 => FoodLot) public lots */\n    tag_12:\n      tag_50\n      0x04\n      dup1\n      calldatasize\n      sub\n      dup2\n      add\n      swap1\n      tag_51\n      swap2\n      swap1\n      tag_16\n      jump\t// in\n    tag_51:\n      tag_52\n      jump\t// in\n    tag_50:\n      mload(0x40)\n      tag_53\n      swap9\n      swap8\n      swap7\n      swap6\n      swap5\n      swap4\n      swap3\n      swap2\n      swap1\n      tag_54\n      jump\t// in\n    tag_53:\n      mload(0x40)\n      dup1\n      swap2\n      sub\n      swap1\n      return\n        /* \"smart-contract/FoodSafe.sol\":2699:2928  function triggerRecall(uint256 _lotId) public {... */\n    tag_17:\n        /* \"smart-contract/FoodSafe.sol\":2777:2786  regulator */\n      0x01\n      0x00\n      swap1\n      sload\n      swap1\n      0x0100\n      exp\n      swap1\n      div\n      0xffffffffffffffffffffffffffffffffffffffff\n      and\n        /* \"smart-contract/FoodSafe.sol\":2763:2786  msg.sender == regulator */\n      0xffffffffffffffffffffffffffffffffffffffff\n      and\n        /* \"smart-contract/FoodSafe.sol\":2763:2773  msg.sender */\n      caller\n        /* \"smart-contract/FoodSafe.sol\":2763:2786  msg.sender == regulator */\n      0xffffffffffffffffffffffffffffffffffffffff\n      and\n      eq\n        /* \"smart-contract/FoodSafe.sol\":2755:2824  require(msg.sender == regulator, \"Only regulator can trigger recall\") */\n      tag_56\n      jumpi\n      mload(0x40)\n      0x08c379a000000000000000000000000000000000000000000000000000000000\n      dup2\n      mstore\n      0x04\n      add\n      tag_57\n      swap1\n      tag_58\n      jump\t// in\n    tag_57:\n      mload(0x40)\n      dup1\n      swap2\n      sub\n      swap1\n      revert\n    tag_56:\n        /* \"smart-contract/FoodSafe.sol\":2856:2871  Status.Recalled */\n      0x03\n        /* \"smart-contract/FoodSafe.sol\":2834:2838  lots */\n      0x02\n        /* \"smart-contract/FoodSafe.sol\":2834:2846  lots[_lotId] */\n      0x00\n        /* \"smart-contract/FoodSafe.sol\":2839:2845  _lotId */\n      dup4\n        /* \"smart-contract/FoodSafe.sol\":2834:2846  lots[_lotId] */\n      dup2\n      mstore\n      0x20\n      add\n      swap1\n      dup2\n      mstore\n      0x20\n      add\n      0x00\n      keccak256\n        /* \"smart-contract/FoodSafe.sol\":2834:2853  lots[_lotId].status */\n      0x06\n      add\n      0x14\n        /* \"smart-contract/FoodSafe.sol\":2834:2871  lots[_lotId].status = Status.Recalled */\n      0x0100\n      exp\n      dup2\n      sload\n      dup2\n      0xff\n      mul\n      not\n      and\n      swap1\n      dup4\n      0x03\n      dup2\n      gt\n      iszero\n      tag_59\n      jumpi\n      tag_60\n      tag_61\n      jump\t// in\n    tag_60:\n    tag_59:\n      mul\n      or\n      swap1\n      sstore\n      pop\n        /* \"smart-contract/FoodSafe.sol\":2910:2920  msg.sender */\n      caller\n        /* \"smart-contract/FoodSafe.sol\":2886:2921  RecallTriggered(_lotId, msg.sender) */\n      0xffffffffffffffffffffffffffffffffffffffff\n      and\n      0xc53450680fdf7b1f64c355b901fca40d9789d173e94eb330bc8b551164b46521\n        /* \"smart-contract/FoodSafe.sol\":2902:2908  _lotId */\n      dup3\n        /* \"smart-contract/FoodSafe.sol\":2886:2921  RecallTriggered(_lotId, msg.sender) */\n      mload(0x40)\n      tag_62\n      swap2\n      swap1\n      tag_45\n      jump\t// in\n    tag_62:\n      mload(0x40)\n      dup1\n      swap2\n      sub\n      swap1\n      log2\n        /* \"smart-contract/FoodSafe.sol\":2699:2928  function triggerRecall(uint256 _lotId) public {... */\n      pop\n      jump\t// out\n        /* \"smart-contract/FoodSafe.sol\":1928:2141  function assignRetailer(uint256 _lotId, address _retailer) public {... */\n    tag_21:\n        /* \"smart-contract/FoodSafe.sol\":2026:2030  lots */\n      0x02\n        /* \"smart-contract/FoodSafe.sol\":2026:2038  lots[_lotId] */\n      0x00\n        /* \"smart-contract/FoodSafe.sol\":2031:2037  _lotId */\n      dup4\n        /* \"smart-contract/FoodSafe.sol\":2026:2038  lots[_lotId] */\n      dup2\n      mstore\n      0x20\n      add\n      swap1\n      dup2\n      mstore\n      0x20\n      add\n      0x00\n      keccak256\n        /* \"smart-contract/FoodSafe.sol\":2026:2050  lots[_lotId].distributor */\n      0x05\n      add\n      0x00\n      swap1\n      sload\n      swap1\n      0x0100\n      exp\n      swap1\n      div\n      0xffffffffffffffffffffffffffffffffffffffff\n      and\n        /* \"smart-contract/FoodSafe.sol\":2012:2050  msg.sender == lots[_lotId].distributor */\n      0xffffffffffffffffffffffffffffffffffffffff\n      and\n        /* \"smart-contract/FoodSafe.sol\":2012:2022  msg.sender */\n      caller\n        /* \"smart-contract/FoodSafe.sol\":2012:2050  msg.sender == lots[_lotId].distributor */\n      0xffffffffffffffffffffffffffffffffffffffff\n      and\n      eq\n        /* \"smart-contract/FoodSafe.sol\":2004:2091  require(msg.sender == lots[_lotId].distributor, \"Only distributor can assign retailer\") */\n      tag_64\n      jumpi\n      mload(0x40)\n      0x08c379a000000000000000000000000000000000000000000000000000000000\n      dup2\n      mstore\n      0x04\n      add\n      tag_65\n      swap1\n      tag_66\n      jump\t// in\n    tag_65:\n      mload(0x40)\n      dup1\n      swap2\n      sub\n      swap1\n      revert\n    tag_64:\n        /* \"smart-contract/FoodSafe.sol\":2125:2134  _retailer */\n      dup1\n        /* \"smart-contract/FoodSafe.sol\":2101:2105  lots */\n      0x02\n        /* \"smart-contract/FoodSafe.sol\":2101:2113  lots[_lotId] */\n      0x00\n        /* \"smart-contract/FoodSafe.sol\":2106:2112  _lotId */\n      dup5\n        /* \"smart-contract/FoodSafe.sol\":2101:2113  lots[_lotId] */\n      dup2\n      mstore\n      0x20\n      add\n      swap1\n      dup2\n      mstore\n      0x20\n      add\n      0x00\n      keccak256\n        /* \"smart-contract/FoodSafe.sol\":2101:2122  lots[_lotId].retailer */\n      0x06\n      add\n      0x00\n        /* \"smart-contract/FoodSafe.sol\":2101:2134  lots[_lotId].retailer = _retailer */\n      0x0100\n      exp\n      dup2\n      sload\n      dup2\n      0xffffffffffffffffffffffffffffffffffffffff\n      mul\n      not\n      and\n      swap1\n      dup4\n      0xffffffffffffffffffffffffffffffffffffffff\n      and\n      mul\n      or\n      swap1\n      sstore\n      pop\n        /* \"smart-contract/FoodSafe.sol\":1928:2141  function assignRetailer(uint256 _lotId, address _retailer) public {... */\n      pop\n      pop\n      jump\t// out\n        /* \"smart-contract/FoodSafe.sol\":1038:1588  function registerLot(... */\n    tag_25:\n        /* \"smart-contract/FoodSafe.sol\":1182:1192  lotCounter */\n      0x00\n      dup1\n        /* \"smart-contract/FoodSafe.sol\":1182:1194  lotCounter++ */\n      dup2\n      sload\n      dup1\n      swap3\n      swap2\n      swap1\n      tag_68\n      swap1\n      tag_69\n      jump\t// in\n    tag_68:\n      swap2\n      swap1\n      pop\n      sstore\n      pop\n        /* \"smart-contract/FoodSafe.sol\":1223:1515  FoodLot({... */\n      mload(0x40)\n      dup1\n      0x0100\n      add\n      0x40\n      mstore\n      dup1\n        /* \"smart-contract/FoodSafe.sol\":1252:1262  lotCounter */\n      sload(0x00)\n        /* \"smart-contract/FoodSafe.sol\":1223:1515  FoodLot({... */\n      dup2\n      mstore\n      0x20\n      add\n        /* \"smart-contract/FoodSafe.sol\":1289:1301  _productName */\n      dup5\n        /* \"smart-contract/FoodSafe.sol\":1223:1515  FoodLot({... */\n      dup2\n      mstore\n      0x20\n      add\n        /* \"smart-contract/FoodSafe.sol\":1323:1330  _origin */\n      dup4\n        /* \"smart-contract/FoodSafe.sol\":1223:1515  FoodLot({... */\n      dup2\n      mstore\n      0x20\n      add\n        /* \"smart-contract/FoodSafe.sol\":1354:1363  _ipfsHash */\n      dup3\n        /* \"smart-contract/FoodSafe.sol\":1223:1515  FoodLot({... */\n      dup2\n      mstore\n      0x20\n      add\n        /* \"smart-contract/FoodSafe.sol\":1387:1397  msg.sender */\n      caller\n        /* \"smart-contract/FoodSafe.sol\":1223:1515  FoodLot({... */\n      0xffffffffffffffffffffffffffffffffffffffff\n      and\n      dup2\n      mstore\n      0x20\n      add\n        /* \"smart-contract/FoodSafe.sol\":1432:1433  0 */\n      0x00\n        /* \"smart-contract/FoodSafe.sol\":1223:1515  FoodLot({... */\n      0xffffffffffffffffffffffffffffffffffffffff\n      and\n      dup2\n      mstore\n      0x20\n      add\n        /* \"smart-contract/FoodSafe.sol\":1466:1467  0 */\n      0x00\n        /* \"smart-contract/FoodSafe.sol\":1223:1515  FoodLot({... */\n      0xffffffffffffffffffffffffffffffffffffffff\n      and\n      dup2\n      mstore\n      0x20\n      add\n        /* \"smart-contract/FoodSafe.sol\":1490:1504  Status.Created */\n      0x00\n        /* \"smart-contract/FoodSafe.sol\":1223:1515  FoodLot({... */\n      0x03\n      dup2\n      gt\n      iszero\n      tag_70\n      jumpi\n      tag_71\n      tag_61\n      jump\t// in\n    tag_71:\n    tag_70:\n      dup2\n      mstore\n      pop\n        /* \"smart-contract/FoodSafe.sol\":1204:1208  lots */\n      0x02\n        /* \"smart-contract/FoodSafe.sol\":1204:1220  lots[lotCounter] */\n      0x00\n        /* \"smart-contract/FoodSafe.sol\":1209:1219  lotCounter */\n      dup1\n      sload\n        /* \"smart-contract/FoodSafe.sol\":1204:1220  lots[lotCounter] */\n      dup2\n      mstore\n      0x20\n      add\n      swap1\n      dup2\n      mstore\n      0x20\n      add\n      0x00\n      keccak256\n        /* \"smart-contract/FoodSafe.sol\":1204:1515  lots[lotCounter] = FoodLot({... */\n      0x00\n      dup3\n      add\n      mload\n      dup2\n      0x00\n      add\n      sstore\n      0x20\n      dup3\n      add\n      mload\n      dup2\n      0x01\n      add\n      swap1\n      dup2\n      tag_72\n      swap2\n      swap1\n      tag_73\n      jump\t// in\n    tag_72:\n      pop\n      0x40\n      dup3\n      add\n      mload\n      dup2\n      0x02\n      add\n      swap1\n      dup2\n      tag_74\n      swap2\n      swap1\n      tag_73\n      jump\t// in\n    tag_74:\n      pop\n      0x60\n      dup3\n      add\n      mload\n      dup2\n      0x03\n      add\n      swap1\n      dup2\n      tag_75\n      swap2\n      swap1\n      tag_73\n      jump\t// in\n    tag_75:\n      pop\n      0x80\n      dup3\n      add\n      mload\n      dup2\n      0x04\n      add\n      exp(0x0100, 0x00)\n      dup2\n      sload\n      dup2\n      0xffffffffffffffffffffffffffffffffffffffff\n      mul\n      not\n      and\n      swap1\n      dup4\n      0xffffffffffffffffffffffffffffffffffffffff\n      and\n      mul\n      or\n      swap1\n      sstore\n      pop\n      0xa0\n      dup3\n      add\n      mload\n      dup2\n      0x05\n      add\n      exp(0x0100, 0x00)\n      dup2\n      sload\n      dup2\n      0xffffffffffffffffffffffffffffffffffffffff\n      mul\n      not\n      and\n      swap1\n      dup4\n      0xffffffffffffffffffffffffffffffffffffffff\n      and\n      mul\n      or\n      swap1\n      sstore\n      pop\n      0xc0\n      dup3\n      add\n      mload\n      dup2\n      0x06\n      add\n      exp(0x0100, 0x00)\n      dup2\n      sload\n      dup2\n      0xffffffffffffffffffffffffffffffffffffffff\n      mul\n      not\n      and\n      swap1\n      dup4\n      0xffffffffffffffffffffffffffffffffffffffff\n      and\n      mul\n      or\n      swap1\n      sstore\n      pop\n      0xe0\n      dup3\n      add\n      mload\n      dup2\n      0x06\n      add\n      exp(0x0100, 0x14)\n      dup2\n      sload\n      dup2\n      0xff\n      mul\n      not\n      and\n      swap1\n      dup4\n      0x03\n      dup2\n      gt\n      iszero\n      tag_76\n      jumpi\n      tag_77\n      tag_61\n      jump\t// in\n    tag_77:\n    tag_76:\n      mul\n      or\n      swap1\n      sstore\n      pop\n      swap1\n      pop\n      pop\n        /* \"smart-contract/FoodSafe.sol\":1570:1580  msg.sender */\n      caller\n        /* \"smart-contract/FoodSafe.sol\":1530:1581  LotRegistered(lotCounter, _productName, msg.sender) */\n      0xffffffffffffffffffffffffffffffffffffffff\n      and\n      0x1f3973f79dfaf5b2c872bd5bba8e6574e26d275dfca176912ac524fccbac4ee3\n        /* \"smart-contract/FoodSafe.sol\":1544:1554  lotCounter */\n      sload(0x00)\n        /* \"smart-contract/FoodSafe.sol\":1556:1568  _productName */\n      dup6\n        /* \"smart-contract/FoodSafe.sol\":1530:1581  LotRegistered(lotCounter, _productName, msg.sender) */\n      mload(0x40)\n      tag_78\n      swap3\n      swap2\n      swap1\n      tag_79\n      jump\t// in\n    tag_78:\n      mload(0x40)\n      dup1\n      swap2\n      sub\n      swap1\n      log2\n        /* \"smart-contract/FoodSafe.sol\":1038:1588  function registerLot(... */\n      pop\n      pop\n      pop\n      jump\t// out\n        /* \"smart-contract/FoodSafe.sol\":3174:3488  function auditAllLots() public view returns (FoodLot[] memory) {... */\n    tag_27:\n        /* \"smart-contract/FoodSafe.sol\":3219:3235  FoodLot[] memory */\n      0x60\n        /* \"smart-contract/FoodSafe.sol\":3269:3278  regulator */\n      0x01\n      0x00\n      swap1\n      sload\n      swap1\n      0x0100\n      exp\n      swap1\n      div\n      0xffffffffffffffffffffffffffffffffffffffff\n      and\n        /* \"smart-contract/FoodSafe.sol\":3255:3278  msg.sender == regulator */\n      0xffffffffffffffffffffffffffffffffffffffff\n      and\n        /* \"smart-contract/FoodSafe.sol\":3255:3265  msg.sender */\n      caller\n        /* \"smart-contract/FoodSafe.sol\":3255:3278  msg.sender == regulator */\n      0xffffffffffffffffffffffffffffffffffffffff\n      and\n      eq\n        /* \"smart-contract/FoodSafe.sol\":3247:3307  require(msg.sender == regulator, \"Only regulator can audit\") */\n      tag_81\n      jumpi\n      mload(0x40)\n      0x08c379a000000000000000000000000000000000000000000000000000000000\n      dup2\n      mstore\n      0x04\n      add\n      tag_82\n      swap1\n      tag_83\n      jump\t// in\n    tag_82:\n      mload(0x40)\n      dup1\n      swap2\n      sub\n      swap1\n      revert\n    tag_81:\n        /* \"smart-contract/FoodSafe.sol\":3317:3337  FoodLot[] memory all */\n      0x00\n        /* \"smart-contract/FoodSafe.sol\":3354:3364  lotCounter */\n      dup1\n      sload\n        /* \"smart-contract/FoodSafe.sol\":3340:3365  new FoodLot[](lotCounter) */\n      0xffffffffffffffff\n      dup2\n      gt\n      iszero\n      tag_84\n      jumpi\n      tag_85\n      tag_86\n      jump\t// in\n    tag_85:\n    tag_84:\n      mload(0x40)\n      swap1\n      dup1\n      dup3\n      mstore\n      dup1\n      0x20\n      mul\n      0x20\n      add\n      dup3\n      add\n      0x40\n      mstore\n      dup1\n      iszero\n      tag_87\n      jumpi\n      dup2\n      0x20\n      add\n    tag_88:\n      tag_89\n      tag_90\n      jump\t// in\n    tag_89:\n      dup2\n      mstore\n      0x20\n      add\n      swap1\n      0x01\n      swap1\n      sub\n      swap1\n      dup2\n      tag_88\n      jumpi\n      swap1\n      pop\n    tag_87:\n      pop\n        /* \"smart-contract/FoodSafe.sol\":3317:3365  FoodLot[] memory all = new FoodLot[](lotCounter) */\n      swap1\n      pop\n        /* \"smart-contract/FoodSafe.sol\":3380:3389  uint256 i */\n      0x00\n        /* \"smart-contract/FoodSafe.sol\":3392:3393  1 */\n      0x01\n        /* \"smart-contract/FoodSafe.sol\":3380:3393  uint256 i = 1 */\n      swap1\n      pop\n        /* \"smart-contract/FoodSafe.sol\":3375:3462  for (uint256 i = 1; i <= lotCounter; i++) {... */\n    tag_91:\n        /* \"smart-contract/FoodSafe.sol\":3400:3410  lotCounter */\n      sload(0x00)\n        /* \"smart-contract/FoodSafe.sol\":3395:3396  i */\n      dup2\n        /* \"smart-contract/FoodSafe.sol\":3395:3410  i <= lotCounter */\n      gt\n        /* \"smart-contract/FoodSafe.sol\":3375:3462  for (uint256 i = 1; i <= lotCounter; i++) {... */\n      tag_92\n      jumpi\n        /* \"smart-contract/FoodSafe.sol\":3444:3448  lots */\n      0x02\n        /* \"smart-contract/FoodSafe.sol\":3444:3451  lots[i] */\n      0x00\n        /* \"smart-contract/FoodSafe.sol\":3449:3450  i */\n      dup3\n        /* \"smart-contract/FoodSafe.sol\":3444:3451  lots[i] */\n      dup2\n      mstore\n      0x20\n      add\n      swap1\n      dup2\n      mstore\n      0x20\n      add\n      0x00\n      keccak256\n        /* \"smart-contract/FoodSafe.sol\":3431:3451  all[i - 1] = lots[i] */\n      mload(0x40)\n      dup1\n      0x0100\n      add\n      0x40\n      mstore\n      swap1\n      dup2\n      0x00\n      dup3\n      add\n      sload\n      dup2\n      mstore\n      0x20\n      add\n      0x01\n      dup3\n      add\n      dup1\n      sload\n      tag_94\n      swap1\n      tag_95\n      jump\t// in\n    tag_94:\n      dup1\n      0x1f\n      add\n      0x20\n      dup1\n      swap2\n      div\n      mul\n      0x20\n      add\n      mload(0x40)\n      swap1\n      dup2\n      add\n      0x40\n      mstore\n      dup1\n      swap3\n      swap2\n      swap1\n      dup2\n      dup2\n      mstore\n      0x20\n      add\n      dup3\n      dup1\n      sload\n      tag_96\n      swap1\n      tag_95\n      jump\t// in\n    tag_96:\n      dup1\n      iszero\n      tag_97\n      jumpi\n      dup1\n      0x1f\n      lt\n      tag_98\n      jumpi\n      0x0100\n      dup1\n      dup4\n      sload\n      div\n      mul\n      dup4\n      mstore\n      swap2\n      0x20\n      add\n      swap2\n      jump(tag_97)\n    tag_98:\n      dup3\n      add\n      swap2\n      swap1\n      0x00\n      mstore\n      keccak256(0x00, 0x20)\n      swap1\n    tag_99:\n      dup2\n      sload\n      dup2\n      mstore\n      swap1\n      0x01\n      add\n      swap1\n      0x20\n      add\n      dup1\n      dup4\n      gt\n      tag_99\n      jumpi\n      dup3\n      swap1\n      sub\n      0x1f\n      and\n      dup3\n      add\n      swap2\n    tag_97:\n      pop\n      pop\n      pop\n      pop\n      pop\n      dup2\n      mstore\n      0x20\n      add\n      0x02\n      dup3\n      add\n      dup1\n      sload\n      tag_100\n      swap1\n      tag_95\n      jump\t// in\n    tag_100:\n      dup1\n      0x1f\n      add\n      0x20\n      dup1\n      swap2\n      div\n      mul\n      0x20\n      add\n      mload(0x40)\n      swap1\n      dup2\n      add\n      0x40\n      mstore\n      dup1\n      swap3\n      swap2\n      swap1\n      dup2\n      dup2\n      mstore\n      0x20\n      add\n      dup3\n      dup1\n      sload\n      tag_101\n      swap1\n      tag_95\n      jump\t// in\n    tag_101:\n      dup1\n      iszero\n      tag_102\n      jumpi\n      dup1\n      0x1f\n      lt\n      tag_103\n      jumpi\n      0x0100\n      dup1\n      dup4\n      sload\n      div\n      mul\n      dup4\n      mstore\n      swap2\n      0x20\n      add\n      swap2\n      jump(tag_102)\n    tag_103:\n      dup3\n      add\n      swap2\n      swap1\n      0x00\n      mstore\n      keccak256(0x00, 0x20)\n      swap1\n    tag_104:\n      dup2\n      sload\n      dup2\n      mstore\n      swap1\n      0x01\n      add\n      swap1\n      0x20\n      add\n      dup1\n      dup4\n      gt\n      tag_104\n      jumpi\n      dup3\n      swap1\n      sub\n      0x1f\n      and\n      dup3\n      add\n      swap2\n    tag_102:\n      pop\n      pop\n      pop\n      pop\n      pop\n      dup2\n      mstore\n      0x20\n      add\n      0x03\n      dup3\n      add\n      dup1\n      sload\n      tag_105\n      swap1\n      tag_95\n      jump\t// in\n    tag_105:\n      dup1\n      0x1f\n      add\n      0x20\n      dup1\n      swap2\n      div\n      mul\n      0x20\n      add\n      mload(0x40)\n      swap1\n      dup2\n      add\n      0x40\n      mstore\n      dup1\n      swap3\n      swap2\n      swap1\n      dup2\n      dup2\n      mstore\n      0x20\n      add\n      dup3\n      dup1\n      sload\n      tag_106\n      swap1\n      tag_95\n      jump\t// in\n    tag_106:\n      dup1\n      iszero\n      tag_107\n      jumpi\n      dup1\n      0x1f\n      lt\n      tag_108\n      jumpi\n      0x0100\n      dup1\n      dup4\n      sload\n      div\n      mul\n      dup4\n      mstore\n      swap2\n      0x20\n      add\n      swap2\n      jump(tag_107)\n    tag_108:\n      dup3\n      add\n      swap2\n      swap1\n      0x00\n      mstore\n      keccak256(0x00, 0x20)\n      swap1\n    tag_109:\n      dup2\n      sload\n      dup2\n      mstore\n      swap1\n      0x01\n      add\n      swap1\n      0x20\n      add\n      dup1\n      dup4\n      gt\n      tag_109\n      jumpi\n      dup3\n      swap1\n      sub\n      0x1f\n      and\n      dup3\n      add\n      swap2\n    tag_107:\n      pop\n      pop\n      pop\n      pop\n      pop\n      dup2\n      mstore\n      0x20\n      add\n      0x04\n      dup3\n      add\n      0x00\n      swap1\n      sload\n      swap1\n      0x0100\n      exp\n      swap1\n      div\n      0xffffffffffffffffffffffffffffffffffffffff\n      and\n      0xffffffffffffffffffffffffffffffffffffffff\n      and\n      0xffffffffffffffffffffffffffffffffffffffff\n      and\n      dup2\n      mstore\n      0x20\n      add\n      0x05\n      dup3\n      add\n      0x00\n      swap1\n      sload\n      swap1\n      0x0100\n      exp\n      swap1\n      div\n      0xffffffffffffffffffffffffffffffffffffffff\n      and\n      0xffffffffffffffffffffffffffffffffffffffff\n      and\n      0xffffffffffffffffffffffffffffffffffffffff\n      and\n      dup2\n      mstore\n      0x20\n      add\n      0x06\n      dup3\n      add\n      0x00\n      swap1\n      sload\n      swap1\n      0x0100\n      exp\n      swap1\n      div\n      0xffffffffffffffffffffffffffffffffffffffff\n      and\n      0xffffffffffffffffffffffffffffffffffffffff\n      and\n      0xffffffffffffffffffffffffffffffffffffffff\n      and\n      dup2\n      mstore\n      0x20\n      add\n      0x06\n      dup3\n      add\n      0x14\n      swap1\n      sload\n      swap1\n      0x0100\n      exp\n      swap1\n      div\n      0xff\n      and\n      0x03\n      dup2\n      gt\n      iszero\n      tag_110\n      jumpi\n      tag_111\n      tag_61\n      jump\t// in\n    tag_111:\n    tag_110:\n      0x03\n      dup2\n      gt\n      iszero\n      tag_112\n      jumpi\n      tag_113\n      tag_61\n      jump\t// in\n    tag_113:\n    tag_112:\n      dup2\n      mstore\n      pop\n      pop\n        /* \"smart-contract/FoodSafe.sol\":3431:3434  all */\n      dup3\n        /* \"smart-contract/FoodSafe.sol\":3439:3440  1 */\n      0x01\n        /* \"smart-contract/FoodSafe.sol\":3435:3436  i */\n      dup4\n        /* \"smart-contract/FoodSafe.sol\":3435:3440  i - 1 */\n      tag_114\n      swap2\n      swap1\n      tag_115\n      jump\t// in\n    tag_114:\n        /* \"smart-contract/FoodSafe.sol\":3431:3441  all[i - 1] */\n      dup2\n      mload\n      dup2\n      lt\n      tag_116\n      jumpi\n      tag_117\n      tag_118\n      jump\t// in\n    tag_117:\n    tag_116:\n      0x20\n      mul\n      0x20\n      add\n      add\n        /* \"smart-contract/FoodSafe.sol\":3431:3451  all[i - 1] = lots[i] */\n      dup2\n      swap1\n      mstore\n      pop\n        /* \"smart-contract/FoodSafe.sol\":3412:3415  i++ */\n      dup1\n      dup1\n      tag_119\n      swap1\n      tag_69\n      jump\t// in\n    tag_119:\n      swap2\n      pop\n      pop\n        /* \"smart-contract/FoodSafe.sol\":3375:3462  for (uint256 i = 1; i <= lotCounter; i++) {... */\n      jump(tag_91)\n    tag_92:\n      pop\n        /* \"smart-contract/FoodSafe.sol\":3478:3481  all */\n      dup1\n        /* \"smart-contract/FoodSafe.sol\":3471:3481  return all */\n      swap2\n      pop\n      pop\n        /* \"smart-contract/FoodSafe.sol\":3174:3488  function auditAllLots() public view returns (FoodLot[] memory) {... */\n      swap1\n      jump\t// out\n        /* \"smart-contract/FoodSafe.sol\":1647:1869  function assignDistributor(uint256 _lotId, address _distributor) public {... */\n    tag_32:\n        /* \"smart-contract/FoodSafe.sol\":1751:1755  lots */\n      0x02\n        /* \"smart-contract/FoodSafe.sol\":1751:1763  lots[_lotId] */\n      0x00\n        /* \"smart-contract/FoodSafe.sol\":1756:1762  _lotId */\n      dup4\n        /* \"smart-contract/FoodSafe.sol\":1751:1763  lots[_lotId] */\n      dup2\n      mstore\n      0x20\n      add\n      swap1\n      dup2\n      mstore\n      0x20\n      add\n      0x00\n      keccak256\n        /* \"smart-contract/FoodSafe.sol\":1751:1772  lots[_lotId].producer */\n      0x04\n      add\n      0x00\n      swap1\n      sload\n      swap1\n      0x0100\n      exp\n      swap1\n      div\n      0xffffffffffffffffffffffffffffffffffffffff\n      and\n        /* \"smart-contract/FoodSafe.sol\":1737:1772  msg.sender == lots[_lotId].producer */\n      0xffffffffffffffffffffffffffffffffffffffff\n      and\n        /* \"smart-contract/FoodSafe.sol\":1737:1747  msg.sender */\n      caller\n        /* \"smart-contract/FoodSafe.sol\":1737:1772  msg.sender == lots[_lotId].producer */\n      0xffffffffffffffffffffffffffffffffffffffff\n      and\n      eq\n        /* \"smart-contract/FoodSafe.sol\":1729:1813  require(msg.sender == lots[_lotId].producer, \"Only producer can assign distributor\") */\n      tag_121\n      jumpi\n      mload(0x40)\n      0x08c379a000000000000000000000000000000000000000000000000000000000\n      dup2\n      mstore\n      0x04\n      add\n      tag_122\n      swap1\n      tag_123\n      jump\t// in\n    tag_122:\n      mload(0x40)\n      dup1\n      swap2\n      sub\n      swap1\n      revert\n    tag_121:\n        /* \"smart-contract/FoodSafe.sol\":1850:1862  _distributor */\n      dup1\n        /* \"smart-contract/FoodSafe.sol\":1823:1827  lots */\n      0x02\n        /* \"smart-contract/FoodSafe.sol\":1823:1835  lots[_lotId] */\n      0x00\n        /* \"smart-contract/FoodSafe.sol\":1828:1834  _lotId */\n      dup5\n        /* \"smart-contract/FoodSafe.sol\":1823:1835  lots[_lotId] */\n      dup2\n      mstore\n      0x20\n      add\n      swap1\n      dup2\n      mstore\n      0x20\n      add\n      0x00\n      keccak256\n        /* \"smart-contract/FoodSafe.sol\":1823:1847  lots[_lotId].distributor */\n      0x05\n      add\n      0x00\n        /* \"smart-contract/FoodSafe.sol\":1823:1862  lots[_lotId].distributor = _distributor */\n      0x0100\n      exp\n      dup2\n      sload\n      dup2\n      0xffffffffffffffffffffffffffffffffffffffff\n      mul\n      not\n      and\n      swap1\n      dup4\n      0xffffffffffffffffffffffffffffffffffffffff\n      and\n      mul\n      or\n      swap1\n      sstore\n      pop\n        /* \"smart-contract/FoodSafe.sol\":1647:1869  function assignDistributor(uint256 _lotId, address _distributor) public {... */\n      pop\n      pop\n      jump\t// out\n        /* \"smart-contract/FoodSafe.sol\":2992:3097  function getLot(uint256 _lotId) public view returns (FoodLot memory) {... */\n    tag_35:\n        /* \"smart-contract/FoodSafe.sol\":3045:3059  FoodLot memory */\n      tag_124\n      tag_90\n      jump\t// in\n    tag_124:\n        /* \"smart-contract/FoodSafe.sol\":3078:3082  lots */\n      0x02\n        /* \"smart-contract/FoodSafe.sol\":3078:3090  lots[_lotId] */\n      0x00\n        /* \"smart-contract/FoodSafe.sol\":3083:3089  _lotId */\n      dup4\n        /* \"smart-contract/FoodSafe.sol\":3078:3090  lots[_lotId] */\n      dup2\n      mstore\n      0x20\n      add\n      swap1\n      dup2\n      mstore\n      0x20\n      add\n      0x00\n      keccak256\n        /* \"smart-contract/FoodSafe.sol\":3071:3090  return lots[_lotId] */\n      mload(0x40)\n      dup1\n      0x0100\n      add\n      0x40\n      mstore\n      swap1\n      dup2\n      0x00\n      dup3\n      add\n      sload\n      dup2\n      mstore\n      0x20\n      add\n      0x01\n      dup3\n      add\n      dup1\n      sload\n      tag_126\n      swap1\n      tag_95\n      jump\t// in\n    tag_126:\n      dup1\n      0x1f\n      add\n      0x20\n      dup1\n      swap2\n      div\n      mul\n      0x20\n      add\n      mload(0x40)\n      swap1\n      dup2\n      add\n      0x40\n      mstore\n      dup1\n      swap3\n      swap2\n      swap1\n      dup2\n      dup2\n      mstore\n      0x20\n      add\n      dup3\n      dup1\n      sload\n      tag_127\n      swap1\n      tag_95\n      jump\t// in\n    tag_127:\n      dup1\n      iszero\n      tag_128\n      jumpi\n      dup1\n      0x1f\n      lt\n      tag_129\n      jumpi\n      0x0100\n      dup1\n      dup4\n      sload\n      div\n      mul\n      dup4\n      mstore\n      swap2\n      0x20\n      add\n      swap2\n      jump(tag_128)\n    tag_129:\n      dup3\n      add\n      swap2\n      swap1\n      0x00\n      mstore\n      keccak256(0x00, 0x20)\n      swap1\n    tag_130:\n      dup2\n      sload\n      dup2\n      mstore\n      swap1\n      0x01\n      add\n      swap1\n      0x20\n      add\n      dup1\n      dup4\n      gt\n      tag_130\n      jumpi\n      dup3\n      swap1\n      sub\n      0x1f\n      and\n      dup3\n      add\n      swap2\n    tag_128:\n      pop\n      pop\n      pop\n      pop\n      pop\n      dup2\n      mstore\n      0x20\n      add\n      0x02\n      dup3\n      add\n      dup1\n      sload\n      tag_131\n      swap1\n      tag_95\n      jump\t// in\n    tag_131:\n      dup1\n      0x1f\n      add\n      0x20\n      dup1\n      swap2\n      div\n      mul\n      0x20\n      add\n      mload(0x40)\n      swap1\n      dup2\n      add\n      0x40\n      mstore\n      dup1\n      swap3\n      swap2\n      swap1\n      dup2\n      dup2\n      mstore\n      0x20\n      add\n      dup3\n      dup1\n      sload\n      tag_132\n      swap1\n      tag_95\n      jump\t// in\n    tag_132:\n      dup1\n      iszero\n      tag_133\n      jumpi\n      dup1\n      0x1f\n      lt\n      tag_134\n      jumpi\n      0x0100\n      dup1\n      dup4\n      sload\n      div\n      mul\n      dup4\n      mstore\n      swap2\n      0x20\n      add\n      swap2\n      jump(tag_133)\n    tag_134:\n      dup3\n      add\n      swap2\n      swap1\n      0x00\n      mstore\n      keccak256(0x00, 0x20)\n      swap1\n    tag_135:\n      dup2\n      sload\n      dup2\n      mstore\n      swap1\n      0x01\n      add\n      swap1\n      0x20\n      add\n      dup1\n      dup4\n      gt\n      tag_135\n      jumpi\n      dup3\n      swap1\n      sub\n      0x1f\n      and\n      dup3\n      add\n      swap2\n    tag_133:\n      pop\n      pop\n      pop\n      pop\n      pop\n      dup2\n      mstore\n      0x20\n      add\n      0x03\n      dup3\n      add\n      dup1\n      sload\n      tag_136\n      swap1\n      tag_95\n      jump\t// in\n    tag_136:\n      dup1\n      0x1f\n      add\n      0x20\n      dup1\n      swap2\n      div\n      mul\n      0x20\n      add\n      mload(0x40)\n      swap1\n      dup2\n      add\n      0x40\n      mstore\n      dup1\n      swap3\n      swap2\n      swap1\n      dup2\n      dup2\n      mstore\n      0x20\n      add\n      dup3\n      dup1\n      sload\n      tag_137\n      swap1\n      tag_95\n      jump\t// in\n    tag_137:\n      dup1\n      iszero\n      tag_138\n      jumpi\n      dup1\n      0x1f\n      lt\n      tag_139\n      jumpi\n      0x0100\n      dup1\n      dup4\n      sload\n      div\n      mul\n      dup4\n      mstore\n      swap2\n      0x20\n      add\n      swap2\n      jump(tag_138)\n    tag_139:\n      dup3\n      add\n      swap2\n      swap1\n      0x00\n      mstore\n      keccak256(0x00, 0x20)\n      swap1\n    tag_140:\n      dup2\n      sload\n      dup2\n      mstore\n      swap1\n      0x01\n      add\n      swap1\n      0x20\n      add\n      dup1\n      dup4\n      gt\n      tag_140\n      jumpi\n      dup3\n      swap1\n      sub\n      0x1f\n      and\n      dup3\n      add\n      swap2\n    tag_138:\n      pop\n      pop\n      pop\n      pop\n      pop\n      dup2\n      mstore\n      0x20\n      add\n      0x04\n      dup3\n      add\n      0x00\n      swap1\n      sload\n      swap1\n      0x0100\n      exp\n      swap1\n      div\n      0xffffffffffffffffffffffffffffffffffffffff\n      and\n      0xffffffffffffffffffffffffffffffffffffffff\n      and\n      0xffffffffffffffffffffffffffffffffffffffff\n      and\n      dup2\n      mstore\n      0x20\n      add\n      0x05\n      dup3\n      add\n      0x00\n      swap1\n      sload\n      swap1\n      0x0100\n      exp\n      swap1\n      div\n      0xffffffffffffffffffffffffffffffffffffffff\n      and\n      0xffffffffffffffffffffffffffffffffffffffff\n      and\n      0xffffffffffffffffffffffffffffffffffffffff\n      and\n      dup2\n      mstore\n      0x20\n      add\n      0x06\n      dup3\n      add\n      0x00\n      swap1\n      sload\n      swap1\n      0x0100\n      exp\n      swap1\n      div\n      0xffffffffffffffffffffffffffffffffffffffff\n      and\n      0xffffffffffffffffffffffffffffffffffffffff\n      and\n      0xffffffffffffffffffffffffffffffffffffffff\n      and\n      dup2\n      mstore\n      0x20\n      add\n      0x06\n      dup3\n      add\n      0x14\n      swap1\n      sload\n      swap1\n      0x0100\n      exp\n      swap1\n      div\n      0xff\n      and\n      0x03\n      dup2\n      gt\n      iszero\n      tag_141\n      jumpi\n      tag_142\n      tag_61\n      jump\t// in\n    tag_142:\n    tag_141:\n      0x03\n      dup2\n      gt\n      iszero\n      tag_143\n      jumpi\n      tag_144\n      tag_61\n      jump\t// in\n    tag_144:\n    tag_143:\n      dup2\n      mstore\n      pop\n      pop\n      swap1\n      pop\n        /* \"smart-contract/FoodSafe.sol\":2992:3097  function getLot(uint256 _lotId) public view returns (FoodLot memory) {... */\n      swap2\n      swap1\n      pop\n      jump\t// out\n        /* \"smart-contract/FoodSafe.sol\":2198:2652  function updateIPFS(uint256 _lotId, string memory _newIPFSHash, Status _newStatus) public {... */\n    tag_41:\n        /* \"smart-contract/FoodSafe.sol\":2333:2337  lots */\n      0x02\n        /* \"smart-contract/FoodSafe.sol\":2333:2345  lots[_lotId] */\n      0x00\n        /* \"smart-contract/FoodSafe.sol\":2338:2344  _lotId */\n      dup5\n        /* \"smart-contract/FoodSafe.sol\":2333:2345  lots[_lotId] */\n      dup2\n      mstore\n      0x20\n      add\n      swap1\n      dup2\n      mstore\n      0x20\n      add\n      0x00\n      keccak256\n        /* \"smart-contract/FoodSafe.sol\":2333:2354  lots[_lotId].producer */\n      0x04\n      add\n      0x00\n      swap1\n      sload\n      swap1\n      0x0100\n      exp\n      swap1\n      div\n      0xffffffffffffffffffffffffffffffffffffffff\n      and\n        /* \"smart-contract/FoodSafe.sol\":2319:2354  msg.sender == lots[_lotId].producer */\n      0xffffffffffffffffffffffffffffffffffffffff\n      and\n        /* \"smart-contract/FoodSafe.sol\":2319:2329  msg.sender */\n      caller\n        /* \"smart-contract/FoodSafe.sol\":2319:2354  msg.sender == lots[_lotId].producer */\n      0xffffffffffffffffffffffffffffffffffffffff\n      and\n      eq\n        /* \"smart-contract/FoodSafe.sol\":2319:2408  msg.sender == lots[_lotId].producer ||... */\n      dup1\n      tag_146\n      jumpi\n      pop\n        /* \"smart-contract/FoodSafe.sol\":2384:2388  lots */\n      0x02\n        /* \"smart-contract/FoodSafe.sol\":2384:2396  lots[_lotId] */\n      0x00\n        /* \"smart-contract/FoodSafe.sol\":2389:2395  _lotId */\n      dup5\n        /* \"smart-contract/FoodSafe.sol\":2384:2396  lots[_lotId] */\n      dup2\n      mstore\n      0x20\n      add\n      swap1\n      dup2\n      mstore\n      0x20\n      add\n      0x00\n      keccak256\n        /* \"smart-contract/FoodSafe.sol\":2384:2408  lots[_lotId].distributor */\n      0x05\n      add\n      0x00\n      swap1\n      sload\n      swap1\n      0x0100\n      exp\n      swap1\n      div\n      0xffffffffffffffffffffffffffffffffffffffff\n      and\n        /* \"smart-contract/FoodSafe.sol\":2370:2408  msg.sender == lots[_lotId].distributor */\n      0xffffffffffffffffffffffffffffffffffffffff\n      and\n        /* \"smart-contract/FoodSafe.sol\":2370:2380  msg.sender */\n      caller\n        /* \"smart-contract/FoodSafe.sol\":2370:2408  msg.sender == lots[_lotId].distributor */\n      0xffffffffffffffffffffffffffffffffffffffff\n      and\n      eq\n        /* \"smart-contract/FoodSafe.sol\":2319:2408  msg.sender == lots[_lotId].producer ||... */\n    tag_146:\n        /* \"smart-contract/FoodSafe.sol\":2319:2459  msg.sender == lots[_lotId].producer ||... */\n      dup1\n      tag_147\n      jumpi\n      pop\n        /* \"smart-contract/FoodSafe.sol\":2438:2442  lots */\n      0x02\n        /* \"smart-contract/FoodSafe.sol\":2438:2450  lots[_lotId] */\n      0x00\n        /* \"smart-contract/FoodSafe.sol\":2443:2449  _lotId */\n      dup5\n        /* \"smart-contract/FoodSafe.sol\":2438:2450  lots[_lotId] */\n      dup2\n      mstore\n      0x20\n      add\n      swap1\n      dup2\n      mstore\n      0x20\n      add\n      0x00\n      keccak256\n        /* \"smart-contract/FoodSafe.sol\":2438:2459  lots[_lotId].retailer */\n      0x06\n      add\n      0x00\n      swap1\n      sload\n      swap1\n      0x0100\n      exp\n      swap1\n      div\n      0xffffffffffffffffffffffffffffffffffffffff\n      and\n        /* \"smart-contract/FoodSafe.sol\":2424:2459  msg.sender == lots[_lotId].retailer */\n      0xffffffffffffffffffffffffffffffffffffffff\n      and\n        /* \"smart-contract/FoodSafe.sol\":2424:2434  msg.sender */\n      caller\n        /* \"smart-contract/FoodSafe.sol\":2424:2459  msg.sender == lots[_lotId].retailer */\n      0xffffffffffffffffffffffffffffffffffffffff\n      and\n      eq\n        /* \"smart-contract/FoodSafe.sol\":2319:2459  msg.sender == lots[_lotId].producer ||... */\n    tag_147:\n        /* \"smart-contract/FoodSafe.sol\":2298:2497  require(... */\n      tag_148\n      jumpi\n      mload(0x40)\n      0x08c379a000000000000000000000000000000000000000000000000000000000\n      dup2\n      mstore\n      0x04\n      add\n      tag_149\n      swap1\n      tag_150\n      jump\t// in\n    tag_149:\n      mload(0x40)\n      dup1\n      swap2\n      sub\n      swap1\n      revert\n    tag_148:\n        /* \"smart-contract/FoodSafe.sol\":2531:2543  _newIPFSHash */\n      dup2\n        /* \"smart-contract/FoodSafe.sol\":2507:2511  lots */\n      0x02\n        /* \"smart-contract/FoodSafe.sol\":2507:2519  lots[_lotId] */\n      0x00\n        /* \"smart-contract/FoodSafe.sol\":2512:2518  _lotId */\n      dup6\n        /* \"smart-contract/FoodSafe.sol\":2507:2519  lots[_lotId] */\n      dup2\n      mstore\n      0x20\n      add\n      swap1\n      dup2\n      mstore\n      0x20\n      add\n      0x00\n      keccak256\n        /* \"smart-contract/FoodSafe.sol\":2507:2528  lots[_lotId].ipfsHash */\n      0x03\n      add\n        /* \"smart-contract/FoodSafe.sol\":2507:2543  lots[_lotId].ipfsHash = _newIPFSHash */\n      swap1\n      dup2\n      tag_151\n      swap2\n      swap1\n      tag_73\n      jump\t// in\n    tag_151:\n      pop\n        /* \"smart-contract/FoodSafe.sol\":2575:2585  _newStatus */\n      dup1\n        /* \"smart-contract/FoodSafe.sol\":2553:2557  lots */\n      0x02\n        /* \"smart-contract/FoodSafe.sol\":2553:2565  lots[_lotId] */\n      0x00\n        /* \"smart-contract/FoodSafe.sol\":2558:2564  _lotId */\n      dup6\n        /* \"smart-contract/FoodSafe.sol\":2553:2565  lots[_lotId] */\n      dup2\n      mstore\n      0x20\n      add\n      swap1\n      dup2\n      mstore\n      0x20\n      add\n      0x00\n      keccak256\n        /* \"smart-contract/FoodSafe.sol\":2553:2572  lots[_lotId].status */\n      0x06\n      add\n      0x14\n        /* \"smart-contract/FoodSafe.sol\":2553:2585  lots[_lotId].status = _newStatus */\n      0x0100\n      exp\n      dup2\n      sload\n      dup2\n      0xff\n      mul\n      not\n      and\n      swap1\n      dup4\n      0x03\n      dup2\n      gt\n      iszero\n      tag_152\n      jumpi\n      tag_153\n      tag_61\n      jump\t// in\n    tag_153:\n    tag_152:\n      mul\n      or\n      swap1\n      sstore\n      pop\n        /* \"smart-contract/FoodSafe.sol\":2634:2644  msg.sender */\n      caller\n        /* \"smart-contract/FoodSafe.sol\":2600:2645  StatusUpdated(_lotId, _newStatus, msg.sender) */\n      0xffffffffffffffffffffffffffffffffffffffff\n      and\n      0x16ad05ce3d778c4a2ba55f55814ad9f3e606fe0c042972def94655ed8e1c31cc\n        /* \"smart-contract/FoodSafe.sol\":2614:2620  _lotId */\n      dup5\n        /* \"smart-contract/FoodSafe.sol\":2622:2632  _newStatus */\n      dup4\n        /* \"smart-contract/FoodSafe.sol\":2600:2645  StatusUpdated(_lotId, _newStatus, msg.sender) */\n      mload(0x40)\n      tag_154\n      swap3\n      swap2\n      swap1\n      tag_155\n      jump\t// in\n    tag_154:\n      mload(0x40)\n      dup1\n      swap2\n      sub\n      swap1\n      log2\n        /* \"smart-contract/FoodSafe.sol\":2198:2652  function updateIPFS(uint256 _lotId, string memory _newIPFSHash, Status _newStatus) public {... */\n      pop\n      pop\n      pop\n      jump\t// out\n        /* \"smart-contract/FoodSafe.sol\":226:251  uint256 public lotCounter */\n    tag_43:\n      sload(0x00)\n      dup2\n      jump\t// out\n        /* \"smart-contract/FoodSafe.sol\":257:281  address public regulator */\n    tag_47:\n      0x01\n      0x00\n      swap1\n      sload\n      swap1\n      0x0100\n      exp\n      swap1\n      div\n      0xffffffffffffffffffffffffffffffffffffffff\n      and\n      dup2\n      jump\t// out\n        /* \"smart-contract/FoodSafe.sol\":626:665  mapping(uint256 => FoodLot) public lots */\n    tag_52:\n      mstore(0x20, 0x02)\n      dup1\n      0x00\n      mstore\n      keccak256(0x00, 0x40)\n      0x00\n      swap2\n      pop\n      swap1\n      pop\n      dup1\n      0x00\n      add\n      sload\n      swap1\n      dup1\n      0x01\n      add\n      dup1\n      sload\n      tag_156\n      swap1\n      tag_95\n      jump\t// in\n    tag_156:\n      dup1\n      0x1f\n      add\n      0x20\n      dup1\n      swap2\n      div\n      mul\n      0x20\n      add\n      mload(0x40)\n      swap1\n      dup2\n      add\n      0x40\n      mstore\n      dup1\n      swap3\n      swap2\n      swap1\n      dup2\n      dup2\n      mstore\n      0x20\n      add\n      dup3\n      dup1\n      sload\n      tag_157\n      swap1\n      tag_95\n      jump\t// in\n    tag_157:\n      dup1\n      iszero\n      tag_158\n      jumpi\n      dup1\n      0x1f\n      lt\n      tag_159\n      jumpi\n      0x0100\n      dup1\n      dup4\n      sload\n      div\n      mul\n      dup4\n      mstore\n      swap2\n      0x20\n      add\n      swap2\n      jump(tag_158)\n    tag_159:\n      dup3\n      add\n      swap2\n      swap1\n      0x00\n      mstore\n      keccak256(0x00, 0x20)\n      swap1\n    tag_160:\n      dup2\n      sload\n      dup2\n      mstore\n      swap1\n      0x01\n      add\n      swap1\n      0x20\n      add\n      dup1\n      dup4\n      gt\n      tag_160\n      jumpi\n      dup3\n      swap1\n      sub\n      0x1f\n      and\n      dup3\n      add\n      swap2\n    tag_158:\n      pop\n      pop\n      pop\n      pop\n      pop\n      swap1\n      dup1\n      0x02\n      add\n      dup1\n      sload\n      tag_161\n      swap1\n      tag_95\n      jump\t// in\n    tag_161:\n      dup1\n      0x1f\n      add\n      0x20\n      dup1\n      swap2\n      div\n      mul\n      0x20\n      add\n      mload(0x40)\n      swap1\n      dup2\n      add\n      0x40\n      mstore\n      dup1\n      swap3\n      swap2\n      swap1\n      dup2\n      dup2\n      mstore\n      0x20\n      add\n      dup3\n      dup1\n      sload\n      tag_162\n      swap1\n      tag_95\n      jump\t// in\n    tag_162:\n      dup1\n      iszero\n      tag_163\n      jumpi\n      dup1\n      0x1f\n      lt\n      tag_164\n      jumpi\n      0x0100\n      dup1\n      dup4\n      sload\n      div\n      mul\n      dup4\n      mstore\n      swap2\n      0x20\n      add\n      swap2\n      jump(tag_163)\n    tag_164:\n      dup3\n      add\n      swap2\n      swap1\n      0x00\n      mstore\n      keccak256(0x00, 0x20)\n      swap1\n    tag_165:\n      dup2\n      sload\n      dup2\n      mstore\n      swap1\n      0x01\n      add\n      swap1\n      0x20\n      add\n      dup1\n      dup4\n      gt\n      tag_165\n      jumpi\n      dup3\n      swap1\n      sub\n      0x1f\n      and\n      dup3\n      add\n      swap2\n    tag_163:\n      pop\n      pop\n      pop\n      pop\n      pop\n      swap1\n      dup1\n      0x03\n      add\n      dup1\n      sload\n      tag_166\n      swap1\n      tag_95\n      jump\t// in\n    tag_166:\n      dup1\n      0x1f\n      add\n      0x20\n      dup1\n      swap2\n      div\n      mul\n      0x20\n      add\n      mload(0x40)\n      swap1\n      dup2\n      add\n      0x40\n      mstore\n      dup1\n      swap3\n      swap2\n      swap1\n      dup2\n      dup2\n      mstore\n      0x20\n      add\n      dup3\n      dup1\n      sload\n      tag_167\n      swap1\n      tag_95\n      jump\t// in\n    tag_167:\n      dup1\n      iszero\n      tag_168\n      jumpi\n      dup1\n      0x1f\n      lt\n      tag_169\n      jumpi\n      0x0100\n      dup1\n      dup4\n      sload\n      div\n      mul\n      dup4\n      mstore\n      swap2\n      0x20\n      add\n      swap2\n      jump(tag_168)\n    tag_169:\n      dup3\n      add\n      swap2\n      swap1\n      0x00\n      mstore\n      keccak256(0x00, 0x20)\n      swap1\n    tag_170:\n      dup2\n      sload\n      dup2\n      mstore\n      swap1\n      0x01\n      add\n      swap1\n      0x20\n      add\n      dup1\n      dup4\n      gt\n      tag_170\n      jumpi\n      dup3\n      swap1\n      sub\n      0x1f\n      and\n      dup3\n      add\n      swap2\n    tag_168:\n      pop\n      pop\n      pop\n      pop\n      pop\n      swap1\n      dup1\n      0x04\n      add\n      0x00\n      swap1\n      sload\n      swap1\n      0x0100\n      exp\n      swap1\n      div\n      0xffffffffffffffffffffffffffffffffffffffff\n      and\n      swap1\n      dup1\n      0x05\n      add\n      0x00\n      swap1\n      sload\n      swap1\n      0x0100\n      exp\n      swap1\n      div\n      0xffffffffffffffffffffffffffffffffffffffff\n      and\n      swap1\n      dup1\n      0x06\n      add\n      0x00\n      swap1\n      sload\n      swap1\n      0x0100\n      exp\n      swap1\n      div\n      0xffffffffffffffffffffffffffffffffffffffff\n      and\n      swap1\n      dup1\n      0x06\n      add\n      0x14\n      swap1\n      sload\n      swap1\n      0x0100\n      exp\n      swap1\n      div\n      0xff\n      and\n      swap1\n      pop\n      dup9\n      jump\t// out\n    tag_90:\n      mload(0x40)\n      dup1\n      0x0100\n      add\n      0x40\n      mstore\n      dup1\n      0x00\n      dup2\n      mstore\n      0x20\n      add\n      0x60\n      dup2\n      mstore\n      0x20\n      add\n      0x60\n      dup2\n      mstore\n      0x20\n      add\n      0x60\n      dup2\n      mstore\n      0x20\n      add\n      and(0xffffffffffffffffffffffffffffffffffffffff, 0x00)\n      dup2\n      mstore\n      0x20\n      add\n      and(0xffffffffffffffffffffffffffffffffffffffff, 0x00)\n      dup2\n      mstore\n      0x20\n      add\n      and(0xffffffffffffffffffffffffffffffffffffffff, 0x00)\n      dup2\n      mstore\n      0x20\n      add\n      0x00\n      0x03\n      dup2\n      gt\n      iszero\n      tag_171\n      jumpi\n      tag_172\n      tag_61\n      jump\t// in\n    tag_172:\n    tag_171:\n      dup2\n      mstore\n      pop\n      swap1\n      jump\t// out\n        /* \"#utility.yul\":7:82   */\n    tag_173:\n        /* \"#utility.yul\":40:46   */\n      0x00\n        /* \"#utility.yul\":73:75   */\n      0x40\n        /* \"#utility.yul\":67:76   */\n      mload\n        /* \"#utility.yul\":57:76   */\n      swap1\n      pop\n        /* \"#utility.yul\":7:82   */\n      swap1\n      jump\t// out\n        /* \"#utility.yul\":88:205   */\n    tag_174:\n        /* \"#utility.yul\":197:198   */\n      0x00\n        /* \"#utility.yul\":194:195   */\n      dup1\n        /* \"#utility.yul\":187:199   */\n      revert\n        /* \"#utility.yul\":211:328   */\n    tag_175:\n        /* \"#utility.yul\":320:321   */\n      0x00\n        /* \"#utility.yul\":317:318   */\n      dup1\n        /* \"#utility.yul\":310:322   */\n      revert\n        /* \"#utility.yul\":334:411   */\n    tag_176:\n        /* \"#utility.yul\":371:378   */\n      0x00\n        /* \"#utility.yul\":400:405   */\n      dup2\n        /* \"#utility.yul\":389:405   */\n      swap1\n      pop\n        /* \"#utility.yul\":334:411   */\n      swap2\n      swap1\n      pop\n      jump\t// out\n        /* \"#utility.yul\":417:539   */\n    tag_177:\n        /* \"#utility.yul\":490:514   */\n      tag_250\n        /* \"#utility.yul\":508:513   */\n      dup2\n        /* \"#utility.yul\":490:514   */\n      tag_176\n      jump\t// in\n    tag_250:\n        /* \"#utility.yul\":483:488   */\n      dup2\n        /* \"#utility.yul\":480:515   */\n      eq\n        /* \"#utility.yul\":470:533   */\n      tag_251\n      jumpi\n        /* \"#utility.yul\":529:530   */\n      0x00\n        /* \"#utility.yul\":526:527   */\n      dup1\n        /* \"#utility.yul\":519:531   */\n      revert\n        /* \"#utility.yul\":470:533   */\n    tag_251:\n        /* \"#utility.yul\":417:539   */\n      pop\n      jump\t// out\n        /* \"#utility.yul\":545:684   */\n    tag_178:\n        /* \"#utility.yul\":591:596   */\n      0x00\n        /* \"#utility.yul\":629:635   */\n      dup2\n        /* \"#utility.yul\":616:636   */\n      calldataload\n        /* \"#utility.yul\":607:636   */\n      swap1\n      pop\n        /* \"#utility.yul\":645:678   */\n      tag_253\n        /* \"#utility.yul\":672:677   */\n      dup2\n        /* \"#utility.yul\":645:678   */\n      tag_177\n      jump\t// in\n    tag_253:\n        /* \"#utility.yul\":545:684   */\n      swap3\n      swap2\n      pop\n      pop\n      jump\t// out\n        /* \"#utility.yul\":690:1019   */\n    tag_16:\n        /* \"#utility.yul\":749:755   */\n      0x00\n        /* \"#utility.yul\":798:800   */\n      0x20\n        /* \"#utility.yul\":786:795   */\n      dup3\n        /* \"#utility.yul\":777:784   */\n      dup5\n        /* \"#utility.yul\":773:796   */\n      sub\n        /* \"#utility.yul\":769:801   */\n      slt\n        /* \"#utility.yul\":766:885   */\n      iszero\n      tag_255\n      jumpi\n        /* \"#utility.yul\":804:883   */\n      tag_256\n      tag_174\n      jump\t// in\n    tag_256:\n        /* \"#utility.yul\":766:885   */\n    tag_255:\n        /* \"#utility.yul\":924:925   */\n      0x00\n        /* \"#utility.yul\":949:1002   */\n      tag_257\n        /* \"#utility.yul\":994:1001   */\n      dup5\n        /* \"#utility.yul\":985:991   */\n      dup3\n        /* \"#utility.yul\":974:983   */\n      dup6\n        /* \"#utility.yul\":970:992   */\n      add\n        /* \"#utility.yul\":949:1002   */\n      tag_178\n      jump\t// in\n    tag_257:\n        /* \"#utility.yul\":939:1002   */\n      swap2\n      pop\n        /* \"#utility.yul\":895:1012   */\n      pop\n        /* \"#utility.yul\":690:1019   */\n      swap3\n      swap2\n      pop\n      pop\n      jump\t// out\n        /* \"#utility.yul\":1025:1151   */\n    tag_179:\n        /* \"#utility.yul\":1062:1069   */\n      0x00\n        /* \"#utility.yul\":1102:1144   */\n      0xffffffffffffffffffffffffffffffffffffffff\n        /* \"#utility.yul\":1095:1100   */\n      dup3\n        /* \"#utility.yul\":1091:1145   */\n      and\n        /* \"#utility.yul\":1080:1145   */\n      swap1\n      pop\n        /* \"#utility.yul\":1025:1151   */\n      swap2\n      swap1\n      pop\n      jump\t// out\n        /* \"#utility.yul\":1157:1253   */\n    tag_180:\n        /* \"#utility.yul\":1194:1201   */\n      0x00\n        /* \"#utility.yul\":1223:1247   */\n      tag_260\n        /* \"#utility.yul\":1241:1246   */\n      dup3\n        /* \"#utility.yul\":1223:1247   */\n      tag_179\n      jump\t// in\n    tag_260:\n        /* \"#utility.yul\":1212:1247   */\n      swap1\n      pop\n        /* \"#utility.yul\":1157:1253   */\n      swap2\n      swap1\n      pop\n      jump\t// out\n        /* \"#utility.yul\":1259:1381   */\n    tag_181:\n        /* \"#utility.yul\":1332:1356   */\n      tag_262\n        /* \"#utility.yul\":1350:1355   */\n      dup2\n        /* \"#utility.yul\":1332:1356   */\n      tag_180\n      jump\t// in\n    tag_262:\n        /* \"#utility.yul\":1325:1330   */\n      dup2\n        /* \"#utility.yul\":1322:1357   */\n      eq\n        /* \"#utility.yul\":1312:1375   */\n      tag_263\n      jumpi\n        /* \"#utility.yul\":1371:1372   */\n      0x00\n        /* \"#utility.yul\":1368:1369   */\n      dup1\n        /* \"#utility.yul\":1361:1373   */\n      revert\n        /* \"#utility.yul\":1312:1375   */\n    tag_263:\n        /* \"#utility.yul\":1259:1381   */\n      pop\n      jump\t// out\n        /* \"#utility.yul\":1387:1526   */\n    tag_182:\n        /* \"#utility.yul\":1433:1438   */\n      0x00\n        /* \"#utility.yul\":1471:1477   */\n      dup2\n        /* \"#utility.yul\":1458:1478   */\n      calldataload\n        /* \"#utility.yul\":1449:1478   */\n      swap1\n      pop\n        /* \"#utility.yul\":1487:1520   */\n      tag_265\n        /* \"#utility.yul\":1514:1519   */\n      dup2\n        /* \"#utility.yul\":1487:1520   */\n      tag_181\n      jump\t// in\n    tag_265:\n        /* \"#utility.yul\":1387:1526   */\n      swap3\n      swap2\n      pop\n      pop\n      jump\t// out\n        /* \"#utility.yul\":1532:2006   */\n    tag_20:\n        /* \"#utility.yul\":1600:1606   */\n      0x00\n        /* \"#utility.yul\":1608:1614   */\n      dup1\n        /* \"#utility.yul\":1657:1659   */\n      0x40\n        /* \"#utility.yul\":1645:1654   */\n      dup4\n        /* \"#utility.yul\":1636:1643   */\n      dup6\n        /* \"#utility.yul\":1632:1655   */\n      sub\n        /* \"#utility.yul\":1628:1660   */\n      slt\n        /* \"#utility.yul\":1625:1744   */\n      iszero\n      tag_267\n      jumpi\n        /* \"#utility.yul\":1663:1742   */\n      tag_268\n      tag_174\n      jump\t// in\n    tag_268:\n        /* \"#utility.yul\":1625:1744   */\n    tag_267:\n        /* \"#utility.yul\":1783:1784   */\n      0x00\n        /* \"#utility.yul\":1808:1861   */\n      tag_269\n        /* \"#utility.yul\":1853:1860   */\n      dup6\n        /* \"#utility.yul\":1844:1850   */\n      dup3\n        /* \"#utility.yul\":1833:1842   */\n      dup7\n        /* \"#utility.yul\":1829:1851   */\n      add\n        /* \"#utility.yul\":1808:1861   */\n      tag_178\n      jump\t// in\n    tag_269:\n        /* \"#utility.yul\":1798:1861   */\n      swap3\n      pop\n        /* \"#utility.yul\":1754:1871   */\n      pop\n        /* \"#utility.yul\":1910:1912   */\n      0x20\n        /* \"#utility.yul\":1936:1989   */\n      tag_270\n        /* \"#utility.yul\":1981:1988   */\n      dup6\n        /* \"#utility.yul\":1972:1978   */\n      dup3\n        /* \"#utility.yul\":1961:1970   */\n      dup7\n        /* \"#utility.yul\":1957:1979   */\n      add\n        /* \"#utility.yul\":1936:1989   */\n      tag_182\n      jump\t// in\n    tag_270:\n        /* \"#utility.yul\":1926:1989   */\n      swap2\n      pop\n        /* \"#utility.yul\":1881:1999   */\n      pop\n        /* \"#utility.yul\":1532:2006   */\n      swap3\n      pop\n      swap3\n      swap1\n      pop\n      jump\t// out\n        /* \"#utility.yul\":2012:2129   */\n    tag_183:\n        /* \"#utility.yul\":2121:2122   */\n      0x00\n        /* \"#utility.yul\":2118:2119   */\n      dup1\n        /* \"#utility.yul\":2111:2123   */\n      revert\n        /* \"#utility.yul\":2135:2252   */\n    tag_184:\n        /* \"#utility.yul\":2244:2245   */\n      0x00\n        /* \"#utility.yul\":2241:2242   */\n      dup1\n        /* \"#utility.yul\":2234:2246   */\n      revert\n        /* \"#utility.yul\":2258:2360   */\n    tag_185:\n        /* \"#utility.yul\":2299:2305   */\n      0x00\n        /* \"#utility.yul\":2350:2352   */\n      0x1f\n        /* \"#utility.yul\":2346:2353   */\n      not\n        /* \"#utility.yul\":2341:2343   */\n      0x1f\n        /* \"#utility.yul\":2334:2339   */\n      dup4\n        /* \"#utility.yul\":2330:2344   */\n      add\n        /* \"#utility.yul\":2326:2354   */\n      and\n        /* \"#utility.yul\":2316:2354   */\n      swap1\n      pop\n        /* \"#utility.yul\":2258:2360   */\n      swap2\n      swap1\n      pop\n      jump\t// out\n        /* \"#utility.yul\":2366:2546   */\n    tag_86:\n        /* \"#utility.yul\":2414:2491   */\n      0x4e487b7100000000000000000000000000000000000000000000000000000000\n        /* \"#utility.yul\":2411:2412   */\n      0x00\n        /* \"#utility.yul\":2404:2492   */\n      mstore\n        /* \"#utility.yul\":2511:2515   */\n      0x41\n        /* \"#utility.yul\":2508:2509   */\n      0x04\n        /* \"#utility.yul\":2501:2516   */\n      mstore\n        /* \"#utility.yul\":2535:2539   */\n      0x24\n        /* \"#utility.yul\":2532:2533   */\n      0x00\n        /* \"#utility.yul\":2525:2540   */\n      revert\n        /* \"#utility.yul\":2552:2833   */\n    tag_186:\n        /* \"#utility.yul\":2635:2662   */\n      tag_276\n        /* \"#utility.yul\":2657:2661   */\n      dup3\n        /* \"#utility.yul\":2635:2662   */\n      tag_185\n      jump\t// in\n    tag_276:\n        /* \"#utility.yul\":2627:2633   */\n      dup2\n        /* \"#utility.yul\":2623:2663   */\n      add\n        /* \"#utility.yul\":2765:2771   */\n      dup2\n        /* \"#utility.yul\":2753:2763   */\n      dup2\n        /* \"#utility.yul\":2750:2772   */\n      lt\n        /* \"#utility.yul\":2729:2747   */\n      0xffffffffffffffff\n        /* \"#utility.yul\":2717:2727   */\n      dup3\n        /* \"#utility.yul\":2714:2748   */\n      gt\n        /* \"#utility.yul\":2711:2773   */\n      or\n        /* \"#utility.yul\":2708:2796   */\n      iszero\n      tag_277\n      jumpi\n        /* \"#utility.yul\":2776:2794   */\n      tag_278\n      tag_86\n      jump\t// in\n    tag_278:\n        /* \"#utility.yul\":2708:2796   */\n    tag_277:\n        /* \"#utility.yul\":2816:2826   */\n      dup1\n        /* \"#utility.yul\":2812:2814   */\n      0x40\n        /* \"#utility.yul\":2805:2827   */\n      mstore\n        /* \"#utility.yul\":2595:2833   */\n      pop\n        /* \"#utility.yul\":2552:2833   */\n      pop\n      pop\n      jump\t// out\n        /* \"#utility.yul\":2839:2968   */\n    tag_187:\n        /* \"#utility.yul\":2873:2879   */\n      0x00\n        /* \"#utility.yul\":2900:2920   */\n      tag_280\n      tag_173\n      jump\t// in\n    tag_280:\n        /* \"#utility.yul\":2890:2920   */\n      swap1\n      pop\n        /* \"#utility.yul\":2929:2962   */\n      tag_281\n        /* \"#utility.yul\":2957:2961   */\n      dup3\n        /* \"#utility.yul\":2949:2955   */\n      dup3\n        /* \"#utility.yul\":2929:2962   */\n      tag_186\n      jump\t// in\n    tag_281:\n        /* \"#utility.yul\":2839:2968   */\n      swap2\n      swap1\n      pop\n      jump\t// out\n        /* \"#utility.yul\":2974:3282   */\n    tag_188:\n        /* \"#utility.yul\":3036:3040   */\n      0x00\n        /* \"#utility.yul\":3126:3144   */\n      0xffffffffffffffff\n        /* \"#utility.yul\":3118:3124   */\n      dup3\n        /* \"#utility.yul\":3115:3145   */\n      gt\n        /* \"#utility.yul\":3112:3168   */\n      iszero\n      tag_283\n      jumpi\n        /* \"#utility.yul\":3148:3166   */\n      tag_284\n      tag_86\n      jump\t// in\n    tag_284:\n        /* \"#utility.yul\":3112:3168   */\n    tag_283:\n        /* \"#utility.yul\":3186:3215   */\n      tag_285\n        /* \"#utility.yul\":3208:3214   */\n      dup3\n        /* \"#utility.yul\":3186:3215   */\n      tag_185\n      jump\t// in\n    tag_285:\n        /* \"#utility.yul\":3178:3215   */\n      swap1\n      pop\n        /* \"#utility.yul\":3270:3274   */\n      0x20\n        /* \"#utility.yul\":3264:3268   */\n      dup2\n        /* \"#utility.yul\":3260:3275   */\n      add\n        /* \"#utility.yul\":3252:3275   */\n      swap1\n      pop\n        /* \"#utility.yul\":2974:3282   */\n      swap2\n      swap1\n      pop\n      jump\t// out\n        /* \"#utility.yul\":3288:3434   */\n    tag_189:\n        /* \"#utility.yul\":3385:3391   */\n      dup3\n        /* \"#utility.yul\":3380:3383   */\n      dup2\n        /* \"#utility.yul\":3375:3378   */\n      dup4\n        /* \"#utility.yul\":3362:3392   */\n      calldatacopy\n        /* \"#utility.yul\":3426:3427   */\n      0x00\n        /* \"#utility.yul\":3417:3423   */\n      dup4\n        /* \"#utility.yul\":3412:3415   */\n      dup4\n        /* \"#utility.yul\":3408:3424   */\n      add\n        /* \"#utility.yul\":3401:3428   */\n      mstore\n        /* \"#utility.yul\":3288:3434   */\n      pop\n      pop\n      pop\n      jump\t// out\n        /* \"#utility.yul\":3440:3865   */\n    tag_190:\n        /* \"#utility.yul\":3518:3523   */\n      0x00\n        /* \"#utility.yul\":3543:3609   */\n      tag_288\n        /* \"#utility.yul\":3559:3608   */\n      tag_289\n        /* \"#utility.yul\":3601:3607   */\n      dup5\n        /* \"#utility.yul\":3559:3608   */\n      tag_188\n      jump\t// in\n    tag_289:\n        /* \"#utility.yul\":3543:3609   */\n      tag_187\n      jump\t// in\n    tag_288:\n        /* \"#utility.yul\":3534:3609   */\n      swap1\n      pop\n        /* \"#utility.yul\":3632:3638   */\n      dup3\n        /* \"#utility.yul\":3625:3630   */\n      dup2\n        /* \"#utility.yul\":3618:3639   */\n      mstore\n        /* \"#utility.yul\":3670:3674   */\n      0x20\n        /* \"#utility.yul\":3663:3668   */\n      dup2\n        /* \"#utility.yul\":3659:3675   */\n      add\n        /* \"#utility.yul\":3708:3711   */\n      dup5\n        /* \"#utility.yul\":3699:3705   */\n      dup5\n        /* \"#utility.yul\":3694:3697   */\n      dup5\n        /* \"#utility.yul\":3690:3706   */\n      add\n        /* \"#utility.yul\":3687:3712   */\n      gt\n        /* \"#utility.yul\":3684:3796   */\n      iszero\n      tag_290\n      jumpi\n        /* \"#utility.yul\":3715:3794   */\n      tag_291\n      tag_184\n      jump\t// in\n    tag_291:\n        /* \"#utility.yul\":3684:3796   */\n    tag_290:\n        /* \"#utility.yul\":3805:3859   */\n      tag_292\n        /* \"#utility.yul\":3852:3858   */\n      dup5\n        /* \"#utility.yul\":3847:3850   */\n      dup3\n        /* \"#utility.yul\":3842:3845   */\n      dup6\n        /* \"#utility.yul\":3805:3859   */\n      tag_189\n      jump\t// in\n    tag_292:\n        /* \"#utility.yul\":3524:3865   */\n      pop\n        /* \"#utility.yul\":3440:3865   */\n      swap4\n      swap3\n      pop\n      pop\n      pop\n      jump\t// out\n        /* \"#utility.yul\":3885:4225   */\n    tag_191:\n        /* \"#utility.yul\":3941:3946   */\n      0x00\n        /* \"#utility.yul\":3990:3993   */\n      dup3\n        /* \"#utility.yul\":3983:3987   */\n      0x1f\n        /* \"#utility.yul\":3975:3981   */\n      dup4\n        /* \"#utility.yul\":3971:3988   */\n      add\n        /* \"#utility.yul\":3967:3994   */\n      slt\n        /* \"#utility.yul\":3957:4079   */\n      tag_294\n      jumpi\n        /* \"#utility.yul\":3998:4077   */\n      tag_295\n      tag_183\n      jump\t// in\n    tag_295:\n        /* \"#utility.yul\":3957:4079   */\n    tag_294:\n        /* \"#utility.yul\":4115:4121   */\n      dup2\n        /* \"#utility.yul\":4102:4122   */\n      calldataload\n        /* \"#utility.yul\":4140:4219   */\n      tag_296\n        /* \"#utility.yul\":4215:4218   */\n      dup5\n        /* \"#utility.yul\":4207:4213   */\n      dup3\n        /* \"#utility.yul\":4200:4204   */\n      0x20\n        /* \"#utility.yul\":4192:4198   */\n      dup7\n        /* \"#utility.yul\":4188:4205   */\n      add\n        /* \"#utility.yul\":4140:4219   */\n      tag_190\n      jump\t// in\n    tag_296:\n        /* \"#utility.yul\":4131:4219   */\n      swap2\n      pop\n        /* \"#utility.yul\":3947:4225   */\n      pop\n        /* \"#utility.yul\":3885:4225   */\n      swap3\n      swap2\n      pop\n      pop\n      jump\t// out\n        /* \"#utility.yul\":4231:5390   */\n    tag_24:\n        /* \"#utility.yul\":4338:4344   */\n      0x00\n        /* \"#utility.yul\":4346:4352   */\n      dup1\n        /* \"#utility.yul\":4354:4360   */\n      0x00\n        /* \"#utility.yul\":4403:4405   */\n      0x60\n        /* \"#utility.yul\":4391:4400   */\n      dup5\n        /* \"#utility.yul\":4382:4389   */\n      dup7\n        /* \"#utility.yul\":4378:4401   */\n      sub\n        /* \"#utility.yul\":4374:4406   */\n      slt\n        /* \"#utility.yul\":4371:4490   */\n      iszero\n      tag_298\n      jumpi\n        /* \"#utility.yul\":4409:4488   */\n      tag_299\n      tag_174\n      jump\t// in\n    tag_299:\n        /* \"#utility.yul\":4371:4490   */\n    tag_298:\n        /* \"#utility.yul\":4557:4558   */\n      0x00\n        /* \"#utility.yul\":4546:4555   */\n      dup5\n        /* \"#utility.yul\":4542:4559   */\n      add\n        /* \"#utility.yul\":4529:4560   */\n      calldataload\n        /* \"#utility.yul\":4587:4605   */\n      0xffffffffffffffff\n        /* \"#utility.yul\":4579:4585   */\n      dup2\n        /* \"#utility.yul\":4576:4606   */\n      gt\n        /* \"#utility.yul\":4573:4690   */\n      iszero\n      tag_300\n      jumpi\n        /* \"#utility.yul\":4609:4688   */\n      tag_301\n      tag_175\n      jump\t// in\n    tag_301:\n        /* \"#utility.yul\":4573:4690   */\n    tag_300:\n        /* \"#utility.yul\":4714:4777   */\n      tag_302\n        /* \"#utility.yul\":4769:4776   */\n      dup7\n        /* \"#utility.yul\":4760:4766   */\n      dup3\n        /* \"#utility.yul\":4749:4758   */\n      dup8\n        /* \"#utility.yul\":4745:4767   */\n      add\n        /* \"#utility.yul\":4714:4777   */\n      tag_191\n      jump\t// in\n    tag_302:\n        /* \"#utility.yul\":4704:4777   */\n      swap4\n      pop\n        /* \"#utility.yul\":4500:4787   */\n      pop\n        /* \"#utility.yul\":4854:4856   */\n      0x20\n        /* \"#utility.yul\":4843:4852   */\n      dup5\n        /* \"#utility.yul\":4839:4857   */\n      add\n        /* \"#utility.yul\":4826:4858   */\n      calldataload\n        /* \"#utility.yul\":4885:4903   */\n      0xffffffffffffffff\n        /* \"#utility.yul\":4877:4883   */\n      dup2\n        /* \"#utility.yul\":4874:4904   */\n      gt\n        /* \"#utility.yul\":4871:4988   */\n      iszero\n      tag_303\n      jumpi\n        /* \"#utility.yul\":4907:4986   */\n      tag_304\n      tag_175\n      jump\t// in\n    tag_304:\n        /* \"#utility.yul\":4871:4988   */\n    tag_303:\n        /* \"#utility.yul\":5012:5075   */\n      tag_305\n        /* \"#utility.yul\":5067:5074   */\n      dup7\n        /* \"#utility.yul\":5058:5064   */\n      dup3\n        /* \"#utility.yul\":5047:5056   */\n      dup8\n        /* \"#utility.yul\":5043:5065   */\n      add\n        /* \"#utility.yul\":5012:5075   */\n      tag_191\n      jump\t// in\n    tag_305:\n        /* \"#utility.yul\":5002:5075   */\n      swap3\n      pop\n        /* \"#utility.yul\":4797:5085   */\n      pop\n        /* \"#utility.yul\":5152:5154   */\n      0x40\n        /* \"#utility.yul\":5141:5150   */\n      dup5\n        /* \"#utility.yul\":5137:5155   */\n      add\n        /* \"#utility.yul\":5124:5156   */\n      calldataload\n        /* \"#utility.yul\":5183:5201   */\n      0xffffffffffffffff\n        /* \"#utility.yul\":5175:5181   */\n      dup2\n        /* \"#utility.yul\":5172:5202   */\n      gt\n        /* \"#utility.yul\":5169:5286   */\n      iszero\n      tag_306\n      jumpi\n        /* \"#utility.yul\":5205:5284   */\n      tag_307\n      tag_175\n      jump\t// in\n    tag_307:\n        /* \"#utility.yul\":5169:5286   */\n    tag_306:\n        /* \"#utility.yul\":5310:5373   */\n      tag_308\n        /* \"#utility.yul\":5365:5372   */\n      dup7\n        /* \"#utility.yul\":5356:5362   */\n      dup3\n        /* \"#utility.yul\":5345:5354   */\n      dup8\n        /* \"#utility.yul\":5341:5363   */\n      add\n        /* \"#utility.yul\":5310:5373   */\n      tag_191\n      jump\t// in\n    tag_308:\n        /* \"#utility.yul\":5300:5373   */\n      swap2\n      pop\n        /* \"#utility.yul\":5095:5383   */\n      pop\n        /* \"#utility.yul\":4231:5390   */\n      swap3\n      pop\n      swap3\n      pop\n      swap3\n      jump\t// out\n        /* \"#utility.yul\":5396:5533   */\n    tag_192:\n        /* \"#utility.yul\":5486:5492   */\n      0x00\n        /* \"#utility.yul\":5520:5525   */\n      dup2\n        /* \"#utility.yul\":5514:5526   */\n      mload\n        /* \"#utility.yul\":5504:5526   */\n      swap1\n      pop\n        /* \"#utility.yul\":5396:5533   */\n      swap2\n      swap1\n      pop\n      jump\t// out\n        /* \"#utility.yul\":5539:5746   */\n    tag_193:\n        /* \"#utility.yul\":5661:5672   */\n      0x00\n        /* \"#utility.yul\":5695:5701   */\n      dup3\n        /* \"#utility.yul\":5690:5693   */\n      dup3\n        /* \"#utility.yul\":5683:5702   */\n      mstore\n        /* \"#utility.yul\":5735:5739   */\n      0x20\n        /* \"#utility.yul\":5730:5733   */\n      dup3\n        /* \"#utility.yul\":5726:5740   */\n      add\n        /* \"#utility.yul\":5711:5740   */\n      swap1\n      pop\n        /* \"#utility.yul\":5539:5746   */\n      swap3\n      swap2\n      pop\n      pop\n      jump\t// out\n        /* \"#utility.yul\":5752:5907   */\n    tag_194:\n        /* \"#utility.yul\":5842:5846   */\n      0x00\n        /* \"#utility.yul\":5865:5868   */\n      dup2\n        /* \"#utility.yul\":5857:5868   */\n      swap1\n      pop\n        /* \"#utility.yul\":5895:5899   */\n      0x20\n        /* \"#utility.yul\":5890:5893   */\n      dup3\n        /* \"#utility.yul\":5886:5900   */\n      add\n        /* \"#utility.yul\":5878:5900   */\n      swap1\n      pop\n        /* \"#utility.yul\":5752:5907   */\n      swap2\n      swap1\n      pop\n      jump\t// out\n        /* \"#utility.yul\":5913:6021   */\n    tag_195:\n        /* \"#utility.yul\":5990:6014   */\n      tag_313\n        /* \"#utility.yul\":6008:6013   */\n      dup2\n        /* \"#utility.yul\":5990:6014   */\n      tag_176\n      jump\t// in\n    tag_313:\n        /* \"#utility.yul\":5985:5988   */\n      dup3\n        /* \"#utility.yul\":5978:6015   */\n      mstore\n        /* \"#utility.yul\":5913:6021   */\n      pop\n      pop\n      jump\t// out\n        /* \"#utility.yul\":6027:6126   */\n    tag_196:\n        /* \"#utility.yul\":6079:6085   */\n      0x00\n        /* \"#utility.yul\":6113:6118   */\n      dup2\n        /* \"#utility.yul\":6107:6119   */\n      mload\n        /* \"#utility.yul\":6097:6119   */\n      swap1\n      pop\n        /* \"#utility.yul\":6027:6126   */\n      swap2\n      swap1\n      pop\n      jump\t// out\n        /* \"#utility.yul\":6132:6291   */\n    tag_197:\n        /* \"#utility.yul\":6206:6217   */\n      0x00\n        /* \"#utility.yul\":6240:6246   */\n      dup3\n        /* \"#utility.yul\":6235:6238   */\n      dup3\n        /* \"#utility.yul\":6228:6247   */\n      mstore\n        /* \"#utility.yul\":6280:6284   */\n      0x20\n        /* \"#utility.yul\":6275:6278   */\n      dup3\n        /* \"#utility.yul\":6271:6285   */\n      add\n        /* \"#utility.yul\":6256:6285   */\n      swap1\n      pop\n        /* \"#utility.yul\":6132:6291   */\n      swap3\n      swap2\n      pop\n      pop\n      jump\t// out\n        /* \"#utility.yul\":6297:6543   */\n    tag_198:\n        /* \"#utility.yul\":6378:6379   */\n      0x00\n        /* \"#utility.yul\":6388:6501   */\n    tag_317:\n        /* \"#utility.yul\":6402:6408   */\n      dup4\n        /* \"#utility.yul\":6399:6400   */\n      dup2\n        /* \"#utility.yul\":6396:6409   */\n      lt\n        /* \"#utility.yul\":6388:6501   */\n      iszero\n      tag_319\n      jumpi\n        /* \"#utility.yul\":6487:6488   */\n      dup1\n        /* \"#utility.yul\":6482:6485   */\n      dup3\n        /* \"#utility.yul\":6478:6489   */\n      add\n        /* \"#utility.yul\":6472:6490   */\n      mload\n        /* \"#utility.yul\":6468:6469   */\n      dup2\n        /* \"#utility.yul\":6463:6466   */\n      dup5\n        /* \"#utility.yul\":6459:6470   */\n      add\n        /* \"#utility.yul\":6452:6491   */\n      mstore\n        /* \"#utility.yul\":6424:6426   */\n      0x20\n        /* \"#utility.yul\":6421:6422   */\n      dup2\n        /* \"#utility.yul\":6417:6427   */\n      add\n        /* \"#utility.yul\":6412:6427   */\n      swap1\n      pop\n        /* \"#utility.yul\":6388:6501   */\n      jump(tag_317)\n    tag_319:\n        /* \"#utility.yul\":6535:6536   */\n      0x00\n        /* \"#utility.yul\":6526:6532   */\n      dup5\n        /* \"#utility.yul\":6521:6524   */\n      dup5\n        /* \"#utility.yul\":6517:6533   */\n      add\n        /* \"#utility.yul\":6510:6537   */\n      mstore\n        /* \"#utility.yul\":6359:6543   */\n      pop\n        /* \"#utility.yul\":6297:6543   */\n      pop\n      pop\n      pop\n      jump\t// out\n        /* \"#utility.yul\":6549:6906   */\n    tag_199:\n        /* \"#utility.yul\":6627:6630   */\n      0x00\n        /* \"#utility.yul\":6655:6694   */\n      tag_321\n        /* \"#utility.yul\":6688:6693   */\n      dup3\n        /* \"#utility.yul\":6655:6694   */\n      tag_196\n      jump\t// in\n    tag_321:\n        /* \"#utility.yul\":6710:6771   */\n      tag_322\n        /* \"#utility.yul\":6764:6770   */\n      dup2\n        /* \"#utility.yul\":6759:6762   */\n      dup6\n        /* \"#utility.yul\":6710:6771   */\n      tag_197\n      jump\t// in\n    tag_322:\n        /* \"#utility.yul\":6703:6771   */\n      swap4\n      pop\n        /* \"#utility.yul\":6780:6845   */\n      tag_323\n        /* \"#utility.yul\":6838:6844   */\n      dup2\n        /* \"#utility.yul\":6833:6836   */\n      dup6\n        /* \"#utility.yul\":6826:6830   */\n      0x20\n        /* \"#utility.yul\":6819:6824   */\n      dup7\n        /* \"#utility.yul\":6815:6831   */\n      add\n        /* \"#utility.yul\":6780:6845   */\n      tag_198\n      jump\t// in\n    tag_323:\n        /* \"#utility.yul\":6870:6899   */\n      tag_324\n        /* \"#utility.yul\":6892:6898   */\n      dup2\n        /* \"#utility.yul\":6870:6899   */\n      tag_185\n      jump\t// in\n    tag_324:\n        /* \"#utility.yul\":6865:6868   */\n      dup5\n        /* \"#utility.yul\":6861:6900   */\n      add\n        /* \"#utility.yul\":6854:6900   */\n      swap2\n      pop\n        /* \"#utility.yul\":6631:6906   */\n      pop\n        /* \"#utility.yul\":6549:6906   */\n      swap3\n      swap2\n      pop\n      pop\n      jump\t// out\n        /* \"#utility.yul\":6912:7020   */\n    tag_200:\n        /* \"#utility.yul\":6989:7013   */\n      tag_326\n        /* \"#utility.yul\":7007:7012   */\n      dup2\n        /* \"#utility.yul\":6989:7013   */\n      tag_180\n      jump\t// in\n    tag_326:\n        /* \"#utility.yul\":6984:6987   */\n      dup3\n        /* \"#utility.yul\":6977:7014   */\n      mstore\n        /* \"#utility.yul\":6912:7020   */\n      pop\n      pop\n      jump\t// out\n        /* \"#utility.yul\":7026:7206   */\n    tag_61:\n        /* \"#utility.yul\":7074:7151   */\n      0x4e487b7100000000000000000000000000000000000000000000000000000000\n        /* \"#utility.yul\":7071:7072   */\n      0x00\n        /* \"#utility.yul\":7064:7152   */\n      mstore\n        /* \"#utility.yul\":7171:7175   */\n      0x21\n        /* \"#utility.yul\":7168:7169   */\n      0x04\n        /* \"#utility.yul\":7161:7176   */\n      mstore\n        /* \"#utility.yul\":7195:7199   */\n      0x24\n        /* \"#utility.yul\":7192:7193   */\n      0x00\n        /* \"#utility.yul\":7185:7200   */\n      revert\n        /* \"#utility.yul\":7212:7326   */\n    tag_201:\n        /* \"#utility.yul\":7294:7295   */\n      0x04\n        /* \"#utility.yul\":7287:7292   */\n      dup2\n        /* \"#utility.yul\":7284:7296   */\n      lt\n        /* \"#utility.yul\":7274:7320   */\n      tag_329\n      jumpi\n        /* \"#utility.yul\":7300:7318   */\n      tag_330\n      tag_61\n      jump\t// in\n    tag_330:\n        /* \"#utility.yul\":7274:7320   */\n    tag_329:\n        /* \"#utility.yul\":7212:7326   */\n      pop\n      jump\t// out\n        /* \"#utility.yul\":7332:7461   */\n    tag_202:\n        /* \"#utility.yul\":7378:7385   */\n      0x00\n        /* \"#utility.yul\":7407:7412   */\n      dup2\n        /* \"#utility.yul\":7396:7412   */\n      swap1\n      pop\n        /* \"#utility.yul\":7413:7455   */\n      tag_332\n        /* \"#utility.yul\":7449:7454   */\n      dup3\n        /* \"#utility.yul\":7413:7455   */\n      tag_201\n      jump\t// in\n    tag_332:\n        /* \"#utility.yul\":7332:7461   */\n      swap2\n      swap1\n      pop\n      jump\t// out\n        /* \"#utility.yul\":7467:7596   */\n    tag_203:\n        /* \"#utility.yul\":7524:7533   */\n      0x00\n        /* \"#utility.yul\":7557:7590   */\n      tag_334\n        /* \"#utility.yul\":7584:7589   */\n      dup3\n        /* \"#utility.yul\":7557:7590   */\n      tag_202\n      jump\t// in\n    tag_334:\n        /* \"#utility.yul\":7544:7590   */\n      swap1\n      pop\n        /* \"#utility.yul\":7467:7596   */\n      swap2\n      swap1\n      pop\n      jump\t// out\n        /* \"#utility.yul\":7602:7737   */\n    tag_204:\n        /* \"#utility.yul\":7686:7730   */\n      tag_336\n        /* \"#utility.yul\":7724:7729   */\n      dup2\n        /* \"#utility.yul\":7686:7730   */\n      tag_203\n      jump\t// in\n    tag_336:\n        /* \"#utility.yul\":7681:7684   */\n      dup3\n        /* \"#utility.yul\":7674:7731   */\n      mstore\n        /* \"#utility.yul\":7602:7737   */\n      pop\n      pop\n      jump\t// out\n        /* \"#utility.yul\":7817:9635   */\n    tag_205:\n        /* \"#utility.yul\":7922:7925   */\n      0x00\n        /* \"#utility.yul\":7958:7964   */\n      0x0100\n        /* \"#utility.yul\":7953:7956   */\n      dup4\n        /* \"#utility.yul\":7949:7965   */\n      add\n        /* \"#utility.yul\":8048:8052   */\n      0x00\n        /* \"#utility.yul\":8041:8046   */\n      dup4\n        /* \"#utility.yul\":8037:8053   */\n      add\n        /* \"#utility.yul\":8031:8054   */\n      mload\n        /* \"#utility.yul\":8067:8130   */\n      tag_338\n        /* \"#utility.yul\":8124:8128   */\n      0x00\n        /* \"#utility.yul\":8119:8122   */\n      dup7\n        /* \"#utility.yul\":8115:8129   */\n      add\n        /* \"#utility.yul\":8101:8113   */\n      dup3\n        /* \"#utility.yul\":8067:8130   */\n      tag_195\n      jump\t// in\n    tag_338:\n        /* \"#utility.yul\":7975:8140   */\n      pop\n        /* \"#utility.yul\":8229:8233   */\n      0x20\n        /* \"#utility.yul\":8222:8227   */\n      dup4\n        /* \"#utility.yul\":8218:8234   */\n      add\n        /* \"#utility.yul\":8212:8235   */\n      mload\n        /* \"#utility.yul\":8282:8285   */\n      dup5\n        /* \"#utility.yul\":8276:8280   */\n      dup3\n        /* \"#utility.yul\":8272:8286   */\n      sub\n        /* \"#utility.yul\":8265:8269   */\n      0x20\n        /* \"#utility.yul\":8260:8263   */\n      dup7\n        /* \"#utility.yul\":8256:8270   */\n      add\n        /* \"#utility.yul\":8249:8287   */\n      mstore\n        /* \"#utility.yul\":8308:8381   */\n      tag_339\n        /* \"#utility.yul\":8376:8380   */\n      dup3\n        /* \"#utility.yul\":8362:8374   */\n      dup3\n        /* \"#utility.yul\":8308:8381   */\n      tag_199\n      jump\t// in\n    tag_339:\n        /* \"#utility.yul\":8300:8381   */\n      swap2\n      pop\n        /* \"#utility.yul\":8150:8392   */\n      pop\n        /* \"#utility.yul\":8476:8480   */\n      0x40\n        /* \"#utility.yul\":8469:8474   */\n      dup4\n        /* \"#utility.yul\":8465:8481   */\n      add\n        /* \"#utility.yul\":8459:8482   */\n      mload\n        /* \"#utility.yul\":8529:8532   */\n      dup5\n        /* \"#utility.yul\":8523:8527   */\n      dup3\n        /* \"#utility.yul\":8519:8533   */\n      sub\n        /* \"#utility.yul\":8512:8516   */\n      0x40\n        /* \"#utility.yul\":8507:8510   */\n      dup7\n        /* \"#utility.yul\":8503:8517   */\n      add\n        /* \"#utility.yul\":8496:8534   */\n      mstore\n        /* \"#utility.yul\":8555:8628   */\n      tag_340\n        /* \"#utility.yul\":8623:8627   */\n      dup3\n        /* \"#utility.yul\":8609:8621   */\n      dup3\n        /* \"#utility.yul\":8555:8628   */\n      tag_199\n      jump\t// in\n    tag_340:\n        /* \"#utility.yul\":8547:8628   */\n      swap2\n      pop\n        /* \"#utility.yul\":8402:8639   */\n      pop\n        /* \"#utility.yul\":8725:8729   */\n      0x60\n        /* \"#utility.yul\":8718:8723   */\n      dup4\n        /* \"#utility.yul\":8714:8730   */\n      add\n        /* \"#utility.yul\":8708:8731   */\n      mload\n        /* \"#utility.yul\":8778:8781   */\n      dup5\n        /* \"#utility.yul\":8772:8776   */\n      dup3\n        /* \"#utility.yul\":8768:8782   */\n      sub\n        /* \"#utility.yul\":8761:8765   */\n      0x60\n        /* \"#utility.yul\":8756:8759   */\n      dup7\n        /* \"#utility.yul\":8752:8766   */\n      add\n        /* \"#utility.yul\":8745:8783   */\n      mstore\n        /* \"#utility.yul\":8804:8877   */\n      tag_341\n        /* \"#utility.yul\":8872:8876   */\n      dup3\n        /* \"#utility.yul\":8858:8870   */\n      dup3\n        /* \"#utility.yul\":8804:8877   */\n      tag_199\n      jump\t// in\n    tag_341:\n        /* \"#utility.yul\":8796:8877   */\n      swap2\n      pop\n        /* \"#utility.yul\":8649:8888   */\n      pop\n        /* \"#utility.yul\":8974:8978   */\n      0x80\n        /* \"#utility.yul\":8967:8972   */\n      dup4\n        /* \"#utility.yul\":8963:8979   */\n      add\n        /* \"#utility.yul\":8957:8980   */\n      mload\n        /* \"#utility.yul\":8993:9056   */\n      tag_342\n        /* \"#utility.yul\":9050:9054   */\n      0x80\n        /* \"#utility.yul\":9045:9048   */\n      dup7\n        /* \"#utility.yul\":9041:9055   */\n      add\n        /* \"#utility.yul\":9027:9039   */\n      dup3\n        /* \"#utility.yul\":8993:9056   */\n      tag_200\n      jump\t// in\n    tag_342:\n        /* \"#utility.yul\":8898:9066   */\n      pop\n        /* \"#utility.yul\":9155:9159   */\n      0xa0\n        /* \"#utility.yul\":9148:9153   */\n      dup4\n        /* \"#utility.yul\":9144:9160   */\n      add\n        /* \"#utility.yul\":9138:9161   */\n      mload\n        /* \"#utility.yul\":9174:9237   */\n      tag_343\n        /* \"#utility.yul\":9231:9235   */\n      0xa0\n        /* \"#utility.yul\":9226:9229   */\n      dup7\n        /* \"#utility.yul\":9222:9236   */\n      add\n        /* \"#utility.yul\":9208:9220   */\n      dup3\n        /* \"#utility.yul\":9174:9237   */\n      tag_200\n      jump\t// in\n    tag_343:\n        /* \"#utility.yul\":9076:9247   */\n      pop\n        /* \"#utility.yul\":9333:9337   */\n      0xc0\n        /* \"#utility.yul\":9326:9331   */\n      dup4\n        /* \"#utility.yul\":9322:9338   */\n      add\n        /* \"#utility.yul\":9316:9339   */\n      mload\n        /* \"#utility.yul\":9352:9415   */\n      tag_344\n        /* \"#utility.yul\":9409:9413   */\n      0xc0\n        /* \"#utility.yul\":9404:9407   */\n      dup7\n        /* \"#utility.yul\":9400:9414   */\n      add\n        /* \"#utility.yul\":9386:9398   */\n      dup3\n        /* \"#utility.yul\":9352:9415   */\n      tag_200\n      jump\t// in\n    tag_344:\n        /* \"#utility.yul\":9257:9425   */\n      pop\n        /* \"#utility.yul\":9509:9513   */\n      0xe0\n        /* \"#utility.yul\":9502:9507   */\n      dup4\n        /* \"#utility.yul\":9498:9514   */\n      add\n        /* \"#utility.yul\":9492:9515   */\n      mload\n        /* \"#utility.yul\":9528:9598   */\n      tag_345\n        /* \"#utility.yul\":9592:9596   */\n      0xe0\n        /* \"#utility.yul\":9587:9590   */\n      dup7\n        /* \"#utility.yul\":9583:9597   */\n      add\n        /* \"#utility.yul\":9569:9581   */\n      dup3\n        /* \"#utility.yul\":9528:9598   */\n      tag_204\n      jump\t// in\n    tag_345:\n        /* \"#utility.yul\":9435:9608   */\n      pop\n        /* \"#utility.yul\":9625:9629   */\n      dup1\n        /* \"#utility.yul\":9618:9629   */\n      swap2\n      pop\n        /* \"#utility.yul\":7927:9635   */\n      pop\n        /* \"#utility.yul\":7817:9635   */\n      swap3\n      swap2\n      pop\n      pop\n      jump\t// out\n        /* \"#utility.yul\":9641:9889   */\n    tag_206:\n        /* \"#utility.yul\":9756:9766   */\n      0x00\n        /* \"#utility.yul\":9791:9883   */\n      tag_347\n        /* \"#utility.yul\":9879:9882   */\n      dup4\n        /* \"#utility.yul\":9871:9877   */\n      dup4\n        /* \"#utility.yul\":9791:9883   */\n      tag_205\n      jump\t// in\n    tag_347:\n        /* \"#utility.yul\":9777:9883   */\n      swap1\n      pop\n        /* \"#utility.yul\":9641:9889   */\n      swap3\n      swap2\n      pop\n      pop\n      jump\t// out\n        /* \"#utility.yul\":9895:10031   */\n    tag_207:\n        /* \"#utility.yul\":9988:9992   */\n      0x00\n        /* \"#utility.yul\":10020:10024   */\n      0x20\n        /* \"#utility.yul\":10015:10018   */\n      dup3\n        /* \"#utility.yul\":10011:10025   */\n      add\n        /* \"#utility.yul\":10003:10025   */\n      swap1\n      pop\n        /* \"#utility.yul\":9895:10031   */\n      swap2\n      swap1\n      pop\n      jump\t// out\n        /* \"#utility.yul\":10115:11210   */\n    tag_208:\n        /* \"#utility.yul\":10280:10283   */\n      0x00\n        /* \"#utility.yul\":10309:10386   */\n      tag_350\n        /* \"#utility.yul\":10380:10385   */\n      dup3\n        /* \"#utility.yul\":10309:10386   */\n      tag_192\n      jump\t// in\n    tag_350:\n        /* \"#utility.yul\":10402:10511   */\n      tag_351\n        /* \"#utility.yul\":10504:10510   */\n      dup2\n        /* \"#utility.yul\":10499:10502   */\n      dup6\n        /* \"#utility.yul\":10402:10511   */\n      tag_193\n      jump\t// in\n    tag_351:\n        /* \"#utility.yul\":10395:10511   */\n      swap4\n      pop\n        /* \"#utility.yul\":10537:10540   */\n      dup4\n        /* \"#utility.yul\":10582:10586   */\n      0x20\n        /* \"#utility.yul\":10574:10580   */\n      dup3\n        /* \"#utility.yul\":10570:10587   */\n      mul\n        /* \"#utility.yul\":10565:10568   */\n      dup6\n        /* \"#utility.yul\":10561:10588   */\n      add\n        /* \"#utility.yul\":10612:10691   */\n      tag_352\n        /* \"#utility.yul\":10685:10690   */\n      dup6\n        /* \"#utility.yul\":10612:10691   */\n      tag_194\n      jump\t// in\n    tag_352:\n        /* \"#utility.yul\":10714:10721   */\n      dup1\n        /* \"#utility.yul\":10745:10746   */\n      0x00\n        /* \"#utility.yul\":10730:11165   */\n    tag_353:\n        /* \"#utility.yul\":10755:10761   */\n      dup6\n        /* \"#utility.yul\":10752:10753   */\n      dup2\n        /* \"#utility.yul\":10749:10762   */\n      lt\n        /* \"#utility.yul\":10730:11165   */\n      iszero\n      tag_355\n      jumpi\n        /* \"#utility.yul\":10826:10835   */\n      dup5\n        /* \"#utility.yul\":10820:10824   */\n      dup5\n        /* \"#utility.yul\":10816:10836   */\n      sub\n        /* \"#utility.yul\":10811:10814   */\n      dup10\n        /* \"#utility.yul\":10804:10837   */\n      mstore\n        /* \"#utility.yul\":10877:10883   */\n      dup2\n        /* \"#utility.yul\":10871:10884   */\n      mload\n        /* \"#utility.yul\":10905:11015   */\n      tag_356\n        /* \"#utility.yul\":11010:11014   */\n      dup6\n        /* \"#utility.yul\":10995:11008   */\n      dup3\n        /* \"#utility.yul\":10905:11015   */\n      tag_206\n      jump\t// in\n    tag_356:\n        /* \"#utility.yul\":10897:11015   */\n      swap5\n      pop\n        /* \"#utility.yul\":11038:11121   */\n      tag_357\n        /* \"#utility.yul\":11114:11120   */\n      dup4\n        /* \"#utility.yul\":11038:11121   */\n      tag_207\n      jump\t// in\n    tag_357:\n        /* \"#utility.yul\":11028:11121   */\n      swap3\n      pop\n        /* \"#utility.yul\":11150:11154   */\n      0x20\n        /* \"#utility.yul\":11145:11148   */\n      dup11\n        /* \"#utility.yul\":11141:11155   */\n      add\n        /* \"#utility.yul\":11134:11155   */\n      swap10\n      pop\n        /* \"#utility.yul\":10790:11165   */\n      pop\n        /* \"#utility.yul\":10777:10778   */\n      0x01\n        /* \"#utility.yul\":10774:10775   */\n      dup2\n        /* \"#utility.yul\":10770:10779   */\n      add\n        /* \"#utility.yul\":10765:10779   */\n      swap1\n      pop\n        /* \"#utility.yul\":10730:11165   */\n      jump(tag_353)\n    tag_355:\n        /* \"#utility.yul\":10734:10748   */\n      pop\n        /* \"#utility.yul\":11181:11185   */\n      dup3\n        /* \"#utility.yul\":11174:11185   */\n      swap8\n      pop\n        /* \"#utility.yul\":11201:11204   */\n      dup8\n        /* \"#utility.yul\":11194:11204   */\n      swap6\n      pop\n        /* \"#utility.yul\":10285:11210   */\n      pop\n      pop\n      pop\n      pop\n      pop\n        /* \"#utility.yul\":10115:11210   */\n      swap3\n      swap2\n      pop\n      pop\n      jump\t// out\n        /* \"#utility.yul\":11216:11681   */\n    tag_29:\n        /* \"#utility.yul\":11405:11409   */\n      0x00\n        /* \"#utility.yul\":11443:11445   */\n      0x20\n        /* \"#utility.yul\":11432:11441   */\n      dup3\n        /* \"#utility.yul\":11428:11446   */\n      add\n        /* \"#utility.yul\":11420:11446   */\n      swap1\n      pop\n        /* \"#utility.yul\":11492:11501   */\n      dup2\n        /* \"#utility.yul\":11486:11490   */\n      dup2\n        /* \"#utility.yul\":11482:11502   */\n      sub\n        /* \"#utility.yul\":11478:11479   */\n      0x00\n        /* \"#utility.yul\":11467:11476   */\n      dup4\n        /* \"#utility.yul\":11463:11480   */\n      add\n        /* \"#utility.yul\":11456:11503   */\n      mstore\n        /* \"#utility.yul\":11520:11674   */\n      tag_359\n        /* \"#utility.yul\":11669:11673   */\n      dup2\n        /* \"#utility.yul\":11660:11666   */\n      dup5\n        /* \"#utility.yul\":11520:11674   */\n      tag_208\n      jump\t// in\n    tag_359:\n        /* \"#utility.yul\":11512:11674   */\n      swap1\n      pop\n        /* \"#utility.yul\":11216:11681   */\n      swap3\n      swap2\n      pop\n      pop\n      jump\t// out\n        /* \"#utility.yul\":11761:13589   */\n    tag_209:\n        /* \"#utility.yul\":11876:11879   */\n      0x00\n        /* \"#utility.yul\":11912:11918   */\n      0x0100\n        /* \"#utility.yul\":11907:11910   */\n      dup4\n        /* \"#utility.yul\":11903:11919   */\n      add\n        /* \"#utility.yul\":12002:12006   */\n      0x00\n        /* \"#utility.yul\":11995:12000   */\n      dup4\n        /* \"#utility.yul\":11991:12007   */\n      add\n        /* \"#utility.yul\":11985:12008   */\n      mload\n        /* \"#utility.yul\":12021:12084   */\n      tag_361\n        /* \"#utility.yul\":12078:12082   */\n      0x00\n        /* \"#utility.yul\":12073:12076   */\n      dup7\n        /* \"#utility.yul\":12069:12083   */\n      add\n        /* \"#utility.yul\":12055:12067   */\n      dup3\n        /* \"#utility.yul\":12021:12084   */\n      tag_195\n      jump\t// in\n    tag_361:\n        /* \"#utility.yul\":11929:12094   */\n      pop\n        /* \"#utility.yul\":12183:12187   */\n      0x20\n        /* \"#utility.yul\":12176:12181   */\n      dup4\n        /* \"#utility.yul\":12172:12188   */\n      add\n        /* \"#utility.yul\":12166:12189   */\n      mload\n        /* \"#utility.yul\":12236:12239   */\n      dup5\n        /* \"#utility.yul\":12230:12234   */\n      dup3\n        /* \"#utility.yul\":12226:12240   */\n      sub\n        /* \"#utility.yul\":12219:12223   */\n      0x20\n        /* \"#utility.yul\":12214:12217   */\n      dup7\n        /* \"#utility.yul\":12210:12224   */\n      add\n        /* \"#utility.yul\":12203:12241   */\n      mstore\n        /* \"#utility.yul\":12262:12335   */\n      tag_362\n        /* \"#utility.yul\":12330:12334   */\n      dup3\n        /* \"#utility.yul\":12316:12328   */\n      dup3\n        /* \"#utility.yul\":12262:12335   */\n      tag_199\n      jump\t// in\n    tag_362:\n        /* \"#utility.yul\":12254:12335   */\n      swap2\n      pop\n        /* \"#utility.yul\":12104:12346   */\n      pop\n        /* \"#utility.yul\":12430:12434   */\n      0x40\n        /* \"#utility.yul\":12423:12428   */\n      dup4\n        /* \"#utility.yul\":12419:12435   */\n      add\n        /* \"#utility.yul\":12413:12436   */\n      mload\n        /* \"#utility.yul\":12483:12486   */\n      dup5\n        /* \"#utility.yul\":12477:12481   */\n      dup3\n        /* \"#utility.yul\":12473:12487   */\n      sub\n        /* \"#utility.yul\":12466:12470   */\n      0x40\n        /* \"#utility.yul\":12461:12464   */\n      dup7\n        /* \"#utility.yul\":12457:12471   */\n      add\n        /* \"#utility.yul\":12450:12488   */\n      mstore\n        /* \"#utility.yul\":12509:12582   */\n      tag_363\n        /* \"#utility.yul\":12577:12581   */\n      dup3\n        /* \"#utility.yul\":12563:12575   */\n      dup3\n        /* \"#utility.yul\":12509:12582   */\n      tag_199\n      jump\t// in\n    tag_363:\n        /* \"#utility.yul\":12501:12582   */\n      swap2\n      pop\n        /* \"#utility.yul\":12356:12593   */\n      pop\n        /* \"#utility.yul\":12679:12683   */\n      0x60\n        /* \"#utility.yul\":12672:12677   */\n      dup4\n        /* \"#utility.yul\":12668:12684   */\n      add\n        /* \"#utility.yul\":12662:12685   */\n      mload\n        /* \"#utility.yul\":12732:12735   */\n      dup5\n        /* \"#utility.yul\":12726:12730   */\n      dup3\n        /* \"#utility.yul\":12722:12736   */\n      sub\n        /* \"#utility.yul\":12715:12719   */\n      0x60\n        /* \"#utility.yul\":12710:12713   */\n      dup7\n        /* \"#utility.yul\":12706:12720   */\n      add\n        /* \"#utility.yul\":12699:12737   */\n      mstore\n        /* \"#utility.yul\":12758:12831   */\n      tag_364\n        /* \"#utility.yul\":12826:12830   */\n      dup3\n        /* \"#utility.yul\":12812:12824   */\n      dup3\n        /* \"#utility.yul\":12758:12831   */\n      tag_199\n      jump\t// in\n    tag_364:\n        /* \"#utility.yul\":12750:12831   */\n      swap2\n      pop\n        /* \"#utility.yul\":12603:12842   */\n      pop\n        /* \"#utility.yul\":12928:12932   */\n      0x80\n        /* \"#utility.yul\":12921:12926   */\n      dup4\n        /* \"#utility.yul\":12917:12933   */\n      add\n        /* \"#utility.yul\":12911:12934   */\n      mload\n        /* \"#utility.yul\":12947:13010   */\n      tag_365\n        /* \"#utility.yul\":13004:13008   */\n      0x80\n        /* \"#utility.yul\":12999:13002   */\n      dup7\n        /* \"#utility.yul\":12995:13009   */\n      add\n        /* \"#utility.yul\":12981:12993   */\n      dup3\n        /* \"#utility.yul\":12947:13010   */\n      tag_200\n      jump\t// in\n    tag_365:\n        /* \"#utility.yul\":12852:13020   */\n      pop\n        /* \"#utility.yul\":13109:13113   */\n      0xa0\n        /* \"#utility.yul\":13102:13107   */\n      dup4\n        /* \"#utility.yul\":13098:13114   */\n      add\n        /* \"#utility.yul\":13092:13115   */\n      mload\n        /* \"#utility.yul\":13128:13191   */\n      tag_366\n        /* \"#utility.yul\":13185:13189   */\n      0xa0\n        /* \"#utility.yul\":13180:13183   */\n      dup7\n        /* \"#utility.yul\":13176:13190   */\n      add\n        /* \"#utility.yul\":13162:13174   */\n      dup3\n        /* \"#utility.yul\":13128:13191   */\n      tag_200\n      jump\t// in\n    tag_366:\n        /* \"#utility.yul\":13030:13201   */\n      pop\n        /* \"#utility.yul\":13287:13291   */\n      0xc0\n        /* \"#utility.yul\":13280:13285   */\n      dup4\n        /* \"#utility.yul\":13276:13292   */\n      add\n        /* \"#utility.yul\":13270:13293   */\n      mload\n        /* \"#utility.yul\":13306:13369   */\n      tag_367\n        /* \"#utility.yul\":13363:13367   */\n      0xc0\n        /* \"#utility.yul\":13358:13361   */\n      dup7\n        /* \"#utility.yul\":13354:13368   */\n      add\n        /* \"#utility.yul\":13340:13352   */\n      dup3\n        /* \"#utility.yul\":13306:13369   */\n      tag_200\n      jump\t// in\n    tag_367:\n        /* \"#utility.yul\":13211:13379   */\n      pop\n        /* \"#utility.yul\":13463:13467   */\n      0xe0\n        /* \"#utility.yul\":13456:13461   */\n      dup4\n        /* \"#utility.yul\":13452:13468   */\n      add\n        /* \"#utility.yul\":13446:13469   */\n      mload\n        /* \"#utility.yul\":13482:13552   */\n      tag_368\n        /* \"#utility.yul\":13546:13550   */\n      0xe0\n        /* \"#utility.yul\":13541:13544   */\n      dup7\n        /* \"#utility.yul\":13537:13551   */\n      add\n        /* \"#utility.yul\":13523:13535   */\n      dup3\n        /* \"#utility.yul\":13482:13552   */\n      tag_204\n      jump\t// in\n    tag_368:\n        /* \"#utility.yul\":13389:13562   */\n      pop\n        /* \"#utility.yul\":13579:13583   */\n      dup1\n        /* \"#utility.yul\":13572:13583   */\n      swap2\n      pop\n        /* \"#utility.yul\":11881:13589   */\n      pop\n        /* \"#utility.yul\":11761:13589   */\n      swap3\n      swap2\n      pop\n      pop\n      jump\t// out\n        /* \"#utility.yul\":13595:13960   */\n    tag_37:\n        /* \"#utility.yul\":13734:13738   */\n      0x00\n        /* \"#utility.yul\":13772:13774   */\n      0x20\n        /* \"#utility.yul\":13761:13770   */\n      dup3\n        /* \"#utility.yul\":13757:13775   */\n      add\n        /* \"#utility.yul\":13749:13775   */\n      swap1\n      pop\n        /* \"#utility.yul\":13821:13830   */\n      dup2\n        /* \"#utility.yul\":13815:13819   */\n      dup2\n        /* \"#utility.yul\":13811:13831   */\n      sub\n        /* \"#utility.yul\":13807:13808   */\n      0x00\n        /* \"#utility.yul\":13796:13805   */\n      dup4\n        /* \"#utility.yul\":13792:13809   */\n      add\n        /* \"#utility.yul\":13785:13832   */\n      mstore\n        /* \"#utility.yul\":13849:13953   */\n      tag_370\n        /* \"#utility.yul\":13948:13952   */\n      dup2\n        /* \"#utility.yul\":13939:13945   */\n      dup5\n        /* \"#utility.yul\":13849:13953   */\n      tag_209\n      jump\t// in\n    tag_370:\n        /* \"#utility.yul\":13841:13953   */\n      swap1\n      pop\n        /* \"#utility.yul\":13595:13960   */\n      swap3\n      swap2\n      pop\n      pop\n      jump\t// out\n        /* \"#utility.yul\":13966:14074   */\n    tag_210:\n        /* \"#utility.yul\":14048:14049   */\n      0x04\n        /* \"#utility.yul\":14041:14046   */\n      dup2\n        /* \"#utility.yul\":14038:14050   */\n      lt\n        /* \"#utility.yul\":14028:14068   */\n      tag_372\n      jumpi\n        /* \"#utility.yul\":14064:14065   */\n      0x00\n        /* \"#utility.yul\":14061:14062   */\n      dup1\n        /* \"#utility.yul\":14054:14066   */\n      revert\n        /* \"#utility.yul\":14028:14068   */\n    tag_372:\n        /* \"#utility.yul\":13966:14074   */\n      pop\n      jump\t// out\n        /* \"#utility.yul\":14080:14237   */\n    tag_211:\n        /* \"#utility.yul\":14135:14140   */\n      0x00\n        /* \"#utility.yul\":14173:14179   */\n      dup2\n        /* \"#utility.yul\":14160:14180   */\n      calldataload\n        /* \"#utility.yul\":14151:14180   */\n      swap1\n      pop\n        /* \"#utility.yul\":14189:14231   */\n      tag_374\n        /* \"#utility.yul\":14225:14230   */\n      dup2\n        /* \"#utility.yul\":14189:14231   */\n      tag_210\n      jump\t// in\n    tag_374:\n        /* \"#utility.yul\":14080:14237   */\n      swap3\n      swap2\n      pop\n      pop\n      jump\t// out\n        /* \"#utility.yul\":14243:15060   */\n    tag_40:\n        /* \"#utility.yul\":14339:14345   */\n      0x00\n        /* \"#utility.yul\":14347:14353   */\n      dup1\n        /* \"#utility.yul\":14355:14361   */\n      0x00\n        /* \"#utility.yul\":14404:14406   */\n      0x60\n        /* \"#utility.yul\":14392:14401   */\n      dup5\n        /* \"#utility.yul\":14383:14390   */\n      dup7\n        /* \"#utility.yul\":14379:14402   */\n      sub\n        /* \"#utility.yul\":14375:14407   */\n      slt\n        /* \"#utility.yul\":14372:14491   */\n      iszero\n      tag_376\n      jumpi\n        /* \"#utility.yul\":14410:14489   */\n      tag_377\n      tag_174\n      jump\t// in\n    tag_377:\n        /* \"#utility.yul\":14372:14491   */\n    tag_376:\n        /* \"#utility.yul\":14530:14531   */\n      0x00\n        /* \"#utility.yul\":14555:14608   */\n      tag_378\n        /* \"#utility.yul\":14600:14607   */\n      dup7\n        /* \"#utility.yul\":14591:14597   */\n      dup3\n        /* \"#utility.yul\":14580:14589   */\n      dup8\n        /* \"#utility.yul\":14576:14598   */\n      add\n        /* \"#utility.yul\":14555:14608   */\n      tag_178\n      jump\t// in\n    tag_378:\n        /* \"#utility.yul\":14545:14608   */\n      swap4\n      pop\n        /* \"#utility.yul\":14501:14618   */\n      pop\n        /* \"#utility.yul\":14685:14687   */\n      0x20\n        /* \"#utility.yul\":14674:14683   */\n      dup5\n        /* \"#utility.yul\":14670:14688   */\n      add\n        /* \"#utility.yul\":14657:14689   */\n      calldataload\n        /* \"#utility.yul\":14716:14734   */\n      0xffffffffffffffff\n        /* \"#utility.yul\":14708:14714   */\n      dup2\n        /* \"#utility.yul\":14705:14735   */\n      gt\n        /* \"#utility.yul\":14702:14819   */\n      iszero\n      tag_379\n      jumpi\n        /* \"#utility.yul\":14738:14817   */\n      tag_380\n      tag_175\n      jump\t// in\n    tag_380:\n        /* \"#utility.yul\":14702:14819   */\n    tag_379:\n        /* \"#utility.yul\":14843:14906   */\n      tag_381\n        /* \"#utility.yul\":14898:14905   */\n      dup7\n        /* \"#utility.yul\":14889:14895   */\n      dup3\n        /* \"#utility.yul\":14878:14887   */\n      dup8\n        /* \"#utility.yul\":14874:14896   */\n      add\n        /* \"#utility.yul\":14843:14906   */\n      tag_191\n      jump\t// in\n    tag_381:\n        /* \"#utility.yul\":14833:14906   */\n      swap3\n      pop\n        /* \"#utility.yul\":14628:14916   */\n      pop\n        /* \"#utility.yul\":14955:14957   */\n      0x40\n        /* \"#utility.yul\":14981:15043   */\n      tag_382\n        /* \"#utility.yul\":15035:15042   */\n      dup7\n        /* \"#utility.yul\":15026:15032   */\n      dup3\n        /* \"#utility.yul\":15015:15024   */\n      dup8\n        /* \"#utility.yul\":15011:15033   */\n      add\n        /* \"#utility.yul\":14981:15043   */\n      tag_211\n      jump\t// in\n    tag_382:\n        /* \"#utility.yul\":14971:15043   */\n      swap2\n      pop\n        /* \"#utility.yul\":14926:15053   */\n      pop\n        /* \"#utility.yul\":14243:15060   */\n      swap3\n      pop\n      swap3\n      pop\n      swap3\n      jump\t// out\n        /* \"#utility.yul\":15066:15184   */\n    tag_212:\n        /* \"#utility.yul\":15153:15177   */\n      tag_384\n        /* \"#utility.yul\":15171:15176   */\n      dup2\n        /* \"#utility.yul\":15153:15177   */\n      tag_176\n      jump\t// in\n    tag_384:\n        /* \"#utility.yul\":15148:15151   */\n      dup3\n        /* \"#utility.yul\":15141:15178   */\n      mstore\n        /* \"#utility.yul\":15066:15184   */\n      pop\n      pop\n      jump\t// out\n        /* \"#utility.yul\":15190:15412   */\n    tag_45:\n        /* \"#utility.yul\":15283:15287   */\n      0x00\n        /* \"#utility.yul\":15321:15323   */\n      0x20\n        /* \"#utility.yul\":15310:15319   */\n      dup3\n        /* \"#utility.yul\":15306:15324   */\n      add\n        /* \"#utility.yul\":15298:15324   */\n      swap1\n      pop\n        /* \"#utility.yul\":15334:15405   */\n      tag_386\n        /* \"#utility.yul\":15402:15403   */\n      0x00\n        /* \"#utility.yul\":15391:15400   */\n      dup4\n        /* \"#utility.yul\":15387:15404   */\n      add\n        /* \"#utility.yul\":15378:15384   */\n      dup5\n        /* \"#utility.yul\":15334:15405   */\n      tag_212\n      jump\t// in\n    tag_386:\n        /* \"#utility.yul\":15190:15412   */\n      swap3\n      swap2\n      pop\n      pop\n      jump\t// out\n        /* \"#utility.yul\":15418:15536   */\n    tag_213:\n        /* \"#utility.yul\":15505:15529   */\n      tag_388\n        /* \"#utility.yul\":15523:15528   */\n      dup2\n        /* \"#utility.yul\":15505:15529   */\n      tag_180\n      jump\t// in\n    tag_388:\n        /* \"#utility.yul\":15500:15503   */\n      dup3\n        /* \"#utility.yul\":15493:15530   */\n      mstore\n        /* \"#utility.yul\":15418:15536   */\n      pop\n      pop\n      jump\t// out\n        /* \"#utility.yul\":15542:15764   */\n    tag_49:\n        /* \"#utility.yul\":15635:15639   */\n      0x00\n        /* \"#utility.yul\":15673:15675   */\n      0x20\n        /* \"#utility.yul\":15662:15671   */\n      dup3\n        /* \"#utility.yul\":15658:15676   */\n      add\n        /* \"#utility.yul\":15650:15676   */\n      swap1\n      pop\n        /* \"#utility.yul\":15686:15757   */\n      tag_390\n        /* \"#utility.yul\":15754:15755   */\n      0x00\n        /* \"#utility.yul\":15743:15752   */\n      dup4\n        /* \"#utility.yul\":15739:15756   */\n      add\n        /* \"#utility.yul\":15730:15736   */\n      dup5\n        /* \"#utility.yul\":15686:15757   */\n      tag_213\n      jump\t// in\n    tag_390:\n        /* \"#utility.yul\":15542:15764   */\n      swap3\n      swap2\n      pop\n      pop\n      jump\t// out\n        /* \"#utility.yul\":15770:15939   */\n    tag_214:\n        /* \"#utility.yul\":15854:15865   */\n      0x00\n        /* \"#utility.yul\":15888:15894   */\n      dup3\n        /* \"#utility.yul\":15883:15886   */\n      dup3\n        /* \"#utility.yul\":15876:15895   */\n      mstore\n        /* \"#utility.yul\":15928:15932   */\n      0x20\n        /* \"#utility.yul\":15923:15926   */\n      dup3\n        /* \"#utility.yul\":15919:15933   */\n      add\n        /* \"#utility.yul\":15904:15933   */\n      swap1\n      pop\n        /* \"#utility.yul\":15770:15939   */\n      swap3\n      swap2\n      pop\n      pop\n      jump\t// out\n        /* \"#utility.yul\":15945:16322   */\n    tag_215:\n        /* \"#utility.yul\":16033:16036   */\n      0x00\n        /* \"#utility.yul\":16061:16100   */\n      tag_393\n        /* \"#utility.yul\":16094:16099   */\n      dup3\n        /* \"#utility.yul\":16061:16100   */\n      tag_196\n      jump\t// in\n    tag_393:\n        /* \"#utility.yul\":16116:16187   */\n      tag_394\n        /* \"#utility.yul\":16180:16186   */\n      dup2\n        /* \"#utility.yul\":16175:16178   */\n      dup6\n        /* \"#utility.yul\":16116:16187   */\n      tag_214\n      jump\t// in\n    tag_394:\n        /* \"#utility.yul\":16109:16187   */\n      swap4\n      pop\n        /* \"#utility.yul\":16196:16261   */\n      tag_395\n        /* \"#utility.yul\":16254:16260   */\n      dup2\n        /* \"#utility.yul\":16249:16252   */\n      dup6\n        /* \"#utility.yul\":16242:16246   */\n      0x20\n        /* \"#utility.yul\":16235:16240   */\n      dup7\n        /* \"#utility.yul\":16231:16247   */\n      add\n        /* \"#utility.yul\":16196:16261   */\n      tag_198\n      jump\t// in\n    tag_395:\n        /* \"#utility.yul\":16286:16315   */\n      tag_396\n        /* \"#utility.yul\":16308:16314   */\n      dup2\n        /* \"#utility.yul\":16286:16315   */\n      tag_185\n      jump\t// in\n    tag_396:\n        /* \"#utility.yul\":16281:16284   */\n      dup5\n        /* \"#utility.yul\":16277:16316   */\n      add\n        /* \"#utility.yul\":16270:16316   */\n      swap2\n      pop\n        /* \"#utility.yul\":16037:16322   */\n      pop\n        /* \"#utility.yul\":15945:16322   */\n      swap3\n      swap2\n      pop\n      pop\n      jump\t// out\n        /* \"#utility.yul\":16328:16473   */\n    tag_216:\n        /* \"#utility.yul\":16422:16466   */\n      tag_398\n        /* \"#utility.yul\":16460:16465   */\n      dup2\n        /* \"#utility.yul\":16422:16466   */\n      tag_203\n      jump\t// in\n    tag_398:\n        /* \"#utility.yul\":16417:16420   */\n      dup3\n        /* \"#utility.yul\":16410:16467   */\n      mstore\n        /* \"#utility.yul\":16328:16473   */\n      pop\n      pop\n      jump\t// out\n        /* \"#utility.yul\":16479:17763   */\n    tag_54:\n        /* \"#utility.yul\":16835:16839   */\n      0x00\n        /* \"#utility.yul\":16873:16876   */\n      0x0100\n        /* \"#utility.yul\":16862:16871   */\n      dup3\n        /* \"#utility.yul\":16858:16877   */\n      add\n        /* \"#utility.yul\":16850:16877   */\n      swap1\n      pop\n        /* \"#utility.yul\":16887:16958   */\n      tag_400\n        /* \"#utility.yul\":16955:16956   */\n      0x00\n        /* \"#utility.yul\":16944:16953   */\n      dup4\n        /* \"#utility.yul\":16940:16957   */\n      add\n        /* \"#utility.yul\":16931:16937   */\n      dup12\n        /* \"#utility.yul\":16887:16958   */\n      tag_212\n      jump\t// in\n    tag_400:\n        /* \"#utility.yul\":17005:17014   */\n      dup2\n        /* \"#utility.yul\":16999:17003   */\n      dup2\n        /* \"#utility.yul\":16995:17015   */\n      sub\n        /* \"#utility.yul\":16990:16992   */\n      0x20\n        /* \"#utility.yul\":16979:16988   */\n      dup4\n        /* \"#utility.yul\":16975:16993   */\n      add\n        /* \"#utility.yul\":16968:17016   */\n      mstore\n        /* \"#utility.yul\":17033:17111   */\n      tag_401\n        /* \"#utility.yul\":17106:17110   */\n      dup2\n        /* \"#utility.yul\":17097:17103   */\n      dup11\n        /* \"#utility.yul\":17033:17111   */\n      tag_215\n      jump\t// in\n    tag_401:\n        /* \"#utility.yul\":17025:17111   */\n      swap1\n      pop\n        /* \"#utility.yul\":17158:17167   */\n      dup2\n        /* \"#utility.yul\":17152:17156   */\n      dup2\n        /* \"#utility.yul\":17148:17168   */\n      sub\n        /* \"#utility.yul\":17143:17145   */\n      0x40\n        /* \"#utility.yul\":17132:17141   */\n      dup4\n        /* \"#utility.yul\":17128:17146   */\n      add\n        /* \"#utility.yul\":17121:17169   */\n      mstore\n        /* \"#utility.yul\":17186:17264   */\n      tag_402\n        /* \"#utility.yul\":17259:17263   */\n      dup2\n        /* \"#utility.yul\":17250:17256   */\n      dup10\n        /* \"#utility.yul\":17186:17264   */\n      tag_215\n      jump\t// in\n    tag_402:\n        /* \"#utility.yul\":17178:17264   */\n      swap1\n      pop\n        /* \"#utility.yul\":17311:17320   */\n      dup2\n        /* \"#utility.yul\":17305:17309   */\n      dup2\n        /* \"#utility.yul\":17301:17321   */\n      sub\n        /* \"#utility.yul\":17296:17298   */\n      0x60\n        /* \"#utility.yul\":17285:17294   */\n      dup4\n        /* \"#utility.yul\":17281:17299   */\n      add\n        /* \"#utility.yul\":17274:17322   */\n      mstore\n        /* \"#utility.yul\":17339:17417   */\n      tag_403\n        /* \"#utility.yul\":17412:17416   */\n      dup2\n        /* \"#utility.yul\":17403:17409   */\n      dup9\n        /* \"#utility.yul\":17339:17417   */\n      tag_215\n      jump\t// in\n    tag_403:\n        /* \"#utility.yul\":17331:17417   */\n      swap1\n      pop\n        /* \"#utility.yul\":17427:17500   */\n      tag_404\n        /* \"#utility.yul\":17495:17498   */\n      0x80\n        /* \"#utility.yul\":17484:17493   */\n      dup4\n        /* \"#utility.yul\":17480:17499   */\n      add\n        /* \"#utility.yul\":17471:17477   */\n      dup8\n        /* \"#utility.yul\":17427:17500   */\n      tag_213\n      jump\t// in\n    tag_404:\n        /* \"#utility.yul\":17510:17583   */\n      tag_405\n        /* \"#utility.yul\":17578:17581   */\n      0xa0\n        /* \"#utility.yul\":17567:17576   */\n      dup4\n        /* \"#utility.yul\":17563:17582   */\n      add\n        /* \"#utility.yul\":17554:17560   */\n      dup7\n        /* \"#utility.yul\":17510:17583   */\n      tag_213\n      jump\t// in\n    tag_405:\n        /* \"#utility.yul\":17593:17666   */\n      tag_406\n        /* \"#utility.yul\":17661:17664   */\n      0xc0\n        /* \"#utility.yul\":17650:17659   */\n      dup4\n        /* \"#utility.yul\":17646:17665   */\n      add\n        /* \"#utility.yul\":17637:17643   */\n      dup6\n        /* \"#utility.yul\":17593:17666   */\n      tag_213\n      jump\t// in\n    tag_406:\n        /* \"#utility.yul\":17676:17756   */\n      tag_407\n        /* \"#utility.yul\":17751:17754   */\n      0xe0\n        /* \"#utility.yul\":17740:17749   */\n      dup4\n        /* \"#utility.yul\":17736:17755   */\n      add\n        /* \"#utility.yul\":17727:17733   */\n      dup5\n        /* \"#utility.yul\":17676:17756   */\n      tag_216\n      jump\t// in\n    tag_407:\n        /* \"#utility.yul\":16479:17763   */\n      swap10\n      swap9\n      pop\n      pop\n      pop\n      pop\n      pop\n      pop\n      pop\n      pop\n      pop\n      jump\t// out\n        /* \"#utility.yul\":17769:17989   */\n    tag_217:\n        /* \"#utility.yul\":17909:17943   */\n      0x4f6e6c7920726567756c61746f722063616e207472696767657220726563616c\n        /* \"#utility.yul\":17905:17906   */\n      0x00\n        /* \"#utility.yul\":17897:17903   */\n      dup3\n        /* \"#utility.yul\":17893:17907   */\n      add\n        /* \"#utility.yul\":17886:17944   */\n      mstore\n        /* \"#utility.yul\":17978:17981   */\n      0x6c00000000000000000000000000000000000000000000000000000000000000\n        /* \"#utility.yul\":17973:17975   */\n      0x20\n        /* \"#utility.yul\":17965:17971   */\n      dup3\n        /* \"#utility.yul\":17961:17976   */\n      add\n        /* \"#utility.yul\":17954:17982   */\n      mstore\n        /* \"#utility.yul\":17769:17989   */\n      pop\n      jump\t// out\n        /* \"#utility.yul\":17995:18361   */\n    tag_218:\n        /* \"#utility.yul\":18137:18140   */\n      0x00\n        /* \"#utility.yul\":18158:18225   */\n      tag_410\n        /* \"#utility.yul\":18222:18224   */\n      0x21\n        /* \"#utility.yul\":18217:18220   */\n      dup4\n        /* \"#utility.yul\":18158:18225   */\n      tag_214\n      jump\t// in\n    tag_410:\n        /* \"#utility.yul\":18151:18225   */\n      swap2\n      pop\n        /* \"#utility.yul\":18234:18327   */\n      tag_411\n        /* \"#utility.yul\":18323:18326   */\n      dup3\n        /* \"#utility.yul\":18234:18327   */\n      tag_217\n      jump\t// in\n    tag_411:\n        /* \"#utility.yul\":18352:18354   */\n      0x40\n        /* \"#utility.yul\":18347:18350   */\n      dup3\n        /* \"#utility.yul\":18343:18355   */\n      add\n        /* \"#utility.yul\":18336:18355   */\n      swap1\n      pop\n        /* \"#utility.yul\":17995:18361   */\n      swap2\n      swap1\n      pop\n      jump\t// out\n        /* \"#utility.yul\":18367:18786   */\n    tag_58:\n        /* \"#utility.yul\":18533:18537   */\n      0x00\n        /* \"#utility.yul\":18571:18573   */\n      0x20\n        /* \"#utility.yul\":18560:18569   */\n      dup3\n        /* \"#utility.yul\":18556:18574   */\n      add\n        /* \"#utility.yul\":18548:18574   */\n      swap1\n      pop\n        /* \"#utility.yul\":18620:18629   */\n      dup2\n        /* \"#utility.yul\":18614:18618   */\n      dup2\n        /* \"#utility.yul\":18610:18630   */\n      sub\n        /* \"#utility.yul\":18606:18607   */\n      0x00\n        /* \"#utility.yul\":18595:18604   */\n      dup4\n        /* \"#utility.yul\":18591:18608   */\n      add\n        /* \"#utility.yul\":18584:18631   */\n      mstore\n        /* \"#utility.yul\":18648:18779   */\n      tag_413\n        /* \"#utility.yul\":18774:18778   */\n      dup2\n        /* \"#utility.yul\":18648:18779   */\n      tag_218\n      jump\t// in\n    tag_413:\n        /* \"#utility.yul\":18640:18779   */\n      swap1\n      pop\n        /* \"#utility.yul\":18367:18786   */\n      swap2\n      swap1\n      pop\n      jump\t// out\n        /* \"#utility.yul\":18792:19015   */\n    tag_219:\n        /* \"#utility.yul\":18932:18966   */\n      0x4f6e6c79206469737472696275746f722063616e2061737369676e2072657461\n        /* \"#utility.yul\":18928:18929   */\n      0x00\n        /* \"#utility.yul\":18920:18926   */\n      dup3\n        /* \"#utility.yul\":18916:18930   */\n      add\n        /* \"#utility.yul\":18909:18967   */\n      mstore\n        /* \"#utility.yul\":19001:19007   */\n      0x696c657200000000000000000000000000000000000000000000000000000000\n        /* \"#utility.yul\":18996:18998   */\n      0x20\n        /* \"#utility.yul\":18988:18994   */\n      dup3\n        /* \"#utility.yul\":18984:18999   */\n      add\n        /* \"#utility.yul\":18977:19008   */\n      mstore\n        /* \"#utility.yul\":18792:19015   */\n      pop\n      jump\t// out\n        /* \"#utility.yul\":19021:19387   */\n    tag_220:\n        /* \"#utility.yul\":19163:19166   */\n      0x00\n        /* \"#utility.yul\":19184:19251   */\n      tag_416\n        /* \"#utility.yul\":19248:19250   */\n      0x24\n        /* \"#utility.yul\":19243:19246   */\n      dup4\n        /* \"#utility.yul\":19184:19251   */\n      tag_214\n      jump\t// in\n    tag_416:\n        /* \"#utility.yul\":19177:19251   */\n      swap2\n      pop\n        /* \"#utility.yul\":19260:19353   */\n      tag_417\n        /* \"#utility.yul\":19349:19352   */\n      dup3\n        /* \"#utility.yul\":19260:19353   */\n      tag_219\n      jump\t// in\n    tag_417:\n        /* \"#utility.yul\":19378:19380   */\n      0x40\n        /* \"#utility.yul\":19373:19376   */\n      dup3\n        /* \"#utility.yul\":19369:19381   */\n      add\n        /* \"#utility.yul\":19362:19381   */\n      swap1\n      pop\n        /* \"#utility.yul\":19021:19387   */\n      swap2\n      swap1\n      pop\n      jump\t// out\n        /* \"#utility.yul\":19393:19812   */\n    tag_66:\n        /* \"#utility.yul\":19559:19563   */\n      0x00\n        /* \"#utility.yul\":19597:19599   */\n      0x20\n        /* \"#utility.yul\":19586:19595   */\n      dup3\n        /* \"#utility.yul\":19582:19600   */\n      add\n        /* \"#utility.yul\":19574:19600   */\n      swap1\n      pop\n        /* \"#utility.yul\":19646:19655   */\n      dup2\n        /* \"#utility.yul\":19640:19644   */\n      dup2\n        /* \"#utility.yul\":19636:19656   */\n      sub\n        /* \"#utility.yul\":19632:19633   */\n      0x00\n        /* \"#utility.yul\":19621:19630   */\n      dup4\n        /* \"#utility.yul\":19617:19634   */\n      add\n        /* \"#utility.yul\":19610:19657   */\n      mstore\n        /* \"#utility.yul\":19674:19805   */\n      tag_419\n        /* \"#utility.yul\":19800:19804   */\n      dup2\n        /* \"#utility.yul\":19674:19805   */\n      tag_220\n      jump\t// in\n    tag_419:\n        /* \"#utility.yul\":19666:19805   */\n      swap1\n      pop\n        /* \"#utility.yul\":19393:19812   */\n      swap2\n      swap1\n      pop\n      jump\t// out\n        /* \"#utility.yul\":19818:19998   */\n    tag_221:\n        /* \"#utility.yul\":19866:19943   */\n      0x4e487b7100000000000000000000000000000000000000000000000000000000\n        /* \"#utility.yul\":19863:19864   */\n      0x00\n        /* \"#utility.yul\":19856:19944   */\n      mstore\n        /* \"#utility.yul\":19963:19967   */\n      0x11\n        /* \"#utility.yul\":19960:19961   */\n      0x04\n        /* \"#utility.yul\":19953:19968   */\n      mstore\n        /* \"#utility.yul\":19987:19991   */\n      0x24\n        /* \"#utility.yul\":19984:19985   */\n      0x00\n        /* \"#utility.yul\":19977:19992   */\n      revert\n        /* \"#utility.yul\":20004:20237   */\n    tag_69:\n        /* \"#utility.yul\":20043:20046   */\n      0x00\n        /* \"#utility.yul\":20066:20090   */\n      tag_422\n        /* \"#utility.yul\":20084:20089   */\n      dup3\n        /* \"#utility.yul\":20066:20090   */\n      tag_176\n      jump\t// in\n    tag_422:\n        /* \"#utility.yul\":20057:20090   */\n      swap2\n      pop\n        /* \"#utility.yul\":20112:20178   */\n      0xffffffffffffffffffffffffffffffffffffffffffffffffffffffffffffffff\n        /* \"#utility.yul\":20105:20110   */\n      dup3\n        /* \"#utility.yul\":20102:20179   */\n      sub\n        /* \"#utility.yul\":20099:20202   */\n      tag_423\n      jumpi\n        /* \"#utility.yul\":20182:20200   */\n      tag_424\n      tag_221\n      jump\t// in\n    tag_424:\n        /* \"#utility.yul\":20099:20202   */\n    tag_423:\n        /* \"#utility.yul\":20229:20230   */\n      0x01\n        /* \"#utility.yul\":20222:20227   */\n      dup3\n        /* \"#utility.yul\":20218:20231   */\n      add\n        /* \"#utility.yul\":20211:20231   */\n      swap1\n      pop\n        /* \"#utility.yul\":20004:20237   */\n      swap2\n      swap1\n      pop\n      jump\t// out\n        /* \"#utility.yul\":20243:20423   */\n    tag_222:\n        /* \"#utility.yul\":20291:20368   */\n      0x4e487b7100000000000000000000000000000000000000000000000000000000\n        /* \"#utility.yul\":20288:20289   */\n      0x00\n        /* \"#utility.yul\":20281:20369   */\n      mstore\n        /* \"#utility.yul\":20388:20392   */\n      0x22\n        /* \"#utility.yul\":20385:20386   */\n      0x04\n        /* \"#utility.yul\":20378:20393   */\n      mstore\n        /* \"#utility.yul\":20412:20416   */\n      0x24\n        /* \"#utility.yul\":20409:20410   */\n      0x00\n        /* \"#utility.yul\":20402:20417   */\n      revert\n        /* \"#utility.yul\":20429:20749   */\n    tag_95:\n        /* \"#utility.yul\":20473:20479   */\n      0x00\n        /* \"#utility.yul\":20510:20511   */\n      0x02\n        /* \"#utility.yul\":20504:20508   */\n      dup3\n        /* \"#utility.yul\":20500:20512   */\n      div\n        /* \"#utility.yul\":20490:20512   */\n      swap1\n      pop\n        /* \"#utility.yul\":20557:20558   */\n      0x01\n        /* \"#utility.yul\":20551:20555   */\n      dup3\n        /* \"#utility.yul\":20547:20559   */\n      and\n        /* \"#utility.yul\":20578:20596   */\n      dup1\n        /* \"#utility.yul\":20568:20649   */\n      tag_427\n      jumpi\n        /* \"#utility.yul\":20634:20638   */\n      0x7f\n        /* \"#utility.yul\":20626:20632   */\n      dup3\n        /* \"#utility.yul\":20622:20639   */\n      and\n        /* \"#utility.yul\":20612:20639   */\n      swap2\n      pop\n        /* \"#utility.yul\":20568:20649   */\n    tag_427:\n        /* \"#utility.yul\":20696:20698   */\n      0x20\n        /* \"#utility.yul\":20688:20694   */\n      dup3\n        /* \"#utility.yul\":20685:20699   */\n      lt\n        /* \"#utility.yul\":20665:20683   */\n      dup2\n        /* \"#utility.yul\":20662:20700   */\n      sub\n        /* \"#utility.yul\":20659:20743   */\n      tag_428\n      jumpi\n        /* \"#utility.yul\":20715:20733   */\n      tag_429\n      tag_222\n      jump\t// in\n    tag_429:\n        /* \"#utility.yul\":20659:20743   */\n    tag_428:\n        /* \"#utility.yul\":20480:20749   */\n      pop\n        /* \"#utility.yul\":20429:20749   */\n      swap2\n      swap1\n      pop\n      jump\t// out\n        /* \"#utility.yul\":20755:20896   */\n    tag_223:\n        /* \"#utility.yul\":20804:20808   */\n      0x00\n        /* \"#utility.yul\":20827:20830   */\n      dup2\n        /* \"#utility.yul\":20819:20830   */\n      swap1\n      pop\n        /* \"#utility.yul\":20850:20853   */\n      dup2\n        /* \"#utility.yul\":20847:20848   */\n      0x00\n        /* \"#utility.yul\":20840:20854   */\n      mstore\n        /* \"#utility.yul\":20884:20888   */\n      0x20\n        /* \"#utility.yul\":20881:20882   */\n      0x00\n        /* \"#utility.yul\":20871:20889   */\n      keccak256\n        /* \"#utility.yul\":20863:20889   */\n      swap1\n      pop\n        /* \"#utility.yul\":20755:20896   */\n      swap2\n      swap1\n      pop\n      jump\t// out\n        /* \"#utility.yul\":20902:20995   */\n    tag_224:\n        /* \"#utility.yul\":20939:20945   */\n      0x00\n        /* \"#utility.yul\":20986:20988   */\n      0x20\n        /* \"#utility.yul\":20981:20983   */\n      0x1f\n        /* \"#utility.yul\":20974:20979   */\n      dup4\n        /* \"#utility.yul\":20970:20984   */\n      add\n        /* \"#utility.yul\":20966:20989   */\n      div\n        /* \"#utility.yul\":20956:20989   */\n      swap1\n      pop\n        /* \"#utility.yul\":20902:20995   */\n      swap2\n      swap1\n      pop\n      jump\t// out\n        /* \"#utility.yul\":21001:21108   */\n    tag_225:\n        /* \"#utility.yul\":21045:21053   */\n      0x00\n        /* \"#utility.yul\":21095:21100   */\n      dup3\n        /* \"#utility.yul\":21089:21093   */\n      dup3\n        /* \"#utility.yul\":21085:21101   */\n      shl\n        /* \"#utility.yul\":21064:21101   */\n      swap1\n      pop\n        /* \"#utility.yul\":21001:21108   */\n      swap3\n      swap2\n      pop\n      pop\n      jump\t// out\n        /* \"#utility.yul\":21114:21507   */\n    tag_226:\n        /* \"#utility.yul\":21183:21189   */\n      0x00\n        /* \"#utility.yul\":21233:21234   */\n      0x08\n        /* \"#utility.yul\":21221:21231   */\n      dup4\n        /* \"#utility.yul\":21217:21235   */\n      mul\n        /* \"#utility.yul\":21256:21353   */\n      tag_434\n        /* \"#utility.yul\":21286:21352   */\n      0xffffffffffffffffffffffffffffffffffffffffffffffffffffffffffffffff\n        /* \"#utility.yul\":21275:21284   */\n      dup3\n        /* \"#utility.yul\":21256:21353   */\n      tag_225\n      jump\t// in\n    tag_434:\n        /* \"#utility.yul\":21374:21413   */\n      tag_435\n        /* \"#utility.yul\":21404:21412   */\n      dup7\n        /* \"#utility.yul\":21393:21402   */\n      dup4\n        /* \"#utility.yul\":21374:21413   */\n      tag_225\n      jump\t// in\n    tag_435:\n        /* \"#utility.yul\":21362:21413   */\n      swap6\n      pop\n        /* \"#utility.yul\":21446:21450   */\n      dup1\n        /* \"#utility.yul\":21442:21451   */\n      not\n        /* \"#utility.yul\":21435:21440   */\n      dup5\n        /* \"#utility.yul\":21431:21452   */\n      and\n        /* \"#utility.yul\":21422:21452   */\n      swap4\n      pop\n        /* \"#utility.yul\":21495:21499   */\n      dup1\n        /* \"#utility.yul\":21485:21493   */\n      dup7\n        /* \"#utility.yul\":21481:21500   */\n      and\n        /* \"#utility.yul\":21474:21479   */\n      dup5\n        /* \"#utility.yul\":21471:21501   */\n      or\n        /* \"#utility.yul\":21461:21501   */\n      swap3\n      pop\n        /* \"#utility.yul\":21190:21507   */\n      pop\n      pop\n        /* \"#utility.yul\":21114:21507   */\n      swap4\n      swap3\n      pop\n      pop\n      pop\n      jump\t// out\n        /* \"#utility.yul\":21513:21573   */\n    tag_227:\n        /* \"#utility.yul\":21541:21544   */\n      0x00\n        /* \"#utility.yul\":21562:21567   */\n      dup2\n        /* \"#utility.yul\":21555:21567   */\n      swap1\n      pop\n        /* \"#utility.yul\":21513:21573   */\n      swap2\n      swap1\n      pop\n      jump\t// out\n        /* \"#utility.yul\":21579:21721   */\n    tag_228:\n        /* \"#utility.yul\":21629:21638   */\n      0x00\n        /* \"#utility.yul\":21662:21715   */\n      tag_438\n        /* \"#utility.yul\":21680:21714   */\n      tag_439\n        /* \"#utility.yul\":21689:21713   */\n      tag_440\n        /* \"#utility.yul\":21707:21712   */\n      dup5\n        /* \"#utility.yul\":21689:21713   */\n      tag_176\n      jump\t// in\n    tag_440:\n        /* \"#utility.yul\":21680:21714   */\n      tag_227\n      jump\t// in\n    tag_439:\n        /* \"#utility.yul\":21662:21715   */\n      tag_176\n      jump\t// in\n    tag_438:\n        /* \"#utility.yul\":21649:21715   */\n      swap1\n      pop\n        /* \"#utility.yul\":21579:21721   */\n      swap2\n      swap1\n      pop\n      jump\t// out\n        /* \"#utility.yul\":21727:21802   */\n    tag_229:\n        /* \"#utility.yul\":21770:21773   */\n      0x00\n        /* \"#utility.yul\":21791:21796   */\n      dup2\n        /* \"#utility.yul\":21784:21796   */\n      swap1\n      pop\n        /* \"#utility.yul\":21727:21802   */\n      swap2\n      swap1\n      pop\n      jump\t// out\n        /* \"#utility.yul\":21808:22077   */\n    tag_230:\n        /* \"#utility.yul\":21918:21957   */\n      tag_443\n        /* \"#utility.yul\":21949:21956   */\n      dup4\n        /* \"#utility.yul\":21918:21957   */\n      tag_228\n      jump\t// in\n    tag_443:\n        /* \"#utility.yul\":21979:22070   */\n      tag_444\n        /* \"#utility.yul\":22028:22069   */\n      tag_445\n        /* \"#utility.yul\":22052:22068   */\n      dup3\n        /* \"#utility.yul\":22028:22069   */\n      tag_229\n      jump\t// in\n    tag_445:\n        /* \"#utility.yul\":22020:22026   */\n      dup5\n        /* \"#utility.yul\":22013:22017   */\n      dup5\n        /* \"#utility.yul\":22007:22018   */\n      sload\n        /* \"#utility.yul\":21979:22070   */\n      tag_226\n      jump\t// in\n    tag_444:\n        /* \"#utility.yul\":21973:21977   */\n      dup3\n        /* \"#utility.yul\":21966:22071   */\n      sstore\n        /* \"#utility.yul\":21884:22077   */\n      pop\n        /* \"#utility.yul\":21808:22077   */\n      pop\n      pop\n      pop\n      jump\t// out\n        /* \"#utility.yul\":22083:22156   */\n    tag_231:\n        /* \"#utility.yul\":22128:22131   */\n      0x00\n        /* \"#utility.yul\":22083:22156   */\n      swap1\n      jump\t// out\n        /* \"#utility.yul\":22162:22351   */\n    tag_232:\n        /* \"#utility.yul\":22239:22271   */\n      tag_448\n      tag_231\n      jump\t// in\n    tag_448:\n        /* \"#utility.yul\":22280:22345   */\n      tag_449\n        /* \"#utility.yul\":22338:22344   */\n      dup2\n        /* \"#utility.yul\":22330:22336   */\n      dup5\n        /* \"#utility.yul\":22324:22328   */\n      dup5\n        /* \"#utility.yul\":22280:22345   */\n      tag_230\n      jump\t// in\n    tag_449:\n        /* \"#utility.yul\":22215:22351   */\n      pop\n        /* \"#utility.yul\":22162:22351   */\n      pop\n      pop\n      jump\t// out\n        /* \"#utility.yul\":22357:22543   */\n    tag_233:\n        /* \"#utility.yul\":22417:22537   */\n    tag_451:\n        /* \"#utility.yul\":22434:22437   */\n      dup2\n        /* \"#utility.yul\":22427:22432   */\n      dup2\n        /* \"#utility.yul\":22424:22438   */\n      lt\n        /* \"#utility.yul\":22417:22537   */\n      iszero\n      tag_453\n      jumpi\n        /* \"#utility.yul\":22488:22527   */\n      tag_454\n        /* \"#utility.yul\":22525:22526   */\n      0x00\n        /* \"#utility.yul\":22518:22523   */\n      dup3\n        /* \"#utility.yul\":22488:22527   */\n      tag_232\n      jump\t// in\n    tag_454:\n        /* \"#utility.yul\":22461:22462   */\n      0x01\n        /* \"#utility.yul\":22454:22459   */\n      dup2\n        /* \"#utility.yul\":22450:22463   */\n      add\n        /* \"#utility.yul\":22441:22463   */\n      swap1\n      pop\n        /* \"#utility.yul\":22417:22537   */\n      jump(tag_451)\n    tag_453:\n        /* \"#utility.yul\":22357:22543   */\n      pop\n      pop\n      jump\t// out\n        /* \"#utility.yul\":22549:23092   */\n    tag_234:\n        /* \"#utility.yul\":22650:22652   */\n      0x1f\n        /* \"#utility.yul\":22645:22648   */\n      dup3\n        /* \"#utility.yul\":22642:22653   */\n      gt\n        /* \"#utility.yul\":22639:23085   */\n      iszero\n      tag_456\n      jumpi\n        /* \"#utility.yul\":22684:22722   */\n      tag_457\n        /* \"#utility.yul\":22716:22721   */\n      dup2\n        /* \"#utility.yul\":22684:22722   */\n      tag_223\n      jump\t// in\n    tag_457:\n        /* \"#utility.yul\":22768:22797   */\n      tag_458\n        /* \"#utility.yul\":22786:22796   */\n      dup5\n        /* \"#utility.yul\":22768:22797   */\n      tag_224\n      jump\t// in\n    tag_458:\n        /* \"#utility.yul\":22758:22766   */\n      dup2\n        /* \"#utility.yul\":22754:22798   */\n      add\n        /* \"#utility.yul\":22951:22953   */\n      0x20\n        /* \"#utility.yul\":22939:22949   */\n      dup6\n        /* \"#utility.yul\":22936:22954   */\n      lt\n        /* \"#utility.yul\":22933:22982   */\n      iszero\n      tag_459\n      jumpi\n        /* \"#utility.yul\":22972:22980   */\n      dup2\n        /* \"#utility.yul\":22957:22980   */\n      swap1\n      pop\n        /* \"#utility.yul\":22933:22982   */\n    tag_459:\n        /* \"#utility.yul\":22995:23075   */\n      tag_460\n        /* \"#utility.yul\":23051:23073   */\n      tag_461\n        /* \"#utility.yul\":23069:23072   */\n      dup6\n        /* \"#utility.yul\":23051:23073   */\n      tag_224\n      jump\t// in\n    tag_461:\n        /* \"#utility.yul\":23041:23049   */\n      dup4\n        /* \"#utility.yul\":23037:23074   */\n      add\n        /* \"#utility.yul\":23024:23035   */\n      dup3\n        /* \"#utility.yul\":22995:23075   */\n      tag_233\n      jump\t// in\n    tag_460:\n        /* \"#utility.yul\":22654:23085   */\n      pop\n      pop\n        /* \"#utility.yul\":22639:23085   */\n    tag_456:\n        /* \"#utility.yul\":22549:23092   */\n      pop\n      pop\n      pop\n      jump\t// out\n        /* \"#utility.yul\":23098:23215   */\n    tag_235:\n        /* \"#utility.yul\":23152:23160   */\n      0x00\n        /* \"#utility.yul\":23202:23207   */\n      dup3\n        /* \"#utility.yul\":23196:23200   */\n      dup3\n        /* \"#utility.yul\":23192:23208   */\n      shr\n        /* \"#utility.yul\":23171:23208   */\n      swap1\n      pop\n        /* \"#utility.yul\":23098:23215   */\n      swap3\n      swap2\n      pop\n      pop\n      jump\t// out\n        /* \"#utility.yul\":23221:23390   */\n    tag_236:\n        /* \"#utility.yul\":23265:23271   */\n      0x00\n        /* \"#utility.yul\":23298:23349   */\n      tag_464\n        /* \"#utility.yul\":23346:23347   */\n      0x00\n        /* \"#utility.yul\":23342:23348   */\n      not\n        /* \"#utility.yul\":23334:23339   */\n      dup5\n        /* \"#utility.yul\":23331:23332   */\n      0x08\n        /* \"#utility.yul\":23327:23340   */\n      mul\n        /* \"#utility.yul\":23298:23349   */\n      tag_235\n      jump\t// in\n    tag_464:\n        /* \"#utility.yul\":23294:23350   */\n      not\n        /* \"#utility.yul\":23379:23383   */\n      dup1\n        /* \"#utility.yul\":23373:23377   */\n      dup4\n        /* \"#utility.yul\":23369:23384   */\n      and\n        /* \"#utility.yul\":23359:23384   */\n      swap2\n      pop\n        /* \"#utility.yul\":23272:23390   */\n      pop\n        /* \"#utility.yul\":23221:23390   */\n      swap3\n      swap2\n      pop\n      pop\n      jump\t// out\n        /* \"#utility.yul\":23395:23690   */\n    tag_237:\n        /* \"#utility.yul\":23471:23475   */\n      0x00\n        /* \"#utility.yul\":23617:23646   */\n      tag_466\n        /* \"#utility.yul\":23642:23645   */\n      dup4\n        /* \"#utility.yul\":23636:23640   */\n      dup4\n        /* \"#utility.yul\":23617:23646   */\n      tag_236\n      jump\t// in\n    tag_466:\n        /* \"#utility.yul\":23609:23646   */\n      swap2\n      pop\n        /* \"#utility.yul\":23679:23682   */\n      dup3\n        /* \"#utility.yul\":23676:23677   */\n      0x02\n        /* \"#utility.yul\":23672:23683   */\n      mul\n        /* \"#utility.yul\":23666:23670   */\n      dup3\n        /* \"#utility.yul\":23663:23684   */\n      or\n        /* \"#utility.yul\":23655:23684   */\n      swap1\n      pop\n        /* \"#utility.yul\":23395:23690   */\n      swap3\n      swap2\n      pop\n      pop\n      jump\t// out\n        /* \"#utility.yul\":23695:25090   */\n    tag_73:\n        /* \"#utility.yul\":23812:23849   */\n      tag_468\n        /* \"#utility.yul\":23845:23848   */\n      dup3\n        /* \"#utility.yul\":23812:23849   */\n      tag_196\n      jump\t// in\n    tag_468:\n        /* \"#utility.yul\":23914:23932   */\n      0xffffffffffffffff\n        /* \"#utility.yul\":23906:23912   */\n      dup2\n        /* \"#utility.yul\":23903:23933   */\n      gt\n        /* \"#utility.yul\":23900:23956   */\n      iszero\n      tag_469\n      jumpi\n        /* \"#utility.yul\":23936:23954   */\n      tag_470\n      tag_86\n      jump\t// in\n    tag_470:\n        /* \"#utility.yul\":23900:23956   */\n    tag_469:\n        /* \"#utility.yul\":23980:24018   */\n      tag_471\n        /* \"#utility.yul\":24012:24016   */\n      dup3\n        /* \"#utility.yul\":24006:24017   */\n      sload\n        /* \"#utility.yul\":23980:24018   */\n      tag_95\n      jump\t// in\n    tag_471:\n        /* \"#utility.yul\":24065:24132   */\n      tag_472\n        /* \"#utility.yul\":24125:24131   */\n      dup3\n        /* \"#utility.yul\":24117:24123   */\n      dup3\n        /* \"#utility.yul\":24111:24115   */\n      dup6\n        /* \"#utility.yul\":24065:24132   */\n      tag_234\n      jump\t// in\n    tag_472:\n        /* \"#utility.yul\":24159:24160   */\n      0x00\n        /* \"#utility.yul\":24183:24187   */\n      0x20\n        /* \"#utility.yul\":24170:24187   */\n      swap1\n      pop\n        /* \"#utility.yul\":24215:24217   */\n      0x1f\n        /* \"#utility.yul\":24207:24213   */\n      dup4\n        /* \"#utility.yul\":24204:24218   */\n      gt\n        /* \"#utility.yul\":24232:24233   */\n      0x01\n        /* \"#utility.yul\":24227:24845   */\n      dup2\n      eq\n      tag_474\n      jumpi\n        /* \"#utility.yul\":24889:24890   */\n      0x00\n        /* \"#utility.yul\":24906:24912   */\n      dup5\n        /* \"#utility.yul\":24903:24980   */\n      iszero\n      tag_475\n      jumpi\n        /* \"#utility.yul\":24955:24964   */\n      dup3\n        /* \"#utility.yul\":24950:24953   */\n      dup8\n        /* \"#utility.yul\":24946:24965   */\n      add\n        /* \"#utility.yul\":24940:24966   */\n      mload\n        /* \"#utility.yul\":24931:24966   */\n      swap1\n      pop\n        /* \"#utility.yul\":24903:24980   */\n    tag_475:\n        /* \"#utility.yul\":25006:25073   */\n      tag_476\n        /* \"#utility.yul\":25066:25072   */\n      dup6\n        /* \"#utility.yul\":25059:25064   */\n      dup3\n        /* \"#utility.yul\":25006:25073   */\n      tag_237\n      jump\t// in\n    tag_476:\n        /* \"#utility.yul\":25000:25004   */\n      dup7\n        /* \"#utility.yul\":24993:25074   */\n      sstore\n        /* \"#utility.yul\":24862:25084   */\n      pop\n        /* \"#utility.yul\":24197:25084   */\n      jump(tag_473)\n        /* \"#utility.yul\":24227:24845   */\n    tag_474:\n        /* \"#utility.yul\":24279:24283   */\n      0x1f\n        /* \"#utility.yul\":24275:24284   */\n      not\n        /* \"#utility.yul\":24267:24273   */\n      dup5\n        /* \"#utility.yul\":24263:24285   */\n      and\n        /* \"#utility.yul\":24313:24350   */\n      tag_477\n        /* \"#utility.yul\":24345:24349   */\n      dup7\n        /* \"#utility.yul\":24313:24350   */\n      tag_223\n      jump\t// in\n    tag_477:\n        /* \"#utility.yul\":24372:24373   */\n      0x00\n        /* \"#utility.yul\":24386:24594   */\n    tag_478:\n        /* \"#utility.yul\":24400:24407   */\n      dup3\n        /* \"#utility.yul\":24397:24398   */\n      dup2\n        /* \"#utility.yul\":24394:24408   */\n      lt\n        /* \"#utility.yul\":24386:24594   */\n      iszero\n      tag_480\n      jumpi\n        /* \"#utility.yul\":24479:24488   */\n      dup5\n        /* \"#utility.yul\":24474:24477   */\n      dup10\n        /* \"#utility.yul\":24470:24489   */\n      add\n        /* \"#utility.yul\":24464:24490   */\n      mload\n        /* \"#utility.yul\":24456:24462   */\n      dup3\n        /* \"#utility.yul\":24449:24491   */\n      sstore\n        /* \"#utility.yul\":24530:24531   */\n      0x01\n        /* \"#utility.yul\":24522:24528   */\n      dup3\n        /* \"#utility.yul\":24518:24532   */\n      add\n        /* \"#utility.yul\":24508:24532   */\n      swap2\n      pop\n        /* \"#utility.yul\":24577:24579   */\n      0x20\n        /* \"#utility.yul\":24566:24575   */\n      dup6\n        /* \"#utility.yul\":24562:24580   */\n      add\n        /* \"#utility.yul\":24549:24580   */\n      swap5\n      pop\n        /* \"#utility.yul\":24423:24427   */\n      0x20\n        /* \"#utility.yul\":24420:24421   */\n      dup2\n        /* \"#utility.yul\":24416:24428   */\n      add\n        /* \"#utility.yul\":24411:24428   */\n      swap1\n      pop\n        /* \"#utility.yul\":24386:24594   */\n      jump(tag_478)\n    tag_480:\n        /* \"#utility.yul\":24622:24628   */\n      dup7\n        /* \"#utility.yul\":24613:24620   */\n      dup4\n        /* \"#utility.yul\":24610:24629   */\n      lt\n        /* \"#utility.yul\":24607:24786   */\n      iszero\n      tag_481\n      jumpi\n        /* \"#utility.yul\":24680:24689   */\n      dup5\n        /* \"#utility.yul\":24675:24678   */\n      dup10\n        /* \"#utility.yul\":24671:24690   */\n      add\n        /* \"#utility.yul\":24665:24691   */\n      mload\n        /* \"#utility.yul\":24723:24771   */\n      tag_482\n        /* \"#utility.yul\":24765:24769   */\n      0x1f\n        /* \"#utility.yul\":24757:24763   */\n      dup10\n        /* \"#utility.yul\":24753:24770   */\n      and\n        /* \"#utility.yul\":24742:24751   */\n      dup3\n        /* \"#utility.yul\":24723:24771   */\n      tag_236\n      jump\t// in\n    tag_482:\n        /* \"#utility.yul\":24715:24721   */\n      dup4\n        /* \"#utility.yul\":24708:24772   */\n      sstore\n        /* \"#utility.yul\":24630:24786   */\n      pop\n        /* \"#utility.yul\":24607:24786   */\n    tag_481:\n        /* \"#utility.yul\":24832:24833   */\n      0x01\n        /* \"#utility.yul\":24828:24829   */\n      0x02\n        /* \"#utility.yul\":24820:24826   */\n      dup9\n        /* \"#utility.yul\":24816:24830   */\n      mul\n        /* \"#utility.yul\":24812:24834   */\n      add\n        /* \"#utility.yul\":24806:24810   */\n      dup9\n        /* \"#utility.yul\":24799:24835   */\n      sstore\n        /* \"#utility.yul\":24234:24845   */\n      pop\n      pop\n      pop\n        /* \"#utility.yul\":24197:25084   */\n    tag_473:\n      pop\n        /* \"#utility.yul\":23787:25090   */\n      pop\n      pop\n      pop\n        /* \"#utility.yul\":23695:25090   */\n      pop\n      pop\n      jump\t// out\n        /* \"#utility.yul\":25096:25519   */\n    tag_79:\n        /* \"#utility.yul\":25237:25241   */\n      0x00\n        /* \"#utility.yul\":25275:25277   */\n      0x40\n        /* \"#utility.yul\":25264:25273   */\n      dup3\n        /* \"#utility.yul\":25260:25278   */\n      add\n        /* \"#utility.yul\":25252:25278   */\n      swap1\n      pop\n        /* \"#utility.yul\":25288:25359   */\n      tag_484\n        /* \"#utility.yul\":25356:25357   */\n      0x00\n        /* \"#utility.yul\":25345:25354   */\n      dup4\n        /* \"#utility.yul\":25341:25358   */\n      add\n        /* \"#utility.yul\":25332:25338   */\n      dup6\n        /* \"#utility.yul\":25288:25359   */\n      tag_212\n      jump\t// in\n    tag_484:\n        /* \"#utility.yul\":25406:25415   */\n      dup2\n        /* \"#utility.yul\":25400:25404   */\n      dup2\n        /* \"#utility.yul\":25396:25416   */\n      sub\n        /* \"#utility.yul\":25391:25393   */\n      0x20\n        /* \"#utility.yul\":25380:25389   */\n      dup4\n        /* \"#utility.yul\":25376:25394   */\n      add\n        /* \"#utility.yul\":25369:25417   */\n      mstore\n        /* \"#utility.yul\":25434:25512   */\n      tag_485\n        /* \"#utility.yul\":25507:25511   */\n      dup2\n        /* \"#utility.yul\":25498:25504   */\n      dup5\n        /* \"#utility.yul\":25434:25512   */\n      tag_215\n      jump\t// in\n    tag_485:\n        /* \"#utility.yul\":25426:25512   */\n      swap1\n      pop\n        /* \"#utility.yul\":25096:25519   */\n      swap4\n      swap3\n      pop\n      pop\n      pop\n      jump\t// out\n        /* \"#utility.yul\":25525:25699   */\n    tag_238:\n        /* \"#utility.yul\":25665:25691   */\n      0x4f6e6c7920726567756c61746f722063616e2061756469740000000000000000\n        /* \"#utility.yul\":25661:25662   */\n      0x00\n        /* \"#utility.yul\":25653:25659   */\n      dup3\n        /* \"#utility.yul\":25649:25663   */\n      add\n        /* \"#utility.yul\":25642:25692   */\n      mstore\n        /* \"#utility.yul\":25525:25699   */\n      pop\n      jump\t// out\n        /* \"#utility.yul\":25705:26071   */\n    tag_239:\n        /* \"#utility.yul\":25847:25850   */\n      0x00\n        /* \"#utility.yul\":25868:25935   */\n      tag_488\n        /* \"#utility.yul\":25932:25934   */\n      0x18\n        /* \"#utility.yul\":25927:25930   */\n      dup4\n        /* \"#utility.yul\":25868:25935   */\n      tag_214\n      jump\t// in\n    tag_488:\n        /* \"#utility.yul\":25861:25935   */\n      swap2\n      pop\n        /* \"#utility.yul\":25944:26037   */\n      tag_489\n        /* \"#utility.yul\":26033:26036   */\n      dup3\n        /* \"#utility.yul\":25944:26037   */\n      tag_238\n      jump\t// in\n    tag_489:\n        /* \"#utility.yul\":26062:26064   */\n      0x20\n        /* \"#utility.yul\":26057:26060   */\n      dup3\n        /* \"#utility.yul\":26053:26065   */\n      add\n        /* \"#utility.yul\":26046:26065   */\n      swap1\n      pop\n        /* \"#utility.yul\":25705:26071   */\n      swap2\n      swap1\n      pop\n      jump\t// out\n        /* \"#utility.yul\":26077:26496   */\n    tag_83:\n        /* \"#utility.yul\":26243:26247   */\n      0x00\n        /* \"#utility.yul\":26281:26283   */\n      0x20\n        /* \"#utility.yul\":26270:26279   */\n      dup3\n        /* \"#utility.yul\":26266:26284   */\n      add\n        /* \"#utility.yul\":26258:26284   */\n      swap1\n      pop\n        /* \"#utility.yul\":26330:26339   */\n      dup2\n        /* \"#utility.yul\":26324:26328   */\n      dup2\n        /* \"#utility.yul\":26320:26340   */\n      sub\n        /* \"#utility.yul\":26316:26317   */\n      0x00\n        /* \"#utility.yul\":26305:26314   */\n      dup4\n        /* \"#utility.yul\":26301:26318   */\n      add\n        /* \"#utility.yul\":26294:26341   */\n      mstore\n        /* \"#utility.yul\":26358:26489   */\n      tag_491\n        /* \"#utility.yul\":26484:26488   */\n      dup2\n        /* \"#utility.yul\":26358:26489   */\n      tag_239\n      jump\t// in\n    tag_491:\n        /* \"#utility.yul\":26350:26489   */\n      swap1\n      pop\n        /* \"#utility.yul\":26077:26496   */\n      swap2\n      swap1\n      pop\n      jump\t// out\n        /* \"#utility.yul\":26502:26696   */\n    tag_115:\n        /* \"#utility.yul\":26542:26546   */\n      0x00\n        /* \"#utility.yul\":26562:26582   */\n      tag_493\n        /* \"#utility.yul\":26580:26581   */\n      dup3\n        /* \"#utility.yul\":26562:26582   */\n      tag_176\n      jump\t// in\n    tag_493:\n        /* \"#utility.yul\":26557:26582   */\n      swap2\n      pop\n        /* \"#utility.yul\":26596:26616   */\n      tag_494\n        /* \"#utility.yul\":26614:26615   */\n      dup4\n        /* \"#utility.yul\":26596:26616   */\n      tag_176\n      jump\t// in\n    tag_494:\n        /* \"#utility.yul\":26591:26616   */\n      swap3\n      pop\n        /* \"#utility.yul\":26640:26641   */\n      dup3\n        /* \"#utility.yul\":26637:26638   */\n      dup3\n        /* \"#utility.yul\":26633:26642   */\n      sub\n        /* \"#utility.yul\":26625:26642   */\n      swap1\n      pop\n        /* \"#utility.yul\":26664:26665   */\n      dup2\n        /* \"#utility.yul\":26658:26662   */\n      dup2\n        /* \"#utility.yul\":26655:26666   */\n      gt\n        /* \"#utility.yul\":26652:26689   */\n      iszero\n      tag_495\n      jumpi\n        /* \"#utility.yul\":26669:26687   */\n      tag_496\n      tag_221\n      jump\t// in\n    tag_496:\n        /* \"#utility.yul\":26652:26689   */\n    tag_495:\n        /* \"#utility.yul\":26502:26696   */\n      swap3\n      swap2\n      pop\n      pop\n      jump\t// out\n        /* \"#utility.yul\":26702:26882   */\n    tag_118:\n        /* \"#utility.yul\":26750:26827   */\n      0x4e487b7100000000000000000000000000000000000000000000000000000000\n        /* \"#utility.yul\":26747:26748   */\n      0x00\n        /* \"#utility.yul\":26740:26828   */\n      mstore\n        /* \"#utility.yul\":26847:26851   */\n      0x32\n        /* \"#utility.yul\":26844:26845   */\n      0x04\n        /* \"#utility.yul\":26837:26852   */\n      mstore\n        /* \"#utility.yul\":26871:26875   */\n      0x24\n        /* \"#utility.yul\":26868:26869   */\n      0x00\n        /* \"#utility.yul\":26861:26876   */\n      revert\n        /* \"#utility.yul\":26888:27111   */\n    tag_240:\n        /* \"#utility.yul\":27028:27062   */\n      0x4f6e6c792070726f64756365722063616e2061737369676e2064697374726962\n        /* \"#utility.yul\":27024:27025   */\n      0x00\n        /* \"#utility.yul\":27016:27022   */\n      dup3\n        /* \"#utility.yul\":27012:27026   */\n      add\n        /* \"#utility.yul\":27005:27063   */\n      mstore\n        /* \"#utility.yul\":27097:27103   */\n      0x75746f7200000000000000000000000000000000000000000000000000000000\n        /* \"#utility.yul\":27092:27094   */\n      0x20\n        /* \"#utility.yul\":27084:27090   */\n      dup3\n        /* \"#utility.yul\":27080:27095   */\n      add\n        /* \"#utility.yul\":27073:27104   */\n      mstore\n        /* \"#utility.yul\":26888:27111   */\n      pop\n      jump\t// out\n        /* \"#utility.yul\":27117:27483   */\n    tag_241:\n        /* \"#utility.yul\":27259:27262   */\n      0x00\n        /* \"#utility.yul\":27280:27347   */\n      tag_500\n        /* \"#utility.yul\":27344:27346   */\n      0x24\n        /* \"#utility.yul\":27339:27342   */\n      dup4\n        /* \"#utility.yul\":27280:27347   */\n      tag_214\n      jump\t// in\n    tag_500:\n        /* \"#utility.yul\":27273:27347   */\n      swap2\n      pop\n        /* \"#utility.yul\":27356:27449   */\n      tag_501\n        /* \"#utility.yul\":27445:27448   */\n      dup3\n        /* \"#utility.yul\":27356:27449   */\n      tag_240\n      jump\t// in\n    tag_501:\n        /* \"#utility.yul\":27474:27476   */\n      0x40\n        /* \"#utility.yul\":27469:27472   */\n      dup3\n        /* \"#utility.yul\":27465:27477   */\n      add\n        /* \"#utility.yul\":27458:27477   */\n      swap1\n      pop\n        /* \"#utility.yul\":27117:27483   */\n      swap2\n      swap1\n      pop\n      jump\t// out\n        /* \"#utility.yul\":27489:27908   */\n    tag_123:\n        /* \"#utility.yul\":27655:27659   */\n      0x00\n        /* \"#utility.yul\":27693:27695   */\n      0x20\n        /* \"#utility.yul\":27682:27691   */\n      dup3\n        /* \"#utility.yul\":27678:27696   */\n      add\n        /* \"#utility.yul\":27670:27696   */\n      swap1\n      pop\n        /* \"#utility.yul\":27742:27751   */\n      dup2\n        /* \"#utility.yul\":27736:27740   */\n      dup2\n        /* \"#utility.yul\":27732:27752   */\n      sub\n        /* \"#utility.yul\":27728:27729   */\n      0x00\n        /* \"#utility.yul\":27717:27726   */\n      dup4\n        /* \"#utility.yul\":27713:27730   */\n      add\n        /* \"#utility.yul\":27706:27753   */\n      mstore\n        /* \"#utility.yul\":27770:27901   */\n      tag_503\n        /* \"#utility.yul\":27896:27900   */\n      dup2\n        /* \"#utility.yul\":27770:27901   */\n      tag_241\n      jump\t// in\n    tag_503:\n        /* \"#utility.yul\":27762:27901   */\n      swap1\n      pop\n        /* \"#utility.yul\":27489:27908   */\n      swap2\n      swap1\n      pop\n      jump\t// out\n        /* \"#utility.yul\":27914:28076   */\n    tag_242:\n        /* \"#utility.yul\":28054:28068   */\n      0x556e617574686f72697a65640000000000000000000000000000000000000000\n        /* \"#utility.yul\":28050:28051   */\n      0x00\n        /* \"#utility.yul\":28042:28048   */\n      dup3\n        /* \"#utility.yul\":28038:28052   */\n      add\n        /* \"#utility.yul\":28031:28069   */\n      mstore\n        /* \"#utility.yul\":27914:28076   */\n      pop\n      jump\t// out\n        /* \"#utility.yul\":28082:28448   */\n    tag_243:\n        /* \"#utility.yul\":28224:28227   */\n      0x00\n        /* \"#utility.yul\":28245:28312   */\n      tag_506\n        /* \"#utility.yul\":28309:28311   */\n      0x0c\n        /* \"#utility.yul\":28304:28307   */\n      dup4\n        /* \"#utility.yul\":28245:28312   */\n      tag_214\n      jump\t// in\n    tag_506:\n        /* \"#utility.yul\":28238:28312   */\n      swap2\n      pop\n        /* \"#utility.yul\":28321:28414   */\n      tag_507\n        /* \"#utility.yul\":28410:28413   */\n      dup3\n        /* \"#utility.yul\":28321:28414   */\n      tag_242\n      jump\t// in\n    tag_507:\n        /* \"#utility.yul\":28439:28441   */\n      0x20\n        /* \"#utility.yul\":28434:28437   */\n      dup3\n        /* \"#utility.yul\":28430:28442   */\n      add\n        /* \"#utility.yul\":28423:28442   */\n      swap1\n      pop\n        /* \"#utility.yul\":28082:28448   */\n      swap2\n      swap1\n      pop\n      jump\t// out\n        /* \"#utility.yul\":28454:28873   */\n    tag_150:\n        /* \"#utility.yul\":28620:28624   */\n      0x00\n        /* \"#utility.yul\":28658:28660   */\n      0x20\n        /* \"#utility.yul\":28647:28656   */\n      dup3\n        /* \"#utility.yul\":28643:28661   */\n      add\n        /* \"#utility.yul\":28635:28661   */\n      swap1\n      pop\n        /* \"#utility.yul\":28707:28716   */\n      dup2\n        /* \"#utility.yul\":28701:28705   */\n      dup2\n        /* \"#utility.yul\":28697:28717   */\n      sub\n        /* \"#utility.yul\":28693:28694   */\n      0x00\n        /* \"#utility.yul\":28682:28691   */\n      dup4\n        /* \"#utility.yul\":28678:28695   */\n      add\n        /* \"#utility.yul\":28671:28718   */\n      mstore\n        /* \"#utility.yul\":28735:28866   */\n      tag_509\n        /* \"#utility.yul\":28861:28865   */\n      dup2\n        /* \"#utility.yul\":28735:28866   */\n      tag_243\n      jump\t// in\n    tag_509:\n        /* \"#utility.yul\":28727:28866   */\n      swap1\n      pop\n        /* \"#utility.yul\":28454:28873   */\n      swap2\n      swap1\n      pop\n      jump\t// out\n        /* \"#utility.yul\":28879:29225   */\n    tag_155:\n        /* \"#utility.yul\":29007:29011   */\n      0x00\n        /* \"#utility.yul\":29045:29047   */\n      0x40\n        /* \"#utility.yul\":29034:29043   */\n      dup3\n        /* \"#utility.yul\":29030:29048   */\n      add\n        /* \"#utility.yul\":29022:29048   */\n      swap1\n      pop\n        /* \"#utility.yul\":29058:29129   */\n      tag_511\n        /* \"#utility.yul\":29126:29127   */\n      0x00\n        /* \"#utility.yul\":29115:29124   */\n      dup4\n        /* \"#utility.yul\":29111:29128   */\n      add\n        /* \"#utility.yul\":29102:29108   */\n      dup6\n        /* \"#utility.yul\":29058:29129   */\n      tag_212\n      jump\t// in\n    tag_511:\n        /* \"#utility.yul\":29139:29218   */\n      tag_512\n        /* \"#utility.yul\":29214:29216   */\n      0x20\n        /* \"#utility.yul\":29203:29212   */\n      dup4\n        /* \"#utility.yul\":29199:29217   */\n      add\n        /* \"#utility.yul\":29190:29196   */\n      dup5\n        /* \"#utility.yul\":29139:29218   */\n      tag_216\n      jump\t// in\n    tag_512:\n        /* \"#utility.yul\":28879:29225   */\n      swap4\n      swap3\n      pop\n      pop\n      pop\n      jump\t// out\n\n    auxdata: 0xa2646970667358221220a7b5ce4a9465d709517ab077667ce0479f313f355ea1b6d15c1ac6c9ee21f0ee64736f6c63430008140033\n}\n",
				"bytecode": {
					"linkReferences": {},
					"object": "608060405234801562000010575f80fd5b50604051620023cf380380620023cf8339818101604052810190620000369190620000e2565b8060015f6101000a81548173ffffffffffffffffffffffffffffffffffffffff021916908373ffffffffffffffffffffffffffffffffffffffff1602179055505062000112565b5f80fd5b5f73ffffffffffffffffffffffffffffffffffffffff82169050919050565b5f620000ac8262000081565b9050919050565b620000be81620000a0565b8114620000c9575f80fd5b50565b5f81519050620000dc81620000b3565b92915050565b5f60208284031215620000fa57620000f96200007d565b5b5f6200010984828501620000cc565b91505092915050565b6122af80620001205f395ff3fe608060405234801561000f575f80fd5b506004361061009c575f3560e01c8063ab995d1211610064578063ab995d121461012e578063b6edc2231461015e578063c4ce88fd1461017a578063dd8fee1414610198578063f1648e84146101b65761009c565b8063565cf74f146100a05780635d389a79146100bc578063639a7e72146100d8578063723f6099146100f4578063aa9a533f14610112575b5f80fd5b6100ba60048036038101906100b59190611427565b6101ed565b005b6100d660048036038101906100d191906114ac565b61030a565b005b6100f260048036038101906100ed9190611626565b610401565b005b6100fc61065d565b604051610109919061194b565b60405180910390f35b61012c600480360381019061012791906114ac565b610aa9565b005b61014860048036038101906101439190611427565b610ba0565b6040516101559190611a26565b60405180910390f35b61017860048036038101906101739190611a69565b610ebf565b005b6101826110e5565b60405161018f9190611ae4565b60405180910390f35b6101a06110ea565b6040516101ad9190611b0c565b60405180910390f35b6101d060048036038101906101cb9190611427565b61110f565b6040516101e4989796959493929190611b7c565b60405180910390f35b60015f9054906101000a900473ffffffffffffffffffffffffffffffffffffffff1673ffffffffffffffffffffffffffffffffffffffff163373ffffffffffffffffffffffffffffffffffffffff161461027c576040517f08c379a000000000000000000000000000000000000000000000000000000000815260040161027390611c7d565b60405180910390fd5b600360025f8381526020019081526020015f2060060160146101000a81548160ff021916908360038111156102b4576102b361178b565b5b02179055503373ffffffffffffffffffffffffffffffffffffffff167fc53450680fdf7b1f64c355b901fca40d9789d173e94eb330bc8b551164b46521826040516102ff9190611ae4565b60405180910390a250565b60025f8381526020019081526020015f206005015f9054906101000a900473ffffffffffffffffffffffffffffffffffffffff1673ffffffffffffffffffffffffffffffffffffffff163373ffffffffffffffffffffffffffffffffffffffff16146103ab576040517f08c379a00000000000000000000000000000000000000000000000000000000081526004016103a290611d0b565b60405180910390fd5b8060025f8481526020019081526020015f206006015f6101000a81548173ffffffffffffffffffffffffffffffffffffffff021916908373ffffffffffffffffffffffffffffffffffffffff1602179055505050565b5f8081548092919061041290611d56565b91905055506040518061010001604052805f5481526020018481526020018381526020018281526020013373ffffffffffffffffffffffffffffffffffffffff1681526020015f73ffffffffffffffffffffffffffffffffffffffff1681526020015f73ffffffffffffffffffffffffffffffffffffffff1681526020015f60038111156104a3576104a261178b565b5b81525060025f805481526020019081526020015f205f820151815f015560208201518160010190816104d59190611f97565b5060408201518160020190816104eb9190611f97565b5060608201518160030190816105019190611f97565b506080820151816004015f6101000a81548173ffffffffffffffffffffffffffffffffffffffff021916908373ffffffffffffffffffffffffffffffffffffffff16021790555060a0820151816005015f6101000a81548173ffffffffffffffffffffffffffffffffffffffff021916908373ffffffffffffffffffffffffffffffffffffffff16021790555060c0820151816006015f6101000a81548173ffffffffffffffffffffffffffffffffffffffff021916908373ffffffffffffffffffffffffffffffffffffffff16021790555060e08201518160060160146101000a81548160ff021916908360038111156105ff576105fe61178b565b5b02179055509050503373ffffffffffffffffffffffffffffffffffffffff167f1f3973f79dfaf5b2c872bd5bba8e6574e26d275dfca176912ac524fccbac4ee35f5485604051610650929190612066565b60405180910390a2505050565b606060015f9054906101000a900473ffffffffffffffffffffffffffffffffffffffff1673ffffffffffffffffffffffffffffffffffffffff163373ffffffffffffffffffffffffffffffffffffffff16146106ee576040517f08c379a00000000000000000000000000000000000000000000000000000000081526004016106e5906120de565b60405180910390fd5b5f805467ffffffffffffffff81111561070a57610709611502565b5b60405190808252806020026020018201604052801561074357816020015b61073061134f565b8152602001906001900390816107285790505b5090505f600190505b5f548111610aa15760025f8281526020019081526020015f20604051806101000160405290815f820154815260200160018201805461078a90611dca565b80601f01602080910402602001604051908101604052809291908181526020018280546107b690611dca565b80156108015780601f106107d857610100808354040283529160200191610801565b820191905f5260205f20905b8154815290600101906020018083116107e457829003601f168201915b5050505050815260200160028201805461081a90611dca565b80601f016020809104026020016040519081016040528092919081815260200182805461084690611dca565b80156108915780601f1061086857610100808354040283529160200191610891565b820191905f5260205f20905b81548152906001019060200180831161087457829003601f168201915b505050505081526020016003820180546108aa90611dca565b80601f01602080910402602001604051908101604052809291908181526020018280546108d690611dca565b80156109215780601f106108f857610100808354040283529160200191610921565b820191905f5260205f20905b81548152906001019060200180831161090457829003601f168201915b50505050508152602001600482015f9054906101000a900473ffffffffffffffffffffffffffffffffffffffff1673ffffffffffffffffffffffffffffffffffffffff1673ffffffffffffffffffffffffffffffffffffffff168152602001600582015f9054906101000a900473ffffffffffffffffffffffffffffffffffffffff1673ffffffffffffffffffffffffffffffffffffffff1673ffffffffffffffffffffffffffffffffffffffff168152602001600682015f9054906101000a900473ffffffffffffffffffffffffffffffffffffffff1673ffffffffffffffffffffffffffffffffffffffff1673ffffffffffffffffffffffffffffffffffffffff1681526020016006820160149054906101000a900460ff166003811115610a4e57610a4d61178b565b5b6003811115610a6057610a5f61178b565b5b8152505082600183610a7291906120fc565b81518110610a8357610a8261212f565b5b60200260200101819052508080610a9990611d56565b91505061074c565b508091505090565b60025f8381526020019081526020015f206004015f9054906101000a900473ffffffffffffffffffffffffffffffffffffffff1673ffffffffffffffffffffffffffffffffffffffff163373ffffffffffffffffffffffffffffffffffffffff1614610b4a576040517f08c379a0000000000000000000000000000000000000000000000000000000008152600401610b41906121cc565b60405180910390fd5b8060025f8481526020019081526020015f206005015f6101000a81548173ffffffffffffffffffffffffffffffffffffffff021916908373ffffffffffffffffffffffffffffffffffffffff1602179055505050565b610ba861134f565b60025f8381526020019081526020015f20604051806101000160405290815f8201548152602001600182018054610bde90611dca565b80601f0160208091040260200160405190810160405280929190818152602001828054610c0a90611dca565b8015610c555780601f10610c2c57610100808354040283529160200191610c55565b820191905f5260205f20905b815481529060010190602001808311610c3857829003601f168201915b50505050508152602001600282018054610c6e90611dca565b80601f0160208091040260200160405190810160405280929190818152602001828054610c9a90611dca565b8015610ce55780601f10610cbc57610100808354040283529160200191610ce5565b820191905f5260205f20905b815481529060010190602001808311610cc857829003601f168201915b50505050508152602001600382018054610cfe90611dca565b80601f0160208091040260200160405190810160405280929190818152602001828054610d2a90611dca565b8015610d755780601f10610d4c57610100808354040283529160200191610d75565b820191905f5260205f20905b815481529060010190602001808311610d5857829003601f168201915b50505050508152602001600482015f9054906101000a900473ffffffffffffffffffffffffffffffffffffffff1673ffffffffffffffffffffffffffffffffffffffff1673ffffffffffffffffffffffffffffffffffffffff168152602001600582015f9054906101000a900473ffffffffffffffffffffffffffffffffffffffff1673ffffffffffffffffffffffffffffffffffffffff1673ffffffffffffffffffffffffffffffffffffffff168152602001600682015f9054906101000a900473ffffffffffffffffffffffffffffffffffffffff1673ffffffffffffffffffffffffffffffffffffffff1673ffffffffffffffffffffffffffffffffffffffff1681526020016006820160149054906101000a900460ff166003811115610ea257610ea161178b565b5b6003811115610eb457610eb361178b565b5b815250509050919050565b60025f8481526020019081526020015f206004015f9054906101000a900473ffffffffffffffffffffffffffffffffffffffff1673ffffffffffffffffffffffffffffffffffffffff163373ffffffffffffffffffffffffffffffffffffffff161480610f8a575060025f8481526020019081526020015f206005015f9054906101000a900473ffffffffffffffffffffffffffffffffffffffff1673ffffffffffffffffffffffffffffffffffffffff163373ffffffffffffffffffffffffffffffffffffffff16145b80610ff3575060025f8481526020019081526020015f206006015f9054906101000a900473ffffffffffffffffffffffffffffffffffffffff1673ffffffffffffffffffffffffffffffffffffffff163373ffffffffffffffffffffffffffffffffffffffff16145b611032576040517f08c379a000000000000000000000000000000000000000000000000000000000815260040161102990612234565b60405180910390fd5b8160025f8581526020019081526020015f2060030190816110539190611f97565b508060025f8581526020019081526020015f2060060160146101000a81548160ff0219169083600381111561108b5761108a61178b565b5b02179055503373ffffffffffffffffffffffffffffffffffffffff167f16ad05ce3d778c4a2ba55f55814ad9f3e606fe0c042972def94655ed8e1c31cc84836040516110d8929190612252565b60405180910390a2505050565b5f5481565b60015f9054906101000a900473ffffffffffffffffffffffffffffffffffffffff1681565b6002602052805f5260405f205f91509050805f01549080600101805461113490611dca565b80601f016020809104026020016040519081016040528092919081815260200182805461116090611dca565b80156111ab5780601f10611182576101008083540402835291602001916111ab565b820191905f5260205f20905b81548152906001019060200180831161118e57829003601f168201915b5050505050908060020180546111c090611dca565b80601f01602080910402602001604051908101604052809291908181526020018280546111ec90611dca565b80156112375780601f1061120e57610100808354040283529160200191611237565b820191905f5260205f20905b81548152906001019060200180831161121a57829003601f168201915b50505050509080600301805461124c90611dca565b80601f016020809104026020016040519081016040528092919081815260200182805461127890611dca565b80156112c35780601f1061129a576101008083540402835291602001916112c3565b820191905f5260205f20905b8154815290600101906020018083116112a657829003601f168201915b505050505090806004015f9054906101000a900473ffffffffffffffffffffffffffffffffffffffff1690806005015f9054906101000a900473ffffffffffffffffffffffffffffffffffffffff1690806006015f9054906101000a900473ffffffffffffffffffffffffffffffffffffffff16908060060160149054906101000a900460ff16905088565b6040518061010001604052805f81526020016060815260200160608152602001606081526020015f73ffffffffffffffffffffffffffffffffffffffff1681526020015f73ffffffffffffffffffffffffffffffffffffffff1681526020015f73ffffffffffffffffffffffffffffffffffffffff1681526020015f60038111156113dd576113dc61178b565b5b81525090565b5f604051905090565b5f80fd5b5f80fd5b5f819050919050565b611406816113f4565b8114611410575f80fd5b50565b5f81359050611421816113fd565b92915050565b5f6020828403121561143c5761143b6113ec565b5b5f61144984828501611413565b91505092915050565b5f73ffffffffffffffffffffffffffffffffffffffff82169050919050565b5f61147b82611452565b9050919050565b61148b81611471565b8114611495575f80fd5b50565b5f813590506114a681611482565b92915050565b5f80604083850312156114c2576114c16113ec565b5b5f6114cf85828601611413565b92505060206114e085828601611498565b9150509250929050565b5f80fd5b5f80fd5b5f601f19601f8301169050919050565b7f4e487b71000000000000000000000000000000000000000000000000000000005f52604160045260245ffd5b611538826114f2565b810181811067ffffffffffffffff8211171561155757611556611502565b5b80604052505050565b5f6115696113e3565b9050611575828261152f565b919050565b5f67ffffffffffffffff82111561159457611593611502565b5b61159d826114f2565b9050602081019050919050565b828183375f83830152505050565b5f6115ca6115c58461157a565b611560565b9050828152602081018484840111156115e6576115e56114ee565b5b6115f18482856115aa565b509392505050565b5f82601f83011261160d5761160c6114ea565b5b813561161d8482602086016115b8565b91505092915050565b5f805f6060848603121561163d5761163c6113ec565b5b5f84013567ffffffffffffffff81111561165a576116596113f0565b5b611666868287016115f9565b935050602084013567ffffffffffffffff811115611687576116866113f0565b5b611693868287016115f9565b925050604084013567ffffffffffffffff8111156116b4576116b36113f0565b5b6116c0868287016115f9565b9150509250925092565b5f81519050919050565b5f82825260208201905092915050565b5f819050602082019050919050565b6116fc816113f4565b82525050565b5f81519050919050565b5f82825260208201905092915050565b5f5b8381101561173957808201518184015260208101905061171e565b5f8484015250505050565b5f61174e82611702565b611758818561170c565b935061176881856020860161171c565b611771816114f2565b840191505092915050565b61178581611471565b82525050565b7f4e487b71000000000000000000000000000000000000000000000000000000005f52602160045260245ffd5b600481106117c9576117c861178b565b5b50565b5f8190506117d9826117b8565b919050565b5f6117e8826117cc565b9050919050565b6117f8816117de565b82525050565b5f61010083015f8301516118145f8601826116f3565b506020830151848203602086015261182c8282611744565b915050604083015184820360408601526118468282611744565b915050606083015184820360608601526118608282611744565b9150506080830151611875608086018261177c565b5060a083015161188860a086018261177c565b5060c083015161189b60c086018261177c565b5060e08301516118ae60e08601826117ef565b508091505092915050565b5f6118c483836117fe565b905092915050565b5f602082019050919050565b5f6118e2826116ca565b6118ec81856116d4565b9350836020820285016118fe856116e4565b805f5b85811015611939578484038952815161191a85826118b9565b9450611925836118cc565b925060208a01995050600181019050611901565b50829750879550505050505092915050565b5f6020820190508181035f83015261196381846118d8565b905092915050565b5f61010083015f8301516119815f8601826116f3565b50602083015184820360208601526119998282611744565b915050604083015184820360408601526119b38282611744565b915050606083015184820360608601526119cd8282611744565b91505060808301516119e2608086018261177c565b5060a08301516119f560a086018261177c565b5060c0830151611a0860c086018261177c565b5060e0830151611a1b60e08601826117ef565b508091505092915050565b5f6020820190508181035f830152611a3e818461196b565b905092915050565b60048110611a52575f80fd5b50565b5f81359050611a6381611a46565b92915050565b5f805f60608486031215611a8057611a7f6113ec565b5b5f611a8d86828701611413565b935050602084013567ffffffffffffffff811115611aae57611aad6113f0565b5b611aba868287016115f9565b9250506040611acb86828701611a55565b9150509250925092565b611ade816113f4565b82525050565b5f602082019050611af75f830184611ad5565b92915050565b611b0681611471565b82525050565b5f602082019050611b1f5f830184611afd565b92915050565b5f82825260208201905092915050565b5f611b3f82611702565b611b498185611b25565b9350611b5981856020860161171c565b611b62816114f2565b840191505092915050565b611b76816117de565b82525050565b5f61010082019050611b905f83018b611ad5565b8181036020830152611ba2818a611b35565b90508181036040830152611bb68189611b35565b90508181036060830152611bca8188611b35565b9050611bd96080830187611afd565b611be660a0830186611afd565b611bf360c0830185611afd565b611c0060e0830184611b6d565b9998505050505050505050565b7f4f6e6c7920726567756c61746f722063616e207472696767657220726563616c5f8201527f6c00000000000000000000000000000000000000000000000000000000000000602082015250565b5f611c67602183611b25565b9150611c7282611c0d565b604082019050919050565b5f6020820190508181035f830152611c9481611c5b565b9050919050565b7f4f6e6c79206469737472696275746f722063616e2061737369676e20726574615f8201527f696c657200000000000000000000000000000000000000000000000000000000602082015250565b5f611cf5602483611b25565b9150611d0082611c9b565b604082019050919050565b5f6020820190508181035f830152611d2281611ce9565b9050919050565b7f4e487b71000000000000000000000000000000000000000000000000000000005f52601160045260245ffd5b5f611d60826113f4565b91507fffffffffffffffffffffffffffffffffffffffffffffffffffffffffffffffff8203611d9257611d91611d29565b5b600182019050919050565b7f4e487b71000000000000000000000000000000000000000000000000000000005f52602260045260245ffd5b5f6002820490506001821680611de157607f821691505b602082108103611df457611df3611d9d565b5b50919050565b5f819050815f5260205f209050919050565b5f6020601f8301049050919050565b5f82821b905092915050565b5f60088302611e567fffffffffffffffffffffffffffffffffffffffffffffffffffffffffffffffff82611e1b565b611e608683611e1b565b95508019841693508086168417925050509392505050565b5f819050919050565b5f611e9b611e96611e91846113f4565b611e78565b6113f4565b9050919050565b5f819050919050565b611eb483611e81565b611ec8611ec082611ea2565b848454611e27565b825550505050565b5f90565b611edc611ed0565b611ee7818484611eab565b505050565b5b81811015611f0a57611eff5f82611ed4565b600181019050611eed565b5050565b601f821115611f4f57611f2081611dfa565b611f2984611e0c565b81016020851015611f38578190505b611f4c611f4485611e0c565b830182611eec565b50505b505050565b5f82821c905092915050565b5f611f6f5f1984600802611f54565b1980831691505092915050565b5f611f878383611f60565b9150826002028217905092915050565b611fa082611702565b67ffffffffffffffff811115611fb957611fb8611502565b5b611fc38254611dca565b611fce828285611f0e565b5f60209050601f831160018114611fff575f8415611fed578287015190505b611ff78582611f7c565b86555061205e565b601f19841661200d86611dfa565b5f5b828110156120345784890151825560018201915060208501945060208101905061200f565b86831015612051578489015161204d601f891682611f60565b8355505b6001600288020188555050505b505050505050565b5f6040820190506120795f830185611ad5565b818103602083015261208b8184611b35565b90509392505050565b7f4f6e6c7920726567756c61746f722063616e20617564697400000000000000005f82015250565b5f6120c8601883611b25565b91506120d382612094565b602082019050919050565b5f6020820190508181035f8301526120f5816120bc565b9050919050565b5f612106826113f4565b9150612111836113f4565b925082820390508181111561212957612128611d29565b5b92915050565b7f4e487b71000000000000000000000000000000000000000000000000000000005f52603260045260245ffd5b7f4f6e6c792070726f64756365722063616e2061737369676e20646973747269625f8201527f75746f7200000000000000000000000000000000000000000000000000000000602082015250565b5f6121b6602483611b25565b91506121c18261215c565b604082019050919050565b5f6020820190508181035f8301526121e3816121aa565b9050919050565b7f556e617574686f72697a656400000000000000000000000000000000000000005f82015250565b5f61221e600c83611b25565b9150612229826121ea565b602082019050919050565b5f6020820190508181035f83015261224b81612212565b9050919050565b5f6040820190506122655f830185611ad5565b6122726020830184611b6d565b939250505056fea2646970667358221220a7b5ce4a9465d709517ab077667ce0479f313f355ea1b6d15c1ac6c9ee21f0ee64736f6c63430008140033",
					"opcodes": "PUSH1 0x80 PUSH1 0x40 MSTORE CALLVALUE DUP1 ISZERO PUSH3 0x10 JUMPI PUSH0 DUP1 REVERT JUMPDEST POP PUSH1 0x40 MLOAD PUSH3 0x23CF CODESIZE SUB DUP1 PUSH3 0x23CF DUP4 CODECOPY DUP2 DUP2 ADD PUSH1 0x40 MSTORE DUP2 ADD SWAP1 PUSH3 0x36 SWAP2 SWAP1 PUSH3 0xE2 JUMP JUMPDEST DUP1 PUSH1 0x1 PUSH0 PUSH2 0x100 EXP DUP2 SLOAD DUP2 PUSH20 0xFFFFFFFFFFFFFFFFFFFFFFFFFFFFFFFFFFFFFFFF MUL NOT AND SWAP1 DUP4 PUSH20 0xFFFFFFFFFFFFFFFFFFFFFFFFFFFFFFFFFFFFFFFF AND MUL OR SWAP1 SSTORE POP POP PUSH3 0x112 JUMP JUMPDEST PUSH0 DUP1 REVERT JUMPDEST PUSH0 PUSH20 0xFFFFFFFFFFFFFFFFFFFFFFFFFFFFFFFFFFFFFFFF DUP3 AND SWAP1 POP SWAP2 SWAP1 POP JUMP JUMPDEST PUSH0 PUSH3 0xAC DUP3 PUSH3 0x81 JUMP JUMPDEST SWAP1 POP SWAP2 SWAP1 POP JUMP JUMPDEST PUSH3 0xBE DUP2 PUSH3 0xA0 JUMP JUMPDEST DUP2 EQ PUSH3 0xC9 JUMPI PUSH0 DUP1 REVERT JUMPDEST POP JUMP JUMPDEST PUSH0 DUP2 MLOAD SWAP1 POP PUSH3 0xDC DUP2 PUSH3 0xB3 JUMP JUMPDEST SWAP3 SWAP2 POP POP JUMP JUMPDEST PUSH0 PUSH1 0x20 DUP3 DUP5 SUB SLT ISZERO PUSH3 0xFA JUMPI PUSH3 0xF9 PUSH3 0x7D JUMP JUMPDEST JUMPDEST PUSH0 PUSH3 0x109 DUP5 DUP3 DUP6 ADD PUSH3 0xCC JUMP JUMPDEST SWAP2 POP POP SWAP3 SWAP2 POP POP JUMP JUMPDEST PUSH2 0x22AF DUP1 PUSH3 0x120 PUSH0 CODECOPY PUSH0 RETURN INVALID PUSH1 0x80 PUSH1 0x40 MSTORE CALLVALUE DUP1 ISZERO PUSH2 0xF JUMPI PUSH0 DUP1 REVERT JUMPDEST POP PUSH1 0x4 CALLDATASIZE LT PUSH2 0x9C JUMPI PUSH0 CALLDATALOAD PUSH1 0xE0 SHR DUP1 PUSH4 0xAB995D12 GT PUSH2 0x64 JUMPI DUP1 PUSH4 0xAB995D12 EQ PUSH2 0x12E JUMPI DUP1 PUSH4 0xB6EDC223 EQ PUSH2 0x15E JUMPI DUP1 PUSH4 0xC4CE88FD EQ PUSH2 0x17A JUMPI DUP1 PUSH4 0xDD8FEE14 EQ PUSH2 0x198 JUMPI DUP1 PUSH4 0xF1648E84 EQ PUSH2 0x1B6 JUMPI PUSH2 0x9C JUMP JUMPDEST DUP1 PUSH4 0x565CF74F EQ PUSH2 0xA0 JUMPI DUP1 PUSH4 0x5D389A79 EQ PUSH2 0xBC JUMPI DUP1 PUSH4 0x639A7E72 EQ PUSH2 0xD8 JUMPI DUP1 PUSH4 0x723F6099 EQ PUSH2 0xF4 JUMPI DUP1 PUSH4 0xAA9A533F EQ PUSH2 0x112 JUMPI JUMPDEST PUSH0 DUP1 REVERT JUMPDEST PUSH2 0xBA PUSH1 0x4 DUP1 CALLDATASIZE SUB DUP2 ADD SWAP1 PUSH2 0xB5 SWAP2 SWAP1 PUSH2 0x1427 JUMP JUMPDEST PUSH2 0x1ED JUMP JUMPDEST STOP JUMPDEST PUSH2 0xD6 PUSH1 0x4 DUP1 CALLDATASIZE SUB DUP2 ADD SWAP1 PUSH2 0xD1 SWAP2 SWAP1 PUSH2 0x14AC JUMP JUMPDEST PUSH2 0x30A JUMP JUMPDEST STOP JUMPDEST PUSH2 0xF2 PUSH1 0x4 DUP1 CALLDATASIZE SUB DUP2 ADD SWAP1 PUSH2 0xED SWAP2 SWAP1 PUSH2 0x1626 JUMP JUMPDEST PUSH2 0x401 JUMP JUMPDEST STOP JUMPDEST PUSH2 0xFC PUSH2 0x65D JUMP JUMPDEST PUSH1 0x40 MLOAD PUSH2 0x109 SWAP2 SWAP1 PUSH2 0x194B JUMP JUMPDEST PUSH1 0x40 MLOAD DUP1 SWAP2 SUB SWAP1 RETURN JUMPDEST PUSH2 0x12C PUSH1 0x4 DUP1 CALLDATASIZE SUB DUP2 ADD SWAP1 PUSH2 0x127 SWAP2 SWAP1 PUSH2 0x14AC JUMP JUMPDEST PUSH2 0xAA9 JUMP JUMPDEST STOP JUMPDEST PUSH2 0x148 PUSH1 0x4 DUP1 CALLDATASIZE SUB DUP2 ADD SWAP1 PUSH2 0x143 SWAP2 SWAP1 PUSH2 0x1427 JUMP JUMPDEST PUSH2 0xBA0 JUMP JUMPDEST PUSH1 0x40 MLOAD PUSH2 0x155 SWAP2 SWAP1 PUSH2 0x1A26 JUMP JUMPDEST PUSH1 0x40 MLOAD DUP1 SWAP2 SUB SWAP1 RETURN JUMPDEST PUSH2 0x178 PUSH1 0x4 DUP1 CALLDATASIZE SUB DUP2 ADD SWAP1 PUSH2 0x173 SWAP2 SWAP1 PUSH2 0x1A69 JUMP JUMPDEST PUSH2 0xEBF JUMP JUMPDEST STOP JUMPDEST PUSH2 0x182 PUSH2 0x10E5 JUMP JUMPDEST PUSH1 0x40 MLOAD PUSH2 0x18F SWAP2 SWAP1 PUSH2 0x1AE4 JUMP JUMPDEST PUSH1 0x40 MLOAD DUP1 SWAP2 SUB SWAP1 RETURN JUMPDEST PUSH2 0x1A0 PUSH2 0x10EA JUMP JUMPDEST PUSH1 0x40 MLOAD PUSH2 0x1AD SWAP2 SWAP1 PUSH2 0x1B0C JUMP JUMPDEST PUSH1 0x40 MLOAD DUP1 SWAP2 SUB SWAP1 RETURN JUMPDEST PUSH2 0x1D0 PUSH1 0x4 DUP1 CALLDATASIZE SUB DUP2 ADD SWAP1 PUSH2 0x1CB SWAP2 SWAP1 PUSH2 0x1427 JUMP JUMPDEST PUSH2 0x110F JUMP JUMPDEST PUSH1 0x40 MLOAD PUSH2 0x1E4 SWAP9 SWAP8 SWAP7 SWAP6 SWAP5 SWAP4 SWAP3 SWAP2 SWAP1 PUSH2 0x1B7C JUMP JUMPDEST PUSH1 0x40 MLOAD DUP1 SWAP2 SUB SWAP1 RETURN JUMPDEST PUSH1 0x1 PUSH0 SWAP1 SLOAD SWAP1 PUSH2 0x100 EXP SWAP1 DIV PUSH20 0xFFFFFFFFFFFFFFFFFFFFFFFFFFFFFFFFFFFFFFFF AND PUSH20 0xFFFFFFFFFFFFFFFFFFFFFFFFFFFFFFFFFFFFFFFF AND CALLER PUSH20 0xFFFFFFFFFFFFFFFFFFFFFFFFFFFFFFFFFFFFFFFF AND EQ PUSH2 0x27C JUMPI PUSH1 0x40 MLOAD PUSH32 0x8C379A000000000000000000000000000000000000000000000000000000000 DUP2 MSTORE PUSH1 0x4 ADD PUSH2 0x273 SWAP1 PUSH2 0x1C7D JUMP JUMPDEST PUSH1 0x40 MLOAD DUP1 SWAP2 SUB SWAP1 REVERT JUMPDEST PUSH1 0x3 PUSH1 0x2 PUSH0 DUP4 DUP2 MSTORE PUSH1 0x20 ADD SWAP1 DUP2 MSTORE PUSH1 0x20 ADD PUSH0 KECCAK256 PUSH1 0x6 ADD PUSH1 0x14 PUSH2 0x100 EXP DUP2 SLOAD DUP2 PUSH1 0xFF MUL NOT AND SWAP1 DUP4 PUSH1 0x3 DUP2 GT ISZERO PUSH2 0x2B4 JUMPI PUSH2 0x2B3 PUSH2 0x178B JUMP JUMPDEST JUMPDEST MUL OR SWAP1 SSTORE POP CALLER PUSH20 0xFFFFFFFFFFFFFFFFFFFFFFFFFFFFFFFFFFFFFFFF AND PUSH32 0xC53450680FDF7B1F64C355B901FCA40D9789D173E94EB330BC8B551164B46521 DUP3 PUSH1 0x40 MLOAD PUSH2 0x2FF SWAP2 SWAP1 PUSH2 0x1AE4 JUMP JUMPDEST PUSH1 0x40 MLOAD DUP1 SWAP2 SUB SWAP1 LOG2 POP JUMP JUMPDEST PUSH1 0x2 PUSH0 DUP4 DUP2 MSTORE PUSH1 0x20 ADD SWAP1 DUP2 MSTORE PUSH1 0x20 ADD PUSH0 KECCAK256 PUSH1 0x5 ADD PUSH0 SWAP1 SLOAD SWAP1 PUSH2 0x100 EXP SWAP1 DIV PUSH20 0xFFFFFFFFFFFFFFFFFFFFFFFFFFFFFFFFFFFFFFFF AND PUSH20 0xFFFFFFFFFFFFFFFFFFFFFFFFFFFFFFFFFFFFFFFF AND CALLER PUSH20 0xFFFFFFFFFFFFFFFFFFFFFFFFFFFFFFFFFFFFFFFF AND EQ PUSH2 0x3AB JUMPI PUSH1 0x40 MLOAD PUSH32 0x8C379A000000000000000000000000000000000000000000000000000000000 DUP2 MSTORE PUSH1 0x4 ADD PUSH2 0x3A2 SWAP1 PUSH2 0x1D0B JUMP JUMPDEST PUSH1 0x40 MLOAD DUP1 SWAP2 SUB SWAP1 REVERT JUMPDEST DUP1 PUSH1 0x2 PUSH0 DUP5 DUP2 MSTORE PUSH1 0x20 ADD SWAP1 DUP2 MSTORE PUSH1 0x20 ADD PUSH0 KECCAK256 PUSH1 0x6 ADD PUSH0 PUSH2 0x100 EXP DUP2 SLOAD DUP2 PUSH20 0xFFFFFFFFFFFFFFFFFFFFFFFFFFFFFFFFFFFFFFFF MUL NOT AND SWAP1 DUP4 PUSH20 0xFFFFFFFFFFFFFFFFFFFFFFFFFFFFFFFFFFFFFFFF AND MUL OR SWAP1 SSTORE POP POP POP JUMP JUMPDEST PUSH0 DUP1 DUP2 SLOAD DUP1 SWAP3 SWAP2 SWAP1 PUSH2 0x412 SWAP1 PUSH2 0x1D56 JUMP JUMPDEST SWAP2 SWAP1 POP SSTORE POP PUSH1 0x40 MLOAD DUP1 PUSH2 0x100 ADD PUSH1 0x40 MSTORE DUP1 PUSH0 SLOAD DUP2 MSTORE PUSH1 0x20 ADD DUP5 DUP2 MSTORE PUSH1 0x20 ADD DUP4 DUP2 MSTORE PUSH1 0x20 ADD DUP3 DUP2 MSTORE PUSH1 0x20 ADD CALLER PUSH20 0xFFFFFFFFFFFFFFFFFFFFFFFFFFFFFFFFFFFFFFFF AND DUP2 MSTORE PUSH1 0x20 ADD PUSH0 PUSH20 0xFFFFFFFFFFFFFFFFFFFFFFFFFFFFFFFFFFFFFFFF AND DUP2 MSTORE PUSH1 0x20 ADD PUSH0 PUSH20 0xFFFFFFFFFFFFFFFFFFFFFFFFFFFFFFFFFFFFFFFF AND DUP2 MSTORE PUSH1 0x20 ADD PUSH0 PUSH1 0x3 DUP2 GT ISZERO PUSH2 0x4A3 JUMPI PUSH2 0x4A2 PUSH2 0x178B JUMP JUMPDEST JUMPDEST DUP2 MSTORE POP PUSH1 0x2 PUSH0 DUP1 SLOAD DUP2 MSTORE PUSH1 0x20 ADD SWAP1 DUP2 MSTORE PUSH1 0x20 ADD PUSH0 KECCAK256 PUSH0 DUP3 ADD MLOAD DUP2 PUSH0 ADD SSTORE PUSH1 0x20 DUP3 ADD MLOAD DUP2 PUSH1 0x1 ADD SWAP1 DUP2 PUSH2 0x4D5 SWAP2 SWAP1 PUSH2 0x1F97 JUMP JUMPDEST POP PUSH1 0x40 DUP3 ADD MLOAD DUP2 PUSH1 0x2 ADD SWAP1 DUP2 PUSH2 0x4EB SWAP2 SWAP1 PUSH2 0x1F97 JUMP JUMPDEST POP PUSH1 0x60 DUP3 ADD MLOAD DUP2 PUSH1 0x3 ADD SWAP1 DUP2 PUSH2 0x501 SWAP2 SWAP1 PUSH2 0x1F97 JUMP JUMPDEST POP PUSH1 0x80 DUP3 ADD MLOAD DUP2 PUSH1 0x4 ADD PUSH0 PUSH2 0x100 EXP DUP2 SLOAD DUP2 PUSH20 0xFFFFFFFFFFFFFFFFFFFFFFFFFFFFFFFFFFFFFFFF MUL NOT AND SWAP1 DUP4 PUSH20 0xFFFFFFFFFFFFFFFFFFFFFFFFFFFFFFFFFFFFFFFF AND MUL OR SWAP1 SSTORE POP PUSH1 0xA0 DUP3 ADD MLOAD DUP2 PUSH1 0x5 ADD PUSH0 PUSH2 0x100 EXP DUP2 SLOAD DUP2 PUSH20 0xFFFFFFFFFFFFFFFFFFFFFFFFFFFFFFFFFFFFFFFF MUL NOT AND SWAP1 DUP4 PUSH20 0xFFFFFFFFFFFFFFFFFFFFFFFFFFFFFFFFFFFFFFFF AND MUL OR SWAP1 SSTORE POP PUSH1 0xC0 DUP3 ADD MLOAD DUP2 PUSH1 0x6 ADD PUSH0 PUSH2 0x100 EXP DUP2 SLOAD DUP2 PUSH20 0xFFFFFFFFFFFFFFFFFFFFFFFFFFFFFFFFFFFFFFFF MUL NOT AND SWAP1 DUP4 PUSH20 0xFFFFFFFFFFFFFFFFFFFFFFFFFFFFFFFFFFFFFFFF AND MUL OR SWAP1 SSTORE POP PUSH1 0xE0 DUP3 ADD MLOAD DUP2 PUSH1 0x6 ADD PUSH1 0x14 PUSH2 0x100 EXP DUP2 SLOAD DUP2 PUSH1 0xFF MUL NOT AND SWAP1 DUP4 PUSH1 0x3 DUP2 GT ISZERO PUSH2 0x5FF JUMPI PUSH2 0x5FE PUSH2 0x178B JUMP JUMPDEST JUMPDEST MUL OR SWAP1 SSTORE POP SWAP1 POP POP CALLER PUSH20 0xFFFFFFFFFFFFFFFFFFFFFFFFFFFFFFFFFFFFFFFF AND PUSH32 0x1F3973F79DFAF5B2C872BD5BBA8E6574E26D275DFCA176912AC524FCCBAC4EE3 PUSH0 SLOAD DUP6 PUSH1 0x40 MLOAD PUSH2 0x650 SWAP3 SWAP2 SWAP1 PUSH2 0x2066 JUMP JUMPDEST PUSH1 0x40 MLOAD DUP1 SWAP2 SUB SWAP1 LOG2 POP POP POP JUMP JUMPDEST PUSH1 0x60 PUSH1 0x1 PUSH0 SWAP1 SLOAD SWAP1 PUSH2 0x100 EXP SWAP1 DIV PUSH20 0xFFFFFFFFFFFFFFFFFFFFFFFFFFFFFFFFFFFFFFFF AND PUSH20 0xFFFFFFFFFFFFFFFFFFFFFFFFFFFFFFFFFFFFFFFF AND CALLER PUSH20 0xFFFFFFFFFFFFFFFFFFFFFFFFFFFFFFFFFFFFFFFF AND EQ PUSH2 0x6EE JUMPI PUSH1 0x40 MLOAD PUSH32 0x8C379A000000000000000000000000000000000000000000000000000000000 DUP2 MSTORE PUSH1 0x4 ADD PUSH2 0x6E5 SWAP1 PUSH2 0x20DE JUMP JUMPDEST PUSH1 0x40 MLOAD DUP1 SWAP2 SUB SWAP1 REVERT JUMPDEST PUSH0 DUP1 SLOAD PUSH8 0xFFFFFFFFFFFFFFFF DUP2 GT ISZERO PUSH2 0x70A JUMPI PUSH2 0x709 PUSH2 0x1502 JUMP JUMPDEST JUMPDEST PUSH1 0x40 MLOAD SWAP1 DUP1 DUP3 MSTORE DUP1 PUSH1 0x20 MUL PUSH1 0x20 ADD DUP3 ADD PUSH1 0x40 MSTORE DUP1 ISZERO PUSH2 0x743 JUMPI DUP2 PUSH1 0x20 ADD JUMPDEST PUSH2 0x730 PUSH2 0x134F JUMP JUMPDEST DUP2 MSTORE PUSH1 0x20 ADD SWAP1 PUSH1 0x1 SWAP1 SUB SWAP1 DUP2 PUSH2 0x728 JUMPI SWAP1 POP JUMPDEST POP SWAP1 POP PUSH0 PUSH1 0x1 SWAP1 POP JUMPDEST PUSH0 SLOAD DUP2 GT PUSH2 0xAA1 JUMPI PUSH1 0x2 PUSH0 DUP3 DUP2 MSTORE PUSH1 0x20 ADD SWAP1 DUP2 MSTORE PUSH1 0x20 ADD PUSH0 KECCAK256 PUSH1 0x40 MLOAD DUP1 PUSH2 0x100 ADD PUSH1 0x40 MSTORE SWAP1 DUP2 PUSH0 DUP3 ADD SLOAD DUP2 MSTORE PUSH1 0x20 ADD PUSH1 0x1 DUP3 ADD DUP1 SLOAD PUSH2 0x78A SWAP1 PUSH2 0x1DCA JUMP JUMPDEST DUP1 PUSH1 0x1F ADD PUSH1 0x20 DUP1 SWAP2 DIV MUL PUSH1 0x20 ADD PUSH1 0x40 MLOAD SWAP1 DUP2 ADD PUSH1 0x40 MSTORE DUP1 SWAP3 SWAP2 SWAP1 DUP2 DUP2 MSTORE PUSH1 0x20 ADD DUP3 DUP1 SLOAD PUSH2 0x7B6 SWAP1 PUSH2 0x1DCA JUMP JUMPDEST DUP1 ISZERO PUSH2 0x801 JUMPI DUP1 PUSH1 0x1F LT PUSH2 0x7D8 JUMPI PUSH2 0x100 DUP1 DUP4 SLOAD DIV MUL DUP4 MSTORE SWAP2 PUSH1 0x20 ADD SWAP2 PUSH2 0x801 JUMP JUMPDEST DUP3 ADD SWAP2 SWAP1 PUSH0 MSTORE PUSH1 0x20 PUSH0 KECCAK256 SWAP1 JUMPDEST DUP2 SLOAD DUP2 MSTORE SWAP1 PUSH1 0x1 ADD SWAP1 PUSH1 0x20 ADD DUP1 DUP4 GT PUSH2 0x7E4 JUMPI DUP3 SWAP1 SUB PUSH1 0x1F AND DUP3 ADD SWAP2 JUMPDEST POP POP POP POP POP DUP2 MSTORE PUSH1 0x20 ADD PUSH1 0x2 DUP3 ADD DUP1 SLOAD PUSH2 0x81A SWAP1 PUSH2 0x1DCA JUMP JUMPDEST DUP1 PUSH1 0x1F ADD PUSH1 0x20 DUP1 SWAP2 DIV MUL PUSH1 0x20 ADD PUSH1 0x40 MLOAD SWAP1 DUP2 ADD PUSH1 0x40 MSTORE DUP1 SWAP3 SWAP2 SWAP1 DUP2 DUP2 MSTORE PUSH1 0x20 ADD DUP3 DUP1 SLOAD PUSH2 0x846 SWAP1 PUSH2 0x1DCA JUMP JUMPDEST DUP1 ISZERO PUSH2 0x891 JUMPI DUP1 PUSH1 0x1F LT PUSH2 0x868 JUMPI PUSH2 0x100 DUP1 DUP4 SLOAD DIV MUL DUP4 MSTORE SWAP2 PUSH1 0x20 ADD SWAP2 PUSH2 0x891 JUMP JUMPDEST DUP3 ADD SWAP2 SWAP1 PUSH0 MSTORE PUSH1 0x20 PUSH0 KECCAK256 SWAP1 JUMPDEST DUP2 SLOAD DUP2 MSTORE SWAP1 PUSH1 0x1 ADD SWAP1 PUSH1 0x20 ADD DUP1 DUP4 GT PUSH2 0x874 JUMPI DUP3 SWAP1 SUB PUSH1 0x1F AND DUP3 ADD SWAP2 JUMPDEST POP POP POP POP POP DUP2 MSTORE PUSH1 0x20 ADD PUSH1 0x3 DUP3 ADD DUP1 SLOAD PUSH2 0x8AA SWAP1 PUSH2 0x1DCA JUMP JUMPDEST DUP1 PUSH1 0x1F ADD PUSH1 0x20 DUP1 SWAP2 DIV MUL PUSH1 0x20 ADD PUSH1 0x40 MLOAD SWAP1 DUP2 ADD PUSH1 0x40 MSTORE DUP1 SWAP3 SWAP2 SWAP1 DUP2 DUP2 MSTORE PUSH1 0x20 ADD DUP3 DUP1 SLOAD PUSH2 0x8D6 SWAP1 PUSH2 0x1DCA JUMP JUMPDEST DUP1 ISZERO PUSH2 0x921 JUMPI DUP1 PUSH1 0x1F LT PUSH2 0x8F8 JUMPI PUSH2 0x100 DUP1 DUP4 SLOAD DIV MUL DUP4 MSTORE SWAP2 PUSH1 0x20 ADD SWAP2 PUSH2 0x921 JUMP JUMPDEST DUP3 ADD SWAP2 SWAP1 PUSH0 MSTORE PUSH1 0x20 PUSH0 KECCAK256 SWAP1 JUMPDEST DUP2 SLOAD DUP2 MSTORE SWAP1 PUSH1 0x1 ADD SWAP1 PUSH1 0x20 ADD DUP1 DUP4 GT PUSH2 0x904 JUMPI DUP3 SWAP1 SUB PUSH1 0x1F AND DUP3 ADD SWAP2 JUMPDEST POP POP POP POP POP DUP2 MSTORE PUSH1 0x20 ADD PUSH1 0x4 DUP3 ADD PUSH0 SWAP1 SLOAD SWAP1 PUSH2 0x100 EXP SWAP1 DIV PUSH20 0xFFFFFFFFFFFFFFFFFFFFFFFFFFFFFFFFFFFFFFFF AND PUSH20 0xFFFFFFFFFFFFFFFFFFFFFFFFFFFFFFFFFFFFFFFF AND PUSH20 0xFFFFFFFFFFFFFFFFFFFFFFFFFFFFFFFFFFFFFFFF AND DUP2 MSTORE PUSH1 0x20 ADD PUSH1 0x5 DUP3 ADD PUSH0 SWAP1 SLOAD SWAP1 PUSH2 0x100 EXP SWAP1 DIV PUSH20 0xFFFFFFFFFFFFFFFFFFFFFFFFFFFFFFFFFFFFFFFF AND PUSH20 0xFFFFFFFFFFFFFFFFFFFFFFFFFFFFFFFFFFFFFFFF AND PUSH20 0xFFFFFFFFFFFFFFFFFFFFFFFFFFFFFFFFFFFFFFFF AND DUP2 MSTORE PUSH1 0x20 ADD PUSH1 0x6 DUP3 ADD PUSH0 SWAP1 SLOAD SWAP1 PUSH2 0x100 EXP SWAP1 DIV PUSH20 0xFFFFFFFFFFFFFFFFFFFFFFFFFFFFFFFFFFFFFFFF AND PUSH20 0xFFFFFFFFFFFFFFFFFFFFFFFFFFFFFFFFFFFFFFFF AND PUSH20 0xFFFFFFFFFFFFFFFFFFFFFFFFFFFFFFFFFFFFFFFF AND DUP2 MSTORE PUSH1 0x20 ADD PUSH1 0x6 DUP3 ADD PUSH1 0x14 SWAP1 SLOAD SWAP1 PUSH2 0x100 EXP SWAP1 DIV PUSH1 0xFF AND PUSH1 0x3 DUP2 GT ISZERO PUSH2 0xA4E JUMPI PUSH2 0xA4D PUSH2 0x178B JUMP JUMPDEST JUMPDEST PUSH1 0x3 DUP2 GT ISZERO PUSH2 0xA60 JUMPI PUSH2 0xA5F PUSH2 0x178B JUMP JUMPDEST JUMPDEST DUP2 MSTORE POP POP DUP3 PUSH1 0x1 DUP4 PUSH2 0xA72 SWAP2 SWAP1 PUSH2 0x20FC JUMP JUMPDEST DUP2 MLOAD DUP2 LT PUSH2 0xA83 JUMPI PUSH2 0xA82 PUSH2 0x212F JUMP JUMPDEST JUMPDEST PUSH1 0x20 MUL PUSH1 0x20 ADD ADD DUP2 SWAP1 MSTORE POP DUP1 DUP1 PUSH2 0xA99 SWAP1 PUSH2 0x1D56 JUMP JUMPDEST SWAP2 POP POP PUSH2 0x74C JUMP JUMPDEST POP DUP1 SWAP2 POP POP SWAP1 JUMP JUMPDEST PUSH1 0x2 PUSH0 DUP4 DUP2 MSTORE PUSH1 0x20 ADD SWAP1 DUP2 MSTORE PUSH1 0x20 ADD PUSH0 KECCAK256 PUSH1 0x4 ADD PUSH0 SWAP1 SLOAD SWAP1 PUSH2 0x100 EXP SWAP1 DIV PUSH20 0xFFFFFFFFFFFFFFFFFFFFFFFFFFFFFFFFFFFFFFFF AND PUSH20 0xFFFFFFFFFFFFFFFFFFFFFFFFFFFFFFFFFFFFFFFF AND CALLER PUSH20 0xFFFFFFFFFFFFFFFFFFFFFFFFFFFFFFFFFFFFFFFF AND EQ PUSH2 0xB4A JUMPI PUSH1 0x40 MLOAD PUSH32 0x8C379A000000000000000000000000000000000000000000000000000000000 DUP2 MSTORE PUSH1 0x4 ADD PUSH2 0xB41 SWAP1 PUSH2 0x21CC JUMP JUMPDEST PUSH1 0x40 MLOAD DUP1 SWAP2 SUB SWAP1 REVERT JUMPDEST DUP1 PUSH1 0x2 PUSH0 DUP5 DUP2 MSTORE PUSH1 0x20 ADD SWAP1 DUP2 MSTORE PUSH1 0x20 ADD PUSH0 KECCAK256 PUSH1 0x5 ADD PUSH0 PUSH2 0x100 EXP DUP2 SLOAD DUP2 PUSH20 0xFFFFFFFFFFFFFFFFFFFFFFFFFFFFFFFFFFFFFFFF MUL NOT AND SWAP1 DUP4 PUSH20 0xFFFFFFFFFFFFFFFFFFFFFFFFFFFFFFFFFFFFFFFF AND MUL OR SWAP1 SSTORE POP POP POP JUMP JUMPDEST PUSH2 0xBA8 PUSH2 0x134F JUMP JUMPDEST PUSH1 0x2 PUSH0 DUP4 DUP2 MSTORE PUSH1 0x20 ADD SWAP1 DUP2 MSTORE PUSH1 0x20 ADD PUSH0 KECCAK256 PUSH1 0x40 MLOAD DUP1 PUSH2 0x100 ADD PUSH1 0x40 MSTORE SWAP1 DUP2 PUSH0 DUP3 ADD SLOAD DUP2 MSTORE PUSH1 0x20 ADD PUSH1 0x1 DUP3 ADD DUP1 SLOAD PUSH2 0xBDE SWAP1 PUSH2 0x1DCA JUMP JUMPDEST DUP1 PUSH1 0x1F ADD PUSH1 0x20 DUP1 SWAP2 DIV MUL PUSH1 0x20 ADD PUSH1 0x40 MLOAD SWAP1 DUP2 ADD PUSH1 0x40 MSTORE DUP1 SWAP3 SWAP2 SWAP1 DUP2 DUP2 MSTORE PUSH1 0x20 ADD DUP3 DUP1 SLOAD PUSH2 0xC0A SWAP1 PUSH2 0x1DCA JUMP JUMPDEST DUP1 ISZERO PUSH2 0xC55 JUMPI DUP1 PUSH1 0x1F LT PUSH2 0xC2C JUMPI PUSH2 0x100 DUP1 DUP4 SLOAD DIV MUL DUP4 MSTORE SWAP2 PUSH1 0x20 ADD SWAP2 PUSH2 0xC55 JUMP JUMPDEST DUP3 ADD SWAP2 SWAP1 PUSH0 MSTORE PUSH1 0x20 PUSH0 KECCAK256 SWAP1 JUMPDEST DUP2 SLOAD DUP2 MSTORE SWAP1 PUSH1 0x1 ADD SWAP1 PUSH1 0x20 ADD DUP1 DUP4 GT PUSH2 0xC38 JUMPI DUP3 SWAP1 SUB PUSH1 0x1F AND DUP3 ADD SWAP2 JUMPDEST POP POP POP POP POP DUP2 MSTORE PUSH1 0x20 ADD PUSH1 0x2 DUP3 ADD DUP1 SLOAD PUSH2 0xC6E SWAP1 PUSH2 0x1DCA JUMP JUMPDEST DUP1 PUSH1 0x1F ADD PUSH1 0x20 DUP1 SWAP2 DIV MUL PUSH1 0x20 ADD PUSH1 0x40 MLOAD SWAP1 DUP2 ADD PUSH1 0x40 MSTORE DUP1 SWAP3 SWAP2 SWAP1 DUP2 DUP2 MSTORE PUSH1 0x20 ADD DUP3 DUP1 SLOAD PUSH2 0xC9A SWAP1 PUSH2 0x1DCA JUMP JUMPDEST DUP1 ISZERO PUSH2 0xCE5 JUMPI DUP1 PUSH1 0x1F LT PUSH2 0xCBC JUMPI PUSH2 0x100 DUP1 DUP4 SLOAD DIV MUL DUP4 MSTORE SWAP2 PUSH1 0x20 ADD SWAP2 PUSH2 0xCE5 JUMP JUMPDEST DUP3 ADD SWAP2 SWAP1 PUSH0 MSTORE PUSH1 0x20 PUSH0 KECCAK256 SWAP1 JUMPDEST DUP2 SLOAD DUP2 MSTORE SWAP1 PUSH1 0x1 ADD SWAP1 PUSH1 0x20 ADD DUP1 DUP4 GT PUSH2 0xCC8 JUMPI DUP3 SWAP1 SUB PUSH1 0x1F AND DUP3 ADD SWAP2 JUMPDEST POP POP POP POP POP DUP2 MSTORE PUSH1 0x20 ADD PUSH1 0x3 DUP3 ADD DUP1 SLOAD PUSH2 0xCFE SWAP1 PUSH2 0x1DCA JUMP JUMPDEST DUP1 PUSH1 0x1F ADD PUSH1 0x20 DUP1 SWAP2 DIV MUL PUSH1 0x20 ADD PUSH1 0x40 MLOAD SWAP1 DUP2 ADD PUSH1 0x40 MSTORE DUP1 SWAP3 SWAP2 SWAP1 DUP2 DUP2 MSTORE PUSH1 0x20 ADD DUP3 DUP1 SLOAD PUSH2 0xD2A SWAP1 PUSH2 0x1DCA JUMP JUMPDEST DUP1 ISZERO PUSH2 0xD75 JUMPI DUP1 PUSH1 0x1F LT PUSH2 0xD4C JUMPI PUSH2 0x100 DUP1 DUP4 SLOAD DIV MUL DUP4 MSTORE SWAP2 PUSH1 0x20 ADD SWAP2 PUSH2 0xD75 JUMP JUMPDEST DUP3 ADD SWAP2 SWAP1 PUSH0 MSTORE PUSH1 0x20 PUSH0 KECCAK256 SWAP1 JUMPDEST DUP2 SLOAD DUP2 MSTORE SWAP1 PUSH1 0x1 ADD SWAP1 PUSH1 0x20 ADD DUP1 DUP4 GT PUSH2 0xD58 JUMPI DUP3 SWAP1 SUB PUSH1 0x1F AND DUP3 ADD SWAP2 JUMPDEST POP POP POP POP POP DUP2 MSTORE PUSH1 0x20 ADD PUSH1 0x4 DUP3 ADD PUSH0 SWAP1 SLOAD SWAP1 PUSH2 0x100 EXP SWAP1 DIV PUSH20 0xFFFFFFFFFFFFFFFFFFFFFFFFFFFFFFFFFFFFFFFF AND PUSH20 0xFFFFFFFFFFFFFFFFFFFFFFFFFFFFFFFFFFFFFFFF AND PUSH20 0xFFFFFFFFFFFFFFFFFFFFFFFFFFFFFFFFFFFFFFFF AND DUP2 MSTORE PUSH1 0x20 ADD PUSH1 0x5 DUP3 ADD PUSH0 SWAP1 SLOAD SWAP1 PUSH2 0x100 EXP SWAP1 DIV PUSH20 0xFFFFFFFFFFFFFFFFFFFFFFFFFFFFFFFFFFFFFFFF AND PUSH20 0xFFFFFFFFFFFFFFFFFFFFFFFFFFFFFFFFFFFFFFFF AND PUSH20 0xFFFFFFFFFFFFFFFFFFFFFFFFFFFFFFFFFFFFFFFF AND DUP2 MSTORE PUSH1 0x20 ADD PUSH1 0x6 DUP3 ADD PUSH0 SWAP1 SLOAD SWAP1 PUSH2 0x100 EXP SWAP1 DIV PUSH20 0xFFFFFFFFFFFFFFFFFFFFFFFFFFFFFFFFFFFFFFFF AND PUSH20 0xFFFFFFFFFFFFFFFFFFFFFFFFFFFFFFFFFFFFFFFF AND PUSH20 0xFFFFFFFFFFFFFFFFFFFFFFFFFFFFFFFFFFFFFFFF AND DUP2 MSTORE PUSH1 0x20 ADD PUSH1 0x6 DUP3 ADD PUSH1 0x14 SWAP1 SLOAD SWAP1 PUSH2 0x100 EXP SWAP1 DIV PUSH1 0xFF AND PUSH1 0x3 DUP2 GT ISZERO PUSH2 0xEA2 JUMPI PUSH2 0xEA1 PUSH2 0x178B JUMP JUMPDEST JUMPDEST PUSH1 0x3 DUP2 GT ISZERO PUSH2 0xEB4 JUMPI PUSH2 0xEB3 PUSH2 0x178B JUMP JUMPDEST JUMPDEST DUP2 MSTORE POP POP SWAP1 POP SWAP2 SWAP1 POP JUMP JUMPDEST PUSH1 0x2 PUSH0 DUP5 DUP2 MSTORE PUSH1 0x20 ADD SWAP1 DUP2 MSTORE PUSH1 0x20 ADD PUSH0 KECCAK256 PUSH1 0x4 ADD PUSH0 SWAP1 SLOAD SWAP1 PUSH2 0x100 EXP SWAP1 DIV PUSH20 0xFFFFFFFFFFFFFFFFFFFFFFFFFFFFFFFFFFFFFFFF AND PUSH20 0xFFFFFFFFFFFFFFFFFFFFFFFFFFFFFFFFFFFFFFFF AND CALLER PUSH20 0xFFFFFFFFFFFFFFFFFFFFFFFFFFFFFFFFFFFFFFFF AND EQ DUP1 PUSH2 0xF8A JUMPI POP PUSH1 0x2 PUSH0 DUP5 DUP2 MSTORE PUSH1 0x20 ADD SWAP1 DUP2 MSTORE PUSH1 0x20 ADD PUSH0 KECCAK256 PUSH1 0x5 ADD PUSH0 SWAP1 SLOAD SWAP1 PUSH2 0x100 EXP SWAP1 DIV PUSH20 0xFFFFFFFFFFFFFFFFFFFFFFFFFFFFFFFFFFFFFFFF AND PUSH20 0xFFFFFFFFFFFFFFFFFFFFFFFFFFFFFFFFFFFFFFFF AND CALLER PUSH20 0xFFFFFFFFFFFFFFFFFFFFFFFFFFFFFFFFFFFFFFFF AND EQ JUMPDEST DUP1 PUSH2 0xFF3 JUMPI POP PUSH1 0x2 PUSH0 DUP5 DUP2 MSTORE PUSH1 0x20 ADD SWAP1 DUP2 MSTORE PUSH1 0x20 ADD PUSH0 KECCAK256 PUSH1 0x6 ADD PUSH0 SWAP1 SLOAD SWAP1 PUSH2 0x100 EXP SWAP1 DIV PUSH20 0xFFFFFFFFFFFFFFFFFFFFFFFFFFFFFFFFFFFFFFFF AND PUSH20 0xFFFFFFFFFFFFFFFFFFFFFFFFFFFFFFFFFFFFFFFF AND CALLER PUSH20 0xFFFFFFFFFFFFFFFFFFFFFFFFFFFFFFFFFFFFFFFF AND EQ JUMPDEST PUSH2 0x1032 JUMPI PUSH1 0x40 MLOAD PUSH32 0x8C379A000000000000000000000000000000000000000000000000000000000 DUP2 MSTORE PUSH1 0x4 ADD PUSH2 0x1029 SWAP1 PUSH2 0x2234 JUMP JUMPDEST PUSH1 0x40 MLOAD DUP1 SWAP2 SUB SWAP1 REVERT JUMPDEST DUP2 PUSH1 0x2 PUSH0 DUP6 DUP2 MSTORE PUSH1 0x20 ADD SWAP1 DUP2 MSTORE PUSH1 0x20 ADD PUSH0 KECCAK256 PUSH1 0x3 ADD SWAP1 DUP2 PUSH2 0x1053 SWAP2 SWAP1 PUSH2 0x1F97 JUMP JUMPDEST POP DUP1 PUSH1 0x2 PUSH0 DUP6 DUP2 MSTORE PUSH1 0x20 ADD SWAP1 DUP2 MSTORE PUSH1 0x20 ADD PUSH0 KECCAK256 PUSH1 0x6 ADD PUSH1 0x14 PUSH2 0x100 EXP DUP2 SLOAD DUP2 PUSH1 0xFF MUL NOT AND SWAP1 DUP4 PUSH1 0x3 DUP2 GT ISZERO PUSH2 0x108B JUMPI PUSH2 0x108A PUSH2 0x178B JUMP JUMPDEST JUMPDEST MUL OR SWAP1 SSTORE POP CALLER PUSH20 0xFFFFFFFFFFFFFFFFFFFFFFFFFFFFFFFFFFFFFFFF AND PUSH32 0x16AD05CE3D778C4A2BA55F55814AD9F3E606FE0C042972DEF94655ED8E1C31CC DUP5 DUP4 PUSH1 0x40 MLOAD PUSH2 0x10D8 SWAP3 SWAP2 SWAP1 PUSH2 0x2252 JUMP JUMPDEST PUSH1 0x40 MLOAD DUP1 SWAP2 SUB SWAP1 LOG2 POP POP POP JUMP JUMPDEST PUSH0 SLOAD DUP2 JUMP JUMPDEST PUSH1 0x1 PUSH0 SWAP1 SLOAD SWAP1 PUSH2 0x100 EXP SWAP1 DIV PUSH20 0xFFFFFFFFFFFFFFFFFFFFFFFFFFFFFFFFFFFFFFFF AND DUP2 JUMP JUMPDEST PUSH1 0x2 PUSH1 0x20 MSTORE DUP1 PUSH0 MSTORE PUSH1 0x40 PUSH0 KECCAK256 PUSH0 SWAP2 POP SWAP1 POP DUP1 PUSH0 ADD SLOAD SWAP1 DUP1 PUSH1 0x1 ADD DUP1 SLOAD PUSH2 0x1134 SWAP1 PUSH2 0x1DCA JUMP JUMPDEST DUP1 PUSH1 0x1F ADD PUSH1 0x20 DUP1 SWAP2 DIV MUL PUSH1 0x20 ADD PUSH1 0x40 MLOAD SWAP1 DUP2 ADD PUSH1 0x40 MSTORE DUP1 SWAP3 SWAP2 SWAP1 DUP2 DUP2 MSTORE PUSH1 0x20 ADD DUP3 DUP1 SLOAD PUSH2 0x1160 SWAP1 PUSH2 0x1DCA JUMP JUMPDEST DUP1 ISZERO PUSH2 0x11AB JUMPI DUP1 PUSH1 0x1F LT PUSH2 0x1182 JUMPI PUSH2 0x100 DUP1 DUP4 SLOAD DIV MUL DUP4 MSTORE SWAP2 PUSH1 0x20 ADD SWAP2 PUSH2 0x11AB JUMP JUMPDEST DUP3 ADD SWAP2 SWAP1 PUSH0 MSTORE PUSH1 0x20 PUSH0 KECCAK256 SWAP1 JUMPDEST DUP2 SLOAD DUP2 MSTORE SWAP1 PUSH1 0x1 ADD SWAP1 PUSH1 0x20 ADD DUP1 DUP4 GT PUSH2 0x118E JUMPI DUP3 SWAP1 SUB PUSH1 0x1F AND DUP3 ADD SWAP2 JUMPDEST POP POP POP POP POP SWAP1 DUP1 PUSH1 0x2 ADD DUP1 SLOAD PUSH2 0x11C0 SWAP1 PUSH2 0x1DCA JUMP JUMPDEST DUP1 PUSH1 0x1F ADD PUSH1 0x20 DUP1 SWAP2 DIV MUL PUSH1 0x20 ADD PUSH1 0x40 MLOAD SWAP1 DUP2 ADD PUSH1 0x40 MSTORE DUP1 SWAP3 SWAP2 SWAP1 DUP2 DUP2 MSTORE PUSH1 0x20 ADD DUP3 DUP1 SLOAD PUSH2 0x11EC SWAP1 PUSH2 0x1DCA JUMP JUMPDEST DUP1 ISZERO PUSH2 0x1237 JUMPI DUP1 PUSH1 0x1F LT PUSH2 0x120E JUMPI PUSH2 0x100 DUP1 DUP4 SLOAD DIV MUL DUP4 MSTORE SWAP2 PUSH1 0x20 ADD SWAP2 PUSH2 0x1237 JUMP JUMPDEST DUP3 ADD SWAP2 SWAP1 PUSH0 MSTORE PUSH1 0x20 PUSH0 KECCAK256 SWAP1 JUMPDEST DUP2 SLOAD DUP2 MSTORE SWAP1 PUSH1 0x1 ADD SWAP1 PUSH1 0x20 ADD DUP1 DUP4 GT PUSH2 0x121A JUMPI DUP3 SWAP1 SUB PUSH1 0x1F AND DUP3 ADD SWAP2 JUMPDEST POP POP POP POP POP SWAP1 DUP1 PUSH1 0x3 ADD DUP1 SLOAD PUSH2 0x124C SWAP1 PUSH2 0x1DCA JUMP JUMPDEST DUP1 PUSH1 0x1F ADD PUSH1 0x20 DUP1 SWAP2 DIV MUL PUSH1 0x20 ADD PUSH1 0x40 MLOAD SWAP1 DUP2 ADD PUSH1 0x40 MSTORE DUP1 SWAP3 SWAP2 SWAP1 DUP2 DUP2 MSTORE PUSH1 0x20 ADD DUP3 DUP1 SLOAD PUSH2 0x1278 SWAP1 PUSH2 0x1DCA JUMP JUMPDEST DUP1 ISZERO PUSH2 0x12C3 JUMPI DUP1 PUSH1 0x1F LT PUSH2 0x129A JUMPI PUSH2 0x100 DUP1 DUP4 SLOAD DIV MUL DUP4 MSTORE SWAP2 PUSH1 0x20 ADD SWAP2 PUSH2 0x12C3 JUMP JUMPDEST DUP3 ADD SWAP2 SWAP1 PUSH0 MSTORE PUSH1 0x20 PUSH0 KECCAK256 SWAP1 JUMPDEST DUP2 SLOAD DUP2 MSTORE SWAP1 PUSH1 0x1 ADD SWAP1 PUSH1 0x20 ADD DUP1 DUP4 GT PUSH2 0x12A6 JUMPI DUP3 SWAP1 SUB PUSH1 0x1F AND DUP3 ADD SWAP2 JUMPDEST POP POP POP POP POP SWAP1 DUP1 PUSH1 0x4 ADD PUSH0 SWAP1 SLOAD SWAP1 PUSH2 0x100 EXP SWAP1 DIV PUSH20 0xFFFFFFFFFFFFFFFFFFFFFFFFFFFFFFFFFFFFFFFF AND SWAP1 DUP1 PUSH1 0x5 ADD PUSH0 SWAP1 SLOAD SWAP1 PUSH2 0x100 EXP SWAP1 DIV PUSH20 0xFFFFFFFFFFFFFFFFFFFFFFFFFFFFFFFFFFFFFFFF AND SWAP1 DUP1 PUSH1 0x6 ADD PUSH0 SWAP1 SLOAD SWAP1 PUSH2 0x100 EXP SWAP1 DIV PUSH20 0xFFFFFFFFFFFFFFFFFFFFFFFFFFFFFFFFFFFFFFFF AND SWAP1 DUP1 PUSH1 0x6 ADD PUSH1 0x14 SWAP1 SLOAD SWAP1 PUSH2 0x100 EXP SWAP1 DIV PUSH1 0xFF AND SWAP1 POP DUP9 JUMP JUMPDEST PUSH1 0x40 MLOAD DUP1 PUSH2 0x100 ADD PUSH1 0x40 MSTORE DUP1 PUSH0 DUP2 MSTORE PUSH1 0x20 ADD PUSH1 0x60 DUP2 MSTORE PUSH1 0x20 ADD PUSH1 0x60 DUP2 MSTORE PUSH1 0x20 ADD PUSH1 0x60 DUP2 MSTORE PUSH1 0x20 ADD PUSH0 PUSH20 0xFFFFFFFFFFFFFFFFFFFFFFFFFFFFFFFFFFFFFFFF AND DUP2 MSTORE PUSH1 0x20 ADD PUSH0 PUSH20 0xFFFFFFFFFFFFFFFFFFFFFFFFFFFFFFFFFFFFFFFF AND DUP2 MSTORE PUSH1 0x20 ADD PUSH0 PUSH20 0xFFFFFFFFFFFFFFFFFFFFFFFFFFFFFFFFFFFFFFFF AND DUP2 MSTORE PUSH1 0x20 ADD PUSH0 PUSH1 0x3 DUP2 GT ISZERO PUSH2 0x13DD JUMPI PUSH2 0x13DC PUSH2 0x178B JUMP JUMPDEST JUMPDEST DUP2 MSTORE POP SWAP1 JUMP JUMPDEST PUSH0 PUSH1 0x40 MLOAD SWAP1 POP SWAP1 JUMP JUMPDEST PUSH0 DUP1 REVERT JUMPDEST PUSH0 DUP1 REVERT JUMPDEST PUSH0 DUP2 SWAP1 POP SWAP2 SWAP1 POP JUMP JUMPDEST PUSH2 0x1406 DUP2 PUSH2 0x13F4 JUMP JUMPDEST DUP2 EQ PUSH2 0x1410 JUMPI PUSH0 DUP1 REVERT JUMPDEST POP JUMP JUMPDEST PUSH0 DUP2 CALLDATALOAD SWAP1 POP PUSH2 0x1421 DUP2 PUSH2 0x13FD JUMP JUMPDEST SWAP3 SWAP2 POP POP JUMP JUMPDEST PUSH0 PUSH1 0x20 DUP3 DUP5 SUB SLT ISZERO PUSH2 0x143C JUMPI PUSH2 0x143B PUSH2 0x13EC JUMP JUMPDEST JUMPDEST PUSH0 PUSH2 0x1449 DUP5 DUP3 DUP6 ADD PUSH2 0x1413 JUMP JUMPDEST SWAP2 POP POP SWAP3 SWAP2 POP POP JUMP JUMPDEST PUSH0 PUSH20 0xFFFFFFFFFFFFFFFFFFFFFFFFFFFFFFFFFFFFFFFF DUP3 AND SWAP1 POP SWAP2 SWAP1 POP JUMP JUMPDEST PUSH0 PUSH2 0x147B DUP3 PUSH2 0x1452 JUMP JUMPDEST SWAP1 POP SWAP2 SWAP1 POP JUMP JUMPDEST PUSH2 0x148B DUP2 PUSH2 0x1471 JUMP JUMPDEST DUP2 EQ PUSH2 0x1495 JUMPI PUSH0 DUP1 REVERT JUMPDEST POP JUMP JUMPDEST PUSH0 DUP2 CALLDATALOAD SWAP1 POP PUSH2 0x14A6 DUP2 PUSH2 0x1482 JUMP JUMPDEST SWAP3 SWAP2 POP POP JUMP JUMPDEST PUSH0 DUP1 PUSH1 0x40 DUP4 DUP6 SUB SLT ISZERO PUSH2 0x14C2 JUMPI PUSH2 0x14C1 PUSH2 0x13EC JUMP JUMPDEST JUMPDEST PUSH0 PUSH2 0x14CF DUP6 DUP3 DUP7 ADD PUSH2 0x1413 JUMP JUMPDEST SWAP3 POP POP PUSH1 0x20 PUSH2 0x14E0 DUP6 DUP3 DUP7 ADD PUSH2 0x1498 JUMP JUMPDEST SWAP2 POP POP SWAP3 POP SWAP3 SWAP1 POP JUMP JUMPDEST PUSH0 DUP1 REVERT JUMPDEST PUSH0 DUP1 REVERT JUMPDEST PUSH0 PUSH1 0x1F NOT PUSH1 0x1F DUP4 ADD AND SWAP1 POP SWAP2 SWAP1 POP JUMP JUMPDEST PUSH32 0x4E487B7100000000000000000000000000000000000000000000000000000000 PUSH0 MSTORE PUSH1 0x41 PUSH1 0x4 MSTORE PUSH1 0x24 PUSH0 REVERT JUMPDEST PUSH2 0x1538 DUP3 PUSH2 0x14F2 JUMP JUMPDEST DUP2 ADD DUP2 DUP2 LT PUSH8 0xFFFFFFFFFFFFFFFF DUP3 GT OR ISZERO PUSH2 0x1557 JUMPI PUSH2 0x1556 PUSH2 0x1502 JUMP JUMPDEST JUMPDEST DUP1 PUSH1 0x40 MSTORE POP POP POP JUMP JUMPDEST PUSH0 PUSH2 0x1569 PUSH2 0x13E3 JUMP JUMPDEST SWAP1 POP PUSH2 0x1575 DUP3 DUP3 PUSH2 0x152F JUMP JUMPDEST SWAP2 SWAP1 POP JUMP JUMPDEST PUSH0 PUSH8 0xFFFFFFFFFFFFFFFF DUP3 GT ISZERO PUSH2 0x1594 JUMPI PUSH2 0x1593 PUSH2 0x1502 JUMP JUMPDEST JUMPDEST PUSH2 0x159D DUP3 PUSH2 0x14F2 JUMP JUMPDEST SWAP1 POP PUSH1 0x20 DUP2 ADD SWAP1 POP SWAP2 SWAP1 POP JUMP JUMPDEST DUP3 DUP2 DUP4 CALLDATACOPY PUSH0 DUP4 DUP4 ADD MSTORE POP POP POP JUMP JUMPDEST PUSH0 PUSH2 0x15CA PUSH2 0x15C5 DUP5 PUSH2 0x157A JUMP JUMPDEST PUSH2 0x1560 JUMP JUMPDEST SWAP1 POP DUP3 DUP2 MSTORE PUSH1 0x20 DUP2 ADD DUP5 DUP5 DUP5 ADD GT ISZERO PUSH2 0x15E6 JUMPI PUSH2 0x15E5 PUSH2 0x14EE JUMP JUMPDEST JUMPDEST PUSH2 0x15F1 DUP5 DUP3 DUP6 PUSH2 0x15AA JUMP JUMPDEST POP SWAP4 SWAP3 POP POP POP JUMP JUMPDEST PUSH0 DUP3 PUSH1 0x1F DUP4 ADD SLT PUSH2 0x160D JUMPI PUSH2 0x160C PUSH2 0x14EA JUMP JUMPDEST JUMPDEST DUP2 CALLDATALOAD PUSH2 0x161D DUP5 DUP3 PUSH1 0x20 DUP7 ADD PUSH2 0x15B8 JUMP JUMPDEST SWAP2 POP POP SWAP3 SWAP2 POP POP JUMP JUMPDEST PUSH0 DUP1 PUSH0 PUSH1 0x60 DUP5 DUP7 SUB SLT ISZERO PUSH2 0x163D JUMPI PUSH2 0x163C PUSH2 0x13EC JUMP JUMPDEST JUMPDEST PUSH0 DUP5 ADD CALLDATALOAD PUSH8 0xFFFFFFFFFFFFFFFF DUP2 GT ISZERO PUSH2 0x165A JUMPI PUSH2 0x1659 PUSH2 0x13F0 JUMP JUMPDEST JUMPDEST PUSH2 0x1666 DUP7 DUP3 DUP8 ADD PUSH2 0x15F9 JUMP JUMPDEST SWAP4 POP POP PUSH1 0x20 DUP5 ADD CALLDATALOAD PUSH8 0xFFFFFFFFFFFFFFFF DUP2 GT ISZERO PUSH2 0x1687 JUMPI PUSH2 0x1686 PUSH2 0x13F0 JUMP JUMPDEST JUMPDEST PUSH2 0x1693 DUP7 DUP3 DUP8 ADD PUSH2 0x15F9 JUMP JUMPDEST SWAP3 POP POP PUSH1 0x40 DUP5 ADD CALLDATALOAD PUSH8 0xFFFFFFFFFFFFFFFF DUP2 GT ISZERO PUSH2 0x16B4 JUMPI PUSH2 0x16B3 PUSH2 0x13F0 JUMP JUMPDEST JUMPDEST PUSH2 0x16C0 DUP7 DUP3 DUP8 ADD PUSH2 0x15F9 JUMP JUMPDEST SWAP2 POP POP SWAP3 POP SWAP3 POP SWAP3 JUMP JUMPDEST PUSH0 DUP2 MLOAD SWAP1 POP SWAP2 SWAP1 POP JUMP JUMPDEST PUSH0 DUP3 DUP3 MSTORE PUSH1 0x20 DUP3 ADD SWAP1 POP SWAP3 SWAP2 POP POP JUMP JUMPDEST PUSH0 DUP2 SWAP1 POP PUSH1 0x20 DUP3 ADD SWAP1 POP SWAP2 SWAP1 POP JUMP JUMPDEST PUSH2 0x16FC DUP2 PUSH2 0x13F4 JUMP JUMPDEST DUP3 MSTORE POP POP JUMP JUMPDEST PUSH0 DUP2 MLOAD SWAP1 POP SWAP2 SWAP1 POP JUMP JUMPDEST PUSH0 DUP3 DUP3 MSTORE PUSH1 0x20 DUP3 ADD SWAP1 POP SWAP3 SWAP2 POP POP JUMP JUMPDEST PUSH0 JUMPDEST DUP4 DUP2 LT ISZERO PUSH2 0x1739 JUMPI DUP1 DUP3 ADD MLOAD DUP2 DUP5 ADD MSTORE PUSH1 0x20 DUP2 ADD SWAP1 POP PUSH2 0x171E JUMP JUMPDEST PUSH0 DUP5 DUP5 ADD MSTORE POP POP POP POP JUMP JUMPDEST PUSH0 PUSH2 0x174E DUP3 PUSH2 0x1702 JUMP JUMPDEST PUSH2 0x1758 DUP2 DUP6 PUSH2 0x170C JUMP JUMPDEST SWAP4 POP PUSH2 0x1768 DUP2 DUP6 PUSH1 0x20 DUP7 ADD PUSH2 0x171C JUMP JUMPDEST PUSH2 0x1771 DUP2 PUSH2 0x14F2 JUMP JUMPDEST DUP5 ADD SWAP2 POP POP SWAP3 SWAP2 POP POP JUMP JUMPDEST PUSH2 0x1785 DUP2 PUSH2 0x1471 JUMP JUMPDEST DUP3 MSTORE POP POP JUMP JUMPDEST PUSH32 0x4E487B7100000000000000000000000000000000000000000000000000000000 PUSH0 MSTORE PUSH1 0x21 PUSH1 0x4 MSTORE PUSH1 0x24 PUSH0 REVERT JUMPDEST PUSH1 0x4 DUP2 LT PUSH2 0x17C9 JUMPI PUSH2 0x17C8 PUSH2 0x178B JUMP JUMPDEST JUMPDEST POP JUMP JUMPDEST PUSH0 DUP2 SWAP1 POP PUSH2 0x17D9 DUP3 PUSH2 0x17B8 JUMP JUMPDEST SWAP2 SWAP1 POP JUMP JUMPDEST PUSH0 PUSH2 0x17E8 DUP3 PUSH2 0x17CC JUMP JUMPDEST SWAP1 POP SWAP2 SWAP1 POP JUMP JUMPDEST PUSH2 0x17F8 DUP2 PUSH2 0x17DE JUMP JUMPDEST DUP3 MSTORE POP POP JUMP JUMPDEST PUSH0 PUSH2 0x100 DUP4 ADD PUSH0 DUP4 ADD MLOAD PUSH2 0x1814 PUSH0 DUP7 ADD DUP3 PUSH2 0x16F3 JUMP JUMPDEST POP PUSH1 0x20 DUP4 ADD MLOAD DUP5 DUP3 SUB PUSH1 0x20 DUP7 ADD MSTORE PUSH2 0x182C DUP3 DUP3 PUSH2 0x1744 JUMP JUMPDEST SWAP2 POP POP PUSH1 0x40 DUP4 ADD MLOAD DUP5 DUP3 SUB PUSH1 0x40 DUP7 ADD MSTORE PUSH2 0x1846 DUP3 DUP3 PUSH2 0x1744 JUMP JUMPDEST SWAP2 POP POP PUSH1 0x60 DUP4 ADD MLOAD DUP5 DUP3 SUB PUSH1 0x60 DUP7 ADD MSTORE PUSH2 0x1860 DUP3 DUP3 PUSH2 0x1744 JUMP JUMPDEST SWAP2 POP POP PUSH1 0x80 DUP4 ADD MLOAD PUSH2 0x1875 PUSH1 0x80 DUP7 ADD DUP3 PUSH2 0x177C JUMP JUMPDEST POP PUSH1 0xA0 DUP4 ADD MLOAD PUSH2 0x1888 PUSH1 0xA0 DUP7 ADD DUP3 PUSH2 0x177C JUMP JUMPDEST POP PUSH1 0xC0 DUP4 ADD MLOAD PUSH2 0x189B PUSH1 0xC0 DUP7 ADD DUP3 PUSH2 0x177C JUMP JUMPDEST POP PUSH1 0xE0 DUP4 ADD MLOAD PUSH2 0x18AE PUSH1 0xE0 DUP7 ADD DUP3 PUSH2 0x17EF JUMP JUMPDEST POP DUP1 SWAP2 POP POP SWAP3 SWAP2 POP POP JUMP JUMPDEST PUSH0 PUSH2 0x18C4 DUP4 DUP4 PUSH2 0x17FE JUMP JUMPDEST SWAP1 POP SWAP3 SWAP2 POP POP JUMP JUMPDEST PUSH0 PUSH1 0x20 DUP3 ADD SWAP1 POP SWAP2 SWAP1 POP JUMP JUMPDEST PUSH0 PUSH2 0x18E2 DUP3 PUSH2 0x16CA JUMP JUMPDEST PUSH2 0x18EC DUP2 DUP6 PUSH2 0x16D4 JUMP JUMPDEST SWAP4 POP DUP4 PUSH1 0x20 DUP3 MUL DUP6 ADD PUSH2 0x18FE DUP6 PUSH2 0x16E4 JUMP JUMPDEST DUP1 PUSH0 JUMPDEST DUP6 DUP2 LT ISZERO PUSH2 0x1939 JUMPI DUP5 DUP5 SUB DUP10 MSTORE DUP2 MLOAD PUSH2 0x191A DUP6 DUP3 PUSH2 0x18B9 JUMP JUMPDEST SWAP5 POP PUSH2 0x1925 DUP4 PUSH2 0x18CC JUMP JUMPDEST SWAP3 POP PUSH1 0x20 DUP11 ADD SWAP10 POP POP PUSH1 0x1 DUP2 ADD SWAP1 POP PUSH2 0x1901 JUMP JUMPDEST POP DUP3 SWAP8 POP DUP8 SWAP6 POP POP POP POP POP POP SWAP3 SWAP2 POP POP JUMP JUMPDEST PUSH0 PUSH1 0x20 DUP3 ADD SWAP1 POP DUP2 DUP2 SUB PUSH0 DUP4 ADD MSTORE PUSH2 0x1963 DUP2 DUP5 PUSH2 0x18D8 JUMP JUMPDEST SWAP1 POP SWAP3 SWAP2 POP POP JUMP JUMPDEST PUSH0 PUSH2 0x100 DUP4 ADD PUSH0 DUP4 ADD MLOAD PUSH2 0x1981 PUSH0 DUP7 ADD DUP3 PUSH2 0x16F3 JUMP JUMPDEST POP PUSH1 0x20 DUP4 ADD MLOAD DUP5 DUP3 SUB PUSH1 0x20 DUP7 ADD MSTORE PUSH2 0x1999 DUP3 DUP3 PUSH2 0x1744 JUMP JUMPDEST SWAP2 POP POP PUSH1 0x40 DUP4 ADD MLOAD DUP5 DUP3 SUB PUSH1 0x40 DUP7 ADD MSTORE PUSH2 0x19B3 DUP3 DUP3 PUSH2 0x1744 JUMP JUMPDEST SWAP2 POP POP PUSH1 0x60 DUP4 ADD MLOAD DUP5 DUP3 SUB PUSH1 0x60 DUP7 ADD MSTORE PUSH2 0x19CD DUP3 DUP3 PUSH2 0x1744 JUMP JUMPDEST SWAP2 POP POP PUSH1 0x80 DUP4 ADD MLOAD PUSH2 0x19E2 PUSH1 0x80 DUP7 ADD DUP3 PUSH2 0x177C JUMP JUMPDEST POP PUSH1 0xA0 DUP4 ADD MLOAD PUSH2 0x19F5 PUSH1 0xA0 DUP7 ADD DUP3 PUSH2 0x177C JUMP JUMPDEST POP PUSH1 0xC0 DUP4 ADD MLOAD PUSH2 0x1A08 PUSH1 0xC0 DUP7 ADD DUP3 PUSH2 0x177C JUMP JUMPDEST POP PUSH1 0xE0 DUP4 ADD MLOAD PUSH2 0x1A1B PUSH1 0xE0 DUP7 ADD DUP3 PUSH2 0x17EF JUMP JUMPDEST POP DUP1 SWAP2 POP POP SWAP3 SWAP2 POP POP JUMP JUMPDEST PUSH0 PUSH1 0x20 DUP3 ADD SWAP1 POP DUP2 DUP2 SUB PUSH0 DUP4 ADD MSTORE PUSH2 0x1A3E DUP2 DUP5 PUSH2 0x196B JUMP JUMPDEST SWAP1 POP SWAP3 SWAP2 POP POP JUMP JUMPDEST PUSH1 0x4 DUP2 LT PUSH2 0x1A52 JUMPI PUSH0 DUP1 REVERT JUMPDEST POP JUMP JUMPDEST PUSH0 DUP2 CALLDATALOAD SWAP1 POP PUSH2 0x1A63 DUP2 PUSH2 0x1A46 JUMP JUMPDEST SWAP3 SWAP2 POP POP JUMP JUMPDEST PUSH0 DUP1 PUSH0 PUSH1 0x60 DUP5 DUP7 SUB SLT ISZERO PUSH2 0x1A80 JUMPI PUSH2 0x1A7F PUSH2 0x13EC JUMP JUMPDEST JUMPDEST PUSH0 PUSH2 0x1A8D DUP7 DUP3 DUP8 ADD PUSH2 0x1413 JUMP JUMPDEST SWAP4 POP POP PUSH1 0x20 DUP5 ADD CALLDATALOAD PUSH8 0xFFFFFFFFFFFFFFFF DUP2 GT ISZERO PUSH2 0x1AAE JUMPI PUSH2 0x1AAD PUSH2 0x13F0 JUMP JUMPDEST JUMPDEST PUSH2 0x1ABA DUP7 DUP3 DUP8 ADD PUSH2 0x15F9 JUMP JUMPDEST SWAP3 POP POP PUSH1 0x40 PUSH2 0x1ACB DUP7 DUP3 DUP8 ADD PUSH2 0x1A55 JUMP JUMPDEST SWAP2 POP POP SWAP3 POP SWAP3 POP SWAP3 JUMP JUMPDEST PUSH2 0x1ADE DUP2 PUSH2 0x13F4 JUMP JUMPDEST DUP3 MSTORE POP POP JUMP JUMPDEST PUSH0 PUSH1 0x20 DUP3 ADD SWAP1 POP PUSH2 0x1AF7 PUSH0 DUP4 ADD DUP5 PUSH2 0x1AD5 JUMP JUMPDEST SWAP3 SWAP2 POP POP JUMP JUMPDEST PUSH2 0x1B06 DUP2 PUSH2 0x1471 JUMP JUMPDEST DUP3 MSTORE POP POP JUMP JUMPDEST PUSH0 PUSH1 0x20 DUP3 ADD SWAP1 POP PUSH2 0x1B1F PUSH0 DUP4 ADD DUP5 PUSH2 0x1AFD JUMP JUMPDEST SWAP3 SWAP2 POP POP JUMP JUMPDEST PUSH0 DUP3 DUP3 MSTORE PUSH1 0x20 DUP3 ADD SWAP1 POP SWAP3 SWAP2 POP POP JUMP JUMPDEST PUSH0 PUSH2 0x1B3F DUP3 PUSH2 0x1702 JUMP JUMPDEST PUSH2 0x1B49 DUP2 DUP6 PUSH2 0x1B25 JUMP JUMPDEST SWAP4 POP PUSH2 0x1B59 DUP2 DUP6 PUSH1 0x20 DUP7 ADD PUSH2 0x171C JUMP JUMPDEST PUSH2 0x1B62 DUP2 PUSH2 0x14F2 JUMP JUMPDEST DUP5 ADD SWAP2 POP POP SWAP3 SWAP2 POP POP JUMP JUMPDEST PUSH2 0x1B76 DUP2 PUSH2 0x17DE JUMP JUMPDEST DUP3 MSTORE POP POP JUMP JUMPDEST PUSH0 PUSH2 0x100 DUP3 ADD SWAP1 POP PUSH2 0x1B90 PUSH0 DUP4 ADD DUP12 PUSH2 0x1AD5 JUMP JUMPDEST DUP2 DUP2 SUB PUSH1 0x20 DUP4 ADD MSTORE PUSH2 0x1BA2 DUP2 DUP11 PUSH2 0x1B35 JUMP JUMPDEST SWAP1 POP DUP2 DUP2 SUB PUSH1 0x40 DUP4 ADD MSTORE PUSH2 0x1BB6 DUP2 DUP10 PUSH2 0x1B35 JUMP JUMPDEST SWAP1 POP DUP2 DUP2 SUB PUSH1 0x60 DUP4 ADD MSTORE PUSH2 0x1BCA DUP2 DUP9 PUSH2 0x1B35 JUMP JUMPDEST SWAP1 POP PUSH2 0x1BD9 PUSH1 0x80 DUP4 ADD DUP8 PUSH2 0x1AFD JUMP JUMPDEST PUSH2 0x1BE6 PUSH1 0xA0 DUP4 ADD DUP7 PUSH2 0x1AFD JUMP JUMPDEST PUSH2 0x1BF3 PUSH1 0xC0 DUP4 ADD DUP6 PUSH2 0x1AFD JUMP JUMPDEST PUSH2 0x1C00 PUSH1 0xE0 DUP4 ADD DUP5 PUSH2 0x1B6D JUMP JUMPDEST SWAP10 SWAP9 POP POP POP POP POP POP POP POP POP JUMP JUMPDEST PUSH32 0x4F6E6C7920726567756C61746F722063616E207472696767657220726563616C PUSH0 DUP3 ADD MSTORE PUSH32 0x6C00000000000000000000000000000000000000000000000000000000000000 PUSH1 0x20 DUP3 ADD MSTORE POP JUMP JUMPDEST PUSH0 PUSH2 0x1C67 PUSH1 0x21 DUP4 PUSH2 0x1B25 JUMP JUMPDEST SWAP2 POP PUSH2 0x1C72 DUP3 PUSH2 0x1C0D JUMP JUMPDEST PUSH1 0x40 DUP3 ADD SWAP1 POP SWAP2 SWAP1 POP JUMP JUMPDEST PUSH0 PUSH1 0x20 DUP3 ADD SWAP1 POP DUP2 DUP2 SUB PUSH0 DUP4 ADD MSTORE PUSH2 0x1C94 DUP2 PUSH2 0x1C5B JUMP JUMPDEST SWAP1 POP SWAP2 SWAP1 POP JUMP JUMPDEST PUSH32 0x4F6E6C79206469737472696275746F722063616E2061737369676E2072657461 PUSH0 DUP3 ADD MSTORE PUSH32 0x696C657200000000000000000000000000000000000000000000000000000000 PUSH1 0x20 DUP3 ADD MSTORE POP JUMP JUMPDEST PUSH0 PUSH2 0x1CF5 PUSH1 0x24 DUP4 PUSH2 0x1B25 JUMP JUMPDEST SWAP2 POP PUSH2 0x1D00 DUP3 PUSH2 0x1C9B JUMP JUMPDEST PUSH1 0x40 DUP3 ADD SWAP1 POP SWAP2 SWAP1 POP JUMP JUMPDEST PUSH0 PUSH1 0x20 DUP3 ADD SWAP1 POP DUP2 DUP2 SUB PUSH0 DUP4 ADD MSTORE PUSH2 0x1D22 DUP2 PUSH2 0x1CE9 JUMP JUMPDEST SWAP1 POP SWAP2 SWAP1 POP JUMP JUMPDEST PUSH32 0x4E487B7100000000000000000000000000000000000000000000000000000000 PUSH0 MSTORE PUSH1 0x11 PUSH1 0x4 MSTORE PUSH1 0x24 PUSH0 REVERT JUMPDEST PUSH0 PUSH2 0x1D60 DUP3 PUSH2 0x13F4 JUMP JUMPDEST SWAP2 POP PUSH32 0xFFFFFFFFFFFFFFFFFFFFFFFFFFFFFFFFFFFFFFFFFFFFFFFFFFFFFFFFFFFFFFFF DUP3 SUB PUSH2 0x1D92 JUMPI PUSH2 0x1D91 PUSH2 0x1D29 JUMP JUMPDEST JUMPDEST PUSH1 0x1 DUP3 ADD SWAP1 POP SWAP2 SWAP1 POP JUMP JUMPDEST PUSH32 0x4E487B7100000000000000000000000000000000000000000000000000000000 PUSH0 MSTORE PUSH1 0x22 PUSH1 0x4 MSTORE PUSH1 0x24 PUSH0 REVERT JUMPDEST PUSH0 PUSH1 0x2 DUP3 DIV SWAP1 POP PUSH1 0x1 DUP3 AND DUP1 PUSH2 0x1DE1 JUMPI PUSH1 0x7F DUP3 AND SWAP2 POP JUMPDEST PUSH1 0x20 DUP3 LT DUP2 SUB PUSH2 0x1DF4 JUMPI PUSH2 0x1DF3 PUSH2 0x1D9D JUMP JUMPDEST JUMPDEST POP SWAP2 SWAP1 POP JUMP JUMPDEST PUSH0 DUP2 SWAP1 POP DUP2 PUSH0 MSTORE PUSH1 0x20 PUSH0 KECCAK256 SWAP1 POP SWAP2 SWAP1 POP JUMP JUMPDEST PUSH0 PUSH1 0x20 PUSH1 0x1F DUP4 ADD DIV SWAP1 POP SWAP2 SWAP1 POP JUMP JUMPDEST PUSH0 DUP3 DUP3 SHL SWAP1 POP SWAP3 SWAP2 POP POP JUMP JUMPDEST PUSH0 PUSH1 0x8 DUP4 MUL PUSH2 0x1E56 PUSH32 0xFFFFFFFFFFFFFFFFFFFFFFFFFFFFFFFFFFFFFFFFFFFFFFFFFFFFFFFFFFFFFFFF DUP3 PUSH2 0x1E1B JUMP JUMPDEST PUSH2 0x1E60 DUP7 DUP4 PUSH2 0x1E1B JUMP JUMPDEST SWAP6 POP DUP1 NOT DUP5 AND SWAP4 POP DUP1 DUP7 AND DUP5 OR SWAP3 POP POP POP SWAP4 SWAP3 POP POP POP JUMP JUMPDEST PUSH0 DUP2 SWAP1 POP SWAP2 SWAP1 POP JUMP JUMPDEST PUSH0 PUSH2 0x1E9B PUSH2 0x1E96 PUSH2 0x1E91 DUP5 PUSH2 0x13F4 JUMP JUMPDEST PUSH2 0x1E78 JUMP JUMPDEST PUSH2 0x13F4 JUMP JUMPDEST SWAP1 POP SWAP2 SWAP1 POP JUMP JUMPDEST PUSH0 DUP2 SWAP1 POP SWAP2 SWAP1 POP JUMP JUMPDEST PUSH2 0x1EB4 DUP4 PUSH2 0x1E81 JUMP JUMPDEST PUSH2 0x1EC8 PUSH2 0x1EC0 DUP3 PUSH2 0x1EA2 JUMP JUMPDEST DUP5 DUP5 SLOAD PUSH2 0x1E27 JUMP JUMPDEST DUP3 SSTORE POP POP POP POP JUMP JUMPDEST PUSH0 SWAP1 JUMP JUMPDEST PUSH2 0x1EDC PUSH2 0x1ED0 JUMP JUMPDEST PUSH2 0x1EE7 DUP2 DUP5 DUP5 PUSH2 0x1EAB JUMP JUMPDEST POP POP POP JUMP JUMPDEST JUMPDEST DUP2 DUP2 LT ISZERO PUSH2 0x1F0A JUMPI PUSH2 0x1EFF PUSH0 DUP3 PUSH2 0x1ED4 JUMP JUMPDEST PUSH1 0x1 DUP2 ADD SWAP1 POP PUSH2 0x1EED JUMP JUMPDEST POP POP JUMP JUMPDEST PUSH1 0x1F DUP3 GT ISZERO PUSH2 0x1F4F JUMPI PUSH2 0x1F20 DUP2 PUSH2 0x1DFA JUMP JUMPDEST PUSH2 0x1F29 DUP5 PUSH2 0x1E0C JUMP JUMPDEST DUP2 ADD PUSH1 0x20 DUP6 LT ISZERO PUSH2 0x1F38 JUMPI DUP2 SWAP1 POP JUMPDEST PUSH2 0x1F4C PUSH2 0x1F44 DUP6 PUSH2 0x1E0C JUMP JUMPDEST DUP4 ADD DUP3 PUSH2 0x1EEC JUMP JUMPDEST POP POP JUMPDEST POP POP POP JUMP JUMPDEST PUSH0 DUP3 DUP3 SHR SWAP1 POP SWAP3 SWAP2 POP POP JUMP JUMPDEST PUSH0 PUSH2 0x1F6F PUSH0 NOT DUP5 PUSH1 0x8 MUL PUSH2 0x1F54 JUMP JUMPDEST NOT DUP1 DUP4 AND SWAP2 POP POP SWAP3 SWAP2 POP POP JUMP JUMPDEST PUSH0 PUSH2 0x1F87 DUP4 DUP4 PUSH2 0x1F60 JUMP JUMPDEST SWAP2 POP DUP3 PUSH1 0x2 MUL DUP3 OR SWAP1 POP SWAP3 SWAP2 POP POP JUMP JUMPDEST PUSH2 0x1FA0 DUP3 PUSH2 0x1702 JUMP JUMPDEST PUSH8 0xFFFFFFFFFFFFFFFF DUP2 GT ISZERO PUSH2 0x1FB9 JUMPI PUSH2 0x1FB8 PUSH2 0x1502 JUMP JUMPDEST JUMPDEST PUSH2 0x1FC3 DUP3 SLOAD PUSH2 0x1DCA JUMP JUMPDEST PUSH2 0x1FCE DUP3 DUP3 DUP6 PUSH2 0x1F0E JUMP JUMPDEST PUSH0 PUSH1 0x20 SWAP1 POP PUSH1 0x1F DUP4 GT PUSH1 0x1 DUP2 EQ PUSH2 0x1FFF JUMPI PUSH0 DUP5 ISZERO PUSH2 0x1FED JUMPI DUP3 DUP8 ADD MLOAD SWAP1 POP JUMPDEST PUSH2 0x1FF7 DUP6 DUP3 PUSH2 0x1F7C JUMP JUMPDEST DUP7 SSTORE POP PUSH2 0x205E JUMP JUMPDEST PUSH1 0x1F NOT DUP5 AND PUSH2 0x200D DUP7 PUSH2 0x1DFA JUMP JUMPDEST PUSH0 JUMPDEST DUP3 DUP2 LT ISZERO PUSH2 0x2034 JUMPI DUP5 DUP10 ADD MLOAD DUP3 SSTORE PUSH1 0x1 DUP3 ADD SWAP2 POP PUSH1 0x20 DUP6 ADD SWAP5 POP PUSH1 0x20 DUP2 ADD SWAP1 POP PUSH2 0x200F JUMP JUMPDEST DUP7 DUP4 LT ISZERO PUSH2 0x2051 JUMPI DUP5 DUP10 ADD MLOAD PUSH2 0x204D PUSH1 0x1F DUP10 AND DUP3 PUSH2 0x1F60 JUMP JUMPDEST DUP4 SSTORE POP JUMPDEST PUSH1 0x1 PUSH1 0x2 DUP9 MUL ADD DUP9 SSTORE POP POP POP JUMPDEST POP POP POP POP POP POP JUMP JUMPDEST PUSH0 PUSH1 0x40 DUP3 ADD SWAP1 POP PUSH2 0x2079 PUSH0 DUP4 ADD DUP6 PUSH2 0x1AD5 JUMP JUMPDEST DUP2 DUP2 SUB PUSH1 0x20 DUP4 ADD MSTORE PUSH2 0x208B DUP2 DUP5 PUSH2 0x1B35 JUMP JUMPDEST SWAP1 POP SWAP4 SWAP3 POP POP POP JUMP JUMPDEST PUSH32 0x4F6E6C7920726567756C61746F722063616E2061756469740000000000000000 PUSH0 DUP3 ADD MSTORE POP JUMP JUMPDEST PUSH0 PUSH2 0x20C8 PUSH1 0x18 DUP4 PUSH2 0x1B25 JUMP JUMPDEST SWAP2 POP PUSH2 0x20D3 DUP3 PUSH2 0x2094 JUMP JUMPDEST PUSH1 0x20 DUP3 ADD SWAP1 POP SWAP2 SWAP1 POP JUMP JUMPDEST PUSH0 PUSH1 0x20 DUP3 ADD SWAP1 POP DUP2 DUP2 SUB PUSH0 DUP4 ADD MSTORE PUSH2 0x20F5 DUP2 PUSH2 0x20BC JUMP JUMPDEST SWAP1 POP SWAP2 SWAP1 POP JUMP JUMPDEST PUSH0 PUSH2 0x2106 DUP3 PUSH2 0x13F4 JUMP JUMPDEST SWAP2 POP PUSH2 0x2111 DUP4 PUSH2 0x13F4 JUMP JUMPDEST SWAP3 POP DUP3 DUP3 SUB SWAP1 POP DUP2 DUP2 GT ISZERO PUSH2 0x2129 JUMPI PUSH2 0x2128 PUSH2 0x1D29 JUMP JUMPDEST JUMPDEST SWAP3 SWAP2 POP POP JUMP JUMPDEST PUSH32 0x4E487B7100000000000000000000000000000000000000000000000000000000 PUSH0 MSTORE PUSH1 0x32 PUSH1 0x4 MSTORE PUSH1 0x24 PUSH0 REVERT JUMPDEST PUSH32 0x4F6E6C792070726F64756365722063616E2061737369676E2064697374726962 PUSH0 DUP3 ADD MSTORE PUSH32 0x75746F7200000000000000000000000000000000000000000000000000000000 PUSH1 0x20 DUP3 ADD MSTORE POP JUMP JUMPDEST PUSH0 PUSH2 0x21B6 PUSH1 0x24 DUP4 PUSH2 0x1B25 JUMP JUMPDEST SWAP2 POP PUSH2 0x21C1 DUP3 PUSH2 0x215C JUMP JUMPDEST PUSH1 0x40 DUP3 ADD SWAP1 POP SWAP2 SWAP1 POP JUMP JUMPDEST PUSH0 PUSH1 0x20 DUP3 ADD SWAP1 POP DUP2 DUP2 SUB PUSH0 DUP4 ADD MSTORE PUSH2 0x21E3 DUP2 PUSH2 0x21AA JUMP JUMPDEST SWAP1 POP SWAP2 SWAP1 POP JUMP JUMPDEST PUSH32 0x556E617574686F72697A65640000000000000000000000000000000000000000 PUSH0 DUP3 ADD MSTORE POP JUMP JUMPDEST PUSH0 PUSH2 0x221E PUSH1 0xC DUP4 PUSH2 0x1B25 JUMP JUMPDEST SWAP2 POP PUSH2 0x2229 DUP3 PUSH2 0x21EA JUMP JUMPDEST PUSH1 0x20 DUP3 ADD SWAP1 POP SWAP2 SWAP1 POP JUMP JUMPDEST PUSH0 PUSH1 0x20 DUP3 ADD SWAP1 POP DUP2 DUP2 SUB PUSH0 DUP4 ADD MSTORE PUSH2 0x224B DUP2 PUSH2 0x2212 JUMP JUMPDEST SWAP1 POP SWAP2 SWAP1 POP JUMP JUMPDEST PUSH0 PUSH1 0x40 DUP3 ADD SWAP1 POP PUSH2 0x2265 PUSH0 DUP4 ADD DUP6 PUSH2 0x1AD5 JUMP JUMPDEST PUSH2 0x2272 PUSH1 0x20 DUP4 ADD DUP5 PUSH2 0x1B6D JUMP JUMPDEST SWAP4 SWAP3 POP POP POP JUMP INVALID LOG2 PUSH5 0x6970667358 0x22 SLT KECCAK256 0xA7 0xB5 0xCE 0x4A SWAP5 PUSH6 0xD709517AB077 PUSH7 0x7CE0479F313F35 0x5E LOG1 0xB6 0xD1 0x5C BYTE 0xC6 0xC9 0xEE 0x21 CREATE 0xEE PUSH5 0x736F6C6343 STOP ADDMOD EQ STOP CALLER "
				},
				"gasEstimates": {
					"creation": {
						"codeDepositCost": "1775800",
						"executionCost": "infinite",
						"totalCost": "infinite"
					},
					"external": {
						"assignDistributor(uint256,address)": "27308",
						"assignRetailer(uint256,address)": "27242",
						"auditAllLots()": "infinite",
						"getLot(uint256)": "infinite",
						"lotCounter()": "2468",
						"lots(uint256)": "infinite",
						"registerLot(string,string,string)": "infinite",
						"regulator()": "2574",
						"triggerRecall(uint256)": "infinite",
						"updateIPFS(uint256,string,uint8)": "infinite"
					}
				},
				"methodIdentifiers": {
					"assignDistributor(uint256,address)": "aa9a533f",
					"assignRetailer(uint256,address)": "5d389a79",
					"auditAllLots()": "723f6099",
					"getLot(uint256)": "ab995d12",
					"lotCounter()": "c4ce88fd",
					"lots(uint256)": "f1648e84",
					"registerLot(string,string,string)": "639a7e72",
					"regulator()": "dd8fee14",
					"triggerRecall(uint256)": "565cf74f",
					"updateIPFS(uint256,string,uint8)": "b6edc223"
				}
			},
			"storageLayout": {
				"storage": [
					{
						"astId": 3,
						"contract": "smart-contract/FoodSafe.sol:FoodTraceability",
						"label": "lotCounter",
						"offset": 0,
						"slot": "0",
						"type": "t_uint256"
					},
					{
						"astId": 5,
						"contract": "smart-contract/FoodSafe.sol:FoodTraceability",
						"label": "regulator",
						"offset": 0,
						"slot": "1",
						"type": "t_address"
					},
					{
						"astId": 33,
						"contract": "smart-contract/FoodSafe.sol:FoodTraceability",
						"label": "lots",
						"offset": 0,
						"slot": "2",
						"type": "t_mapping(t_uint256,t_struct(FoodLot)28_storage)"
					}
				],
				"types": {
					"t_address": {
						"encoding": "inplace",
						"label": "address",
						"numberOfBytes": "20"
					},
					"t_enum(Status)10": {
						"encoding": "inplace",
						"label": "enum FoodTraceability.Status",
						"numberOfBytes": "1"
					},
					"t_mapping(t_uint256,t_struct(FoodLot)28_storage)": {
						"encoding": "mapping",
						"key": "t_uint256",
						"label": "mapping(uint256 => struct FoodTraceability.FoodLot)",
						"numberOfBytes": "32",
						"value": "t_struct(FoodLot)28_storage"
					},
					"t_string_storage": {
						"encoding": "bytes",
						"label": "string",
						"numberOfBytes": "32"
					},
					"t_struct(FoodLot)28_storage": {
						"encoding": "inplace",
						"label": "struct FoodTraceability.FoodLot",
						"members": [
							{
								"astId": 12,
								"contract": "smart-contract/FoodSafe.sol:FoodTraceability",
								"label": "lotId",
								"offset": 0,
								"slot": "0",
								"type": "t_uint256"
							},
							{
								"astId": 14,
								"contract": "smart-contract/FoodSafe.sol:FoodTraceability",
								"label": "productName",
								"offset": 0,
								"slot": "1",
								"type": "t_string_storage"
							},
							{
								"astId": 16,
								"contract": "smart-contract/FoodSafe.sol:FoodTraceability",
								"label": "origin",
								"offset": 0,
								"slot": "2",
								"type": "t_string_storage"
							},
							{
								"astId": 18,
								"contract": "smart-contract/FoodSafe.sol:FoodTraceability",
								"label": "ipfsHash",
								"offset": 0,
								"slot": "3",
								"type": "t_string_storage"
							},
							{
								"astId": 20,
								"contract": "smart-contract/FoodSafe.sol:FoodTraceability",
								"label": "producer",
								"offset": 0,
								"slot": "4",
								"type": "t_address"
							},
							{
								"astId": 22,
								"contract": "smart-contract/FoodSafe.sol:FoodTraceability",
								"label": "distributor",
								"offset": 0,
								"slot": "5",
								"type": "t_address"
							},
							{
								"astId": 24,
								"contract": "smart-contract/FoodSafe.sol:FoodTraceability",
								"label": "retailer",
								"offset": 0,
								"slot": "6",
								"type": "t_address"
							},
							{
								"astId": 27,
								"contract": "smart-contract/FoodSafe.sol:FoodTraceability",
								"label": "status",
								"offset": 20,
								"slot": "6",
								"type": "t_enum(Status)10"
							}
						],
						"numberOfBytes": "224"
					},
					"t_uint256": {
						"encoding": "inplace",
						"label": "uint256",
						"numberOfBytes": "32"
					}
				}
			},
			"userdoc": {
				"kind": "user",
				"methods": {},
				"version": 1
			}
		}
	}
}