{
	"FoodSafe/FoodSafe.sol": {
		"FoodSafe": {
			"abi": [
				{
					"inputs": [],
					"stateMutability": "nonpayable",
					"type": "constructor"
				},
				{
					"inputs": [],
					"name": "AccessControlBadConfirmation",
					"type": "error"
				},
				{
					"inputs": [
						{
							"internalType": "address",
							"name": "account",
							"type": "address"
						},
						{
							"internalType": "bytes32",
							"name": "neededRole",
							"type": "bytes32"
						}
					],
					"name": "AccessControlUnauthorizedAccount",
					"type": "error"
				},
				{
					"anonymous": false,
					"inputs": [
						{
							"indexed": false,
							"internalType": "uint256",
							"name": "lotId",
							"type": "uint256"
						}
					],
					"name": "LotRecalled",
					"type": "event"
				},
				{
					"anonymous": false,
					"inputs": [
						{
							"indexed": false,
							"internalType": "uint256",
							"name": "lotId",
							"type": "uint256"
						},
						{
							"indexed": false,
							"internalType": "string",
							"name": "description",
							"type": "string"
						},
						{
							"indexed": false,
							"internalType": "string",
							"name": "origin",
							"type": "string"
						}
					],
					"name": "LotRegistered",
					"type": "event"
				},
				{
					"anonymous": false,
					"inputs": [
						{
							"indexed": false,
							"internalType": "uint256",
							"name": "lotId",
							"type": "uint256"
						},
						{
							"indexed": false,
							"internalType": "string",
							"name": "newLocation",
							"type": "string"
						},
						{
							"indexed": false,
							"internalType": "string",
							"name": "status",
							"type": "string"
						}
					],
					"name": "LotUpdated",
					"type": "event"
				},
				{
					"anonymous": false,
					"inputs": [
						{
							"indexed": true,
							"internalType": "bytes32",
							"name": "role",
							"type": "bytes32"
						},
						{
							"indexed": true,
							"internalType": "bytes32",
							"name": "previousAdminRole",
							"type": "bytes32"
						},
						{
							"indexed": true,
							"internalType": "bytes32",
							"name": "newAdminRole",
							"type": "bytes32"
						}
					],
					"name": "RoleAdminChanged",
					"type": "event"
				},
				{
					"anonymous": false,
					"inputs": [
						{
							"indexed": true,
							"internalType": "bytes32",
							"name": "role",
							"type": "bytes32"
						},
						{
							"indexed": true,
							"internalType": "address",
							"name": "account",
							"type": "address"
						},
						{
							"indexed": true,
							"internalType": "address",
							"name": "sender",
							"type": "address"
						}
					],
					"name": "RoleGranted",
					"type": "event"
				},
				{
					"anonymous": false,
					"inputs": [
						{
							"indexed": true,
							"internalType": "bytes32",
							"name": "role",
							"type": "bytes32"
						},
						{
							"indexed": true,
							"internalType": "address",
							"name": "account",
							"type": "address"
						},
						{
							"indexed": true,
							"internalType": "address",
							"name": "sender",
							"type": "address"
						}
					],
					"name": "RoleRevoked",
					"type": "event"
				},
				{
					"inputs": [],
					"name": "DEFAULT_ADMIN_ROLE",
					"outputs": [
						{
							"internalType": "bytes32",
							"name": "",
							"type": "bytes32"
						}
					],
					"stateMutability": "view",
					"type": "function"
				},
				{
					"inputs": [],
					"name": "DISTRIBUTOR_ROLE",
					"outputs": [
						{
							"internalType": "bytes32",
							"name": "",
							"type": "bytes32"
						}
					],
					"stateMutability": "view",
					"type": "function"
				},
				{
					"inputs": [],
					"name": "PRODUCER_ROLE",
					"outputs": [
						{
							"internalType": "bytes32",
							"name": "",
							"type": "bytes32"
						}
					],
					"stateMutability": "view",
					"type": "function"
				},
				{
					"inputs": [],
					"name": "REGULATOR_ROLE",
					"outputs": [
						{
							"internalType": "bytes32",
							"name": "",
							"type": "bytes32"
						}
					],
					"stateMutability": "view",
					"type": "function"
				},
				{
					"inputs": [
						{
							"internalType": "uint256",
							"name": "lotId",
							"type": "uint256"
						}
					],
					"name": "getLot",
					"outputs": [
						{
							"components": [
								{
									"internalType": "uint256",
									"name": "lotId",
									"type": "uint256"
								},
								{
									"internalType": "string",
									"name": "description",
									"type": "string"
								},
								{
									"internalType": "string",
									"name": "origin",
									"type": "string"
								},
								{
									"internalType": "string",
									"name": "currentLocation",
									"type": "string"
								},
								{
									"internalType": "bool",
									"name": "recalled",
									"type": "bool"
								},
								{
									"internalType": "string",
									"name": "status",
									"type": "string"
								}
							],
							"internalType": "struct FoodSafe.FoodLot",
							"name": "",
							"type": "tuple"
						}
					],
					"stateMutability": "view",
					"type": "function"
				},
				{
					"inputs": [
						{
							"internalType": "bytes32",
							"name": "role",
							"type": "bytes32"
						}
					],
					"name": "getRoleAdmin",
					"outputs": [
						{
							"internalType": "bytes32",
							"name": "",
							"type": "bytes32"
						}
					],
					"stateMutability": "view",
					"type": "function"
				},
				{
					"inputs": [
						{
							"internalType": "bytes32",
							"name": "role",
							"type": "bytes32"
						},
						{
							"internalType": "address",
							"name": "account",
							"type": "address"
						}
					],
					"name": "grantRole",
					"outputs": [],
					"stateMutability": "nonpayable",
					"type": "function"
				},
				{
					"inputs": [
						{
							"internalType": "bytes32",
							"name": "role",
							"type": "bytes32"
						},
						{
							"internalType": "address",
							"name": "account",
							"type": "address"
						}
					],
					"name": "hasRole",
					"outputs": [
						{
							"internalType": "bool",
							"name": "",
							"type": "bool"
						}
					],
					"stateMutability": "view",
					"type": "function"
				},
				{
					"inputs": [
						{
							"internalType": "uint256",
							"name": "",
							"type": "uint256"
						}
					],
					"name": "lots",
					"outputs": [
						{
							"internalType": "uint256",
							"name": "lotId",
							"type": "uint256"
						},
						{
							"internalType": "string",
							"name": "description",
							"type": "string"
						},
						{
							"internalType": "string",
							"name": "origin",
							"type": "string"
						},
						{
							"internalType": "string",
							"name": "currentLocation",
							"type": "string"
						},
						{
							"internalType": "bool",
							"name": "recalled",
							"type": "bool"
						},
						{
							"internalType": "string",
							"name": "status",
							"type": "string"
						}
					],
					"stateMutability": "view",
					"type": "function"
				},
				{
					"inputs": [
						{
							"internalType": "uint256",
							"name": "lotId",
							"type": "uint256"
						}
					],
					"name": "recallLot",
					"outputs": [],
					"stateMutability": "nonpayable",
					"type": "function"
				},
				{
					"inputs": [
						{
							"internalType": "uint256",
							"name": "lotId",
							"type": "uint256"
						},
						{
							"internalType": "string",
							"name": "description",
							"type": "string"
						},
						{
							"internalType": "string",
							"name": "origin",
							"type": "string"
						}
					],
					"name": "registerLot",
					"outputs": [],
					"stateMutability": "nonpayable",
					"type": "function"
				},
				{
					"inputs": [
						{
							"internalType": "bytes32",
							"name": "role",
							"type": "bytes32"
						},
						{
							"internalType": "address",
							"name": "callerConfirmation",
							"type": "address"
						}
					],
					"name": "renounceRole",
					"outputs": [],
					"stateMutability": "nonpayable",
					"type": "function"
				},
				{
					"inputs": [
						{
							"internalType": "bytes32",
							"name": "role",
							"type": "bytes32"
						},
						{
							"internalType": "address",
							"name": "account",
							"type": "address"
						}
					],
					"name": "revokeRole",
					"outputs": [],
					"stateMutability": "nonpayable",
					"type": "function"
				},
				{
					"inputs": [
						{
							"internalType": "bytes4",
							"name": "interfaceId",
							"type": "bytes4"
						}
					],
					"name": "supportsInterface",
					"outputs": [
						{
							"internalType": "bool",
							"name": "",
							"type": "bool"
						}
					],
					"stateMutability": "view",
					"type": "function"
				},
				{
					"inputs": [
						{
							"internalType": "uint256",
							"name": "lotId",
							"type": "uint256"
						},
						{
							"internalType": "string",
							"name": "newLocation",
							"type": "string"
						}
					],
					"name": "updateLocation",
					"outputs": [],
					"stateMutability": "nonpayable",
					"type": "function"
				}
			],
			"devdoc": {
				"errors": {
					"AccessControlBadConfirmation()": [
						{
							"details": "The caller of a function is not the expected one. NOTE: Don't confuse with {AccessControlUnauthorizedAccount}."
						}
					],
					"AccessControlUnauthorizedAccount(address,bytes32)": [
						{
							"details": "The `account` is missing a role."
						}
					]
				},
				"events": {
					"RoleAdminChanged(bytes32,bytes32,bytes32)": {
						"details": "Emitted when `newAdminRole` is set as ``role``'s admin role, replacing `previousAdminRole` `DEFAULT_ADMIN_ROLE` is the starting admin for all roles, despite {RoleAdminChanged} not being emitted to signal this."
					},
					"RoleGranted(bytes32,address,address)": {
						"details": "Emitted when `account` is granted `role`. `sender` is the account that originated the contract call. This account bears the admin role (for the granted role). Expected in cases where the role was granted using the internal {AccessControl-_grantRole}."
					},
					"RoleRevoked(bytes32,address,address)": {
						"details": "Emitted when `account` is revoked `role`. `sender` is the account that originated the contract call:   - if using `revokeRole`, it is the admin role bearer   - if using `renounceRole`, it is the role bearer (i.e. `account`)"
					}
				},
				"kind": "dev",
				"methods": {
					"getRoleAdmin(bytes32)": {
						"details": "Returns the admin role that controls `role`. See {grantRole} and {revokeRole}. To change a role's admin, use {_setRoleAdmin}."
					},
					"grantRole(bytes32,address)": {
						"details": "Grants `role` to `account`. If `account` had not been already granted `role`, emits a {RoleGranted} event. Requirements: - the caller must have ``role``'s admin role. May emit a {RoleGranted} event."
					},
					"hasRole(bytes32,address)": {
						"details": "Returns `true` if `account` has been granted `role`."
					},
					"renounceRole(bytes32,address)": {
						"details": "Revokes `role` from the calling account. Roles are often managed via {grantRole} and {revokeRole}: this function's purpose is to provide a mechanism for accounts to lose their privileges if they are compromised (such as when a trusted device is misplaced). If the calling account had been revoked `role`, emits a {RoleRevoked} event. Requirements: - the caller must be `callerConfirmation`. May emit a {RoleRevoked} event."
					},
					"revokeRole(bytes32,address)": {
						"details": "Revokes `role` from `account`. If `account` had been granted `role`, emits a {RoleRevoked} event. Requirements: - the caller must have ``role``'s admin role. May emit a {RoleRevoked} event."
					},
					"supportsInterface(bytes4)": {
						"details": "Returns true if this contract implements the interface defined by `interfaceId`. See the corresponding https://eips.ethereum.org/EIPS/eip-165#how-interfaces-are-identified[ERC section] to learn more about how these ids are created. This function call must use less than 30 000 gas."
					}
				},
				"version": 1
			},
			"evm": {
				"assembly": "    /* \"FoodSafe/FoodSafe.sol\":123:2536  contract FoodSafe is AccessControl {... */\n  mstore(0x40, 0x80)\n    /* \"FoodSafe/FoodSafe.sol\":905:980  constructor() {... */\n  callvalue\n  dup1\n  iszero\n  tag_1\n  jumpi\n  revert(0x00, 0x00)\ntag_1:\n  pop\n    /* \"FoodSafe/FoodSafe.sol\":930:972  _grantRole(DEFAULT_ADMIN_ROLE, msg.sender) */\n  tag_4\n    /* \"@openzeppelin/contracts/access/AccessControl.sol\":2241:2245  0x00 */\n  0x00\n    /* \"FoodSafe/FoodSafe.sol\":941:959  DEFAULT_ADMIN_ROLE */\n  0x00\n  shl\n    /* \"FoodSafe/FoodSafe.sol\":961:971  msg.sender */\n  caller\n    /* \"FoodSafe/FoodSafe.sol\":930:940  _grantRole */\n  shl(0x20, tag_5)\n    /* \"FoodSafe/FoodSafe.sol\":930:972  _grantRole(DEFAULT_ADMIN_ROLE, msg.sender) */\n  0x20\n  shr\n  jump\t// in\ntag_4:\n  pop\n    /* \"FoodSafe/FoodSafe.sol\":123:2536  contract FoodSafe is AccessControl {... */\n  jump(tag_6)\n    /* \"@openzeppelin/contracts/access/AccessControl.sol\":6155:6471  function _grantRole(bytes32 role, address account) internal virtual returns (bool) {... */\ntag_5:\n    /* \"@openzeppelin/contracts/access/AccessControl.sol\":6232:6236  bool */\n  0x00\n    /* \"@openzeppelin/contracts/access/AccessControl.sol\":6253:6275  hasRole(role, account) */\n  tag_8\n    /* \"@openzeppelin/contracts/access/AccessControl.sol\":6261:6265  role */\n  dup4\n    /* \"@openzeppelin/contracts/access/AccessControl.sol\":6267:6274  account */\n  dup4\n    /* \"@openzeppelin/contracts/access/AccessControl.sol\":6253:6260  hasRole */\n  shl(0x20, tag_9)\n    /* \"@openzeppelin/contracts/access/AccessControl.sol\":6253:6275  hasRole(role, account) */\n  0x20\n  shr\n  jump\t// in\ntag_8:\n    /* \"@openzeppelin/contracts/access/AccessControl.sol\":6248:6465  if (!hasRole(role, account)) {... */\n  tag_10\n  jumpi\n    /* \"@openzeppelin/contracts/access/AccessControl.sol\":6323:6327  true */\n  0x01\n    /* \"@openzeppelin/contracts/access/AccessControl.sol\":6291:6297  _roles */\n  0x00\n    /* \"@openzeppelin/contracts/access/AccessControl.sol\":6291:6303  _roles[role] */\n  0x00\n    /* \"@openzeppelin/contracts/access/AccessControl.sol\":6298:6302  role */\n  dup6\n    /* \"@openzeppelin/contracts/access/AccessControl.sol\":6291:6303  _roles[role] */\n  dup2\n  mstore\n  0x20\n  add\n  swap1\n  dup2\n  mstore\n  0x20\n  add\n  0x00\n  keccak256\n    /* \"@openzeppelin/contracts/access/AccessControl.sol\":6291:6311  _roles[role].hasRole */\n  0x00\n  add\n    /* \"@openzeppelin/contracts/access/AccessControl.sol\":6291:6320  _roles[role].hasRole[account] */\n  0x00\n    /* \"@openzeppelin/contracts/access/AccessControl.sol\":6312:6319  account */\n  dup5\n    /* \"@openzeppelin/contracts/access/AccessControl.sol\":6291:6320  _roles[role].hasRole[account] */\n  0xffffffffffffffffffffffffffffffffffffffff\n  and\n  0xffffffffffffffffffffffffffffffffffffffff\n  and\n  dup2\n  mstore\n  0x20\n  add\n  swap1\n  dup2\n  mstore\n  0x20\n  add\n  0x00\n  keccak256\n  0x00\n    /* \"@openzeppelin/contracts/access/AccessControl.sol\":6291:6327  _roles[role].hasRole[account] = true */\n  0x0100\n  exp\n  dup2\n  sload\n  dup2\n  0xff\n  mul\n  not\n  and\n  swap1\n  dup4\n  iszero\n  iszero\n  mul\n  or\n  swap1\n  sstore\n  pop\n    /* \"@openzeppelin/contracts/access/AccessControl.sol\":6373:6385  _msgSender() */\n  tag_11\n    /* \"@openzeppelin/contracts/access/AccessControl.sol\":6373:6383  _msgSender */\n  shl(0x20, tag_12)\n    /* \"@openzeppelin/contracts/access/AccessControl.sol\":6373:6385  _msgSender() */\n  0x20\n  shr\n  jump\t// in\ntag_11:\n    /* \"@openzeppelin/contracts/access/AccessControl.sol\":6346:6386  RoleGranted(role, account, _msgSender()) */\n  0xffffffffffffffffffffffffffffffffffffffff\n  and\n    /* \"@openzeppelin/contracts/access/AccessControl.sol\":6364:6371  account */\n  dup3\n    /* \"@openzeppelin/contracts/access/AccessControl.sol\":6346:6386  RoleGranted(role, account, _msgSender()) */\n  0xffffffffffffffffffffffffffffffffffffffff\n  and\n    /* \"@openzeppelin/contracts/access/AccessControl.sol\":6358:6362  role */\n  dup5\n    /* \"@openzeppelin/contracts/access/AccessControl.sol\":6346:6386  RoleGranted(role, account, _msgSender()) */\n  0x2f8788117e7eff1d82e926ec794901d17c78024a50270940304540a733656f0d\n  mload(0x40)\n  mload(0x40)\n  dup1\n  swap2\n  sub\n  swap1\n  log4\n    /* \"@openzeppelin/contracts/access/AccessControl.sol\":6407:6411  true */\n  0x01\n    /* \"@openzeppelin/contracts/access/AccessControl.sol\":6400:6411  return true */\n  swap1\n  pop\n  jump(tag_7)\n    /* \"@openzeppelin/contracts/access/AccessControl.sol\":6248:6465  if (!hasRole(role, account)) {... */\ntag_10:\n    /* \"@openzeppelin/contracts/access/AccessControl.sol\":6449:6454  false */\n  0x00\n    /* \"@openzeppelin/contracts/access/AccessControl.sol\":6442:6454  return false */\n  swap1\n  pop\n    /* \"@openzeppelin/contracts/access/AccessControl.sol\":6155:6471  function _grantRole(bytes32 role, address account) internal virtual returns (bool) {... */\ntag_7:\n  swap3\n  swap2\n  pop\n  pop\n  jump\t// out\n    /* \"@openzeppelin/contracts/access/AccessControl.sol\":2830:2966  function hasRole(bytes32 role, address account) public view virtual returns (bool) {... */\ntag_9:\n    /* \"@openzeppelin/contracts/access/AccessControl.sol\":2907:2911  bool */\n  0x00\n    /* \"@openzeppelin/contracts/access/AccessControl.sol\":2930:2936  _roles */\n  0x00\n    /* \"@openzeppelin/contracts/access/AccessControl.sol\":2930:2942  _roles[role] */\n  0x00\n    /* \"@openzeppelin/contracts/access/AccessControl.sol\":2937:2941  role */\n  dup5\n    /* \"@openzeppelin/contracts/access/AccessControl.sol\":2930:2942  _roles[role] */\n  dup2\n  mstore\n  0x20\n  add\n  swap1\n  dup2\n  mstore\n  0x20\n  add\n  0x00\n  keccak256\n    /* \"@openzeppelin/contracts/access/AccessControl.sol\":2930:2950  _roles[role].hasRole */\n  0x00\n  add\n    /* \"@openzeppelin/contracts/access/AccessControl.sol\":2930:2959  _roles[role].hasRole[account] */\n  0x00\n    /* \"@openzeppelin/contracts/access/AccessControl.sol\":2951:2958  account */\n  dup4\n    /* \"@openzeppelin/contracts/access/AccessControl.sol\":2930:2959  _roles[role].hasRole[account] */\n  0xffffffffffffffffffffffffffffffffffffffff\n  and\n  0xffffffffffffffffffffffffffffffffffffffff\n  and\n  dup2\n  mstore\n  0x20\n  add\n  swap1\n  dup2\n  mstore\n  0x20\n  add\n  0x00\n  keccak256\n  0x00\n  swap1\n  sload\n  swap1\n  0x0100\n  exp\n  swap1\n  div\n  0xff\n  and\n    /* \"@openzeppelin/contracts/access/AccessControl.sol\":2923:2959  return _roles[role].hasRole[account] */\n  swap1\n  pop\n    /* \"@openzeppelin/contracts/access/AccessControl.sol\":2830:2966  function hasRole(bytes32 role, address account) public view virtual returns (bool) {... */\n  swap3\n  swap2\n  pop\n  pop\n  jump\t// out\n    /* \"@openzeppelin/contracts/utils/Context.sol\":656:752  function _msgSender() internal view virtual returns (address) {... */\ntag_12:\n    /* \"@openzeppelin/contracts/utils/Context.sol\":709:716  address */\n  0x00\n    /* \"@openzeppelin/contracts/utils/Context.sol\":735:745  msg.sender */\n  caller\n    /* \"@openzeppelin/contracts/utils/Context.sol\":728:745  return msg.sender */\n  swap1\n  pop\n    /* \"@openzeppelin/contracts/utils/Context.sol\":656:752  function _msgSender() internal view virtual returns (address) {... */\n  swap1\n  jump\t// out\n    /* \"FoodSafe/FoodSafe.sol\":123:2536  contract FoodSafe is AccessControl {... */\ntag_6:\n  dataSize(sub_0)\n  dup1\n  dataOffset(sub_0)\n  0x00\n  codecopy\n  0x00\n  return\nstop\n\nsub_0: assembly {\n        /* \"FoodSafe/FoodSafe.sol\":123:2536  contract FoodSafe is AccessControl {... */\n      mstore(0x40, 0x80)\n      callvalue\n      dup1\n      iszero\n      tag_1\n      jumpi\n      revert(0x00, 0x00)\n    tag_1:\n      pop\n      jumpi(tag_2, lt(calldatasize, 0x04))\n      shr(0xe0, calldataload(0x00))\n      dup1\n      0xa217fddf\n      gt\n      tag_18\n      jumpi\n      dup1\n      0xd547741f\n      gt\n      tag_19\n      jumpi\n      dup1\n      0xd547741f\n      eq\n      tag_14\n      jumpi\n      dup1\n      0xe7862353\n      eq\n      tag_15\n      jumpi\n      dup1\n      0xf0bd87cc\n      eq\n      tag_16\n      jumpi\n      dup1\n      0xf1648e84\n      eq\n      tag_17\n      jumpi\n      jump(tag_2)\n    tag_19:\n      dup1\n      0xa217fddf\n      eq\n      tag_10\n      jumpi\n      dup1\n      0xab995d12\n      eq\n      tag_11\n      jumpi\n      dup1\n      0xcb3e1fe7\n      eq\n      tag_12\n      jumpi\n      dup1\n      0xce51e4df\n      eq\n      tag_13\n      jumpi\n      jump(tag_2)\n    tag_18:\n      dup1\n      0x2f2ff15d\n      gt\n      tag_20\n      jumpi\n      dup1\n      0x2f2ff15d\n      eq\n      tag_6\n      jumpi\n      dup1\n      0x36568abe\n      eq\n      tag_7\n      jumpi\n      dup1\n      0x4ec0c9e9\n      eq\n      tag_8\n      jumpi\n      dup1\n      0x91d14854\n      eq\n      tag_9\n      jumpi\n      jump(tag_2)\n    tag_20:\n      dup1\n      0x01ffc9a7\n      eq\n      tag_3\n      jumpi\n      dup1\n      0x144bf589\n      eq\n      tag_4\n      jumpi\n      dup1\n      0x248a9ca3\n      eq\n      tag_5\n      jumpi\n    tag_2:\n      revert(0x00, 0x00)\n        /* \"@openzeppelin/contracts/access/AccessControl.sol\":2541:2743  function supportsInterface(bytes4 interfaceId) public view virtual override returns (bool) {... */\n    tag_3:\n      tag_21\n      0x04\n      dup1\n      calldatasize\n      sub\n      dup2\n      add\n      swap1\n      tag_22\n      swap2\n      swap1\n      tag_23\n      jump\t// in\n    tag_22:\n      tag_24\n      jump\t// in\n    tag_21:\n      mload(0x40)\n      tag_25\n      swap2\n      swap1\n      tag_26\n      jump\t// in\n    tag_25:\n      mload(0x40)\n      dup1\n      swap2\n      sub\n      swap1\n      return\n        /* \"FoodSafe/FoodSafe.sol\":331:399  bytes32 public constant REGULATOR_ROLE = keccak256(\"REGULATOR_ROLE\") */\n    tag_4:\n      tag_27\n      tag_28\n      jump\t// in\n    tag_27:\n      mload(0x40)\n      tag_29\n      swap2\n      swap1\n      tag_30\n      jump\t// in\n    tag_29:\n      mload(0x40)\n      dup1\n      swap2\n      sub\n      swap1\n      return\n        /* \"@openzeppelin/contracts/access/AccessControl.sol\":3786:3906  function getRoleAdmin(bytes32 role) public view virtual returns (bytes32) {... */\n    tag_5:\n      tag_31\n      0x04\n      dup1\n      calldatasize\n      sub\n      dup2\n      add\n      swap1\n      tag_32\n      swap2\n      swap1\n      tag_33\n      jump\t// in\n    tag_32:\n      tag_34\n      jump\t// in\n    tag_31:\n      mload(0x40)\n      tag_35\n      swap2\n      swap1\n      tag_30\n      jump\t// in\n    tag_35:\n      mload(0x40)\n      dup1\n      swap2\n      sub\n      swap1\n      return\n        /* \"@openzeppelin/contracts/access/AccessControl.sol\":4202:4338  function grantRole(bytes32 role, address account) public virtual onlyRole(getRoleAdmin(role)) {... */\n    tag_6:\n      tag_36\n      0x04\n      dup1\n      calldatasize\n      sub\n      dup2\n      add\n      swap1\n      tag_37\n      swap2\n      swap1\n      tag_38\n      jump\t// in\n    tag_37:\n      tag_39\n      jump\t// in\n    tag_36:\n      stop\n        /* \"@openzeppelin/contracts/access/AccessControl.sol\":5304:5549  function renounceRole(bytes32 role, address callerConfirmation) public virtual {... */\n    tag_7:\n      tag_40\n      0x04\n      dup1\n      calldatasize\n      sub\n      dup2\n      add\n      swap1\n      tag_41\n      swap2\n      swap1\n      tag_38\n      jump\t// in\n    tag_41:\n      tag_42\n      jump\t// in\n    tag_40:\n      stop\n        /* \"FoodSafe/FoodSafe.sol\":1614:2039  function updateLocation(uint256 lotId, string memory newLocation)... */\n    tag_8:\n      tag_43\n      0x04\n      dup1\n      calldatasize\n      sub\n      dup2\n      add\n      swap1\n      tag_44\n      swap2\n      swap1\n      tag_45\n      jump\t// in\n    tag_44:\n      tag_46\n      jump\t// in\n    tag_43:\n      stop\n        /* \"@openzeppelin/contracts/access/AccessControl.sol\":2830:2966  function hasRole(bytes32 role, address account) public view virtual returns (bool) {... */\n    tag_9:\n      tag_47\n      0x04\n      dup1\n      calldatasize\n      sub\n      dup2\n      add\n      swap1\n      tag_48\n      swap2\n      swap1\n      tag_38\n      jump\t// in\n    tag_48:\n      tag_49\n      jump\t// in\n    tag_47:\n      mload(0x40)\n      tag_50\n      swap2\n      swap1\n      tag_26\n      jump\t// in\n    tag_50:\n      mload(0x40)\n      dup1\n      swap2\n      sub\n      swap1\n      return\n        /* \"@openzeppelin/contracts/access/AccessControl.sol\":2196:2245  bytes32 public constant DEFAULT_ADMIN_ROLE = 0x00 */\n    tag_10:\n      tag_51\n      tag_52\n      jump\t// in\n    tag_51:\n      mload(0x40)\n      tag_53\n      swap2\n      swap1\n      tag_30\n      jump\t// in\n    tag_53:\n      mload(0x40)\n      dup1\n      swap2\n      sub\n      swap1\n      return\n        /* \"FoodSafe/FoodSafe.sol\":2364:2533  function getLot(uint256 lotId) public view returns (FoodLot memory) {... */\n    tag_11:\n      tag_54\n      0x04\n      dup1\n      calldatasize\n      sub\n      dup2\n      add\n      swap1\n      tag_55\n      swap2\n      swap1\n      tag_56\n      jump\t// in\n    tag_55:\n      tag_57\n      jump\t// in\n    tag_54:\n      mload(0x40)\n      tag_58\n      swap2\n      swap1\n      tag_59\n      jump\t// in\n    tag_58:\n      mload(0x40)\n      dup1\n      swap2\n      sub\n      swap1\n      return\n        /* \"FoodSafe/FoodSafe.sol\":179:245  bytes32 public constant PRODUCER_ROLE = keccak256(\"PRODUCER_ROLE\") */\n    tag_12:\n      tag_60\n      tag_61\n      jump\t// in\n    tag_60:\n      mload(0x40)\n      tag_62\n      swap2\n      swap1\n      tag_30\n      jump\t// in\n    tag_62:\n      mload(0x40)\n      dup1\n      swap2\n      sub\n      swap1\n      return\n        /* \"FoodSafe/FoodSafe.sol\":1025:1562  function registerLot(... */\n    tag_13:\n      tag_63\n      0x04\n      dup1\n      calldatasize\n      sub\n      dup2\n      add\n      swap1\n      tag_64\n      swap2\n      swap1\n      tag_65\n      jump\t// in\n    tag_64:\n      tag_66\n      jump\t// in\n    tag_63:\n      stop\n        /* \"@openzeppelin/contracts/access/AccessControl.sol\":4618:4756  function revokeRole(bytes32 role, address account) public virtual onlyRole(getRoleAdmin(role)) {... */\n    tag_14:\n      tag_67\n      0x04\n      dup1\n      calldatasize\n      sub\n      dup2\n      add\n      swap1\n      tag_68\n      swap2\n      swap1\n      tag_38\n      jump\t// in\n    tag_68:\n      tag_69\n      jump\t// in\n    tag_67:\n      stop\n        /* \"FoodSafe/FoodSafe.sol\":2079:2331  function recallLot(uint256 lotId) public onlyRole(REGULATOR_ROLE) {... */\n    tag_15:\n      tag_70\n      0x04\n      dup1\n      calldatasize\n      sub\n      dup2\n      add\n      swap1\n      tag_71\n      swap2\n      swap1\n      tag_56\n      jump\t// in\n    tag_71:\n      tag_72\n      jump\t// in\n    tag_70:\n      stop\n        /* \"FoodSafe/FoodSafe.sol\":252:324  bytes32 public constant DISTRIBUTOR_ROLE = keccak256(\"DISTRIBUTOR_ROLE\") */\n    tag_16:\n      tag_73\n      tag_74\n      jump\t// in\n    tag_73:\n      mload(0x40)\n      tag_75\n      swap2\n      swap1\n      tag_30\n      jump\t// in\n    tag_75:\n      mload(0x40)\n      dup1\n      swap2\n      sub\n      swap1\n      return\n        /* \"FoodSafe/FoodSafe.sol\":652:691  mapping(uint256 => FoodLot) public lots */\n    tag_17:\n      tag_76\n      0x04\n      dup1\n      calldatasize\n      sub\n      dup2\n      add\n      swap1\n      tag_77\n      swap2\n      swap1\n      tag_56\n      jump\t// in\n    tag_77:\n      tag_78\n      jump\t// in\n    tag_76:\n      mload(0x40)\n      tag_79\n      swap7\n      swap6\n      swap5\n      swap4\n      swap3\n      swap2\n      swap1\n      tag_80\n      jump\t// in\n    tag_79:\n      mload(0x40)\n      dup1\n      swap2\n      sub\n      swap1\n      return\n        /* \"@openzeppelin/contracts/access/AccessControl.sol\":2541:2743  function supportsInterface(bytes4 interfaceId) public view virtual override returns (bool) {... */\n    tag_24:\n        /* \"@openzeppelin/contracts/access/AccessControl.sol\":2626:2630  bool */\n      0x00\n        /* \"@openzeppelin/contracts/access/AccessControl.sol\":2664:2696  type(IAccessControl).interfaceId */\n      0x7965db0b00000000000000000000000000000000000000000000000000000000\n        /* \"@openzeppelin/contracts/access/AccessControl.sol\":2649:2696  interfaceId == type(IAccessControl).interfaceId */\n      not(0xffffffffffffffffffffffffffffffffffffffffffffffffffffffff)\n      and\n        /* \"@openzeppelin/contracts/access/AccessControl.sol\":2649:2660  interfaceId */\n      dup3\n        /* \"@openzeppelin/contracts/access/AccessControl.sol\":2649:2696  interfaceId == type(IAccessControl).interfaceId */\n      not(0xffffffffffffffffffffffffffffffffffffffffffffffffffffffff)\n      and\n      eq\n        /* \"@openzeppelin/contracts/access/AccessControl.sol\":2649:2736  interfaceId == type(IAccessControl).interfaceId || super.supportsInterface(interfaceId) */\n      dup1\n      tag_82\n      jumpi\n      pop\n        /* \"@openzeppelin/contracts/access/AccessControl.sol\":2700:2736  super.supportsInterface(interfaceId) */\n      tag_83\n        /* \"@openzeppelin/contracts/access/AccessControl.sol\":2724:2735  interfaceId */\n      dup3\n        /* \"@openzeppelin/contracts/access/AccessControl.sol\":2700:2723  super.supportsInterface */\n      tag_84\n        /* \"@openzeppelin/contracts/access/AccessControl.sol\":2700:2736  super.supportsInterface(interfaceId) */\n      jump\t// in\n    tag_83:\n        /* \"@openzeppelin/contracts/access/AccessControl.sol\":2649:2736  interfaceId == type(IAccessControl).interfaceId || super.supportsInterface(interfaceId) */\n    tag_82:\n        /* \"@openzeppelin/contracts/access/AccessControl.sol\":2642:2736  return interfaceId == type(IAccessControl).interfaceId || super.supportsInterface(interfaceId) */\n      swap1\n      pop\n        /* \"@openzeppelin/contracts/access/AccessControl.sol\":2541:2743  function supportsInterface(bytes4 interfaceId) public view virtual override returns (bool) {... */\n      swap2\n      swap1\n      pop\n      jump\t// out\n        /* \"FoodSafe/FoodSafe.sol\":331:399  bytes32 public constant REGULATOR_ROLE = keccak256(\"REGULATOR_ROLE\") */\n    tag_28:\n        /* \"FoodSafe/FoodSafe.sol\":372:399  keccak256(\"REGULATOR_ROLE\") */\n      0x20b5f7ac978e5d6199de06401411960dfa81d2f762655f6206bdc61d46fc19e6\n        /* \"FoodSafe/FoodSafe.sol\":331:399  bytes32 public constant REGULATOR_ROLE = keccak256(\"REGULATOR_ROLE\") */\n      dup2\n      jump\t// out\n        /* \"@openzeppelin/contracts/access/AccessControl.sol\":3786:3906  function getRoleAdmin(bytes32 role) public view virtual returns (bytes32) {... */\n    tag_34:\n        /* \"@openzeppelin/contracts/access/AccessControl.sol\":3851:3858  bytes32 */\n      0x00\n        /* \"@openzeppelin/contracts/access/AccessControl.sol\":3877:3883  _roles */\n      0x00\n        /* \"@openzeppelin/contracts/access/AccessControl.sol\":3877:3889  _roles[role] */\n      0x00\n        /* \"@openzeppelin/contracts/access/AccessControl.sol\":3884:3888  role */\n      dup4\n        /* \"@openzeppelin/contracts/access/AccessControl.sol\":3877:3889  _roles[role] */\n      dup2\n      mstore\n      0x20\n      add\n      swap1\n      dup2\n      mstore\n      0x20\n      add\n      0x00\n      keccak256\n        /* \"@openzeppelin/contracts/access/AccessControl.sol\":3877:3899  _roles[role].adminRole */\n      0x01\n      add\n      sload\n        /* \"@openzeppelin/contracts/access/AccessControl.sol\":3870:3899  return _roles[role].adminRole */\n      swap1\n      pop\n        /* \"@openzeppelin/contracts/access/AccessControl.sol\":3786:3906  function getRoleAdmin(bytes32 role) public view virtual returns (bytes32) {... */\n      swap2\n      swap1\n      pop\n      jump\t// out\n        /* \"@openzeppelin/contracts/access/AccessControl.sol\":4202:4338  function grantRole(bytes32 role, address account) public virtual onlyRole(getRoleAdmin(role)) {... */\n    tag_39:\n        /* \"@openzeppelin/contracts/access/AccessControl.sol\":4276:4294  getRoleAdmin(role) */\n      tag_86\n        /* \"@openzeppelin/contracts/access/AccessControl.sol\":4289:4293  role */\n      dup3\n        /* \"@openzeppelin/contracts/access/AccessControl.sol\":4276:4288  getRoleAdmin */\n      tag_34\n        /* \"@openzeppelin/contracts/access/AccessControl.sol\":4276:4294  getRoleAdmin(role) */\n      jump\t// in\n    tag_86:\n        /* \"@openzeppelin/contracts/access/AccessControl.sol\":2473:2489  _checkRole(role) */\n      tag_88\n        /* \"@openzeppelin/contracts/access/AccessControl.sol\":2484:2488  role */\n      dup2\n        /* \"@openzeppelin/contracts/access/AccessControl.sol\":2473:2483  _checkRole */\n      tag_89\n        /* \"@openzeppelin/contracts/access/AccessControl.sol\":2473:2489  _checkRole(role) */\n      jump\t// in\n    tag_88:\n        /* \"@openzeppelin/contracts/access/AccessControl.sol\":4306:4331  _grantRole(role, account) */\n      tag_91\n        /* \"@openzeppelin/contracts/access/AccessControl.sol\":4317:4321  role */\n      dup4\n        /* \"@openzeppelin/contracts/access/AccessControl.sol\":4323:4330  account */\n      dup4\n        /* \"@openzeppelin/contracts/access/AccessControl.sol\":4306:4316  _grantRole */\n      tag_92\n        /* \"@openzeppelin/contracts/access/AccessControl.sol\":4306:4331  _grantRole(role, account) */\n      jump\t// in\n    tag_91:\n      pop\n        /* \"@openzeppelin/contracts/access/AccessControl.sol\":4202:4338  function grantRole(bytes32 role, address account) public virtual onlyRole(getRoleAdmin(role)) {... */\n      pop\n      pop\n      pop\n      jump\t// out\n        /* \"@openzeppelin/contracts/access/AccessControl.sol\":5304:5549  function renounceRole(bytes32 role, address callerConfirmation) public virtual {... */\n    tag_42:\n        /* \"@openzeppelin/contracts/access/AccessControl.sol\":5419:5431  _msgSender() */\n      tag_94\n        /* \"@openzeppelin/contracts/access/AccessControl.sol\":5419:5429  _msgSender */\n      tag_95\n        /* \"@openzeppelin/contracts/access/AccessControl.sol\":5419:5431  _msgSender() */\n      jump\t// in\n    tag_94:\n        /* \"@openzeppelin/contracts/access/AccessControl.sol\":5397:5431  callerConfirmation != _msgSender() */\n      0xffffffffffffffffffffffffffffffffffffffff\n      and\n        /* \"@openzeppelin/contracts/access/AccessControl.sol\":5397:5415  callerConfirmation */\n      dup2\n        /* \"@openzeppelin/contracts/access/AccessControl.sol\":5397:5431  callerConfirmation != _msgSender() */\n      0xffffffffffffffffffffffffffffffffffffffff\n      and\n      eq\n        /* \"@openzeppelin/contracts/access/AccessControl.sol\":5393:5495  if (callerConfirmation != _msgSender()) {... */\n      tag_96\n      jumpi\n        /* \"@openzeppelin/contracts/access/AccessControl.sol\":5454:5484  AccessControlBadConfirmation() */\n      mload(0x40)\n      0x6697b23200000000000000000000000000000000000000000000000000000000\n      dup2\n      mstore\n      0x04\n      add\n      mload(0x40)\n      dup1\n      swap2\n      sub\n      swap1\n      revert\n        /* \"@openzeppelin/contracts/access/AccessControl.sol\":5393:5495  if (callerConfirmation != _msgSender()) {... */\n    tag_96:\n        /* \"@openzeppelin/contracts/access/AccessControl.sol\":5505:5542  _revokeRole(role, callerConfirmation) */\n      tag_97\n        /* \"@openzeppelin/contracts/access/AccessControl.sol\":5517:5521  role */\n      dup3\n        /* \"@openzeppelin/contracts/access/AccessControl.sol\":5523:5541  callerConfirmation */\n      dup3\n        /* \"@openzeppelin/contracts/access/AccessControl.sol\":5505:5516  _revokeRole */\n      tag_98\n        /* \"@openzeppelin/contracts/access/AccessControl.sol\":5505:5542  _revokeRole(role, callerConfirmation) */\n      jump\t// in\n    tag_97:\n      pop\n        /* \"@openzeppelin/contracts/access/AccessControl.sol\":5304:5549  function renounceRole(bytes32 role, address callerConfirmation) public virtual {... */\n      pop\n      pop\n      jump\t// out\n        /* \"FoodSafe/FoodSafe.sol\":1614:2039  function updateLocation(uint256 lotId, string memory newLocation)... */\n    tag_46:\n        /* \"FoodSafe/FoodSafe.sol\":295:324  keccak256(\"DISTRIBUTOR_ROLE\") */\n      0xfbd454f36a7e1a388bd6fc3ab10d434aa4578f811acbbcf33afb1c697486313c\n        /* \"@openzeppelin/contracts/access/AccessControl.sol\":2473:2489  _checkRole(role) */\n      tag_100\n        /* \"@openzeppelin/contracts/access/AccessControl.sol\":2484:2488  role */\n      dup2\n        /* \"@openzeppelin/contracts/access/AccessControl.sol\":2473:2483  _checkRole */\n      tag_89\n        /* \"@openzeppelin/contracts/access/AccessControl.sol\":2473:2489  _checkRole(role) */\n      jump\t// in\n    tag_100:\n        /* \"FoodSafe/FoodSafe.sol\":1768:1769  0 */\n      0x00\n        /* \"FoodSafe/FoodSafe.sol\":1747:1751  lots */\n      0x01\n        /* \"FoodSafe/FoodSafe.sol\":1747:1758  lots[lotId] */\n      0x00\n        /* \"FoodSafe/FoodSafe.sol\":1752:1757  lotId */\n      dup6\n        /* \"FoodSafe/FoodSafe.sol\":1747:1758  lots[lotId] */\n      dup2\n      mstore\n      0x20\n      add\n      swap1\n      dup2\n      mstore\n      0x20\n      add\n      0x00\n      keccak256\n        /* \"FoodSafe/FoodSafe.sol\":1747:1764  lots[lotId].lotId */\n      0x00\n      add\n      sload\n        /* \"FoodSafe/FoodSafe.sol\":1747:1769  lots[lotId].lotId != 0 */\n      sub\n        /* \"FoodSafe/FoodSafe.sol\":1739:1792  require(lots[lotId].lotId != 0, \"Lot does not exist\") */\n      tag_102\n      jumpi\n      mload(0x40)\n      0x08c379a000000000000000000000000000000000000000000000000000000000\n      dup2\n      mstore\n      0x04\n      add\n      tag_103\n      swap1\n      tag_104\n      jump\t// in\n    tag_103:\n      mload(0x40)\n      dup1\n      swap2\n      sub\n      swap1\n      revert\n    tag_102:\n        /* \"FoodSafe/FoodSafe.sol\":1812:1816  lots */\n      0x01\n        /* \"FoodSafe/FoodSafe.sol\":1812:1823  lots[lotId] */\n      0x00\n        /* \"FoodSafe/FoodSafe.sol\":1817:1822  lotId */\n      dup5\n        /* \"FoodSafe/FoodSafe.sol\":1812:1823  lots[lotId] */\n      dup2\n      mstore\n      0x20\n      add\n      swap1\n      dup2\n      mstore\n      0x20\n      add\n      0x00\n      keccak256\n        /* \"FoodSafe/FoodSafe.sol\":1812:1832  lots[lotId].recalled */\n      0x04\n      add\n      0x00\n      swap1\n      sload\n      swap1\n      0x0100\n      exp\n      swap1\n      div\n      0xff\n      and\n        /* \"FoodSafe/FoodSafe.sol\":1811:1832  !lots[lotId].recalled */\n      iszero\n        /* \"FoodSafe/FoodSafe.sol\":1803:1858  require(!lots[lotId].recalled, \"Lot has been recalled\") */\n      tag_105\n      jumpi\n      mload(0x40)\n      0x08c379a000000000000000000000000000000000000000000000000000000000\n      dup2\n      mstore\n      0x04\n      add\n      tag_106\n      swap1\n      tag_107\n      jump\t// in\n    tag_106:\n      mload(0x40)\n      dup1\n      swap2\n      sub\n      swap1\n      revert\n    tag_105:\n        /* \"FoodSafe/FoodSafe.sol\":1899:1910  newLocation */\n      dup2\n        /* \"FoodSafe/FoodSafe.sol\":1869:1873  lots */\n      0x01\n        /* \"FoodSafe/FoodSafe.sol\":1869:1880  lots[lotId] */\n      0x00\n        /* \"FoodSafe/FoodSafe.sol\":1874:1879  lotId */\n      dup6\n        /* \"FoodSafe/FoodSafe.sol\":1869:1880  lots[lotId] */\n      dup2\n      mstore\n      0x20\n      add\n      swap1\n      dup2\n      mstore\n      0x20\n      add\n      0x00\n      keccak256\n        /* \"FoodSafe/FoodSafe.sol\":1869:1896  lots[lotId].currentLocation */\n      0x03\n      add\n        /* \"FoodSafe/FoodSafe.sol\":1869:1910  lots[lotId].currentLocation = newLocation */\n      swap1\n      dup2\n      tag_108\n      swap2\n      swap1\n      tag_109\n      jump\t// in\n    tag_108:\n      pop\n        /* \"FoodSafe/FoodSafe.sol\":1921:1965  lots[lotId].status = \"In Transit / On Shelf\" */\n      mload(0x40)\n      dup1\n      0x40\n      add\n      0x40\n      mstore\n      dup1\n      0x15\n      dup2\n      mstore\n      0x20\n      add\n      0x496e205472616e736974202f204f6e205368656c660000000000000000000000\n      dup2\n      mstore\n      pop\n        /* \"FoodSafe/FoodSafe.sol\":1921:1925  lots */\n      0x01\n        /* \"FoodSafe/FoodSafe.sol\":1921:1932  lots[lotId] */\n      0x00\n        /* \"FoodSafe/FoodSafe.sol\":1926:1931  lotId */\n      dup6\n        /* \"FoodSafe/FoodSafe.sol\":1921:1932  lots[lotId] */\n      dup2\n      mstore\n      0x20\n      add\n      swap1\n      dup2\n      mstore\n      0x20\n      add\n      0x00\n      keccak256\n        /* \"FoodSafe/FoodSafe.sol\":1921:1939  lots[lotId].status */\n      0x05\n      add\n        /* \"FoodSafe/FoodSafe.sol\":1921:1965  lots[lotId].status = \"In Transit / On Shelf\" */\n      swap1\n      dup2\n      tag_110\n      swap2\n      swap1\n      tag_109\n      jump\t// in\n    tag_110:\n      pop\n        /* \"FoodSafe/FoodSafe.sol\":1981:2031  LotUpdated(lotId, newLocation, lots[lotId].status) */\n      0x6ce3840dca9a1be4ddea2d3472fe15348ad9f8944de7efbcc4c6e1222fcbaf12\n        /* \"FoodSafe/FoodSafe.sol\":1992:1997  lotId */\n      dup4\n        /* \"FoodSafe/FoodSafe.sol\":1999:2010  newLocation */\n      dup4\n        /* \"FoodSafe/FoodSafe.sol\":2012:2016  lots */\n      0x01\n        /* \"FoodSafe/FoodSafe.sol\":2012:2023  lots[lotId] */\n      0x00\n        /* \"FoodSafe/FoodSafe.sol\":2017:2022  lotId */\n      dup8\n        /* \"FoodSafe/FoodSafe.sol\":2012:2023  lots[lotId] */\n      dup2\n      mstore\n      0x20\n      add\n      swap1\n      dup2\n      mstore\n      0x20\n      add\n      0x00\n      keccak256\n        /* \"FoodSafe/FoodSafe.sol\":2012:2030  lots[lotId].status */\n      0x05\n      add\n        /* \"FoodSafe/FoodSafe.sol\":1981:2031  LotUpdated(lotId, newLocation, lots[lotId].status) */\n      mload(0x40)\n      tag_111\n      swap4\n      swap3\n      swap2\n      swap1\n      tag_112\n      jump\t// in\n    tag_111:\n      mload(0x40)\n      dup1\n      swap2\n      sub\n      swap1\n      log1\n        /* \"FoodSafe/FoodSafe.sol\":1614:2039  function updateLocation(uint256 lotId, string memory newLocation)... */\n      pop\n      pop\n      pop\n      jump\t// out\n        /* \"@openzeppelin/contracts/access/AccessControl.sol\":2830:2966  function hasRole(bytes32 role, address account) public view virtual returns (bool) {... */\n    tag_49:\n        /* \"@openzeppelin/contracts/access/AccessControl.sol\":2907:2911  bool */\n      0x00\n        /* \"@openzeppelin/contracts/access/AccessControl.sol\":2930:2936  _roles */\n      0x00\n        /* \"@openzeppelin/contracts/access/AccessControl.sol\":2930:2942  _roles[role] */\n      0x00\n        /* \"@openzeppelin/contracts/access/AccessControl.sol\":2937:2941  role */\n      dup5\n        /* \"@openzeppelin/contracts/access/AccessControl.sol\":2930:2942  _roles[role] */\n      dup2\n      mstore\n      0x20\n      add\n      swap1\n      dup2\n      mstore\n      0x20\n      add\n      0x00\n      keccak256\n        /* \"@openzeppelin/contracts/access/AccessControl.sol\":2930:2950  _roles[role].hasRole */\n      0x00\n      add\n        /* \"@openzeppelin/contracts/access/AccessControl.sol\":2930:2959  _roles[role].hasRole[account] */\n      0x00\n        /* \"@openzeppelin/contracts/access/AccessControl.sol\":2951:2958  account */\n      dup4\n        /* \"@openzeppelin/contracts/access/AccessControl.sol\":2930:2959  _roles[role].hasRole[account] */\n      0xffffffffffffffffffffffffffffffffffffffff\n      and\n      0xffffffffffffffffffffffffffffffffffffffff\n      and\n      dup2\n      mstore\n      0x20\n      add\n      swap1\n      dup2\n      mstore\n      0x20\n      add\n      0x00\n      keccak256\n      0x00\n      swap1\n      sload\n      swap1\n      0x0100\n      exp\n      swap1\n      div\n      0xff\n      and\n        /* \"@openzeppelin/contracts/access/AccessControl.sol\":2923:2959  return _roles[role].hasRole[account] */\n      swap1\n      pop\n        /* \"@openzeppelin/contracts/access/AccessControl.sol\":2830:2966  function hasRole(bytes32 role, address account) public view virtual returns (bool) {... */\n      swap3\n      swap2\n      pop\n      pop\n      jump\t// out\n        /* \"@openzeppelin/contracts/access/AccessControl.sol\":2196:2245  bytes32 public constant DEFAULT_ADMIN_ROLE = 0x00 */\n    tag_52:\n        /* \"@openzeppelin/contracts/access/AccessControl.sol\":2241:2245  0x00 */\n      0x00\n        /* \"@openzeppelin/contracts/access/AccessControl.sol\":2196:2245  bytes32 public constant DEFAULT_ADMIN_ROLE = 0x00 */\n      0x00\n      shl\n      dup2\n      jump\t// out\n        /* \"FoodSafe/FoodSafe.sol\":2364:2533  function getLot(uint256 lotId) public view returns (FoodLot memory) {... */\n    tag_57:\n        /* \"FoodSafe/FoodSafe.sol\":2416:2430  FoodLot memory */\n      tag_114\n      tag_115\n      jump\t// in\n    tag_114:\n        /* \"FoodSafe/FoodSafe.sol\":2472:2473  0 */\n      0x00\n        /* \"FoodSafe/FoodSafe.sol\":2451:2455  lots */\n      0x01\n        /* \"FoodSafe/FoodSafe.sol\":2451:2462  lots[lotId] */\n      0x00\n        /* \"FoodSafe/FoodSafe.sol\":2456:2461  lotId */\n      dup5\n        /* \"FoodSafe/FoodSafe.sol\":2451:2462  lots[lotId] */\n      dup2\n      mstore\n      0x20\n      add\n      swap1\n      dup2\n      mstore\n      0x20\n      add\n      0x00\n      keccak256\n        /* \"FoodSafe/FoodSafe.sol\":2451:2468  lots[lotId].lotId */\n      0x00\n      add\n      sload\n        /* \"FoodSafe/FoodSafe.sol\":2451:2473  lots[lotId].lotId != 0 */\n      sub\n        /* \"FoodSafe/FoodSafe.sol\":2443:2496  require(lots[lotId].lotId != 0, \"Lot does not exist\") */\n      tag_117\n      jumpi\n      mload(0x40)\n      0x08c379a000000000000000000000000000000000000000000000000000000000\n      dup2\n      mstore\n      0x04\n      add\n      tag_118\n      swap1\n      tag_104\n      jump\t// in\n    tag_118:\n      mload(0x40)\n      dup1\n      swap2\n      sub\n      swap1\n      revert\n    tag_117:\n        /* \"FoodSafe/FoodSafe.sol\":2514:2518  lots */\n      0x01\n        /* \"FoodSafe/FoodSafe.sol\":2514:2525  lots[lotId] */\n      0x00\n        /* \"FoodSafe/FoodSafe.sol\":2519:2524  lotId */\n      dup4\n        /* \"FoodSafe/FoodSafe.sol\":2514:2525  lots[lotId] */\n      dup2\n      mstore\n      0x20\n      add\n      swap1\n      dup2\n      mstore\n      0x20\n      add\n      0x00\n      keccak256\n        /* \"FoodSafe/FoodSafe.sol\":2507:2525  return lots[lotId] */\n      mload(0x40)\n      dup1\n      0xc0\n      add\n      0x40\n      mstore\n      swap1\n      dup2\n      0x00\n      dup3\n      add\n      sload\n      dup2\n      mstore\n      0x20\n      add\n      0x01\n      dup3\n      add\n      dup1\n      sload\n      tag_119\n      swap1\n      tag_120\n      jump\t// in\n    tag_119:\n      dup1\n      0x1f\n      add\n      0x20\n      dup1\n      swap2\n      div\n      mul\n      0x20\n      add\n      mload(0x40)\n      swap1\n      dup2\n      add\n      0x40\n      mstore\n      dup1\n      swap3\n      swap2\n      swap1\n      dup2\n      dup2\n      mstore\n      0x20\n      add\n      dup3\n      dup1\n      sload\n      tag_121\n      swap1\n      tag_120\n      jump\t// in\n    tag_121:\n      dup1\n      iszero\n      tag_122\n      jumpi\n      dup1\n      0x1f\n      lt\n      tag_123\n      jumpi\n      0x0100\n      dup1\n      dup4\n      sload\n      div\n      mul\n      dup4\n      mstore\n      swap2\n      0x20\n      add\n      swap2\n      jump(tag_122)\n    tag_123:\n      dup3\n      add\n      swap2\n      swap1\n      0x00\n      mstore\n      keccak256(0x00, 0x20)\n      swap1\n    tag_124:\n      dup2\n      sload\n      dup2\n      mstore\n      swap1\n      0x01\n      add\n      swap1\n      0x20\n      add\n      dup1\n      dup4\n      gt\n      tag_124\n      jumpi\n      dup3\n      swap1\n      sub\n      0x1f\n      and\n      dup3\n      add\n      swap2\n    tag_122:\n      pop\n      pop\n      pop\n      pop\n      pop\n      dup2\n      mstore\n      0x20\n      add\n      0x02\n      dup3\n      add\n      dup1\n      sload\n      tag_125\n      swap1\n      tag_120\n      jump\t// in\n    tag_125:\n      dup1\n      0x1f\n      add\n      0x20\n      dup1\n      swap2\n      div\n      mul\n      0x20\n      add\n      mload(0x40)\n      swap1\n      dup2\n      add\n      0x40\n      mstore\n      dup1\n      swap3\n      swap2\n      swap1\n      dup2\n      dup2\n      mstore\n      0x20\n      add\n      dup3\n      dup1\n      sload\n      tag_126\n      swap1\n      tag_120\n      jump\t// in\n    tag_126:\n      dup1\n      iszero\n      tag_127\n      jumpi\n      dup1\n      0x1f\n      lt\n      tag_128\n      jumpi\n      0x0100\n      dup1\n      dup4\n      sload\n      div\n      mul\n      dup4\n      mstore\n      swap2\n      0x20\n      add\n      swap2\n      jump(tag_127)\n    tag_128:\n      dup3\n      add\n      swap2\n      swap1\n      0x00\n      mstore\n      keccak256(0x00, 0x20)\n      swap1\n    tag_129:\n      dup2\n      sload\n      dup2\n      mstore\n      swap1\n      0x01\n      add\n      swap1\n      0x20\n      add\n      dup1\n      dup4\n      gt\n      tag_129\n      jumpi\n      dup3\n      swap1\n      sub\n      0x1f\n      and\n      dup3\n      add\n      swap2\n    tag_127:\n      pop\n      pop\n      pop\n      pop\n      pop\n      dup2\n      mstore\n      0x20\n      add\n      0x03\n      dup3\n      add\n      dup1\n      sload\n      tag_130\n      swap1\n      tag_120\n      jump\t// in\n    tag_130:\n      dup1\n      0x1f\n      add\n      0x20\n      dup1\n      swap2\n      div\n      mul\n      0x20\n      add\n      mload(0x40)\n      swap1\n      dup2\n      add\n      0x40\n      mstore\n      dup1\n      swap3\n      swap2\n      swap1\n      dup2\n      dup2\n      mstore\n      0x20\n      add\n      dup3\n      dup1\n      sload\n      tag_131\n      swap1\n      tag_120\n      jump\t// in\n    tag_131:\n      dup1\n      iszero\n      tag_132\n      jumpi\n      dup1\n      0x1f\n      lt\n      tag_133\n      jumpi\n      0x0100\n      dup1\n      dup4\n      sload\n      div\n      mul\n      dup4\n      mstore\n      swap2\n      0x20\n      add\n      swap2\n      jump(tag_132)\n    tag_133:\n      dup3\n      add\n      swap2\n      swap1\n      0x00\n      mstore\n      keccak256(0x00, 0x20)\n      swap1\n    tag_134:\n      dup2\n      sload\n      dup2\n      mstore\n      swap1\n      0x01\n      add\n      swap1\n      0x20\n      add\n      dup1\n      dup4\n      gt\n      tag_134\n      jumpi\n      dup3\n      swap1\n      sub\n      0x1f\n      and\n      dup3\n      add\n      swap2\n    tag_132:\n      pop\n      pop\n      pop\n      pop\n      pop\n      dup2\n      mstore\n      0x20\n      add\n      0x04\n      dup3\n      add\n      0x00\n      swap1\n      sload\n      swap1\n      0x0100\n      exp\n      swap1\n      div\n      0xff\n      and\n      iszero\n      iszero\n      iszero\n      iszero\n      dup2\n      mstore\n      0x20\n      add\n      0x05\n      dup3\n      add\n      dup1\n      sload\n      tag_135\n      swap1\n      tag_120\n      jump\t// in\n    tag_135:\n      dup1\n      0x1f\n      add\n      0x20\n      dup1\n      swap2\n      div\n      mul\n      0x20\n      add\n      mload(0x40)\n      swap1\n      dup2\n      add\n      0x40\n      mstore\n      dup1\n      swap3\n      swap2\n      swap1\n      dup2\n      dup2\n      mstore\n      0x20\n      add\n      dup3\n      dup1\n      sload\n      tag_136\n      swap1\n      tag_120\n      jump\t// in\n    tag_136:\n      dup1\n      iszero\n      tag_137\n      jumpi\n      dup1\n      0x1f\n      lt\n      tag_138\n      jumpi\n      0x0100\n      dup1\n      dup4\n      sload\n      div\n      mul\n      dup4\n      mstore\n      swap2\n      0x20\n      add\n      swap2\n      jump(tag_137)\n    tag_138:\n      dup3\n      add\n      swap2\n      swap1\n      0x00\n      mstore\n      keccak256(0x00, 0x20)\n      swap1\n    tag_139:\n      dup2\n      sload\n      dup2\n      mstore\n      swap1\n      0x01\n      add\n      swap1\n      0x20\n      add\n      dup1\n      dup4\n      gt\n      tag_139\n      jumpi\n      dup3\n      swap1\n      sub\n      0x1f\n      and\n      dup3\n      add\n      swap2\n    tag_137:\n      pop\n      pop\n      pop\n      pop\n      pop\n      dup2\n      mstore\n      pop\n      pop\n      swap1\n      pop\n        /* \"FoodSafe/FoodSafe.sol\":2364:2533  function getLot(uint256 lotId) public view returns (FoodLot memory) {... */\n      swap2\n      swap1\n      pop\n      jump\t// out\n        /* \"FoodSafe/FoodSafe.sol\":179:245  bytes32 public constant PRODUCER_ROLE = keccak256(\"PRODUCER_ROLE\") */\n    tag_61:\n        /* \"FoodSafe/FoodSafe.sol\":219:245  keccak256(\"PRODUCER_ROLE\") */\n      0x8eb467f061ca67f42a2d2ca4a346fc9fb645efc0ba75056ee9f71c3a0ccc10a8\n        /* \"FoodSafe/FoodSafe.sol\":179:245  bytes32 public constant PRODUCER_ROLE = keccak256(\"PRODUCER_ROLE\") */\n      dup2\n      jump\t// out\n        /* \"FoodSafe/FoodSafe.sol\":1025:1562  function registerLot(... */\n    tag_66:\n        /* \"FoodSafe/FoodSafe.sol\":219:245  keccak256(\"PRODUCER_ROLE\") */\n      0x8eb467f061ca67f42a2d2ca4a346fc9fb645efc0ba75056ee9f71c3a0ccc10a8\n        /* \"@openzeppelin/contracts/access/AccessControl.sol\":2473:2489  _checkRole(role) */\n      tag_141\n        /* \"@openzeppelin/contracts/access/AccessControl.sol\":2484:2488  role */\n      dup2\n        /* \"@openzeppelin/contracts/access/AccessControl.sol\":2473:2483  _checkRole */\n      tag_89\n        /* \"@openzeppelin/contracts/access/AccessControl.sol\":2473:2489  _checkRole(role) */\n      jump\t// in\n    tag_141:\n        /* \"FoodSafe/FoodSafe.sol\":1215:1216  0 */\n      0x00\n        /* \"FoodSafe/FoodSafe.sol\":1194:1198  lots */\n      0x01\n        /* \"FoodSafe/FoodSafe.sol\":1194:1205  lots[lotId] */\n      0x00\n        /* \"FoodSafe/FoodSafe.sol\":1199:1204  lotId */\n      dup7\n        /* \"FoodSafe/FoodSafe.sol\":1194:1205  lots[lotId] */\n      dup2\n      mstore\n      0x20\n      add\n      swap1\n      dup2\n      mstore\n      0x20\n      add\n      0x00\n      keccak256\n        /* \"FoodSafe/FoodSafe.sol\":1194:1211  lots[lotId].lotId */\n      0x00\n      add\n      sload\n        /* \"FoodSafe/FoodSafe.sol\":1194:1216  lots[lotId].lotId == 0 */\n      eq\n        /* \"FoodSafe/FoodSafe.sol\":1186:1239  require(lots[lotId].lotId == 0, \"Lot already exists\") */\n      tag_143\n      jumpi\n      mload(0x40)\n      0x08c379a000000000000000000000000000000000000000000000000000000000\n      dup2\n      mstore\n      0x04\n      add\n      tag_144\n      swap1\n      tag_145\n      jump\t// in\n    tag_144:\n      mload(0x40)\n      dup1\n      swap2\n      sub\n      swap1\n      revert\n    tag_143:\n        /* \"FoodSafe/FoodSafe.sol\":1281:1497  FoodLot({... */\n      mload(0x40)\n      dup1\n      0xc0\n      add\n      0x40\n      mstore\n      dup1\n        /* \"FoodSafe/FoodSafe.sol\":1311:1316  lotId */\n      dup6\n        /* \"FoodSafe/FoodSafe.sol\":1281:1497  FoodLot({... */\n      dup2\n      mstore\n      0x20\n      add\n        /* \"FoodSafe/FoodSafe.sol\":1344:1355  description */\n      dup5\n        /* \"FoodSafe/FoodSafe.sol\":1281:1497  FoodLot({... */\n      dup2\n      mstore\n      0x20\n      add\n        /* \"FoodSafe/FoodSafe.sol\":1378:1384  origin */\n      dup4\n        /* \"FoodSafe/FoodSafe.sol\":1281:1497  FoodLot({... */\n      dup2\n      mstore\n      0x20\n      add\n        /* \"FoodSafe/FoodSafe.sol\":1416:1422  origin */\n      dup4\n        /* \"FoodSafe/FoodSafe.sol\":1281:1497  FoodLot({... */\n      dup2\n      mstore\n      0x20\n      add\n        /* \"FoodSafe/FoodSafe.sol\":1447:1452  false */\n      0x00\n        /* \"FoodSafe/FoodSafe.sol\":1281:1497  FoodLot({... */\n      iszero\n      iszero\n      dup2\n      mstore\n      0x20\n      add\n      mload(0x40)\n      dup1\n      0x40\n      add\n      0x40\n      mstore\n      dup1\n      0x08\n      dup2\n      mstore\n      0x20\n      add\n      0x50726f6475636564000000000000000000000000000000000000000000000000\n      dup2\n      mstore\n      pop\n      dup2\n      mstore\n      pop\n        /* \"FoodSafe/FoodSafe.sol\":1267:1271  lots */\n      0x01\n        /* \"FoodSafe/FoodSafe.sol\":1267:1278  lots[lotId] */\n      0x00\n        /* \"FoodSafe/FoodSafe.sol\":1272:1277  lotId */\n      dup7\n        /* \"FoodSafe/FoodSafe.sol\":1267:1278  lots[lotId] */\n      dup2\n      mstore\n      0x20\n      add\n      swap1\n      dup2\n      mstore\n      0x20\n      add\n      0x00\n      keccak256\n        /* \"FoodSafe/FoodSafe.sol\":1267:1497  lots[lotId] = FoodLot({... */\n      0x00\n      dup3\n      add\n      mload\n      dup2\n      0x00\n      add\n      sstore\n      0x20\n      dup3\n      add\n      mload\n      dup2\n      0x01\n      add\n      swap1\n      dup2\n      tag_146\n      swap2\n      swap1\n      tag_109\n      jump\t// in\n    tag_146:\n      pop\n      0x40\n      dup3\n      add\n      mload\n      dup2\n      0x02\n      add\n      swap1\n      dup2\n      tag_147\n      swap2\n      swap1\n      tag_109\n      jump\t// in\n    tag_147:\n      pop\n      0x60\n      dup3\n      add\n      mload\n      dup2\n      0x03\n      add\n      swap1\n      dup2\n      tag_148\n      swap2\n      swap1\n      tag_109\n      jump\t// in\n    tag_148:\n      pop\n      0x80\n      dup3\n      add\n      mload\n      dup2\n      0x04\n      add\n      exp(0x0100, 0x00)\n      dup2\n      sload\n      dup2\n      0xff\n      mul\n      not\n      and\n      swap1\n      dup4\n      iszero\n      iszero\n      mul\n      or\n      swap1\n      sstore\n      pop\n      0xa0\n      dup3\n      add\n      mload\n      dup2\n      0x05\n      add\n      swap1\n      dup2\n      tag_149\n      swap2\n      swap1\n      tag_109\n      jump\t// in\n    tag_149:\n      pop\n      swap1\n      pop\n      pop\n        /* \"FoodSafe/FoodSafe.sol\":1513:1554  LotRegistered(lotId, description, origin) */\n      0x15b6890af0e66873b46f545c2578a72329a3f376146d1847dd82e30d4b37bfd6\n        /* \"FoodSafe/FoodSafe.sol\":1527:1532  lotId */\n      dup5\n        /* \"FoodSafe/FoodSafe.sol\":1534:1545  description */\n      dup5\n        /* \"FoodSafe/FoodSafe.sol\":1547:1553  origin */\n      dup5\n        /* \"FoodSafe/FoodSafe.sol\":1513:1554  LotRegistered(lotId, description, origin) */\n      mload(0x40)\n      tag_150\n      swap4\n      swap3\n      swap2\n      swap1\n      tag_151\n      jump\t// in\n    tag_150:\n      mload(0x40)\n      dup1\n      swap2\n      sub\n      swap1\n      log1\n        /* \"FoodSafe/FoodSafe.sol\":1025:1562  function registerLot(... */\n      pop\n      pop\n      pop\n      pop\n      jump\t// out\n        /* \"@openzeppelin/contracts/access/AccessControl.sol\":4618:4756  function revokeRole(bytes32 role, address account) public virtual onlyRole(getRoleAdmin(role)) {... */\n    tag_69:\n        /* \"@openzeppelin/contracts/access/AccessControl.sol\":4693:4711  getRoleAdmin(role) */\n      tag_152\n        /* \"@openzeppelin/contracts/access/AccessControl.sol\":4706:4710  role */\n      dup3\n        /* \"@openzeppelin/contracts/access/AccessControl.sol\":4693:4705  getRoleAdmin */\n      tag_34\n        /* \"@openzeppelin/contracts/access/AccessControl.sol\":4693:4711  getRoleAdmin(role) */\n      jump\t// in\n    tag_152:\n        /* \"@openzeppelin/contracts/access/AccessControl.sol\":2473:2489  _checkRole(role) */\n      tag_154\n        /* \"@openzeppelin/contracts/access/AccessControl.sol\":2484:2488  role */\n      dup2\n        /* \"@openzeppelin/contracts/access/AccessControl.sol\":2473:2483  _checkRole */\n      tag_89\n        /* \"@openzeppelin/contracts/access/AccessControl.sol\":2473:2489  _checkRole(role) */\n      jump\t// in\n    tag_154:\n        /* \"@openzeppelin/contracts/access/AccessControl.sol\":4723:4749  _revokeRole(role, account) */\n      tag_156\n        /* \"@openzeppelin/contracts/access/AccessControl.sol\":4735:4739  role */\n      dup4\n        /* \"@openzeppelin/contracts/access/AccessControl.sol\":4741:4748  account */\n      dup4\n        /* \"@openzeppelin/contracts/access/AccessControl.sol\":4723:4734  _revokeRole */\n      tag_98\n        /* \"@openzeppelin/contracts/access/AccessControl.sol\":4723:4749  _revokeRole(role, account) */\n      jump\t// in\n    tag_156:\n      pop\n        /* \"@openzeppelin/contracts/access/AccessControl.sol\":4618:4756  function revokeRole(bytes32 role, address account) public virtual onlyRole(getRoleAdmin(role)) {... */\n      pop\n      pop\n      pop\n      jump\t// out\n        /* \"FoodSafe/FoodSafe.sol\":2079:2331  function recallLot(uint256 lotId) public onlyRole(REGULATOR_ROLE) {... */\n    tag_72:\n        /* \"FoodSafe/FoodSafe.sol\":372:399  keccak256(\"REGULATOR_ROLE\") */\n      0x20b5f7ac978e5d6199de06401411960dfa81d2f762655f6206bdc61d46fc19e6\n        /* \"@openzeppelin/contracts/access/AccessControl.sol\":2473:2489  _checkRole(role) */\n      tag_158\n        /* \"@openzeppelin/contracts/access/AccessControl.sol\":2484:2488  role */\n      dup2\n        /* \"@openzeppelin/contracts/access/AccessControl.sol\":2473:2483  _checkRole */\n      tag_89\n        /* \"@openzeppelin/contracts/access/AccessControl.sol\":2473:2489  _checkRole(role) */\n      jump\t// in\n    tag_158:\n        /* \"FoodSafe/FoodSafe.sol\":2185:2186  0 */\n      0x00\n        /* \"FoodSafe/FoodSafe.sol\":2164:2168  lots */\n      0x01\n        /* \"FoodSafe/FoodSafe.sol\":2164:2175  lots[lotId] */\n      0x00\n        /* \"FoodSafe/FoodSafe.sol\":2169:2174  lotId */\n      dup5\n        /* \"FoodSafe/FoodSafe.sol\":2164:2175  lots[lotId] */\n      dup2\n      mstore\n      0x20\n      add\n      swap1\n      dup2\n      mstore\n      0x20\n      add\n      0x00\n      keccak256\n        /* \"FoodSafe/FoodSafe.sol\":2164:2181  lots[lotId].lotId */\n      0x00\n      add\n      sload\n        /* \"FoodSafe/FoodSafe.sol\":2164:2186  lots[lotId].lotId != 0 */\n      sub\n        /* \"FoodSafe/FoodSafe.sol\":2156:2209  require(lots[lotId].lotId != 0, \"Lot does not exist\") */\n      tag_160\n      jumpi\n      mload(0x40)\n      0x08c379a000000000000000000000000000000000000000000000000000000000\n      dup2\n      mstore\n      0x04\n      add\n      tag_161\n      swap1\n      tag_104\n      jump\t// in\n    tag_161:\n      mload(0x40)\n      dup1\n      swap2\n      sub\n      swap1\n      revert\n    tag_160:\n        /* \"FoodSafe/FoodSafe.sol\":2243:2247  true */\n      0x01\n        /* \"FoodSafe/FoodSafe.sol\":2220:2224  lots */\n      dup1\n        /* \"FoodSafe/FoodSafe.sol\":2220:2231  lots[lotId] */\n      0x00\n        /* \"FoodSafe/FoodSafe.sol\":2225:2230  lotId */\n      dup5\n        /* \"FoodSafe/FoodSafe.sol\":2220:2231  lots[lotId] */\n      dup2\n      mstore\n      0x20\n      add\n      swap1\n      dup2\n      mstore\n      0x20\n      add\n      0x00\n      keccak256\n        /* \"FoodSafe/FoodSafe.sol\":2220:2240  lots[lotId].recalled */\n      0x04\n      add\n      0x00\n        /* \"FoodSafe/FoodSafe.sol\":2220:2247  lots[lotId].recalled = true */\n      0x0100\n      exp\n      dup2\n      sload\n      dup2\n      0xff\n      mul\n      not\n      and\n      swap1\n      dup4\n      iszero\n      iszero\n      mul\n      or\n      swap1\n      sstore\n      pop\n        /* \"FoodSafe/FoodSafe.sol\":2258:2289  lots[lotId].status = \"Recalled\" */\n      mload(0x40)\n      dup1\n      0x40\n      add\n      0x40\n      mstore\n      dup1\n      0x08\n      dup2\n      mstore\n      0x20\n      add\n      0x526563616c6c6564000000000000000000000000000000000000000000000000\n      dup2\n      mstore\n      pop\n        /* \"FoodSafe/FoodSafe.sol\":2258:2262  lots */\n      0x01\n        /* \"FoodSafe/FoodSafe.sol\":2258:2269  lots[lotId] */\n      0x00\n        /* \"FoodSafe/FoodSafe.sol\":2263:2268  lotId */\n      dup5\n        /* \"FoodSafe/FoodSafe.sol\":2258:2269  lots[lotId] */\n      dup2\n      mstore\n      0x20\n      add\n      swap1\n      dup2\n      mstore\n      0x20\n      add\n      0x00\n      keccak256\n        /* \"FoodSafe/FoodSafe.sol\":2258:2276  lots[lotId].status */\n      0x05\n      add\n        /* \"FoodSafe/FoodSafe.sol\":2258:2289  lots[lotId].status = \"Recalled\" */\n      swap1\n      dup2\n      tag_162\n      swap2\n      swap1\n      tag_109\n      jump\t// in\n    tag_162:\n      pop\n        /* \"FoodSafe/FoodSafe.sol\":2305:2323  LotRecalled(lotId) */\n      0x6e6436ac1c0629cca39b4bc5a42892c686a397bade5737a5b2ae50770e990cd6\n        /* \"FoodSafe/FoodSafe.sol\":2317:2322  lotId */\n      dup3\n        /* \"FoodSafe/FoodSafe.sol\":2305:2323  LotRecalled(lotId) */\n      mload(0x40)\n      tag_163\n      swap2\n      swap1\n      tag_164\n      jump\t// in\n    tag_163:\n      mload(0x40)\n      dup1\n      swap2\n      sub\n      swap1\n      log1\n        /* \"FoodSafe/FoodSafe.sol\":2079:2331  function recallLot(uint256 lotId) public onlyRole(REGULATOR_ROLE) {... */\n      pop\n      pop\n      jump\t// out\n        /* \"FoodSafe/FoodSafe.sol\":252:324  bytes32 public constant DISTRIBUTOR_ROLE = keccak256(\"DISTRIBUTOR_ROLE\") */\n    tag_74:\n        /* \"FoodSafe/FoodSafe.sol\":295:324  keccak256(\"DISTRIBUTOR_ROLE\") */\n      0xfbd454f36a7e1a388bd6fc3ab10d434aa4578f811acbbcf33afb1c697486313c\n        /* \"FoodSafe/FoodSafe.sol\":252:324  bytes32 public constant DISTRIBUTOR_ROLE = keccak256(\"DISTRIBUTOR_ROLE\") */\n      dup2\n      jump\t// out\n        /* \"FoodSafe/FoodSafe.sol\":652:691  mapping(uint256 => FoodLot) public lots */\n    tag_78:\n      mstore(0x20, 0x01)\n      dup1\n      0x00\n      mstore\n      keccak256(0x00, 0x40)\n      0x00\n      swap2\n      pop\n      swap1\n      pop\n      dup1\n      0x00\n      add\n      sload\n      swap1\n      dup1\n      0x01\n      add\n      dup1\n      sload\n      tag_165\n      swap1\n      tag_120\n      jump\t// in\n    tag_165:\n      dup1\n      0x1f\n      add\n      0x20\n      dup1\n      swap2\n      div\n      mul\n      0x20\n      add\n      mload(0x40)\n      swap1\n      dup2\n      add\n      0x40\n      mstore\n      dup1\n      swap3\n      swap2\n      swap1\n      dup2\n      dup2\n      mstore\n      0x20\n      add\n      dup3\n      dup1\n      sload\n      tag_166\n      swap1\n      tag_120\n      jump\t// in\n    tag_166:\n      dup1\n      iszero\n      tag_167\n      jumpi\n      dup1\n      0x1f\n      lt\n      tag_168\n      jumpi\n      0x0100\n      dup1\n      dup4\n      sload\n      div\n      mul\n      dup4\n      mstore\n      swap2\n      0x20\n      add\n      swap2\n      jump(tag_167)\n    tag_168:\n      dup3\n      add\n      swap2\n      swap1\n      0x00\n      mstore\n      keccak256(0x00, 0x20)\n      swap1\n    tag_169:\n      dup2\n      sload\n      dup2\n      mstore\n      swap1\n      0x01\n      add\n      swap1\n      0x20\n      add\n      dup1\n      dup4\n      gt\n      tag_169\n      jumpi\n      dup3\n      swap1\n      sub\n      0x1f\n      and\n      dup3\n      add\n      swap2\n    tag_167:\n      pop\n      pop\n      pop\n      pop\n      pop\n      swap1\n      dup1\n      0x02\n      add\n      dup1\n      sload\n      tag_170\n      swap1\n      tag_120\n      jump\t// in\n    tag_170:\n      dup1\n      0x1f\n      add\n      0x20\n      dup1\n      swap2\n      div\n      mul\n      0x20\n      add\n      mload(0x40)\n      swap1\n      dup2\n      add\n      0x40\n      mstore\n      dup1\n      swap3\n      swap2\n      swap1\n      dup2\n      dup2\n      mstore\n      0x20\n      add\n      dup3\n      dup1\n      sload\n      tag_171\n      swap1\n      tag_120\n      jump\t// in\n    tag_171:\n      dup1\n      iszero\n      tag_172\n      jumpi\n      dup1\n      0x1f\n      lt\n      tag_173\n      jumpi\n      0x0100\n      dup1\n      dup4\n      sload\n      div\n      mul\n      dup4\n      mstore\n      swap2\n      0x20\n      add\n      swap2\n      jump(tag_172)\n    tag_173:\n      dup3\n      add\n      swap2\n      swap1\n      0x00\n      mstore\n      keccak256(0x00, 0x20)\n      swap1\n    tag_174:\n      dup2\n      sload\n      dup2\n      mstore\n      swap1\n      0x01\n      add\n      swap1\n      0x20\n      add\n      dup1\n      dup4\n      gt\n      tag_174\n      jumpi\n      dup3\n      swap1\n      sub\n      0x1f\n      and\n      dup3\n      add\n      swap2\n    tag_172:\n      pop\n      pop\n      pop\n      pop\n      pop\n      swap1\n      dup1\n      0x03\n      add\n      dup1\n      sload\n      tag_175\n      swap1\n      tag_120\n      jump\t// in\n    tag_175:\n      dup1\n      0x1f\n      add\n      0x20\n      dup1\n      swap2\n      div\n      mul\n      0x20\n      add\n      mload(0x40)\n      swap1\n      dup2\n      add\n      0x40\n      mstore\n      dup1\n      swap3\n      swap2\n      swap1\n      dup2\n      dup2\n      mstore\n      0x20\n      add\n      dup3\n      dup1\n      sload\n      tag_176\n      swap1\n      tag_120\n      jump\t// in\n    tag_176:\n      dup1\n      iszero\n      tag_177\n      jumpi\n      dup1\n      0x1f\n      lt\n      tag_178\n      jumpi\n      0x0100\n      dup1\n      dup4\n      sload\n      div\n      mul\n      dup4\n      mstore\n      swap2\n      0x20\n      add\n      swap2\n      jump(tag_177)\n    tag_178:\n      dup3\n      add\n      swap2\n      swap1\n      0x00\n      mstore\n      keccak256(0x00, 0x20)\n      swap1\n    tag_179:\n      dup2\n      sload\n      dup2\n      mstore\n      swap1\n      0x01\n      add\n      swap1\n      0x20\n      add\n      dup1\n      dup4\n      gt\n      tag_179\n      jumpi\n      dup3\n      swap1\n      sub\n      0x1f\n      and\n      dup3\n      add\n      swap2\n    tag_177:\n      pop\n      pop\n      pop\n      pop\n      pop\n      swap1\n      dup1\n      0x04\n      add\n      0x00\n      swap1\n      sload\n      swap1\n      0x0100\n      exp\n      swap1\n      div\n      0xff\n      and\n      swap1\n      dup1\n      0x05\n      add\n      dup1\n      sload\n      tag_180\n      swap1\n      tag_120\n      jump\t// in\n    tag_180:\n      dup1\n      0x1f\n      add\n      0x20\n      dup1\n      swap2\n      div\n      mul\n      0x20\n      add\n      mload(0x40)\n      swap1\n      dup2\n      add\n      0x40\n      mstore\n      dup1\n      swap3\n      swap2\n      swap1\n      dup2\n      dup2\n      mstore\n      0x20\n      add\n      dup3\n      dup1\n      sload\n      tag_181\n      swap1\n      tag_120\n      jump\t// in\n    tag_181:\n      dup1\n      iszero\n      tag_182\n      jumpi\n      dup1\n      0x1f\n      lt\n      tag_183\n      jumpi\n      0x0100\n      dup1\n      dup4\n      sload\n      div\n      mul\n      dup4\n      mstore\n      swap2\n      0x20\n      add\n      swap2\n      jump(tag_182)\n    tag_183:\n      dup3\n      add\n      swap2\n      swap1\n      0x00\n      mstore\n      keccak256(0x00, 0x20)\n      swap1\n    tag_184:\n      dup2\n      sload\n      dup2\n      mstore\n      swap1\n      0x01\n      add\n      swap1\n      0x20\n      add\n      dup1\n      dup4\n      gt\n      tag_184\n      jumpi\n      dup3\n      swap1\n      sub\n      0x1f\n      and\n      dup3\n      add\n      swap2\n    tag_182:\n      pop\n      pop\n      pop\n      pop\n      pop\n      swap1\n      pop\n      dup7\n      jump\t// out\n        /* \"@openzeppelin/contracts/utils/introspection/ERC165.sol\":730:876  function supportsInterface(bytes4 interfaceId) public view virtual returns (bool) {... */\n    tag_84:\n        /* \"@openzeppelin/contracts/utils/introspection/ERC165.sol\":806:810  bool */\n      0x00\n        /* \"@openzeppelin/contracts/utils/introspection/ERC165.sol\":844:869  type(IERC165).interfaceId */\n      0x01ffc9a700000000000000000000000000000000000000000000000000000000\n        /* \"@openzeppelin/contracts/utils/introspection/ERC165.sol\":829:869  interfaceId == type(IERC165).interfaceId */\n      not(0xffffffffffffffffffffffffffffffffffffffffffffffffffffffff)\n      and\n        /* \"@openzeppelin/contracts/utils/introspection/ERC165.sol\":829:840  interfaceId */\n      dup3\n        /* \"@openzeppelin/contracts/utils/introspection/ERC165.sol\":829:869  interfaceId == type(IERC165).interfaceId */\n      not(0xffffffffffffffffffffffffffffffffffffffffffffffffffffffff)\n      and\n      eq\n        /* \"@openzeppelin/contracts/utils/introspection/ERC165.sol\":822:869  return interfaceId == type(IERC165).interfaceId */\n      swap1\n      pop\n        /* \"@openzeppelin/contracts/utils/introspection/ERC165.sol\":730:876  function supportsInterface(bytes4 interfaceId) public view virtual returns (bool) {... */\n      swap2\n      swap1\n      pop\n      jump\t// out\n        /* \"@openzeppelin/contracts/access/AccessControl.sol\":3175:3278  function _checkRole(bytes32 role) internal view virtual {... */\n    tag_89:\n        /* \"@openzeppelin/contracts/access/AccessControl.sol\":3241:3271  _checkRole(role, _msgSender()) */\n      tag_187\n        /* \"@openzeppelin/contracts/access/AccessControl.sol\":3252:3256  role */\n      dup2\n        /* \"@openzeppelin/contracts/access/AccessControl.sol\":3258:3270  _msgSender() */\n      tag_188\n        /* \"@openzeppelin/contracts/access/AccessControl.sol\":3258:3268  _msgSender */\n      tag_95\n        /* \"@openzeppelin/contracts/access/AccessControl.sol\":3258:3270  _msgSender() */\n      jump\t// in\n    tag_188:\n        /* \"@openzeppelin/contracts/access/AccessControl.sol\":3241:3251  _checkRole */\n      tag_189\n        /* \"@openzeppelin/contracts/access/AccessControl.sol\":3241:3271  _checkRole(role, _msgSender()) */\n      jump\t// in\n    tag_187:\n        /* \"@openzeppelin/contracts/access/AccessControl.sol\":3175:3278  function _checkRole(bytes32 role) internal view virtual {... */\n      pop\n      jump\t// out\n        /* \"@openzeppelin/contracts/access/AccessControl.sol\":6155:6471  function _grantRole(bytes32 role, address account) internal virtual returns (bool) {... */\n    tag_92:\n        /* \"@openzeppelin/contracts/access/AccessControl.sol\":6232:6236  bool */\n      0x00\n        /* \"@openzeppelin/contracts/access/AccessControl.sol\":6253:6275  hasRole(role, account) */\n      tag_191\n        /* \"@openzeppelin/contracts/access/AccessControl.sol\":6261:6265  role */\n      dup4\n        /* \"@openzeppelin/contracts/access/AccessControl.sol\":6267:6274  account */\n      dup4\n        /* \"@openzeppelin/contracts/access/AccessControl.sol\":6253:6260  hasRole */\n      tag_49\n        /* \"@openzeppelin/contracts/access/AccessControl.sol\":6253:6275  hasRole(role, account) */\n      jump\t// in\n    tag_191:\n        /* \"@openzeppelin/contracts/access/AccessControl.sol\":6248:6465  if (!hasRole(role, account)) {... */\n      tag_192\n      jumpi\n        /* \"@openzeppelin/contracts/access/AccessControl.sol\":6323:6327  true */\n      0x01\n        /* \"@openzeppelin/contracts/access/AccessControl.sol\":6291:6297  _roles */\n      0x00\n        /* \"@openzeppelin/contracts/access/AccessControl.sol\":6291:6303  _roles[role] */\n      0x00\n        /* \"@openzeppelin/contracts/access/AccessControl.sol\":6298:6302  role */\n      dup6\n        /* \"@openzeppelin/contracts/access/AccessControl.sol\":6291:6303  _roles[role] */\n      dup2\n      mstore\n      0x20\n      add\n      swap1\n      dup2\n      mstore\n      0x20\n      add\n      0x00\n      keccak256\n        /* \"@openzeppelin/contracts/access/AccessControl.sol\":6291:6311  _roles[role].hasRole */\n      0x00\n      add\n        /* \"@openzeppelin/contracts/access/AccessControl.sol\":6291:6320  _roles[role].hasRole[account] */\n      0x00\n        /* \"@openzeppelin/contracts/access/AccessControl.sol\":6312:6319  account */\n      dup5\n        /* \"@openzeppelin/contracts/access/AccessControl.sol\":6291:6320  _roles[role].hasRole[account] */\n      0xffffffffffffffffffffffffffffffffffffffff\n      and\n      0xffffffffffffffffffffffffffffffffffffffff\n      and\n      dup2\n      mstore\n      0x20\n      add\n      swap1\n      dup2\n      mstore\n      0x20\n      add\n      0x00\n      keccak256\n      0x00\n        /* \"@openzeppelin/contracts/access/AccessControl.sol\":6291:6327  _roles[role].hasRole[account] = true */\n      0x0100\n      exp\n      dup2\n      sload\n      dup2\n      0xff\n      mul\n      not\n      and\n      swap1\n      dup4\n      iszero\n      iszero\n      mul\n      or\n      swap1\n      sstore\n      pop\n        /* \"@openzeppelin/contracts/access/AccessControl.sol\":6373:6385  _msgSender() */\n      tag_193\n        /* \"@openzeppelin/contracts/access/AccessControl.sol\":6373:6383  _msgSender */\n      tag_95\n        /* \"@openzeppelin/contracts/access/AccessControl.sol\":6373:6385  _msgSender() */\n      jump\t// in\n    tag_193:\n        /* \"@openzeppelin/contracts/access/AccessControl.sol\":6346:6386  RoleGranted(role, account, _msgSender()) */\n      0xffffffffffffffffffffffffffffffffffffffff\n      and\n        /* \"@openzeppelin/contracts/access/AccessControl.sol\":6364:6371  account */\n      dup3\n        /* \"@openzeppelin/contracts/access/AccessControl.sol\":6346:6386  RoleGranted(role, account, _msgSender()) */\n      0xffffffffffffffffffffffffffffffffffffffff\n      and\n        /* \"@openzeppelin/contracts/access/AccessControl.sol\":6358:6362  role */\n      dup5\n        /* \"@openzeppelin/contracts/access/AccessControl.sol\":6346:6386  RoleGranted(role, account, _msgSender()) */\n      0x2f8788117e7eff1d82e926ec794901d17c78024a50270940304540a733656f0d\n      mload(0x40)\n      mload(0x40)\n      dup1\n      swap2\n      sub\n      swap1\n      log4\n        /* \"@openzeppelin/contracts/access/AccessControl.sol\":6407:6411  true */\n      0x01\n        /* \"@openzeppelin/contracts/access/AccessControl.sol\":6400:6411  return true */\n      swap1\n      pop\n      jump(tag_190)\n        /* \"@openzeppelin/contracts/access/AccessControl.sol\":6248:6465  if (!hasRole(role, account)) {... */\n    tag_192:\n        /* \"@openzeppelin/contracts/access/AccessControl.sol\":6449:6454  false */\n      0x00\n        /* \"@openzeppelin/contracts/access/AccessControl.sol\":6442:6454  return false */\n      swap1\n      pop\n        /* \"@openzeppelin/contracts/access/AccessControl.sol\":6155:6471  function _grantRole(bytes32 role, address account) internal virtual returns (bool) {... */\n    tag_190:\n      swap3\n      swap2\n      pop\n      pop\n      jump\t// out\n        /* \"@openzeppelin/contracts/utils/Context.sol\":656:752  function _msgSender() internal view virtual returns (address) {... */\n    tag_95:\n        /* \"@openzeppelin/contracts/utils/Context.sol\":709:716  address */\n      0x00\n        /* \"@openzeppelin/contracts/utils/Context.sol\":735:745  msg.sender */\n      caller\n        /* \"@openzeppelin/contracts/utils/Context.sol\":728:745  return msg.sender */\n      swap1\n      pop\n        /* \"@openzeppelin/contracts/utils/Context.sol\":656:752  function _msgSender() internal view virtual returns (address) {... */\n      swap1\n      jump\t// out\n        /* \"@openzeppelin/contracts/access/AccessControl.sol\":6708:7025  function _revokeRole(bytes32 role, address account) internal virtual returns (bool) {... */\n    tag_98:\n        /* \"@openzeppelin/contracts/access/AccessControl.sol\":6786:6790  bool */\n      0x00\n        /* \"@openzeppelin/contracts/access/AccessControl.sol\":6806:6828  hasRole(role, account) */\n      tag_197\n        /* \"@openzeppelin/contracts/access/AccessControl.sol\":6814:6818  role */\n      dup4\n        /* \"@openzeppelin/contracts/access/AccessControl.sol\":6820:6827  account */\n      dup4\n        /* \"@openzeppelin/contracts/access/AccessControl.sol\":6806:6813  hasRole */\n      tag_49\n        /* \"@openzeppelin/contracts/access/AccessControl.sol\":6806:6828  hasRole(role, account) */\n      jump\t// in\n    tag_197:\n        /* \"@openzeppelin/contracts/access/AccessControl.sol\":6802:7019  if (hasRole(role, account)) {... */\n      iszero\n      tag_198\n      jumpi\n        /* \"@openzeppelin/contracts/access/AccessControl.sol\":6876:6881  false */\n      0x00\n        /* \"@openzeppelin/contracts/access/AccessControl.sol\":6844:6850  _roles */\n      0x00\n        /* \"@openzeppelin/contracts/access/AccessControl.sol\":6844:6856  _roles[role] */\n      0x00\n        /* \"@openzeppelin/contracts/access/AccessControl.sol\":6851:6855  role */\n      dup6\n        /* \"@openzeppelin/contracts/access/AccessControl.sol\":6844:6856  _roles[role] */\n      dup2\n      mstore\n      0x20\n      add\n      swap1\n      dup2\n      mstore\n      0x20\n      add\n      0x00\n      keccak256\n        /* \"@openzeppelin/contracts/access/AccessControl.sol\":6844:6864  _roles[role].hasRole */\n      0x00\n      add\n        /* \"@openzeppelin/contracts/access/AccessControl.sol\":6844:6873  _roles[role].hasRole[account] */\n      0x00\n        /* \"@openzeppelin/contracts/access/AccessControl.sol\":6865:6872  account */\n      dup5\n        /* \"@openzeppelin/contracts/access/AccessControl.sol\":6844:6873  _roles[role].hasRole[account] */\n      0xffffffffffffffffffffffffffffffffffffffff\n      and\n      0xffffffffffffffffffffffffffffffffffffffff\n      and\n      dup2\n      mstore\n      0x20\n      add\n      swap1\n      dup2\n      mstore\n      0x20\n      add\n      0x00\n      keccak256\n      0x00\n        /* \"@openzeppelin/contracts/access/AccessControl.sol\":6844:6881  _roles[role].hasRole[account] = false */\n      0x0100\n      exp\n      dup2\n      sload\n      dup2\n      0xff\n      mul\n      not\n      and\n      swap1\n      dup4\n      iszero\n      iszero\n      mul\n      or\n      swap1\n      sstore\n      pop\n        /* \"@openzeppelin/contracts/access/AccessControl.sol\":6927:6939  _msgSender() */\n      tag_199\n        /* \"@openzeppelin/contracts/access/AccessControl.sol\":6927:6937  _msgSender */\n      tag_95\n        /* \"@openzeppelin/contracts/access/AccessControl.sol\":6927:6939  _msgSender() */\n      jump\t// in\n    tag_199:\n        /* \"@openzeppelin/contracts/access/AccessControl.sol\":6900:6940  RoleRevoked(role, account, _msgSender()) */\n      0xffffffffffffffffffffffffffffffffffffffff\n      and\n        /* \"@openzeppelin/contracts/access/AccessControl.sol\":6918:6925  account */\n      dup3\n        /* \"@openzeppelin/contracts/access/AccessControl.sol\":6900:6940  RoleRevoked(role, account, _msgSender()) */\n      0xffffffffffffffffffffffffffffffffffffffff\n      and\n        /* \"@openzeppelin/contracts/access/AccessControl.sol\":6912:6916  role */\n      dup5\n        /* \"@openzeppelin/contracts/access/AccessControl.sol\":6900:6940  RoleRevoked(role, account, _msgSender()) */\n      0xf6391f5c32d9c69d2a47ea670b442974b53935d1edc7fd64eb21e047a839171b\n      mload(0x40)\n      mload(0x40)\n      dup1\n      swap2\n      sub\n      swap1\n      log4\n        /* \"@openzeppelin/contracts/access/AccessControl.sol\":6961:6965  true */\n      0x01\n        /* \"@openzeppelin/contracts/access/AccessControl.sol\":6954:6965  return true */\n      swap1\n      pop\n      jump(tag_196)\n        /* \"@openzeppelin/contracts/access/AccessControl.sol\":6802:7019  if (hasRole(role, account)) {... */\n    tag_198:\n        /* \"@openzeppelin/contracts/access/AccessControl.sol\":7003:7008  false */\n      0x00\n        /* \"@openzeppelin/contracts/access/AccessControl.sol\":6996:7008  return false */\n      swap1\n      pop\n        /* \"@openzeppelin/contracts/access/AccessControl.sol\":6708:7025  function _revokeRole(bytes32 role, address account) internal virtual returns (bool) {... */\n    tag_196:\n      swap3\n      swap2\n      pop\n      pop\n      jump\t// out\n        /* \"@openzeppelin/contracts/access/AccessControl.sol\":3408:3605  function _checkRole(bytes32 role, address account) internal view virtual {... */\n    tag_189:\n        /* \"@openzeppelin/contracts/access/AccessControl.sol\":3496:3518  hasRole(role, account) */\n      tag_202\n        /* \"@openzeppelin/contracts/access/AccessControl.sol\":3504:3508  role */\n      dup3\n        /* \"@openzeppelin/contracts/access/AccessControl.sol\":3510:3517  account */\n      dup3\n        /* \"@openzeppelin/contracts/access/AccessControl.sol\":3496:3503  hasRole */\n      tag_49\n        /* \"@openzeppelin/contracts/access/AccessControl.sol\":3496:3518  hasRole(role, account) */\n      jump\t// in\n    tag_202:\n        /* \"@openzeppelin/contracts/access/AccessControl.sol\":3491:3599  if (!hasRole(role, account)) {... */\n      tag_203\n      jumpi\n        /* \"@openzeppelin/contracts/access/AccessControl.sol\":3574:3581  account */\n      dup1\n        /* \"@openzeppelin/contracts/access/AccessControl.sol\":3583:3587  role */\n      dup3\n        /* \"@openzeppelin/contracts/access/AccessControl.sol\":3541:3588  AccessControlUnauthorizedAccount(account, role) */\n      mload(0x40)\n      0xe2517d3f00000000000000000000000000000000000000000000000000000000\n      dup2\n      mstore\n      0x04\n      add\n      tag_204\n      swap3\n      swap2\n      swap1\n      tag_205\n      jump\t// in\n    tag_204:\n      mload(0x40)\n      dup1\n      swap2\n      sub\n      swap1\n      revert\n        /* \"@openzeppelin/contracts/access/AccessControl.sol\":3491:3599  if (!hasRole(role, account)) {... */\n    tag_203:\n        /* \"@openzeppelin/contracts/access/AccessControl.sol\":3408:3605  function _checkRole(bytes32 role, address account) internal view virtual {... */\n      pop\n      pop\n      jump\t// out\n    tag_115:\n      mload(0x40)\n      dup1\n      0xc0\n      add\n      0x40\n      mstore\n      dup1\n      0x00\n      dup2\n      mstore\n      0x20\n      add\n      0x60\n      dup2\n      mstore\n      0x20\n      add\n      0x60\n      dup2\n      mstore\n      0x20\n      add\n      0x60\n      dup2\n      mstore\n      0x20\n      add\n      iszero(iszero(0x00))\n      dup2\n      mstore\n      0x20\n      add\n      0x60\n      dup2\n      mstore\n      pop\n      swap1\n      jump\t// out\n        /* \"#utility.yul\":7:82   */\n    tag_206:\n        /* \"#utility.yul\":40:46   */\n      0x00\n        /* \"#utility.yul\":73:75   */\n      0x40\n        /* \"#utility.yul\":67:76   */\n      mload\n        /* \"#utility.yul\":57:76   */\n      swap1\n      pop\n        /* \"#utility.yul\":7:82   */\n      swap1\n      jump\t// out\n        /* \"#utility.yul\":88:205   */\n    tag_207:\n        /* \"#utility.yul\":197:198   */\n      0x00\n        /* \"#utility.yul\":194:195   */\n      0x00\n        /* \"#utility.yul\":187:199   */\n      revert\n        /* \"#utility.yul\":211:328   */\n    tag_208:\n        /* \"#utility.yul\":320:321   */\n      0x00\n        /* \"#utility.yul\":317:318   */\n      0x00\n        /* \"#utility.yul\":310:322   */\n      revert\n        /* \"#utility.yul\":334:483   */\n    tag_209:\n        /* \"#utility.yul\":370:377   */\n      0x00\n        /* \"#utility.yul\":410:476   */\n      0xffffffff00000000000000000000000000000000000000000000000000000000\n        /* \"#utility.yul\":403:408   */\n      dup3\n        /* \"#utility.yul\":399:477   */\n      and\n        /* \"#utility.yul\":388:477   */\n      swap1\n      pop\n        /* \"#utility.yul\":334:483   */\n      swap2\n      swap1\n      pop\n      jump\t// out\n        /* \"#utility.yul\":489:609   */\n    tag_210:\n        /* \"#utility.yul\":561:584   */\n      tag_275\n        /* \"#utility.yul\":578:583   */\n      dup2\n        /* \"#utility.yul\":561:584   */\n      tag_209\n      jump\t// in\n    tag_275:\n        /* \"#utility.yul\":554:559   */\n      dup2\n        /* \"#utility.yul\":551:585   */\n      eq\n        /* \"#utility.yul\":541:603   */\n      tag_276\n      jumpi\n        /* \"#utility.yul\":599:600   */\n      0x00\n        /* \"#utility.yul\":596:597   */\n      0x00\n        /* \"#utility.yul\":589:601   */\n      revert\n        /* \"#utility.yul\":541:603   */\n    tag_276:\n        /* \"#utility.yul\":489:609   */\n      pop\n      jump\t// out\n        /* \"#utility.yul\":615:752   */\n    tag_211:\n        /* \"#utility.yul\":660:665   */\n      0x00\n        /* \"#utility.yul\":698:704   */\n      dup2\n        /* \"#utility.yul\":685:705   */\n      calldataload\n        /* \"#utility.yul\":676:705   */\n      swap1\n      pop\n        /* \"#utility.yul\":714:746   */\n      tag_278\n        /* \"#utility.yul\":740:745   */\n      dup2\n        /* \"#utility.yul\":714:746   */\n      tag_210\n      jump\t// in\n    tag_278:\n        /* \"#utility.yul\":615:752   */\n      swap3\n      swap2\n      pop\n      pop\n      jump\t// out\n        /* \"#utility.yul\":758:1085   */\n    tag_23:\n        /* \"#utility.yul\":816:822   */\n      0x00\n        /* \"#utility.yul\":865:867   */\n      0x20\n        /* \"#utility.yul\":853:862   */\n      dup3\n        /* \"#utility.yul\":844:851   */\n      dup5\n        /* \"#utility.yul\":840:863   */\n      sub\n        /* \"#utility.yul\":836:868   */\n      slt\n        /* \"#utility.yul\":833:952   */\n      iszero\n      tag_280\n      jumpi\n        /* \"#utility.yul\":871:950   */\n      tag_281\n      tag_207\n      jump\t// in\n    tag_281:\n        /* \"#utility.yul\":833:952   */\n    tag_280:\n        /* \"#utility.yul\":991:992   */\n      0x00\n        /* \"#utility.yul\":1016:1068   */\n      tag_282\n        /* \"#utility.yul\":1060:1067   */\n      dup5\n        /* \"#utility.yul\":1051:1057   */\n      dup3\n        /* \"#utility.yul\":1040:1049   */\n      dup6\n        /* \"#utility.yul\":1036:1058   */\n      add\n        /* \"#utility.yul\":1016:1068   */\n      tag_211\n      jump\t// in\n    tag_282:\n        /* \"#utility.yul\":1006:1068   */\n      swap2\n      pop\n        /* \"#utility.yul\":962:1078   */\n      pop\n        /* \"#utility.yul\":758:1085   */\n      swap3\n      swap2\n      pop\n      pop\n      jump\t// out\n        /* \"#utility.yul\":1091:1181   */\n    tag_212:\n        /* \"#utility.yul\":1125:1132   */\n      0x00\n        /* \"#utility.yul\":1168:1173   */\n      dup2\n        /* \"#utility.yul\":1161:1174   */\n      iszero\n        /* \"#utility.yul\":1154:1175   */\n      iszero\n        /* \"#utility.yul\":1143:1175   */\n      swap1\n      pop\n        /* \"#utility.yul\":1091:1181   */\n      swap2\n      swap1\n      pop\n      jump\t// out\n        /* \"#utility.yul\":1187:1296   */\n    tag_213:\n        /* \"#utility.yul\":1268:1289   */\n      tag_285\n        /* \"#utility.yul\":1283:1288   */\n      dup2\n        /* \"#utility.yul\":1268:1289   */\n      tag_212\n      jump\t// in\n    tag_285:\n        /* \"#utility.yul\":1263:1266   */\n      dup3\n        /* \"#utility.yul\":1256:1290   */\n      mstore\n        /* \"#utility.yul\":1187:1296   */\n      pop\n      pop\n      jump\t// out\n        /* \"#utility.yul\":1302:1512   */\n    tag_26:\n        /* \"#utility.yul\":1389:1393   */\n      0x00\n        /* \"#utility.yul\":1427:1429   */\n      0x20\n        /* \"#utility.yul\":1416:1425   */\n      dup3\n        /* \"#utility.yul\":1412:1430   */\n      add\n        /* \"#utility.yul\":1404:1430   */\n      swap1\n      pop\n        /* \"#utility.yul\":1440:1505   */\n      tag_287\n        /* \"#utility.yul\":1502:1503   */\n      0x00\n        /* \"#utility.yul\":1491:1500   */\n      dup4\n        /* \"#utility.yul\":1487:1504   */\n      add\n        /* \"#utility.yul\":1478:1484   */\n      dup5\n        /* \"#utility.yul\":1440:1505   */\n      tag_213\n      jump\t// in\n    tag_287:\n        /* \"#utility.yul\":1302:1512   */\n      swap3\n      swap2\n      pop\n      pop\n      jump\t// out\n        /* \"#utility.yul\":1518:1595   */\n    tag_214:\n        /* \"#utility.yul\":1555:1562   */\n      0x00\n        /* \"#utility.yul\":1584:1589   */\n      dup2\n        /* \"#utility.yul\":1573:1589   */\n      swap1\n      pop\n        /* \"#utility.yul\":1518:1595   */\n      swap2\n      swap1\n      pop\n      jump\t// out\n        /* \"#utility.yul\":1601:1719   */\n    tag_215:\n        /* \"#utility.yul\":1688:1712   */\n      tag_290\n        /* \"#utility.yul\":1706:1711   */\n      dup2\n        /* \"#utility.yul\":1688:1712   */\n      tag_214\n      jump\t// in\n    tag_290:\n        /* \"#utility.yul\":1683:1686   */\n      dup3\n        /* \"#utility.yul\":1676:1713   */\n      mstore\n        /* \"#utility.yul\":1601:1719   */\n      pop\n      pop\n      jump\t// out\n        /* \"#utility.yul\":1725:1947   */\n    tag_30:\n        /* \"#utility.yul\":1818:1822   */\n      0x00\n        /* \"#utility.yul\":1856:1858   */\n      0x20\n        /* \"#utility.yul\":1845:1854   */\n      dup3\n        /* \"#utility.yul\":1841:1859   */\n      add\n        /* \"#utility.yul\":1833:1859   */\n      swap1\n      pop\n        /* \"#utility.yul\":1869:1940   */\n      tag_292\n        /* \"#utility.yul\":1937:1938   */\n      0x00\n        /* \"#utility.yul\":1926:1935   */\n      dup4\n        /* \"#utility.yul\":1922:1939   */\n      add\n        /* \"#utility.yul\":1913:1919   */\n      dup5\n        /* \"#utility.yul\":1869:1940   */\n      tag_215\n      jump\t// in\n    tag_292:\n        /* \"#utility.yul\":1725:1947   */\n      swap3\n      swap2\n      pop\n      pop\n      jump\t// out\n        /* \"#utility.yul\":1953:2075   */\n    tag_216:\n        /* \"#utility.yul\":2026:2050   */\n      tag_294\n        /* \"#utility.yul\":2044:2049   */\n      dup2\n        /* \"#utility.yul\":2026:2050   */\n      tag_214\n      jump\t// in\n    tag_294:\n        /* \"#utility.yul\":2019:2024   */\n      dup2\n        /* \"#utility.yul\":2016:2051   */\n      eq\n        /* \"#utility.yul\":2006:2069   */\n      tag_295\n      jumpi\n        /* \"#utility.yul\":2065:2066   */\n      0x00\n        /* \"#utility.yul\":2062:2063   */\n      0x00\n        /* \"#utility.yul\":2055:2067   */\n      revert\n        /* \"#utility.yul\":2006:2069   */\n    tag_295:\n        /* \"#utility.yul\":1953:2075   */\n      pop\n      jump\t// out\n        /* \"#utility.yul\":2081:2220   */\n    tag_217:\n        /* \"#utility.yul\":2127:2132   */\n      0x00\n        /* \"#utility.yul\":2165:2171   */\n      dup2\n        /* \"#utility.yul\":2152:2172   */\n      calldataload\n        /* \"#utility.yul\":2143:2172   */\n      swap1\n      pop\n        /* \"#utility.yul\":2181:2214   */\n      tag_297\n        /* \"#utility.yul\":2208:2213   */\n      dup2\n        /* \"#utility.yul\":2181:2214   */\n      tag_216\n      jump\t// in\n    tag_297:\n        /* \"#utility.yul\":2081:2220   */\n      swap3\n      swap2\n      pop\n      pop\n      jump\t// out\n        /* \"#utility.yul\":2226:2555   */\n    tag_33:\n        /* \"#utility.yul\":2285:2291   */\n      0x00\n        /* \"#utility.yul\":2334:2336   */\n      0x20\n        /* \"#utility.yul\":2322:2331   */\n      dup3\n        /* \"#utility.yul\":2313:2320   */\n      dup5\n        /* \"#utility.yul\":2309:2332   */\n      sub\n        /* \"#utility.yul\":2305:2337   */\n      slt\n        /* \"#utility.yul\":2302:2421   */\n      iszero\n      tag_299\n      jumpi\n        /* \"#utility.yul\":2340:2419   */\n      tag_300\n      tag_207\n      jump\t// in\n    tag_300:\n        /* \"#utility.yul\":2302:2421   */\n    tag_299:\n        /* \"#utility.yul\":2460:2461   */\n      0x00\n        /* \"#utility.yul\":2485:2538   */\n      tag_301\n        /* \"#utility.yul\":2530:2537   */\n      dup5\n        /* \"#utility.yul\":2521:2527   */\n      dup3\n        /* \"#utility.yul\":2510:2519   */\n      dup6\n        /* \"#utility.yul\":2506:2528   */\n      add\n        /* \"#utility.yul\":2485:2538   */\n      tag_217\n      jump\t// in\n    tag_301:\n        /* \"#utility.yul\":2475:2538   */\n      swap2\n      pop\n        /* \"#utility.yul\":2431:2548   */\n      pop\n        /* \"#utility.yul\":2226:2555   */\n      swap3\n      swap2\n      pop\n      pop\n      jump\t// out\n        /* \"#utility.yul\":2561:2687   */\n    tag_218:\n        /* \"#utility.yul\":2598:2605   */\n      0x00\n        /* \"#utility.yul\":2638:2680   */\n      0xffffffffffffffffffffffffffffffffffffffff\n        /* \"#utility.yul\":2631:2636   */\n      dup3\n        /* \"#utility.yul\":2627:2681   */\n      and\n        /* \"#utility.yul\":2616:2681   */\n      swap1\n      pop\n        /* \"#utility.yul\":2561:2687   */\n      swap2\n      swap1\n      pop\n      jump\t// out\n        /* \"#utility.yul\":2693:2789   */\n    tag_219:\n        /* \"#utility.yul\":2730:2737   */\n      0x00\n        /* \"#utility.yul\":2759:2783   */\n      tag_304\n        /* \"#utility.yul\":2777:2782   */\n      dup3\n        /* \"#utility.yul\":2759:2783   */\n      tag_218\n      jump\t// in\n    tag_304:\n        /* \"#utility.yul\":2748:2783   */\n      swap1\n      pop\n        /* \"#utility.yul\":2693:2789   */\n      swap2\n      swap1\n      pop\n      jump\t// out\n        /* \"#utility.yul\":2795:2917   */\n    tag_220:\n        /* \"#utility.yul\":2868:2892   */\n      tag_306\n        /* \"#utility.yul\":2886:2891   */\n      dup2\n        /* \"#utility.yul\":2868:2892   */\n      tag_219\n      jump\t// in\n    tag_306:\n        /* \"#utility.yul\":2861:2866   */\n      dup2\n        /* \"#utility.yul\":2858:2893   */\n      eq\n        /* \"#utility.yul\":2848:2911   */\n      tag_307\n      jumpi\n        /* \"#utility.yul\":2907:2908   */\n      0x00\n        /* \"#utility.yul\":2904:2905   */\n      0x00\n        /* \"#utility.yul\":2897:2909   */\n      revert\n        /* \"#utility.yul\":2848:2911   */\n    tag_307:\n        /* \"#utility.yul\":2795:2917   */\n      pop\n      jump\t// out\n        /* \"#utility.yul\":2923:3062   */\n    tag_221:\n        /* \"#utility.yul\":2969:2974   */\n      0x00\n        /* \"#utility.yul\":3007:3013   */\n      dup2\n        /* \"#utility.yul\":2994:3014   */\n      calldataload\n        /* \"#utility.yul\":2985:3014   */\n      swap1\n      pop\n        /* \"#utility.yul\":3023:3056   */\n      tag_309\n        /* \"#utility.yul\":3050:3055   */\n      dup2\n        /* \"#utility.yul\":3023:3056   */\n      tag_220\n      jump\t// in\n    tag_309:\n        /* \"#utility.yul\":2923:3062   */\n      swap3\n      swap2\n      pop\n      pop\n      jump\t// out\n        /* \"#utility.yul\":3068:3542   */\n    tag_38:\n        /* \"#utility.yul\":3136:3142   */\n      0x00\n        /* \"#utility.yul\":3144:3150   */\n      0x00\n        /* \"#utility.yul\":3193:3195   */\n      0x40\n        /* \"#utility.yul\":3181:3190   */\n      dup4\n        /* \"#utility.yul\":3172:3179   */\n      dup6\n        /* \"#utility.yul\":3168:3191   */\n      sub\n        /* \"#utility.yul\":3164:3196   */\n      slt\n        /* \"#utility.yul\":3161:3280   */\n      iszero\n      tag_311\n      jumpi\n        /* \"#utility.yul\":3199:3278   */\n      tag_312\n      tag_207\n      jump\t// in\n    tag_312:\n        /* \"#utility.yul\":3161:3280   */\n    tag_311:\n        /* \"#utility.yul\":3319:3320   */\n      0x00\n        /* \"#utility.yul\":3344:3397   */\n      tag_313\n        /* \"#utility.yul\":3389:3396   */\n      dup6\n        /* \"#utility.yul\":3380:3386   */\n      dup3\n        /* \"#utility.yul\":3369:3378   */\n      dup7\n        /* \"#utility.yul\":3365:3387   */\n      add\n        /* \"#utility.yul\":3344:3397   */\n      tag_217\n      jump\t// in\n    tag_313:\n        /* \"#utility.yul\":3334:3397   */\n      swap3\n      pop\n        /* \"#utility.yul\":3290:3407   */\n      pop\n        /* \"#utility.yul\":3446:3448   */\n      0x20\n        /* \"#utility.yul\":3472:3525   */\n      tag_314\n        /* \"#utility.yul\":3517:3524   */\n      dup6\n        /* \"#utility.yul\":3508:3514   */\n      dup3\n        /* \"#utility.yul\":3497:3506   */\n      dup7\n        /* \"#utility.yul\":3493:3515   */\n      add\n        /* \"#utility.yul\":3472:3525   */\n      tag_221\n      jump\t// in\n    tag_314:\n        /* \"#utility.yul\":3462:3525   */\n      swap2\n      pop\n        /* \"#utility.yul\":3417:3535   */\n      pop\n        /* \"#utility.yul\":3068:3542   */\n      swap3\n      pop\n      swap3\n      swap1\n      pop\n      jump\t// out\n        /* \"#utility.yul\":3548:3625   */\n    tag_222:\n        /* \"#utility.yul\":3585:3592   */\n      0x00\n        /* \"#utility.yul\":3614:3619   */\n      dup2\n        /* \"#utility.yul\":3603:3619   */\n      swap1\n      pop\n        /* \"#utility.yul\":3548:3625   */\n      swap2\n      swap1\n      pop\n      jump\t// out\n        /* \"#utility.yul\":3631:3753   */\n    tag_223:\n        /* \"#utility.yul\":3704:3728   */\n      tag_317\n        /* \"#utility.yul\":3722:3727   */\n      dup2\n        /* \"#utility.yul\":3704:3728   */\n      tag_222\n      jump\t// in\n    tag_317:\n        /* \"#utility.yul\":3697:3702   */\n      dup2\n        /* \"#utility.yul\":3694:3729   */\n      eq\n        /* \"#utility.yul\":3684:3747   */\n      tag_318\n      jumpi\n        /* \"#utility.yul\":3743:3744   */\n      0x00\n        /* \"#utility.yul\":3740:3741   */\n      0x00\n        /* \"#utility.yul\":3733:3745   */\n      revert\n        /* \"#utility.yul\":3684:3747   */\n    tag_318:\n        /* \"#utility.yul\":3631:3753   */\n      pop\n      jump\t// out\n        /* \"#utility.yul\":3759:3898   */\n    tag_224:\n        /* \"#utility.yul\":3805:3810   */\n      0x00\n        /* \"#utility.yul\":3843:3849   */\n      dup2\n        /* \"#utility.yul\":3830:3850   */\n      calldataload\n        /* \"#utility.yul\":3821:3850   */\n      swap1\n      pop\n        /* \"#utility.yul\":3859:3892   */\n      tag_320\n        /* \"#utility.yul\":3886:3891   */\n      dup2\n        /* \"#utility.yul\":3859:3892   */\n      tag_223\n      jump\t// in\n    tag_320:\n        /* \"#utility.yul\":3759:3898   */\n      swap3\n      swap2\n      pop\n      pop\n      jump\t// out\n        /* \"#utility.yul\":3904:4021   */\n    tag_225:\n        /* \"#utility.yul\":4013:4014   */\n      0x00\n        /* \"#utility.yul\":4010:4011   */\n      0x00\n        /* \"#utility.yul\":4003:4015   */\n      revert\n        /* \"#utility.yul\":4027:4144   */\n    tag_226:\n        /* \"#utility.yul\":4136:4137   */\n      0x00\n        /* \"#utility.yul\":4133:4134   */\n      0x00\n        /* \"#utility.yul\":4126:4138   */\n      revert\n        /* \"#utility.yul\":4150:4252   */\n    tag_227:\n        /* \"#utility.yul\":4191:4197   */\n      0x00\n        /* \"#utility.yul\":4242:4244   */\n      0x1f\n        /* \"#utility.yul\":4238:4245   */\n      not\n        /* \"#utility.yul\":4233:4235   */\n      0x1f\n        /* \"#utility.yul\":4226:4231   */\n      dup4\n        /* \"#utility.yul\":4222:4236   */\n      add\n        /* \"#utility.yul\":4218:4246   */\n      and\n        /* \"#utility.yul\":4208:4246   */\n      swap1\n      pop\n        /* \"#utility.yul\":4150:4252   */\n      swap2\n      swap1\n      pop\n      jump\t// out\n        /* \"#utility.yul\":4258:4438   */\n    tag_228:\n        /* \"#utility.yul\":4306:4383   */\n      0x4e487b7100000000000000000000000000000000000000000000000000000000\n        /* \"#utility.yul\":4303:4304   */\n      0x00\n        /* \"#utility.yul\":4296:4384   */\n      mstore\n        /* \"#utility.yul\":4403:4407   */\n      0x41\n        /* \"#utility.yul\":4400:4401   */\n      0x04\n        /* \"#utility.yul\":4393:4408   */\n      mstore\n        /* \"#utility.yul\":4427:4431   */\n      0x24\n        /* \"#utility.yul\":4424:4425   */\n      0x00\n        /* \"#utility.yul\":4417:4432   */\n      revert\n        /* \"#utility.yul\":4444:4725   */\n    tag_229:\n        /* \"#utility.yul\":4527:4554   */\n      tag_326\n        /* \"#utility.yul\":4549:4553   */\n      dup3\n        /* \"#utility.yul\":4527:4554   */\n      tag_227\n      jump\t// in\n    tag_326:\n        /* \"#utility.yul\":4519:4525   */\n      dup2\n        /* \"#utility.yul\":4515:4555   */\n      add\n        /* \"#utility.yul\":4657:4663   */\n      dup2\n        /* \"#utility.yul\":4645:4655   */\n      dup2\n        /* \"#utility.yul\":4642:4664   */\n      lt\n        /* \"#utility.yul\":4621:4639   */\n      0xffffffffffffffff\n        /* \"#utility.yul\":4609:4619   */\n      dup3\n        /* \"#utility.yul\":4606:4640   */\n      gt\n        /* \"#utility.yul\":4603:4665   */\n      or\n        /* \"#utility.yul\":4600:4688   */\n      iszero\n      tag_327\n      jumpi\n        /* \"#utility.yul\":4668:4686   */\n      tag_328\n      tag_228\n      jump\t// in\n    tag_328:\n        /* \"#utility.yul\":4600:4688   */\n    tag_327:\n        /* \"#utility.yul\":4708:4718   */\n      dup1\n        /* \"#utility.yul\":4704:4706   */\n      0x40\n        /* \"#utility.yul\":4697:4719   */\n      mstore\n        /* \"#utility.yul\":4487:4725   */\n      pop\n        /* \"#utility.yul\":4444:4725   */\n      pop\n      pop\n      jump\t// out\n        /* \"#utility.yul\":4731:4860   */\n    tag_230:\n        /* \"#utility.yul\":4765:4771   */\n      0x00\n        /* \"#utility.yul\":4792:4812   */\n      tag_330\n      tag_206\n      jump\t// in\n    tag_330:\n        /* \"#utility.yul\":4782:4812   */\n      swap1\n      pop\n        /* \"#utility.yul\":4821:4854   */\n      tag_331\n        /* \"#utility.yul\":4849:4853   */\n      dup3\n        /* \"#utility.yul\":4841:4847   */\n      dup3\n        /* \"#utility.yul\":4821:4854   */\n      tag_229\n      jump\t// in\n    tag_331:\n        /* \"#utility.yul\":4731:4860   */\n      swap2\n      swap1\n      pop\n      jump\t// out\n        /* \"#utility.yul\":4866:5174   */\n    tag_231:\n        /* \"#utility.yul\":4928:4932   */\n      0x00\n        /* \"#utility.yul\":5018:5036   */\n      0xffffffffffffffff\n        /* \"#utility.yul\":5010:5016   */\n      dup3\n        /* \"#utility.yul\":5007:5037   */\n      gt\n        /* \"#utility.yul\":5004:5060   */\n      iszero\n      tag_333\n      jumpi\n        /* \"#utility.yul\":5040:5058   */\n      tag_334\n      tag_228\n      jump\t// in\n    tag_334:\n        /* \"#utility.yul\":5004:5060   */\n    tag_333:\n        /* \"#utility.yul\":5078:5107   */\n      tag_335\n        /* \"#utility.yul\":5100:5106   */\n      dup3\n        /* \"#utility.yul\":5078:5107   */\n      tag_227\n      jump\t// in\n    tag_335:\n        /* \"#utility.yul\":5070:5107   */\n      swap1\n      pop\n        /* \"#utility.yul\":5162:5166   */\n      0x20\n        /* \"#utility.yul\":5156:5160   */\n      dup2\n        /* \"#utility.yul\":5152:5167   */\n      add\n        /* \"#utility.yul\":5144:5167   */\n      swap1\n      pop\n        /* \"#utility.yul\":4866:5174   */\n      swap2\n      swap1\n      pop\n      jump\t// out\n        /* \"#utility.yul\":5180:5328   */\n    tag_232:\n        /* \"#utility.yul\":5278:5284   */\n      dup3\n        /* \"#utility.yul\":5273:5276   */\n      dup2\n        /* \"#utility.yul\":5268:5271   */\n      dup4\n        /* \"#utility.yul\":5255:5285   */\n      calldatacopy\n        /* \"#utility.yul\":5319:5320   */\n      0x00\n        /* \"#utility.yul\":5310:5316   */\n      dup4\n        /* \"#utility.yul\":5305:5308   */\n      dup4\n        /* \"#utility.yul\":5301:5317   */\n      add\n        /* \"#utility.yul\":5294:5321   */\n      mstore\n        /* \"#utility.yul\":5180:5328   */\n      pop\n      pop\n      pop\n      jump\t// out\n        /* \"#utility.yul\":5334:5759   */\n    tag_233:\n        /* \"#utility.yul\":5412:5417   */\n      0x00\n        /* \"#utility.yul\":5437:5503   */\n      tag_338\n        /* \"#utility.yul\":5453:5502   */\n      tag_339\n        /* \"#utility.yul\":5495:5501   */\n      dup5\n        /* \"#utility.yul\":5453:5502   */\n      tag_231\n      jump\t// in\n    tag_339:\n        /* \"#utility.yul\":5437:5503   */\n      tag_230\n      jump\t// in\n    tag_338:\n        /* \"#utility.yul\":5428:5503   */\n      swap1\n      pop\n        /* \"#utility.yul\":5526:5532   */\n      dup3\n        /* \"#utility.yul\":5519:5524   */\n      dup2\n        /* \"#utility.yul\":5512:5533   */\n      mstore\n        /* \"#utility.yul\":5564:5568   */\n      0x20\n        /* \"#utility.yul\":5557:5562   */\n      dup2\n        /* \"#utility.yul\":5553:5569   */\n      add\n        /* \"#utility.yul\":5602:5605   */\n      dup5\n        /* \"#utility.yul\":5593:5599   */\n      dup5\n        /* \"#utility.yul\":5588:5591   */\n      dup5\n        /* \"#utility.yul\":5584:5600   */\n      add\n        /* \"#utility.yul\":5581:5606   */\n      gt\n        /* \"#utility.yul\":5578:5690   */\n      iszero\n      tag_340\n      jumpi\n        /* \"#utility.yul\":5609:5688   */\n      tag_341\n      tag_226\n      jump\t// in\n    tag_341:\n        /* \"#utility.yul\":5578:5690   */\n    tag_340:\n        /* \"#utility.yul\":5699:5753   */\n      tag_342\n        /* \"#utility.yul\":5746:5752   */\n      dup5\n        /* \"#utility.yul\":5741:5744   */\n      dup3\n        /* \"#utility.yul\":5736:5739   */\n      dup6\n        /* \"#utility.yul\":5699:5753   */\n      tag_232\n      jump\t// in\n    tag_342:\n        /* \"#utility.yul\":5418:5759   */\n      pop\n        /* \"#utility.yul\":5334:5759   */\n      swap4\n      swap3\n      pop\n      pop\n      pop\n      jump\t// out\n        /* \"#utility.yul\":5779:6119   */\n    tag_234:\n        /* \"#utility.yul\":5835:5840   */\n      0x00\n        /* \"#utility.yul\":5884:5887   */\n      dup3\n        /* \"#utility.yul\":5877:5881   */\n      0x1f\n        /* \"#utility.yul\":5869:5875   */\n      dup4\n        /* \"#utility.yul\":5865:5882   */\n      add\n        /* \"#utility.yul\":5861:5888   */\n      slt\n        /* \"#utility.yul\":5851:5973   */\n      tag_344\n      jumpi\n        /* \"#utility.yul\":5892:5971   */\n      tag_345\n      tag_225\n      jump\t// in\n    tag_345:\n        /* \"#utility.yul\":5851:5973   */\n    tag_344:\n        /* \"#utility.yul\":6009:6015   */\n      dup2\n        /* \"#utility.yul\":5996:6016   */\n      calldataload\n        /* \"#utility.yul\":6034:6113   */\n      tag_346\n        /* \"#utility.yul\":6109:6112   */\n      dup5\n        /* \"#utility.yul\":6101:6107   */\n      dup3\n        /* \"#utility.yul\":6094:6098   */\n      0x20\n        /* \"#utility.yul\":6086:6092   */\n      dup7\n        /* \"#utility.yul\":6082:6099   */\n      add\n        /* \"#utility.yul\":6034:6113   */\n      tag_233\n      jump\t// in\n    tag_346:\n        /* \"#utility.yul\":6025:6113   */\n      swap2\n      pop\n        /* \"#utility.yul\":5841:6119   */\n      pop\n        /* \"#utility.yul\":5779:6119   */\n      swap3\n      swap2\n      pop\n      pop\n      jump\t// out\n        /* \"#utility.yul\":6125:6779   */\n    tag_45:\n        /* \"#utility.yul\":6203:6209   */\n      0x00\n        /* \"#utility.yul\":6211:6217   */\n      0x00\n        /* \"#utility.yul\":6260:6262   */\n      0x40\n        /* \"#utility.yul\":6248:6257   */\n      dup4\n        /* \"#utility.yul\":6239:6246   */\n      dup6\n        /* \"#utility.yul\":6235:6258   */\n      sub\n        /* \"#utility.yul\":6231:6263   */\n      slt\n        /* \"#utility.yul\":6228:6347   */\n      iszero\n      tag_348\n      jumpi\n        /* \"#utility.yul\":6266:6345   */\n      tag_349\n      tag_207\n      jump\t// in\n    tag_349:\n        /* \"#utility.yul\":6228:6347   */\n    tag_348:\n        /* \"#utility.yul\":6386:6387   */\n      0x00\n        /* \"#utility.yul\":6411:6464   */\n      tag_350\n        /* \"#utility.yul\":6456:6463   */\n      dup6\n        /* \"#utility.yul\":6447:6453   */\n      dup3\n        /* \"#utility.yul\":6436:6445   */\n      dup7\n        /* \"#utility.yul\":6432:6454   */\n      add\n        /* \"#utility.yul\":6411:6464   */\n      tag_224\n      jump\t// in\n    tag_350:\n        /* \"#utility.yul\":6401:6464   */\n      swap3\n      pop\n        /* \"#utility.yul\":6357:6474   */\n      pop\n        /* \"#utility.yul\":6541:6543   */\n      0x20\n        /* \"#utility.yul\":6530:6539   */\n      dup4\n        /* \"#utility.yul\":6526:6544   */\n      add\n        /* \"#utility.yul\":6513:6545   */\n      calldataload\n        /* \"#utility.yul\":6572:6590   */\n      0xffffffffffffffff\n        /* \"#utility.yul\":6564:6570   */\n      dup2\n        /* \"#utility.yul\":6561:6591   */\n      gt\n        /* \"#utility.yul\":6558:6675   */\n      iszero\n      tag_351\n      jumpi\n        /* \"#utility.yul\":6594:6673   */\n      tag_352\n      tag_208\n      jump\t// in\n    tag_352:\n        /* \"#utility.yul\":6558:6675   */\n    tag_351:\n        /* \"#utility.yul\":6699:6762   */\n      tag_353\n        /* \"#utility.yul\":6754:6761   */\n      dup6\n        /* \"#utility.yul\":6745:6751   */\n      dup3\n        /* \"#utility.yul\":6734:6743   */\n      dup7\n        /* \"#utility.yul\":6730:6752   */\n      add\n        /* \"#utility.yul\":6699:6762   */\n      tag_234\n      jump\t// in\n    tag_353:\n        /* \"#utility.yul\":6689:6762   */\n      swap2\n      pop\n        /* \"#utility.yul\":6484:6772   */\n      pop\n        /* \"#utility.yul\":6125:6779   */\n      swap3\n      pop\n      swap3\n      swap1\n      pop\n      jump\t// out\n        /* \"#utility.yul\":6785:7114   */\n    tag_56:\n        /* \"#utility.yul\":6844:6850   */\n      0x00\n        /* \"#utility.yul\":6893:6895   */\n      0x20\n        /* \"#utility.yul\":6881:6890   */\n      dup3\n        /* \"#utility.yul\":6872:6879   */\n      dup5\n        /* \"#utility.yul\":6868:6891   */\n      sub\n        /* \"#utility.yul\":6864:6896   */\n      slt\n        /* \"#utility.yul\":6861:6980   */\n      iszero\n      tag_355\n      jumpi\n        /* \"#utility.yul\":6899:6978   */\n      tag_356\n      tag_207\n      jump\t// in\n    tag_356:\n        /* \"#utility.yul\":6861:6980   */\n    tag_355:\n        /* \"#utility.yul\":7019:7020   */\n      0x00\n        /* \"#utility.yul\":7044:7097   */\n      tag_357\n        /* \"#utility.yul\":7089:7096   */\n      dup5\n        /* \"#utility.yul\":7080:7086   */\n      dup3\n        /* \"#utility.yul\":7069:7078   */\n      dup6\n        /* \"#utility.yul\":7065:7087   */\n      add\n        /* \"#utility.yul\":7044:7097   */\n      tag_224\n      jump\t// in\n    tag_357:\n        /* \"#utility.yul\":7034:7097   */\n      swap2\n      pop\n        /* \"#utility.yul\":6990:7107   */\n      pop\n        /* \"#utility.yul\":6785:7114   */\n      swap3\n      swap2\n      pop\n      pop\n      jump\t// out\n        /* \"#utility.yul\":7120:7228   */\n    tag_235:\n        /* \"#utility.yul\":7197:7221   */\n      tag_359\n        /* \"#utility.yul\":7215:7220   */\n      dup2\n        /* \"#utility.yul\":7197:7221   */\n      tag_222\n      jump\t// in\n    tag_359:\n        /* \"#utility.yul\":7192:7195   */\n      dup3\n        /* \"#utility.yul\":7185:7222   */\n      mstore\n        /* \"#utility.yul\":7120:7228   */\n      pop\n      pop\n      jump\t// out\n        /* \"#utility.yul\":7234:7333   */\n    tag_236:\n        /* \"#utility.yul\":7286:7292   */\n      0x00\n        /* \"#utility.yul\":7320:7325   */\n      dup2\n        /* \"#utility.yul\":7314:7326   */\n      mload\n        /* \"#utility.yul\":7304:7326   */\n      swap1\n      pop\n        /* \"#utility.yul\":7234:7333   */\n      swap2\n      swap1\n      pop\n      jump\t// out\n        /* \"#utility.yul\":7339:7498   */\n    tag_237:\n        /* \"#utility.yul\":7413:7424   */\n      0x00\n        /* \"#utility.yul\":7447:7453   */\n      dup3\n        /* \"#utility.yul\":7442:7445   */\n      dup3\n        /* \"#utility.yul\":7435:7454   */\n      mstore\n        /* \"#utility.yul\":7487:7491   */\n      0x20\n        /* \"#utility.yul\":7482:7485   */\n      dup3\n        /* \"#utility.yul\":7478:7492   */\n      add\n        /* \"#utility.yul\":7463:7492   */\n      swap1\n      pop\n        /* \"#utility.yul\":7339:7498   */\n      swap3\n      swap2\n      pop\n      pop\n      jump\t// out\n        /* \"#utility.yul\":7504:7643   */\n    tag_238:\n        /* \"#utility.yul\":7593:7599   */\n      dup3\n        /* \"#utility.yul\":7588:7591   */\n      dup2\n        /* \"#utility.yul\":7583:7586   */\n      dup4\n        /* \"#utility.yul\":7577:7600   */\n      mcopy\n        /* \"#utility.yul\":7634:7635   */\n      0x00\n        /* \"#utility.yul\":7625:7631   */\n      dup4\n        /* \"#utility.yul\":7620:7623   */\n      dup4\n        /* \"#utility.yul\":7616:7632   */\n      add\n        /* \"#utility.yul\":7609:7636   */\n      mstore\n        /* \"#utility.yul\":7504:7643   */\n      pop\n      pop\n      pop\n      jump\t// out\n        /* \"#utility.yul\":7649:8006   */\n    tag_239:\n        /* \"#utility.yul\":7727:7730   */\n      0x00\n        /* \"#utility.yul\":7755:7794   */\n      tag_364\n        /* \"#utility.yul\":7788:7793   */\n      dup3\n        /* \"#utility.yul\":7755:7794   */\n      tag_236\n      jump\t// in\n    tag_364:\n        /* \"#utility.yul\":7810:7871   */\n      tag_365\n        /* \"#utility.yul\":7864:7870   */\n      dup2\n        /* \"#utility.yul\":7859:7862   */\n      dup6\n        /* \"#utility.yul\":7810:7871   */\n      tag_237\n      jump\t// in\n    tag_365:\n        /* \"#utility.yul\":7803:7871   */\n      swap4\n      pop\n        /* \"#utility.yul\":7880:7945   */\n      tag_366\n        /* \"#utility.yul\":7938:7944   */\n      dup2\n        /* \"#utility.yul\":7933:7936   */\n      dup6\n        /* \"#utility.yul\":7926:7930   */\n      0x20\n        /* \"#utility.yul\":7919:7924   */\n      dup7\n        /* \"#utility.yul\":7915:7931   */\n      add\n        /* \"#utility.yul\":7880:7945   */\n      tag_238\n      jump\t// in\n    tag_366:\n        /* \"#utility.yul\":7970:7999   */\n      tag_367\n        /* \"#utility.yul\":7992:7998   */\n      dup2\n        /* \"#utility.yul\":7970:7999   */\n      tag_227\n      jump\t// in\n    tag_367:\n        /* \"#utility.yul\":7965:7968   */\n      dup5\n        /* \"#utility.yul\":7961:8000   */\n      add\n        /* \"#utility.yul\":7954:8000   */\n      swap2\n      pop\n        /* \"#utility.yul\":7731:8006   */\n      pop\n        /* \"#utility.yul\":7649:8006   */\n      swap3\n      swap2\n      pop\n      pop\n      jump\t// out\n        /* \"#utility.yul\":8012:8111   */\n    tag_240:\n        /* \"#utility.yul\":8083:8104   */\n      tag_369\n        /* \"#utility.yul\":8098:8103   */\n      dup2\n        /* \"#utility.yul\":8083:8104   */\n      tag_212\n      jump\t// in\n    tag_369:\n        /* \"#utility.yul\":8078:8081   */\n      dup3\n        /* \"#utility.yul\":8071:8105   */\n      mstore\n        /* \"#utility.yul\":8012:8111   */\n      pop\n      pop\n      jump\t// out\n        /* \"#utility.yul\":8175:9709   */\n    tag_241:\n        /* \"#utility.yul\":8292:8295   */\n      0x00\n        /* \"#utility.yul\":8328:8332   */\n      0xc0\n        /* \"#utility.yul\":8323:8326   */\n      dup4\n        /* \"#utility.yul\":8319:8333   */\n      add\n        /* \"#utility.yul\":8416:8420   */\n      0x00\n        /* \"#utility.yul\":8409:8414   */\n      dup4\n        /* \"#utility.yul\":8405:8421   */\n      add\n        /* \"#utility.yul\":8399:8422   */\n      mload\n        /* \"#utility.yul\":8435:8498   */\n      tag_371\n        /* \"#utility.yul\":8492:8496   */\n      0x00\n        /* \"#utility.yul\":8487:8490   */\n      dup7\n        /* \"#utility.yul\":8483:8497   */\n      add\n        /* \"#utility.yul\":8469:8481   */\n      dup3\n        /* \"#utility.yul\":8435:8498   */\n      tag_235\n      jump\t// in\n    tag_371:\n        /* \"#utility.yul\":8343:8508   */\n      pop\n        /* \"#utility.yul\":8597:8601   */\n      0x20\n        /* \"#utility.yul\":8590:8595   */\n      dup4\n        /* \"#utility.yul\":8586:8602   */\n      add\n        /* \"#utility.yul\":8580:8603   */\n      mload\n        /* \"#utility.yul\":8650:8653   */\n      dup5\n        /* \"#utility.yul\":8644:8648   */\n      dup3\n        /* \"#utility.yul\":8640:8654   */\n      sub\n        /* \"#utility.yul\":8633:8637   */\n      0x20\n        /* \"#utility.yul\":8628:8631   */\n      dup7\n        /* \"#utility.yul\":8624:8638   */\n      add\n        /* \"#utility.yul\":8617:8655   */\n      mstore\n        /* \"#utility.yul\":8676:8749   */\n      tag_372\n        /* \"#utility.yul\":8744:8748   */\n      dup3\n        /* \"#utility.yul\":8730:8742   */\n      dup3\n        /* \"#utility.yul\":8676:8749   */\n      tag_239\n      jump\t// in\n    tag_372:\n        /* \"#utility.yul\":8668:8749   */\n      swap2\n      pop\n        /* \"#utility.yul\":8518:8760   */\n      pop\n        /* \"#utility.yul\":8844:8848   */\n      0x40\n        /* \"#utility.yul\":8837:8842   */\n      dup4\n        /* \"#utility.yul\":8833:8849   */\n      add\n        /* \"#utility.yul\":8827:8850   */\n      mload\n        /* \"#utility.yul\":8897:8900   */\n      dup5\n        /* \"#utility.yul\":8891:8895   */\n      dup3\n        /* \"#utility.yul\":8887:8901   */\n      sub\n        /* \"#utility.yul\":8880:8884   */\n      0x40\n        /* \"#utility.yul\":8875:8878   */\n      dup7\n        /* \"#utility.yul\":8871:8885   */\n      add\n        /* \"#utility.yul\":8864:8902   */\n      mstore\n        /* \"#utility.yul\":8923:8996   */\n      tag_373\n        /* \"#utility.yul\":8991:8995   */\n      dup3\n        /* \"#utility.yul\":8977:8989   */\n      dup3\n        /* \"#utility.yul\":8923:8996   */\n      tag_239\n      jump\t// in\n    tag_373:\n        /* \"#utility.yul\":8915:8996   */\n      swap2\n      pop\n        /* \"#utility.yul\":8770:9007   */\n      pop\n        /* \"#utility.yul\":9100:9104   */\n      0x60\n        /* \"#utility.yul\":9093:9098   */\n      dup4\n        /* \"#utility.yul\":9089:9105   */\n      add\n        /* \"#utility.yul\":9083:9106   */\n      mload\n        /* \"#utility.yul\":9153:9156   */\n      dup5\n        /* \"#utility.yul\":9147:9151   */\n      dup3\n        /* \"#utility.yul\":9143:9157   */\n      sub\n        /* \"#utility.yul\":9136:9140   */\n      0x60\n        /* \"#utility.yul\":9131:9134   */\n      dup7\n        /* \"#utility.yul\":9127:9141   */\n      add\n        /* \"#utility.yul\":9120:9158   */\n      mstore\n        /* \"#utility.yul\":9179:9252   */\n      tag_374\n        /* \"#utility.yul\":9247:9251   */\n      dup3\n        /* \"#utility.yul\":9233:9245   */\n      dup3\n        /* \"#utility.yul\":9179:9252   */\n      tag_239\n      jump\t// in\n    tag_374:\n        /* \"#utility.yul\":9171:9252   */\n      swap2\n      pop\n        /* \"#utility.yul\":9017:9263   */\n      pop\n        /* \"#utility.yul\":9349:9353   */\n      0x80\n        /* \"#utility.yul\":9342:9347   */\n      dup4\n        /* \"#utility.yul\":9338:9354   */\n      add\n        /* \"#utility.yul\":9332:9355   */\n      mload\n        /* \"#utility.yul\":9368:9425   */\n      tag_375\n        /* \"#utility.yul\":9419:9423   */\n      0x80\n        /* \"#utility.yul\":9414:9417   */\n      dup7\n        /* \"#utility.yul\":9410:9424   */\n      add\n        /* \"#utility.yul\":9396:9408   */\n      dup3\n        /* \"#utility.yul\":9368:9425   */\n      tag_240\n      jump\t// in\n    tag_375:\n        /* \"#utility.yul\":9273:9435   */\n      pop\n        /* \"#utility.yul\":9519:9523   */\n      0xa0\n        /* \"#utility.yul\":9512:9517   */\n      dup4\n        /* \"#utility.yul\":9508:9524   */\n      add\n        /* \"#utility.yul\":9502:9525   */\n      mload\n        /* \"#utility.yul\":9572:9575   */\n      dup5\n        /* \"#utility.yul\":9566:9570   */\n      dup3\n        /* \"#utility.yul\":9562:9576   */\n      sub\n        /* \"#utility.yul\":9555:9559   */\n      0xa0\n        /* \"#utility.yul\":9550:9553   */\n      dup7\n        /* \"#utility.yul\":9546:9560   */\n      add\n        /* \"#utility.yul\":9539:9577   */\n      mstore\n        /* \"#utility.yul\":9598:9671   */\n      tag_376\n        /* \"#utility.yul\":9666:9670   */\n      dup3\n        /* \"#utility.yul\":9652:9664   */\n      dup3\n        /* \"#utility.yul\":9598:9671   */\n      tag_239\n      jump\t// in\n    tag_376:\n        /* \"#utility.yul\":9590:9671   */\n      swap2\n      pop\n        /* \"#utility.yul\":9445:9682   */\n      pop\n        /* \"#utility.yul\":9699:9703   */\n      dup1\n        /* \"#utility.yul\":9692:9703   */\n      swap2\n      pop\n        /* \"#utility.yul\":8297:9709   */\n      pop\n        /* \"#utility.yul\":8175:9709   */\n      swap3\n      swap2\n      pop\n      pop\n      jump\t// out\n        /* \"#utility.yul\":9715:10084   */\n    tag_59:\n        /* \"#utility.yul\":9856:9860   */\n      0x00\n        /* \"#utility.yul\":9894:9896   */\n      0x20\n        /* \"#utility.yul\":9883:9892   */\n      dup3\n        /* \"#utility.yul\":9879:9897   */\n      add\n        /* \"#utility.yul\":9871:9897   */\n      swap1\n      pop\n        /* \"#utility.yul\":9943:9952   */\n      dup2\n        /* \"#utility.yul\":9937:9941   */\n      dup2\n        /* \"#utility.yul\":9933:9953   */\n      sub\n        /* \"#utility.yul\":9929:9930   */\n      0x00\n        /* \"#utility.yul\":9918:9927   */\n      dup4\n        /* \"#utility.yul\":9914:9931   */\n      add\n        /* \"#utility.yul\":9907:9954   */\n      mstore\n        /* \"#utility.yul\":9971:10077   */\n      tag_378\n        /* \"#utility.yul\":10072:10076   */\n      dup2\n        /* \"#utility.yul\":10063:10069   */\n      dup5\n        /* \"#utility.yul\":9971:10077   */\n      tag_241\n      jump\t// in\n    tag_378:\n        /* \"#utility.yul\":9963:10077   */\n      swap1\n      pop\n        /* \"#utility.yul\":9715:10084   */\n      swap3\n      swap2\n      pop\n      pop\n      jump\t// out\n        /* \"#utility.yul\":10090:11069   */\n    tag_65:\n        /* \"#utility.yul\":10187:10193   */\n      0x00\n        /* \"#utility.yul\":10195:10201   */\n      0x00\n        /* \"#utility.yul\":10203:10209   */\n      0x00\n        /* \"#utility.yul\":10252:10254   */\n      0x60\n        /* \"#utility.yul\":10240:10249   */\n      dup5\n        /* \"#utility.yul\":10231:10238   */\n      dup7\n        /* \"#utility.yul\":10227:10250   */\n      sub\n        /* \"#utility.yul\":10223:10255   */\n      slt\n        /* \"#utility.yul\":10220:10339   */\n      iszero\n      tag_380\n      jumpi\n        /* \"#utility.yul\":10258:10337   */\n      tag_381\n      tag_207\n      jump\t// in\n    tag_381:\n        /* \"#utility.yul\":10220:10339   */\n    tag_380:\n        /* \"#utility.yul\":10378:10379   */\n      0x00\n        /* \"#utility.yul\":10403:10456   */\n      tag_382\n        /* \"#utility.yul\":10448:10455   */\n      dup7\n        /* \"#utility.yul\":10439:10445   */\n      dup3\n        /* \"#utility.yul\":10428:10437   */\n      dup8\n        /* \"#utility.yul\":10424:10446   */\n      add\n        /* \"#utility.yul\":10403:10456   */\n      tag_224\n      jump\t// in\n    tag_382:\n        /* \"#utility.yul\":10393:10456   */\n      swap4\n      pop\n        /* \"#utility.yul\":10349:10466   */\n      pop\n        /* \"#utility.yul\":10533:10535   */\n      0x20\n        /* \"#utility.yul\":10522:10531   */\n      dup5\n        /* \"#utility.yul\":10518:10536   */\n      add\n        /* \"#utility.yul\":10505:10537   */\n      calldataload\n        /* \"#utility.yul\":10564:10582   */\n      0xffffffffffffffff\n        /* \"#utility.yul\":10556:10562   */\n      dup2\n        /* \"#utility.yul\":10553:10583   */\n      gt\n        /* \"#utility.yul\":10550:10667   */\n      iszero\n      tag_383\n      jumpi\n        /* \"#utility.yul\":10586:10665   */\n      tag_384\n      tag_208\n      jump\t// in\n    tag_384:\n        /* \"#utility.yul\":10550:10667   */\n    tag_383:\n        /* \"#utility.yul\":10691:10754   */\n      tag_385\n        /* \"#utility.yul\":10746:10753   */\n      dup7\n        /* \"#utility.yul\":10737:10743   */\n      dup3\n        /* \"#utility.yul\":10726:10735   */\n      dup8\n        /* \"#utility.yul\":10722:10744   */\n      add\n        /* \"#utility.yul\":10691:10754   */\n      tag_234\n      jump\t// in\n    tag_385:\n        /* \"#utility.yul\":10681:10754   */\n      swap3\n      pop\n        /* \"#utility.yul\":10476:10764   */\n      pop\n        /* \"#utility.yul\":10831:10833   */\n      0x40\n        /* \"#utility.yul\":10820:10829   */\n      dup5\n        /* \"#utility.yul\":10816:10834   */\n      add\n        /* \"#utility.yul\":10803:10835   */\n      calldataload\n        /* \"#utility.yul\":10862:10880   */\n      0xffffffffffffffff\n        /* \"#utility.yul\":10854:10860   */\n      dup2\n        /* \"#utility.yul\":10851:10881   */\n      gt\n        /* \"#utility.yul\":10848:10965   */\n      iszero\n      tag_386\n      jumpi\n        /* \"#utility.yul\":10884:10963   */\n      tag_387\n      tag_208\n      jump\t// in\n    tag_387:\n        /* \"#utility.yul\":10848:10965   */\n    tag_386:\n        /* \"#utility.yul\":10989:11052   */\n      tag_388\n        /* \"#utility.yul\":11044:11051   */\n      dup7\n        /* \"#utility.yul\":11035:11041   */\n      dup3\n        /* \"#utility.yul\":11024:11033   */\n      dup8\n        /* \"#utility.yul\":11020:11042   */\n      add\n        /* \"#utility.yul\":10989:11052   */\n      tag_234\n      jump\t// in\n    tag_388:\n        /* \"#utility.yul\":10979:11052   */\n      swap2\n      pop\n        /* \"#utility.yul\":10774:11062   */\n      pop\n        /* \"#utility.yul\":10090:11069   */\n      swap3\n      pop\n      swap3\n      pop\n      swap3\n      jump\t// out\n        /* \"#utility.yul\":11075:11193   */\n    tag_242:\n        /* \"#utility.yul\":11162:11186   */\n      tag_390\n        /* \"#utility.yul\":11180:11185   */\n      dup2\n        /* \"#utility.yul\":11162:11186   */\n      tag_222\n      jump\t// in\n    tag_390:\n        /* \"#utility.yul\":11157:11160   */\n      dup3\n        /* \"#utility.yul\":11150:11187   */\n      mstore\n        /* \"#utility.yul\":11075:11193   */\n      pop\n      pop\n      jump\t// out\n        /* \"#utility.yul\":11199:11368   */\n    tag_243:\n        /* \"#utility.yul\":11283:11294   */\n      0x00\n        /* \"#utility.yul\":11317:11323   */\n      dup3\n        /* \"#utility.yul\":11312:11315   */\n      dup3\n        /* \"#utility.yul\":11305:11324   */\n      mstore\n        /* \"#utility.yul\":11357:11361   */\n      0x20\n        /* \"#utility.yul\":11352:11355   */\n      dup3\n        /* \"#utility.yul\":11348:11362   */\n      add\n        /* \"#utility.yul\":11333:11362   */\n      swap1\n      pop\n        /* \"#utility.yul\":11199:11368   */\n      swap3\n      swap2\n      pop\n      pop\n      jump\t// out\n        /* \"#utility.yul\":11374:11751   */\n    tag_244:\n        /* \"#utility.yul\":11462:11465   */\n      0x00\n        /* \"#utility.yul\":11490:11529   */\n      tag_393\n        /* \"#utility.yul\":11523:11528   */\n      dup3\n        /* \"#utility.yul\":11490:11529   */\n      tag_236\n      jump\t// in\n    tag_393:\n        /* \"#utility.yul\":11545:11616   */\n      tag_394\n        /* \"#utility.yul\":11609:11615   */\n      dup2\n        /* \"#utility.yul\":11604:11607   */\n      dup6\n        /* \"#utility.yul\":11545:11616   */\n      tag_243\n      jump\t// in\n    tag_394:\n        /* \"#utility.yul\":11538:11616   */\n      swap4\n      pop\n        /* \"#utility.yul\":11625:11690   */\n      tag_395\n        /* \"#utility.yul\":11683:11689   */\n      dup2\n        /* \"#utility.yul\":11678:11681   */\n      dup6\n        /* \"#utility.yul\":11671:11675   */\n      0x20\n        /* \"#utility.yul\":11664:11669   */\n      dup7\n        /* \"#utility.yul\":11660:11676   */\n      add\n        /* \"#utility.yul\":11625:11690   */\n      tag_238\n      jump\t// in\n    tag_395:\n        /* \"#utility.yul\":11715:11744   */\n      tag_396\n        /* \"#utility.yul\":11737:11743   */\n      dup2\n        /* \"#utility.yul\":11715:11744   */\n      tag_227\n      jump\t// in\n    tag_396:\n        /* \"#utility.yul\":11710:11713   */\n      dup5\n        /* \"#utility.yul\":11706:11745   */\n      add\n        /* \"#utility.yul\":11699:11745   */\n      swap2\n      pop\n        /* \"#utility.yul\":11466:11751   */\n      pop\n        /* \"#utility.yul\":11374:11751   */\n      swap3\n      swap2\n      pop\n      pop\n      jump\t// out\n        /* \"#utility.yul\":11757:12884   */\n    tag_80:\n        /* \"#utility.yul\":12064:12068   */\n      0x00\n        /* \"#utility.yul\":12102:12105   */\n      0xc0\n        /* \"#utility.yul\":12091:12100   */\n      dup3\n        /* \"#utility.yul\":12087:12106   */\n      add\n        /* \"#utility.yul\":12079:12106   */\n      swap1\n      pop\n        /* \"#utility.yul\":12116:12187   */\n      tag_398\n        /* \"#utility.yul\":12184:12185   */\n      0x00\n        /* \"#utility.yul\":12173:12182   */\n      dup4\n        /* \"#utility.yul\":12169:12186   */\n      add\n        /* \"#utility.yul\":12160:12166   */\n      dup10\n        /* \"#utility.yul\":12116:12187   */\n      tag_242\n      jump\t// in\n    tag_398:\n        /* \"#utility.yul\":12234:12243   */\n      dup2\n        /* \"#utility.yul\":12228:12232   */\n      dup2\n        /* \"#utility.yul\":12224:12244   */\n      sub\n        /* \"#utility.yul\":12219:12221   */\n      0x20\n        /* \"#utility.yul\":12208:12217   */\n      dup4\n        /* \"#utility.yul\":12204:12222   */\n      add\n        /* \"#utility.yul\":12197:12245   */\n      mstore\n        /* \"#utility.yul\":12262:12340   */\n      tag_399\n        /* \"#utility.yul\":12335:12339   */\n      dup2\n        /* \"#utility.yul\":12326:12332   */\n      dup9\n        /* \"#utility.yul\":12262:12340   */\n      tag_244\n      jump\t// in\n    tag_399:\n        /* \"#utility.yul\":12254:12340   */\n      swap1\n      pop\n        /* \"#utility.yul\":12387:12396   */\n      dup2\n        /* \"#utility.yul\":12381:12385   */\n      dup2\n        /* \"#utility.yul\":12377:12397   */\n      sub\n        /* \"#utility.yul\":12372:12374   */\n      0x40\n        /* \"#utility.yul\":12361:12370   */\n      dup4\n        /* \"#utility.yul\":12357:12375   */\n      add\n        /* \"#utility.yul\":12350:12398   */\n      mstore\n        /* \"#utility.yul\":12415:12493   */\n      tag_400\n        /* \"#utility.yul\":12488:12492   */\n      dup2\n        /* \"#utility.yul\":12479:12485   */\n      dup8\n        /* \"#utility.yul\":12415:12493   */\n      tag_244\n      jump\t// in\n    tag_400:\n        /* \"#utility.yul\":12407:12493   */\n      swap1\n      pop\n        /* \"#utility.yul\":12540:12549   */\n      dup2\n        /* \"#utility.yul\":12534:12538   */\n      dup2\n        /* \"#utility.yul\":12530:12550   */\n      sub\n        /* \"#utility.yul\":12525:12527   */\n      0x60\n        /* \"#utility.yul\":12514:12523   */\n      dup4\n        /* \"#utility.yul\":12510:12528   */\n      add\n        /* \"#utility.yul\":12503:12551   */\n      mstore\n        /* \"#utility.yul\":12568:12646   */\n      tag_401\n        /* \"#utility.yul\":12641:12645   */\n      dup2\n        /* \"#utility.yul\":12632:12638   */\n      dup7\n        /* \"#utility.yul\":12568:12646   */\n      tag_244\n      jump\t// in\n    tag_401:\n        /* \"#utility.yul\":12560:12646   */\n      swap1\n      pop\n        /* \"#utility.yul\":12656:12723   */\n      tag_402\n        /* \"#utility.yul\":12718:12721   */\n      0x80\n        /* \"#utility.yul\":12707:12716   */\n      dup4\n        /* \"#utility.yul\":12703:12722   */\n      add\n        /* \"#utility.yul\":12694:12700   */\n      dup6\n        /* \"#utility.yul\":12656:12723   */\n      tag_213\n      jump\t// in\n    tag_402:\n        /* \"#utility.yul\":12771:12780   */\n      dup2\n        /* \"#utility.yul\":12765:12769   */\n      dup2\n        /* \"#utility.yul\":12761:12781   */\n      sub\n        /* \"#utility.yul\":12755:12758   */\n      0xa0\n        /* \"#utility.yul\":12744:12753   */\n      dup4\n        /* \"#utility.yul\":12740:12759   */\n      add\n        /* \"#utility.yul\":12733:12782   */\n      mstore\n        /* \"#utility.yul\":12799:12877   */\n      tag_403\n        /* \"#utility.yul\":12872:12876   */\n      dup2\n        /* \"#utility.yul\":12863:12869   */\n      dup5\n        /* \"#utility.yul\":12799:12877   */\n      tag_244\n      jump\t// in\n    tag_403:\n        /* \"#utility.yul\":12791:12877   */\n      swap1\n      pop\n        /* \"#utility.yul\":11757:12884   */\n      swap8\n      swap7\n      pop\n      pop\n      pop\n      pop\n      pop\n      pop\n      pop\n      jump\t// out\n        /* \"#utility.yul\":12890:13058   */\n    tag_245:\n        /* \"#utility.yul\":13030:13050   */\n      0x4c6f7420646f6573206e6f742065786973740000000000000000000000000000\n        /* \"#utility.yul\":13026:13027   */\n      0x00\n        /* \"#utility.yul\":13018:13024   */\n      dup3\n        /* \"#utility.yul\":13014:13028   */\n      add\n        /* \"#utility.yul\":13007:13051   */\n      mstore\n        /* \"#utility.yul\":12890:13058   */\n      pop\n      jump\t// out\n        /* \"#utility.yul\":13064:13430   */\n    tag_246:\n        /* \"#utility.yul\":13206:13209   */\n      0x00\n        /* \"#utility.yul\":13227:13294   */\n      tag_406\n        /* \"#utility.yul\":13291:13293   */\n      0x12\n        /* \"#utility.yul\":13286:13289   */\n      dup4\n        /* \"#utility.yul\":13227:13294   */\n      tag_243\n      jump\t// in\n    tag_406:\n        /* \"#utility.yul\":13220:13294   */\n      swap2\n      pop\n        /* \"#utility.yul\":13303:13396   */\n      tag_407\n        /* \"#utility.yul\":13392:13395   */\n      dup3\n        /* \"#utility.yul\":13303:13396   */\n      tag_245\n      jump\t// in\n    tag_407:\n        /* \"#utility.yul\":13421:13423   */\n      0x20\n        /* \"#utility.yul\":13416:13419   */\n      dup3\n        /* \"#utility.yul\":13412:13424   */\n      add\n        /* \"#utility.yul\":13405:13424   */\n      swap1\n      pop\n        /* \"#utility.yul\":13064:13430   */\n      swap2\n      swap1\n      pop\n      jump\t// out\n        /* \"#utility.yul\":13436:13855   */\n    tag_104:\n        /* \"#utility.yul\":13602:13606   */\n      0x00\n        /* \"#utility.yul\":13640:13642   */\n      0x20\n        /* \"#utility.yul\":13629:13638   */\n      dup3\n        /* \"#utility.yul\":13625:13643   */\n      add\n        /* \"#utility.yul\":13617:13643   */\n      swap1\n      pop\n        /* \"#utility.yul\":13689:13698   */\n      dup2\n        /* \"#utility.yul\":13683:13687   */\n      dup2\n        /* \"#utility.yul\":13679:13699   */\n      sub\n        /* \"#utility.yul\":13675:13676   */\n      0x00\n        /* \"#utility.yul\":13664:13673   */\n      dup4\n        /* \"#utility.yul\":13660:13677   */\n      add\n        /* \"#utility.yul\":13653:13700   */\n      mstore\n        /* \"#utility.yul\":13717:13848   */\n      tag_409\n        /* \"#utility.yul\":13843:13847   */\n      dup2\n        /* \"#utility.yul\":13717:13848   */\n      tag_246\n      jump\t// in\n    tag_409:\n        /* \"#utility.yul\":13709:13848   */\n      swap1\n      pop\n        /* \"#utility.yul\":13436:13855   */\n      swap2\n      swap1\n      pop\n      jump\t// out\n        /* \"#utility.yul\":13861:14032   */\n    tag_247:\n        /* \"#utility.yul\":14001:14024   */\n      0x4c6f7420686173206265656e20726563616c6c65640000000000000000000000\n        /* \"#utility.yul\":13997:13998   */\n      0x00\n        /* \"#utility.yul\":13989:13995   */\n      dup3\n        /* \"#utility.yul\":13985:13999   */\n      add\n        /* \"#utility.yul\":13978:14025   */\n      mstore\n        /* \"#utility.yul\":13861:14032   */\n      pop\n      jump\t// out\n        /* \"#utility.yul\":14038:14404   */\n    tag_248:\n        /* \"#utility.yul\":14180:14183   */\n      0x00\n        /* \"#utility.yul\":14201:14268   */\n      tag_412\n        /* \"#utility.yul\":14265:14267   */\n      0x15\n        /* \"#utility.yul\":14260:14263   */\n      dup4\n        /* \"#utility.yul\":14201:14268   */\n      tag_243\n      jump\t// in\n    tag_412:\n        /* \"#utility.yul\":14194:14268   */\n      swap2\n      pop\n        /* \"#utility.yul\":14277:14370   */\n      tag_413\n        /* \"#utility.yul\":14366:14369   */\n      dup3\n        /* \"#utility.yul\":14277:14370   */\n      tag_247\n      jump\t// in\n    tag_413:\n        /* \"#utility.yul\":14395:14397   */\n      0x20\n        /* \"#utility.yul\":14390:14393   */\n      dup3\n        /* \"#utility.yul\":14386:14398   */\n      add\n        /* \"#utility.yul\":14379:14398   */\n      swap1\n      pop\n        /* \"#utility.yul\":14038:14404   */\n      swap2\n      swap1\n      pop\n      jump\t// out\n        /* \"#utility.yul\":14410:14829   */\n    tag_107:\n        /* \"#utility.yul\":14576:14580   */\n      0x00\n        /* \"#utility.yul\":14614:14616   */\n      0x20\n        /* \"#utility.yul\":14603:14612   */\n      dup3\n        /* \"#utility.yul\":14599:14617   */\n      add\n        /* \"#utility.yul\":14591:14617   */\n      swap1\n      pop\n        /* \"#utility.yul\":14663:14672   */\n      dup2\n        /* \"#utility.yul\":14657:14661   */\n      dup2\n        /* \"#utility.yul\":14653:14673   */\n      sub\n        /* \"#utility.yul\":14649:14650   */\n      0x00\n        /* \"#utility.yul\":14638:14647   */\n      dup4\n        /* \"#utility.yul\":14634:14651   */\n      add\n        /* \"#utility.yul\":14627:14674   */\n      mstore\n        /* \"#utility.yul\":14691:14822   */\n      tag_415\n        /* \"#utility.yul\":14817:14821   */\n      dup2\n        /* \"#utility.yul\":14691:14822   */\n      tag_248\n      jump\t// in\n    tag_415:\n        /* \"#utility.yul\":14683:14822   */\n      swap1\n      pop\n        /* \"#utility.yul\":14410:14829   */\n      swap2\n      swap1\n      pop\n      jump\t// out\n        /* \"#utility.yul\":14835:15015   */\n    tag_249:\n        /* \"#utility.yul\":14883:14960   */\n      0x4e487b7100000000000000000000000000000000000000000000000000000000\n        /* \"#utility.yul\":14880:14881   */\n      0x00\n        /* \"#utility.yul\":14873:14961   */\n      mstore\n        /* \"#utility.yul\":14980:14984   */\n      0x22\n        /* \"#utility.yul\":14977:14978   */\n      0x04\n        /* \"#utility.yul\":14970:14985   */\n      mstore\n        /* \"#utility.yul\":15004:15008   */\n      0x24\n        /* \"#utility.yul\":15001:15002   */\n      0x00\n        /* \"#utility.yul\":14994:15009   */\n      revert\n        /* \"#utility.yul\":15021:15341   */\n    tag_120:\n        /* \"#utility.yul\":15065:15071   */\n      0x00\n        /* \"#utility.yul\":15102:15103   */\n      0x02\n        /* \"#utility.yul\":15096:15100   */\n      dup3\n        /* \"#utility.yul\":15092:15104   */\n      div\n        /* \"#utility.yul\":15082:15104   */\n      swap1\n      pop\n        /* \"#utility.yul\":15149:15150   */\n      0x01\n        /* \"#utility.yul\":15143:15147   */\n      dup3\n        /* \"#utility.yul\":15139:15151   */\n      and\n        /* \"#utility.yul\":15170:15188   */\n      dup1\n        /* \"#utility.yul\":15160:15241   */\n      tag_418\n      jumpi\n        /* \"#utility.yul\":15226:15230   */\n      0x7f\n        /* \"#utility.yul\":15218:15224   */\n      dup3\n        /* \"#utility.yul\":15214:15231   */\n      and\n        /* \"#utility.yul\":15204:15231   */\n      swap2\n      pop\n        /* \"#utility.yul\":15160:15241   */\n    tag_418:\n        /* \"#utility.yul\":15288:15290   */\n      0x20\n        /* \"#utility.yul\":15280:15286   */\n      dup3\n        /* \"#utility.yul\":15277:15291   */\n      lt\n        /* \"#utility.yul\":15257:15275   */\n      dup2\n        /* \"#utility.yul\":15254:15292   */\n      sub\n        /* \"#utility.yul\":15251:15335   */\n      tag_419\n      jumpi\n        /* \"#utility.yul\":15307:15325   */\n      tag_420\n      tag_249\n      jump\t// in\n    tag_420:\n        /* \"#utility.yul\":15251:15335   */\n    tag_419:\n        /* \"#utility.yul\":15072:15341   */\n      pop\n        /* \"#utility.yul\":15021:15341   */\n      swap2\n      swap1\n      pop\n      jump\t// out\n        /* \"#utility.yul\":15347:15488   */\n    tag_250:\n        /* \"#utility.yul\":15396:15400   */\n      0x00\n        /* \"#utility.yul\":15419:15422   */\n      dup2\n        /* \"#utility.yul\":15411:15422   */\n      swap1\n      pop\n        /* \"#utility.yul\":15442:15445   */\n      dup2\n        /* \"#utility.yul\":15439:15440   */\n      0x00\n        /* \"#utility.yul\":15432:15446   */\n      mstore\n        /* \"#utility.yul\":15476:15480   */\n      0x20\n        /* \"#utility.yul\":15473:15474   */\n      0x00\n        /* \"#utility.yul\":15463:15481   */\n      keccak256\n        /* \"#utility.yul\":15455:15481   */\n      swap1\n      pop\n        /* \"#utility.yul\":15347:15488   */\n      swap2\n      swap1\n      pop\n      jump\t// out\n        /* \"#utility.yul\":15494:15587   */\n    tag_251:\n        /* \"#utility.yul\":15531:15537   */\n      0x00\n        /* \"#utility.yul\":15578:15580   */\n      0x20\n        /* \"#utility.yul\":15573:15575   */\n      0x1f\n        /* \"#utility.yul\":15566:15571   */\n      dup4\n        /* \"#utility.yul\":15562:15576   */\n      add\n        /* \"#utility.yul\":15558:15581   */\n      div\n        /* \"#utility.yul\":15548:15581   */\n      swap1\n      pop\n        /* \"#utility.yul\":15494:15587   */\n      swap2\n      swap1\n      pop\n      jump\t// out\n        /* \"#utility.yul\":15593:15700   */\n    tag_252:\n        /* \"#utility.yul\":15637:15645   */\n      0x00\n        /* \"#utility.yul\":15687:15692   */\n      dup3\n        /* \"#utility.yul\":15681:15685   */\n      dup3\n        /* \"#utility.yul\":15677:15693   */\n      shl\n        /* \"#utility.yul\":15656:15693   */\n      swap1\n      pop\n        /* \"#utility.yul\":15593:15700   */\n      swap3\n      swap2\n      pop\n      pop\n      jump\t// out\n        /* \"#utility.yul\":15706:16099   */\n    tag_253:\n        /* \"#utility.yul\":15775:15781   */\n      0x00\n        /* \"#utility.yul\":15825:15826   */\n      0x08\n        /* \"#utility.yul\":15813:15823   */\n      dup4\n        /* \"#utility.yul\":15809:15827   */\n      mul\n        /* \"#utility.yul\":15848:15945   */\n      tag_425\n        /* \"#utility.yul\":15878:15944   */\n      0xffffffffffffffffffffffffffffffffffffffffffffffffffffffffffffffff\n        /* \"#utility.yul\":15867:15876   */\n      dup3\n        /* \"#utility.yul\":15848:15945   */\n      tag_252\n      jump\t// in\n    tag_425:\n        /* \"#utility.yul\":15966:16005   */\n      tag_426\n        /* \"#utility.yul\":15996:16004   */\n      dup7\n        /* \"#utility.yul\":15985:15994   */\n      dup4\n        /* \"#utility.yul\":15966:16005   */\n      tag_252\n      jump\t// in\n    tag_426:\n        /* \"#utility.yul\":15954:16005   */\n      swap6\n      pop\n        /* \"#utility.yul\":16038:16042   */\n      dup1\n        /* \"#utility.yul\":16034:16043   */\n      not\n        /* \"#utility.yul\":16027:16032   */\n      dup5\n        /* \"#utility.yul\":16023:16044   */\n      and\n        /* \"#utility.yul\":16014:16044   */\n      swap4\n      pop\n        /* \"#utility.yul\":16087:16091   */\n      dup1\n        /* \"#utility.yul\":16077:16085   */\n      dup7\n        /* \"#utility.yul\":16073:16092   */\n      and\n        /* \"#utility.yul\":16066:16071   */\n      dup5\n        /* \"#utility.yul\":16063:16093   */\n      or\n        /* \"#utility.yul\":16053:16093   */\n      swap3\n      pop\n        /* \"#utility.yul\":15782:16099   */\n      pop\n      pop\n        /* \"#utility.yul\":15706:16099   */\n      swap4\n      swap3\n      pop\n      pop\n      pop\n      jump\t// out\n        /* \"#utility.yul\":16105:16165   */\n    tag_254:\n        /* \"#utility.yul\":16133:16136   */\n      0x00\n        /* \"#utility.yul\":16154:16159   */\n      dup2\n        /* \"#utility.yul\":16147:16159   */\n      swap1\n      pop\n        /* \"#utility.yul\":16105:16165   */\n      swap2\n      swap1\n      pop\n      jump\t// out\n        /* \"#utility.yul\":16171:16313   */\n    tag_255:\n        /* \"#utility.yul\":16221:16230   */\n      0x00\n        /* \"#utility.yul\":16254:16307   */\n      tag_429\n        /* \"#utility.yul\":16272:16306   */\n      tag_430\n        /* \"#utility.yul\":16281:16305   */\n      tag_431\n        /* \"#utility.yul\":16299:16304   */\n      dup5\n        /* \"#utility.yul\":16281:16305   */\n      tag_222\n      jump\t// in\n    tag_431:\n        /* \"#utility.yul\":16272:16306   */\n      tag_254\n      jump\t// in\n    tag_430:\n        /* \"#utility.yul\":16254:16307   */\n      tag_222\n      jump\t// in\n    tag_429:\n        /* \"#utility.yul\":16241:16307   */\n      swap1\n      pop\n        /* \"#utility.yul\":16171:16313   */\n      swap2\n      swap1\n      pop\n      jump\t// out\n        /* \"#utility.yul\":16319:16394   */\n    tag_256:\n        /* \"#utility.yul\":16362:16365   */\n      0x00\n        /* \"#utility.yul\":16383:16388   */\n      dup2\n        /* \"#utility.yul\":16376:16388   */\n      swap1\n      pop\n        /* \"#utility.yul\":16319:16394   */\n      swap2\n      swap1\n      pop\n      jump\t// out\n        /* \"#utility.yul\":16400:16669   */\n    tag_257:\n        /* \"#utility.yul\":16510:16549   */\n      tag_434\n        /* \"#utility.yul\":16541:16548   */\n      dup4\n        /* \"#utility.yul\":16510:16549   */\n      tag_255\n      jump\t// in\n    tag_434:\n        /* \"#utility.yul\":16571:16662   */\n      tag_435\n        /* \"#utility.yul\":16620:16661   */\n      tag_436\n        /* \"#utility.yul\":16644:16660   */\n      dup3\n        /* \"#utility.yul\":16620:16661   */\n      tag_256\n      jump\t// in\n    tag_436:\n        /* \"#utility.yul\":16612:16618   */\n      dup5\n        /* \"#utility.yul\":16605:16609   */\n      dup5\n        /* \"#utility.yul\":16599:16610   */\n      sload\n        /* \"#utility.yul\":16571:16662   */\n      tag_253\n      jump\t// in\n    tag_435:\n        /* \"#utility.yul\":16565:16569   */\n      dup3\n        /* \"#utility.yul\":16558:16663   */\n      sstore\n        /* \"#utility.yul\":16476:16669   */\n      pop\n        /* \"#utility.yul\":16400:16669   */\n      pop\n      pop\n      pop\n      jump\t// out\n        /* \"#utility.yul\":16675:16748   */\n    tag_258:\n        /* \"#utility.yul\":16720:16723   */\n      0x00\n        /* \"#utility.yul\":16741:16742   */\n      0x00\n        /* \"#utility.yul\":16734:16742   */\n      swap1\n      pop\n        /* \"#utility.yul\":16675:16748   */\n      swap1\n      jump\t// out\n        /* \"#utility.yul\":16754:16943   */\n    tag_259:\n        /* \"#utility.yul\":16831:16863   */\n      tag_439\n      tag_258\n      jump\t// in\n    tag_439:\n        /* \"#utility.yul\":16872:16937   */\n      tag_440\n        /* \"#utility.yul\":16930:16936   */\n      dup2\n        /* \"#utility.yul\":16922:16928   */\n      dup5\n        /* \"#utility.yul\":16916:16920   */\n      dup5\n        /* \"#utility.yul\":16872:16937   */\n      tag_257\n      jump\t// in\n    tag_440:\n        /* \"#utility.yul\":16807:16943   */\n      pop\n        /* \"#utility.yul\":16754:16943   */\n      pop\n      pop\n      jump\t// out\n        /* \"#utility.yul\":16949:17135   */\n    tag_260:\n        /* \"#utility.yul\":17009:17129   */\n    tag_442:\n        /* \"#utility.yul\":17026:17029   */\n      dup2\n        /* \"#utility.yul\":17019:17024   */\n      dup2\n        /* \"#utility.yul\":17016:17030   */\n      lt\n        /* \"#utility.yul\":17009:17129   */\n      iszero\n      tag_444\n      jumpi\n        /* \"#utility.yul\":17080:17119   */\n      tag_445\n        /* \"#utility.yul\":17117:17118   */\n      0x00\n        /* \"#utility.yul\":17110:17115   */\n      dup3\n        /* \"#utility.yul\":17080:17119   */\n      tag_259\n      jump\t// in\n    tag_445:\n        /* \"#utility.yul\":17053:17054   */\n      0x01\n        /* \"#utility.yul\":17046:17051   */\n      dup2\n        /* \"#utility.yul\":17042:17055   */\n      add\n        /* \"#utility.yul\":17033:17055   */\n      swap1\n      pop\n        /* \"#utility.yul\":17009:17129   */\n      jump(tag_442)\n    tag_444:\n        /* \"#utility.yul\":16949:17135   */\n      pop\n      pop\n      jump\t// out\n        /* \"#utility.yul\":17141:17684   */\n    tag_261:\n        /* \"#utility.yul\":17242:17244   */\n      0x1f\n        /* \"#utility.yul\":17237:17240   */\n      dup3\n        /* \"#utility.yul\":17234:17245   */\n      gt\n        /* \"#utility.yul\":17231:17677   */\n      iszero\n      tag_447\n      jumpi\n        /* \"#utility.yul\":17276:17314   */\n      tag_448\n        /* \"#utility.yul\":17308:17313   */\n      dup2\n        /* \"#utility.yul\":17276:17314   */\n      tag_250\n      jump\t// in\n    tag_448:\n        /* \"#utility.yul\":17360:17389   */\n      tag_449\n        /* \"#utility.yul\":17378:17388   */\n      dup5\n        /* \"#utility.yul\":17360:17389   */\n      tag_251\n      jump\t// in\n    tag_449:\n        /* \"#utility.yul\":17350:17358   */\n      dup2\n        /* \"#utility.yul\":17346:17390   */\n      add\n        /* \"#utility.yul\":17543:17545   */\n      0x20\n        /* \"#utility.yul\":17531:17541   */\n      dup6\n        /* \"#utility.yul\":17528:17546   */\n      lt\n        /* \"#utility.yul\":17525:17574   */\n      iszero\n      tag_450\n      jumpi\n        /* \"#utility.yul\":17564:17572   */\n      dup2\n        /* \"#utility.yul\":17549:17572   */\n      swap1\n      pop\n        /* \"#utility.yul\":17525:17574   */\n    tag_450:\n        /* \"#utility.yul\":17587:17667   */\n      tag_451\n        /* \"#utility.yul\":17643:17665   */\n      tag_452\n        /* \"#utility.yul\":17661:17664   */\n      dup6\n        /* \"#utility.yul\":17643:17665   */\n      tag_251\n      jump\t// in\n    tag_452:\n        /* \"#utility.yul\":17633:17641   */\n      dup4\n        /* \"#utility.yul\":17629:17666   */\n      add\n        /* \"#utility.yul\":17616:17627   */\n      dup3\n        /* \"#utility.yul\":17587:17667   */\n      tag_260\n      jump\t// in\n    tag_451:\n        /* \"#utility.yul\":17246:17677   */\n      pop\n      pop\n        /* \"#utility.yul\":17231:17677   */\n    tag_447:\n        /* \"#utility.yul\":17141:17684   */\n      pop\n      pop\n      pop\n      jump\t// out\n        /* \"#utility.yul\":17690:17807   */\n    tag_262:\n        /* \"#utility.yul\":17744:17752   */\n      0x00\n        /* \"#utility.yul\":17794:17799   */\n      dup3\n        /* \"#utility.yul\":17788:17792   */\n      dup3\n        /* \"#utility.yul\":17784:17800   */\n      shr\n        /* \"#utility.yul\":17763:17800   */\n      swap1\n      pop\n        /* \"#utility.yul\":17690:17807   */\n      swap3\n      swap2\n      pop\n      pop\n      jump\t// out\n        /* \"#utility.yul\":17813:17982   */\n    tag_263:\n        /* \"#utility.yul\":17857:17863   */\n      0x00\n        /* \"#utility.yul\":17890:17941   */\n      tag_455\n        /* \"#utility.yul\":17938:17939   */\n      0x00\n        /* \"#utility.yul\":17934:17940   */\n      not\n        /* \"#utility.yul\":17926:17931   */\n      dup5\n        /* \"#utility.yul\":17923:17924   */\n      0x08\n        /* \"#utility.yul\":17919:17932   */\n      mul\n        /* \"#utility.yul\":17890:17941   */\n      tag_262\n      jump\t// in\n    tag_455:\n        /* \"#utility.yul\":17886:17942   */\n      not\n        /* \"#utility.yul\":17971:17975   */\n      dup1\n        /* \"#utility.yul\":17965:17969   */\n      dup4\n        /* \"#utility.yul\":17961:17976   */\n      and\n        /* \"#utility.yul\":17951:17976   */\n      swap2\n      pop\n        /* \"#utility.yul\":17864:17982   */\n      pop\n        /* \"#utility.yul\":17813:17982   */\n      swap3\n      swap2\n      pop\n      pop\n      jump\t// out\n        /* \"#utility.yul\":17987:18282   */\n    tag_264:\n        /* \"#utility.yul\":18063:18067   */\n      0x00\n        /* \"#utility.yul\":18209:18238   */\n      tag_457\n        /* \"#utility.yul\":18234:18237   */\n      dup4\n        /* \"#utility.yul\":18228:18232   */\n      dup4\n        /* \"#utility.yul\":18209:18238   */\n      tag_263\n      jump\t// in\n    tag_457:\n        /* \"#utility.yul\":18201:18238   */\n      swap2\n      pop\n        /* \"#utility.yul\":18271:18274   */\n      dup3\n        /* \"#utility.yul\":18268:18269   */\n      0x02\n        /* \"#utility.yul\":18264:18275   */\n      mul\n        /* \"#utility.yul\":18258:18262   */\n      dup3\n        /* \"#utility.yul\":18255:18276   */\n      or\n        /* \"#utility.yul\":18247:18276   */\n      swap1\n      pop\n        /* \"#utility.yul\":17987:18282   */\n      swap3\n      swap2\n      pop\n      pop\n      jump\t// out\n        /* \"#utility.yul\":18287:19682   */\n    tag_109:\n        /* \"#utility.yul\":18404:18441   */\n      tag_459\n        /* \"#utility.yul\":18437:18440   */\n      dup3\n        /* \"#utility.yul\":18404:18441   */\n      tag_236\n      jump\t// in\n    tag_459:\n        /* \"#utility.yul\":18506:18524   */\n      0xffffffffffffffff\n        /* \"#utility.yul\":18498:18504   */\n      dup2\n        /* \"#utility.yul\":18495:18525   */\n      gt\n        /* \"#utility.yul\":18492:18548   */\n      iszero\n      tag_460\n      jumpi\n        /* \"#utility.yul\":18528:18546   */\n      tag_461\n      tag_228\n      jump\t// in\n    tag_461:\n        /* \"#utility.yul\":18492:18548   */\n    tag_460:\n        /* \"#utility.yul\":18572:18610   */\n      tag_462\n        /* \"#utility.yul\":18604:18608   */\n      dup3\n        /* \"#utility.yul\":18598:18609   */\n      sload\n        /* \"#utility.yul\":18572:18610   */\n      tag_120\n      jump\t// in\n    tag_462:\n        /* \"#utility.yul\":18657:18724   */\n      tag_463\n        /* \"#utility.yul\":18717:18723   */\n      dup3\n        /* \"#utility.yul\":18709:18715   */\n      dup3\n        /* \"#utility.yul\":18703:18707   */\n      dup6\n        /* \"#utility.yul\":18657:18724   */\n      tag_261\n      jump\t// in\n    tag_463:\n        /* \"#utility.yul\":18751:18752   */\n      0x00\n        /* \"#utility.yul\":18775:18779   */\n      0x20\n        /* \"#utility.yul\":18762:18779   */\n      swap1\n      pop\n        /* \"#utility.yul\":18807:18809   */\n      0x1f\n        /* \"#utility.yul\":18799:18805   */\n      dup4\n        /* \"#utility.yul\":18796:18810   */\n      gt\n        /* \"#utility.yul\":18824:18825   */\n      0x01\n        /* \"#utility.yul\":18819:19437   */\n      dup2\n      eq\n      tag_465\n      jumpi\n        /* \"#utility.yul\":19481:19482   */\n      0x00\n        /* \"#utility.yul\":19498:19504   */\n      dup5\n        /* \"#utility.yul\":19495:19572   */\n      iszero\n      tag_466\n      jumpi\n        /* \"#utility.yul\":19547:19556   */\n      dup3\n        /* \"#utility.yul\":19542:19545   */\n      dup8\n        /* \"#utility.yul\":19538:19557   */\n      add\n        /* \"#utility.yul\":19532:19558   */\n      mload\n        /* \"#utility.yul\":19523:19558   */\n      swap1\n      pop\n        /* \"#utility.yul\":19495:19572   */\n    tag_466:\n        /* \"#utility.yul\":19598:19665   */\n      tag_467\n        /* \"#utility.yul\":19658:19664   */\n      dup6\n        /* \"#utility.yul\":19651:19656   */\n      dup3\n        /* \"#utility.yul\":19598:19665   */\n      tag_264\n      jump\t// in\n    tag_467:\n        /* \"#utility.yul\":19592:19596   */\n      dup7\n        /* \"#utility.yul\":19585:19666   */\n      sstore\n        /* \"#utility.yul\":19454:19676   */\n      pop\n        /* \"#utility.yul\":18789:19676   */\n      jump(tag_464)\n        /* \"#utility.yul\":18819:19437   */\n    tag_465:\n        /* \"#utility.yul\":18871:18875   */\n      0x1f\n        /* \"#utility.yul\":18867:18876   */\n      not\n        /* \"#utility.yul\":18859:18865   */\n      dup5\n        /* \"#utility.yul\":18855:18877   */\n      and\n        /* \"#utility.yul\":18905:18942   */\n      tag_468\n        /* \"#utility.yul\":18937:18941   */\n      dup7\n        /* \"#utility.yul\":18905:18942   */\n      tag_250\n      jump\t// in\n    tag_468:\n        /* \"#utility.yul\":18964:18965   */\n      0x00\n        /* \"#utility.yul\":18978:19186   */\n    tag_469:\n        /* \"#utility.yul\":18992:18999   */\n      dup3\n        /* \"#utility.yul\":18989:18990   */\n      dup2\n        /* \"#utility.yul\":18986:19000   */\n      lt\n        /* \"#utility.yul\":18978:19186   */\n      iszero\n      tag_471\n      jumpi\n        /* \"#utility.yul\":19071:19080   */\n      dup5\n        /* \"#utility.yul\":19066:19069   */\n      dup10\n        /* \"#utility.yul\":19062:19081   */\n      add\n        /* \"#utility.yul\":19056:19082   */\n      mload\n        /* \"#utility.yul\":19048:19054   */\n      dup3\n        /* \"#utility.yul\":19041:19083   */\n      sstore\n        /* \"#utility.yul\":19122:19123   */\n      0x01\n        /* \"#utility.yul\":19114:19120   */\n      dup3\n        /* \"#utility.yul\":19110:19124   */\n      add\n        /* \"#utility.yul\":19100:19124   */\n      swap2\n      pop\n        /* \"#utility.yul\":19169:19171   */\n      0x20\n        /* \"#utility.yul\":19158:19167   */\n      dup6\n        /* \"#utility.yul\":19154:19172   */\n      add\n        /* \"#utility.yul\":19141:19172   */\n      swap5\n      pop\n        /* \"#utility.yul\":19015:19019   */\n      0x20\n        /* \"#utility.yul\":19012:19013   */\n      dup2\n        /* \"#utility.yul\":19008:19020   */\n      add\n        /* \"#utility.yul\":19003:19020   */\n      swap1\n      pop\n        /* \"#utility.yul\":18978:19186   */\n      jump(tag_469)\n    tag_471:\n        /* \"#utility.yul\":19214:19220   */\n      dup7\n        /* \"#utility.yul\":19205:19212   */\n      dup4\n        /* \"#utility.yul\":19202:19221   */\n      lt\n        /* \"#utility.yul\":19199:19378   */\n      iszero\n      tag_472\n      jumpi\n        /* \"#utility.yul\":19272:19281   */\n      dup5\n        /* \"#utility.yul\":19267:19270   */\n      dup10\n        /* \"#utility.yul\":19263:19282   */\n      add\n        /* \"#utility.yul\":19257:19283   */\n      mload\n        /* \"#utility.yul\":19315:19363   */\n      tag_473\n        /* \"#utility.yul\":19357:19361   */\n      0x1f\n        /* \"#utility.yul\":19349:19355   */\n      dup10\n        /* \"#utility.yul\":19345:19362   */\n      and\n        /* \"#utility.yul\":19334:19343   */\n      dup3\n        /* \"#utility.yul\":19315:19363   */\n      tag_263\n      jump\t// in\n    tag_473:\n        /* \"#utility.yul\":19307:19313   */\n      dup4\n        /* \"#utility.yul\":19300:19364   */\n      sstore\n        /* \"#utility.yul\":19222:19378   */\n      pop\n        /* \"#utility.yul\":19199:19378   */\n    tag_472:\n        /* \"#utility.yul\":19424:19425   */\n      0x01\n        /* \"#utility.yul\":19420:19421   */\n      0x02\n        /* \"#utility.yul\":19412:19418   */\n      dup9\n        /* \"#utility.yul\":19408:19422   */\n      mul\n        /* \"#utility.yul\":19404:19426   */\n      add\n        /* \"#utility.yul\":19398:19402   */\n      dup9\n        /* \"#utility.yul\":19391:19427   */\n      sstore\n        /* \"#utility.yul\":18826:19437   */\n      pop\n      pop\n      pop\n        /* \"#utility.yul\":18789:19676   */\n    tag_464:\n      pop\n        /* \"#utility.yul\":18379:19682   */\n      pop\n      pop\n      pop\n        /* \"#utility.yul\":18287:19682   */\n      pop\n      pop\n      jump\t// out\n        /* \"#utility.yul\":19712:20543   */\n    tag_265:\n        /* \"#utility.yul\":19797:19800   */\n      0x00\n        /* \"#utility.yul\":19834:19839   */\n      dup2\n        /* \"#utility.yul\":19828:19840   */\n      sload\n        /* \"#utility.yul\":19863:19899   */\n      tag_475\n        /* \"#utility.yul\":19889:19898   */\n      dup2\n        /* \"#utility.yul\":19863:19899   */\n      tag_120\n      jump\t// in\n    tag_475:\n        /* \"#utility.yul\":19915:19986   */\n      tag_476\n        /* \"#utility.yul\":19979:19985   */\n      dup2\n        /* \"#utility.yul\":19974:19977   */\n      dup7\n        /* \"#utility.yul\":19915:19986   */\n      tag_243\n      jump\t// in\n    tag_476:\n        /* \"#utility.yul\":19908:19986   */\n      swap5\n      pop\n        /* \"#utility.yul\":20017:20018   */\n      0x01\n        /* \"#utility.yul\":20006:20015   */\n      dup3\n        /* \"#utility.yul\":20002:20019   */\n      and\n        /* \"#utility.yul\":20033:20034   */\n      0x00\n        /* \"#utility.yul\":20028:20192   */\n      dup2\n      eq\n      tag_478\n      jumpi\n        /* \"#utility.yul\":20206:20207   */\n      0x01\n        /* \"#utility.yul\":20201:20537   */\n      dup2\n      eq\n      tag_479\n      jumpi\n        /* \"#utility.yul\":19995:20537   */\n      jump(tag_477)\n        /* \"#utility.yul\":20028:20192   */\n    tag_478:\n        /* \"#utility.yul\":20112:20116   */\n      0xff\n        /* \"#utility.yul\":20108:20117   */\n      not\n        /* \"#utility.yul\":20097:20106   */\n      dup4\n        /* \"#utility.yul\":20093:20118   */\n      and\n        /* \"#utility.yul\":20088:20091   */\n      dup7\n        /* \"#utility.yul\":20081:20119   */\n      mstore\n        /* \"#utility.yul\":20172:20178   */\n      dup2\n        /* \"#utility.yul\":20165:20179   */\n      iszero\n        /* \"#utility.yul\":20158:20180   */\n      iszero\n        /* \"#utility.yul\":20152:20156   */\n      0x20\n        /* \"#utility.yul\":20148:20181   */\n      mul\n        /* \"#utility.yul\":20143:20146   */\n      dup7\n        /* \"#utility.yul\":20139:20182   */\n      add\n        /* \"#utility.yul\":20132:20182   */\n      swap4\n      pop\n        /* \"#utility.yul\":20028:20192   */\n      jump(tag_477)\n        /* \"#utility.yul\":20201:20537   */\n    tag_479:\n        /* \"#utility.yul\":20268:20306   */\n      tag_480\n        /* \"#utility.yul\":20300:20305   */\n      dup6\n        /* \"#utility.yul\":20268:20306   */\n      tag_250\n      jump\t// in\n    tag_480:\n        /* \"#utility.yul\":20328:20329   */\n      0x00\n        /* \"#utility.yul\":20342:20496   */\n    tag_481:\n        /* \"#utility.yul\":20356:20362   */\n      dup4\n        /* \"#utility.yul\":20353:20354   */\n      dup2\n        /* \"#utility.yul\":20350:20363   */\n      lt\n        /* \"#utility.yul\":20342:20496   */\n      iszero\n      tag_483\n      jumpi\n        /* \"#utility.yul\":20430:20437   */\n      dup2\n        /* \"#utility.yul\":20424:20438   */\n      sload\n        /* \"#utility.yul\":20420:20421   */\n      dup2\n        /* \"#utility.yul\":20415:20418   */\n      dup10\n        /* \"#utility.yul\":20411:20422   */\n      add\n        /* \"#utility.yul\":20404:20439   */\n      mstore\n        /* \"#utility.yul\":20480:20481   */\n      0x01\n        /* \"#utility.yul\":20471:20478   */\n      dup3\n        /* \"#utility.yul\":20467:20482   */\n      add\n        /* \"#utility.yul\":20456:20482   */\n      swap2\n      pop\n        /* \"#utility.yul\":20378:20382   */\n      0x20\n        /* \"#utility.yul\":20375:20376   */\n      dup2\n        /* \"#utility.yul\":20371:20383   */\n      add\n        /* \"#utility.yul\":20366:20383   */\n      swap1\n      pop\n        /* \"#utility.yul\":20342:20496   */\n      jump(tag_481)\n    tag_483:\n        /* \"#utility.yul\":20525:20526   */\n      dup1\n        /* \"#utility.yul\":20520:20523   */\n      dup9\n        /* \"#utility.yul\":20516:20527   */\n      add\n        /* \"#utility.yul\":20509:20527   */\n      swap6\n      pop\n        /* \"#utility.yul\":20208:20537   */\n      pop\n      pop\n        /* \"#utility.yul\":19995:20537   */\n    tag_477:\n      pop\n        /* \"#utility.yul\":19801:20543   */\n      pop\n      pop\n        /* \"#utility.yul\":19712:20543   */\n      swap3\n      swap2\n      pop\n      pop\n      jump\t// out\n        /* \"#utility.yul\":20549:21167   */\n    tag_112:\n        /* \"#utility.yul\":20735:20739   */\n      0x00\n        /* \"#utility.yul\":20773:20775   */\n      0x60\n        /* \"#utility.yul\":20762:20771   */\n      dup3\n        /* \"#utility.yul\":20758:20776   */\n      add\n        /* \"#utility.yul\":20750:20776   */\n      swap1\n      pop\n        /* \"#utility.yul\":20786:20857   */\n      tag_485\n        /* \"#utility.yul\":20854:20855   */\n      0x00\n        /* \"#utility.yul\":20843:20852   */\n      dup4\n        /* \"#utility.yul\":20839:20856   */\n      add\n        /* \"#utility.yul\":20830:20836   */\n      dup7\n        /* \"#utility.yul\":20786:20857   */\n      tag_242\n      jump\t// in\n    tag_485:\n        /* \"#utility.yul\":20904:20913   */\n      dup2\n        /* \"#utility.yul\":20898:20902   */\n      dup2\n        /* \"#utility.yul\":20894:20914   */\n      sub\n        /* \"#utility.yul\":20889:20891   */\n      0x20\n        /* \"#utility.yul\":20878:20887   */\n      dup4\n        /* \"#utility.yul\":20874:20892   */\n      add\n        /* \"#utility.yul\":20867:20915   */\n      mstore\n        /* \"#utility.yul\":20932:21010   */\n      tag_486\n        /* \"#utility.yul\":21005:21009   */\n      dup2\n        /* \"#utility.yul\":20996:21002   */\n      dup6\n        /* \"#utility.yul\":20932:21010   */\n      tag_244\n      jump\t// in\n    tag_486:\n        /* \"#utility.yul\":20924:21010   */\n      swap1\n      pop\n        /* \"#utility.yul\":21057:21066   */\n      dup2\n        /* \"#utility.yul\":21051:21055   */\n      dup2\n        /* \"#utility.yul\":21047:21067   */\n      sub\n        /* \"#utility.yul\":21042:21044   */\n      0x40\n        /* \"#utility.yul\":21031:21040   */\n      dup4\n        /* \"#utility.yul\":21027:21045   */\n      add\n        /* \"#utility.yul\":21020:21068   */\n      mstore\n        /* \"#utility.yul\":21085:21160   */\n      tag_487\n        /* \"#utility.yul\":21155:21159   */\n      dup2\n        /* \"#utility.yul\":21146:21152   */\n      dup5\n        /* \"#utility.yul\":21085:21160   */\n      tag_265\n      jump\t// in\n    tag_487:\n        /* \"#utility.yul\":21077:21160   */\n      swap1\n      pop\n        /* \"#utility.yul\":20549:21167   */\n      swap5\n      swap4\n      pop\n      pop\n      pop\n      pop\n      jump\t// out\n        /* \"#utility.yul\":21173:21341   */\n    tag_266:\n        /* \"#utility.yul\":21313:21333   */\n      0x4c6f7420616c7265616479206578697374730000000000000000000000000000\n        /* \"#utility.yul\":21309:21310   */\n      0x00\n        /* \"#utility.yul\":21301:21307   */\n      dup3\n        /* \"#utility.yul\":21297:21311   */\n      add\n        /* \"#utility.yul\":21290:21334   */\n      mstore\n        /* \"#utility.yul\":21173:21341   */\n      pop\n      jump\t// out\n        /* \"#utility.yul\":21347:21713   */\n    tag_267:\n        /* \"#utility.yul\":21489:21492   */\n      0x00\n        /* \"#utility.yul\":21510:21577   */\n      tag_490\n        /* \"#utility.yul\":21574:21576   */\n      0x12\n        /* \"#utility.yul\":21569:21572   */\n      dup4\n        /* \"#utility.yul\":21510:21577   */\n      tag_243\n      jump\t// in\n    tag_490:\n        /* \"#utility.yul\":21503:21577   */\n      swap2\n      pop\n        /* \"#utility.yul\":21586:21679   */\n      tag_491\n        /* \"#utility.yul\":21675:21678   */\n      dup3\n        /* \"#utility.yul\":21586:21679   */\n      tag_266\n      jump\t// in\n    tag_491:\n        /* \"#utility.yul\":21704:21706   */\n      0x20\n        /* \"#utility.yul\":21699:21702   */\n      dup3\n        /* \"#utility.yul\":21695:21707   */\n      add\n        /* \"#utility.yul\":21688:21707   */\n      swap1\n      pop\n        /* \"#utility.yul\":21347:21713   */\n      swap2\n      swap1\n      pop\n      jump\t// out\n        /* \"#utility.yul\":21719:22138   */\n    tag_145:\n        /* \"#utility.yul\":21885:21889   */\n      0x00\n        /* \"#utility.yul\":21923:21925   */\n      0x20\n        /* \"#utility.yul\":21912:21921   */\n      dup3\n        /* \"#utility.yul\":21908:21926   */\n      add\n        /* \"#utility.yul\":21900:21926   */\n      swap1\n      pop\n        /* \"#utility.yul\":21972:21981   */\n      dup2\n        /* \"#utility.yul\":21966:21970   */\n      dup2\n        /* \"#utility.yul\":21962:21982   */\n      sub\n        /* \"#utility.yul\":21958:21959   */\n      0x00\n        /* \"#utility.yul\":21947:21956   */\n      dup4\n        /* \"#utility.yul\":21943:21960   */\n      add\n        /* \"#utility.yul\":21936:21983   */\n      mstore\n        /* \"#utility.yul\":22000:22131   */\n      tag_493\n        /* \"#utility.yul\":22126:22130   */\n      dup2\n        /* \"#utility.yul\":22000:22131   */\n      tag_267\n      jump\t// in\n    tag_493:\n        /* \"#utility.yul\":21992:22131   */\n      swap1\n      pop\n        /* \"#utility.yul\":21719:22138   */\n      swap2\n      swap1\n      pop\n      jump\t// out\n        /* \"#utility.yul\":22144:22768   */\n    tag_151:\n        /* \"#utility.yul\":22333:22337   */\n      0x00\n        /* \"#utility.yul\":22371:22373   */\n      0x60\n        /* \"#utility.yul\":22360:22369   */\n      dup3\n        /* \"#utility.yul\":22356:22374   */\n      add\n        /* \"#utility.yul\":22348:22374   */\n      swap1\n      pop\n        /* \"#utility.yul\":22384:22455   */\n      tag_495\n        /* \"#utility.yul\":22452:22453   */\n      0x00\n        /* \"#utility.yul\":22441:22450   */\n      dup4\n        /* \"#utility.yul\":22437:22454   */\n      add\n        /* \"#utility.yul\":22428:22434   */\n      dup7\n        /* \"#utility.yul\":22384:22455   */\n      tag_242\n      jump\t// in\n    tag_495:\n        /* \"#utility.yul\":22502:22511   */\n      dup2\n        /* \"#utility.yul\":22496:22500   */\n      dup2\n        /* \"#utility.yul\":22492:22512   */\n      sub\n        /* \"#utility.yul\":22487:22489   */\n      0x20\n        /* \"#utility.yul\":22476:22485   */\n      dup4\n        /* \"#utility.yul\":22472:22490   */\n      add\n        /* \"#utility.yul\":22465:22513   */\n      mstore\n        /* \"#utility.yul\":22530:22608   */\n      tag_496\n        /* \"#utility.yul\":22603:22607   */\n      dup2\n        /* \"#utility.yul\":22594:22600   */\n      dup6\n        /* \"#utility.yul\":22530:22608   */\n      tag_244\n      jump\t// in\n    tag_496:\n        /* \"#utility.yul\":22522:22608   */\n      swap1\n      pop\n        /* \"#utility.yul\":22655:22664   */\n      dup2\n        /* \"#utility.yul\":22649:22653   */\n      dup2\n        /* \"#utility.yul\":22645:22665   */\n      sub\n        /* \"#utility.yul\":22640:22642   */\n      0x40\n        /* \"#utility.yul\":22629:22638   */\n      dup4\n        /* \"#utility.yul\":22625:22643   */\n      add\n        /* \"#utility.yul\":22618:22666   */\n      mstore\n        /* \"#utility.yul\":22683:22761   */\n      tag_497\n        /* \"#utility.yul\":22756:22760   */\n      dup2\n        /* \"#utility.yul\":22747:22753   */\n      dup5\n        /* \"#utility.yul\":22683:22761   */\n      tag_244\n      jump\t// in\n    tag_497:\n        /* \"#utility.yul\":22675:22761   */\n      swap1\n      pop\n        /* \"#utility.yul\":22144:22768   */\n      swap5\n      swap4\n      pop\n      pop\n      pop\n      pop\n      jump\t// out\n        /* \"#utility.yul\":22774:22996   */\n    tag_164:\n        /* \"#utility.yul\":22867:22871   */\n      0x00\n        /* \"#utility.yul\":22905:22907   */\n      0x20\n        /* \"#utility.yul\":22894:22903   */\n      dup3\n        /* \"#utility.yul\":22890:22908   */\n      add\n        /* \"#utility.yul\":22882:22908   */\n      swap1\n      pop\n        /* \"#utility.yul\":22918:22989   */\n      tag_499\n        /* \"#utility.yul\":22986:22987   */\n      0x00\n        /* \"#utility.yul\":22975:22984   */\n      dup4\n        /* \"#utility.yul\":22971:22988   */\n      add\n        /* \"#utility.yul\":22962:22968   */\n      dup5\n        /* \"#utility.yul\":22918:22989   */\n      tag_242\n      jump\t// in\n    tag_499:\n        /* \"#utility.yul\":22774:22996   */\n      swap3\n      swap2\n      pop\n      pop\n      jump\t// out\n        /* \"#utility.yul\":23002:23120   */\n    tag_268:\n        /* \"#utility.yul\":23089:23113   */\n      tag_501\n        /* \"#utility.yul\":23107:23112   */\n      dup2\n        /* \"#utility.yul\":23089:23113   */\n      tag_219\n      jump\t// in\n    tag_501:\n        /* \"#utility.yul\":23084:23087   */\n      dup3\n        /* \"#utility.yul\":23077:23114   */\n      mstore\n        /* \"#utility.yul\":23002:23120   */\n      pop\n      pop\n      jump\t// out\n        /* \"#utility.yul\":23126:23458   */\n    tag_205:\n        /* \"#utility.yul\":23247:23251   */\n      0x00\n        /* \"#utility.yul\":23285:23287   */\n      0x40\n        /* \"#utility.yul\":23274:23283   */\n      dup3\n        /* \"#utility.yul\":23270:23288   */\n      add\n        /* \"#utility.yul\":23262:23288   */\n      swap1\n      pop\n        /* \"#utility.yul\":23298:23369   */\n      tag_503\n        /* \"#utility.yul\":23366:23367   */\n      0x00\n        /* \"#utility.yul\":23355:23364   */\n      dup4\n        /* \"#utility.yul\":23351:23368   */\n      add\n        /* \"#utility.yul\":23342:23348   */\n      dup6\n        /* \"#utility.yul\":23298:23369   */\n      tag_268\n      jump\t// in\n    tag_503:\n        /* \"#utility.yul\":23379:23451   */\n      tag_504\n        /* \"#utility.yul\":23447:23449   */\n      0x20\n        /* \"#utility.yul\":23436:23445   */\n      dup4\n        /* \"#utility.yul\":23432:23450   */\n      add\n        /* \"#utility.yul\":23423:23429   */\n      dup5\n        /* \"#utility.yul\":23379:23451   */\n      tag_215\n      jump\t// in\n    tag_504:\n        /* \"#utility.yul\":23126:23458   */\n      swap4\n      swap3\n      pop\n      pop\n      pop\n      jump\t// out\n\n    auxdata: 0xa2646970667358221220bf074a9d8462d512a84a3855fd3245f4f12bb81942436354880d9102e51a9ca164736f6c634300081e0033\n}\n",
				"bytecode": {
					"linkReferences": {},
					"object": "608060405234801561000f575f5ffd5b506100225f5f1b3361002860201b60201c565b50610187565b5f610039838361011d60201b60201c565b6101135760015f5f8581526020019081526020015f205f015f8473ffffffffffffffffffffffffffffffffffffffff1673ffffffffffffffffffffffffffffffffffffffff1681526020019081526020015f205f6101000a81548160ff0219169083151502179055506100b061018060201b60201c565b73ffffffffffffffffffffffffffffffffffffffff168273ffffffffffffffffffffffffffffffffffffffff16847f2f8788117e7eff1d82e926ec794901d17c78024a50270940304540a733656f0d60405160405180910390a460019050610117565b5f90505b92915050565b5f5f5f8481526020019081526020015f205f015f8373ffffffffffffffffffffffffffffffffffffffff1673ffffffffffffffffffffffffffffffffffffffff1681526020019081526020015f205f9054906101000a900460ff16905092915050565b5f33905090565b611de9806101945f395ff3fe608060405234801561000f575f5ffd5b50600436106100f3575f3560e01c8063a217fddf11610095578063d547741f11610064578063d547741f14610281578063e78623531461029d578063f0bd87cc146102b9578063f1648e84146102d7576100f3565b8063a217fddf146101f9578063ab995d1214610217578063cb3e1fe714610247578063ce51e4df14610265576100f3565b80632f2ff15d116100d15780632f2ff15d1461017557806336568abe146101915780634ec0c9e9146101ad57806391d14854146101c9576100f3565b806301ffc9a7146100f7578063144bf58914610127578063248a9ca314610145575b5f5ffd5b610111600480360381019061010c9190611256565b61030c565b60405161011e919061129b565b60405180910390f35b61012f610385565b60405161013c91906112cc565b60405180910390f35b61015f600480360381019061015a919061130f565b6103a9565b60405161016c91906112cc565b60405180910390f35b61018f600480360381019061018a9190611394565b6103c5565b005b6101ab60048036038101906101a69190611394565b6103e7565b005b6101c760048036038101906101c29190611541565b610462565b005b6101e360048036038101906101de9190611394565b61060e565b6040516101f0919061129b565b60405180910390f35b610201610671565b60405161020e91906112cc565b60405180910390f35b610231600480360381019061022c919061159b565b610677565b60405161023e91906116df565b60405180910390f35b61024f61095a565b60405161025c91906112cc565b60405180910390f35b61027f600480360381019061027a91906116ff565b61097e565b005b61029b60048036038101906102969190611394565b610b35565b005b6102b760048036038101906102b2919061159b565b610b57565b005b6102c1610c93565b6040516102ce91906112cc565b60405180910390f35b6102f160048036038101906102ec919061159b565b610cb7565b604051610303969594939291906117de565b60405180910390f35b5f7f7965db0b000000000000000000000000000000000000000000000000000000007bffffffffffffffffffffffffffffffffffffffffffffffffffffffff1916827bffffffffffffffffffffffffffffffffffffffffffffffffffffffff1916148061037e575061037d82610f13565b5b9050919050565b7f20b5f7ac978e5d6199de06401411960dfa81d2f762655f6206bdc61d46fc19e681565b5f5f5f8381526020019081526020015f20600101549050919050565b6103ce826103a9565b6103d781610f7c565b6103e18383610f90565b50505050565b6103ef611079565b73ffffffffffffffffffffffffffffffffffffffff168173ffffffffffffffffffffffffffffffffffffffff1614610453576040517f6697b23200000000000000000000000000000000000000000000000000000000815260040160405180910390fd5b61045d8282611080565b505050565b7ffbd454f36a7e1a388bd6fc3ab10d434aa4578f811acbbcf33afb1c697486313c61048c81610f7c565b5f60015f8581526020019081526020015f205f0154036104e1576040517f08c379a00000000000000000000000000000000000000000000000000000000081526004016104d8906118a3565b60405180910390fd5b60015f8481526020019081526020015f206004015f9054906101000a900460ff1615610542576040517f08c379a00000000000000000000000000000000000000000000000000000000081526004016105399061190b565b60405180910390fd5b8160015f8581526020019081526020015f2060030190816105639190611b26565b506040518060400160405280601581526020017f496e205472616e736974202f204f6e205368656c66000000000000000000000081525060015f8581526020019081526020015f2060050190816105ba9190611b26565b507f6ce3840dca9a1be4ddea2d3472fe15348ad9f8944de7efbcc4c6e1222fcbaf12838360015f8781526020019081526020015f2060050160405161060193929190611c76565b60405180910390a1505050565b5f5f5f8481526020019081526020015f205f015f8373ffffffffffffffffffffffffffffffffffffffff1673ffffffffffffffffffffffffffffffffffffffff1681526020019081526020015f205f9054906101000a900460ff16905092915050565b5f5f1b81565b61067f6111ba565b5f60015f8481526020019081526020015f205f0154036106d4576040517f08c379a00000000000000000000000000000000000000000000000000000000081526004016106cb906118a3565b60405180910390fd5b60015f8381526020019081526020015f206040518060c00160405290815f820154815260200160018201805461070990611956565b80601f016020809104026020016040519081016040528092919081815260200182805461073590611956565b80156107805780601f1061075757610100808354040283529160200191610780565b820191905f5260205f20905b81548152906001019060200180831161076357829003601f168201915b5050505050815260200160028201805461079990611956565b80601f01602080910402602001604051908101604052809291908181526020018280546107c590611956565b80156108105780601f106107e757610100808354040283529160200191610810565b820191905f5260205f20905b8154815290600101906020018083116107f357829003601f168201915b5050505050815260200160038201805461082990611956565b80601f016020809104026020016040519081016040528092919081815260200182805461085590611956565b80156108a05780601f10610877576101008083540402835291602001916108a0565b820191905f5260205f20905b81548152906001019060200180831161088357829003601f168201915b50505050508152602001600482015f9054906101000a900460ff161515151581526020016005820180546108d390611956565b80601f01602080910402602001604051908101604052809291908181526020018280546108ff90611956565b801561094a5780601f106109215761010080835404028352916020019161094a565b820191905f5260205f20905b81548152906001019060200180831161092d57829003601f168201915b5050505050815250509050919050565b7f8eb467f061ca67f42a2d2ca4a346fc9fb645efc0ba75056ee9f71c3a0ccc10a881565b7f8eb467f061ca67f42a2d2ca4a346fc9fb645efc0ba75056ee9f71c3a0ccc10a86109a881610f7c565b5f60015f8681526020019081526020015f205f0154146109fd576040517f08c379a00000000000000000000000000000000000000000000000000000000081526004016109f490611d03565b60405180910390fd5b6040518060c001604052808581526020018481526020018381526020018381526020015f151581526020016040518060400160405280600881526020017f50726f647563656400000000000000000000000000000000000000000000000081525081525060015f8681526020019081526020015f205f820151815f01556020820151816001019081610a8f9190611b26565b506040820151816002019081610aa59190611b26565b506060820151816003019081610abb9190611b26565b506080820151816004015f6101000a81548160ff02191690831515021790555060a0820151816005019081610af09190611b26565b509050507f15b6890af0e66873b46f545c2578a72329a3f376146d1847dd82e30d4b37bfd6848484604051610b2793929190611d21565b60405180910390a150505050565b610b3e826103a9565b610b4781610f7c565b610b518383611080565b50505050565b7f20b5f7ac978e5d6199de06401411960dfa81d2f762655f6206bdc61d46fc19e6610b8181610f7c565b5f60015f8481526020019081526020015f205f015403610bd6576040517f08c379a0000000000000000000000000000000000000000000000000000000008152600401610bcd906118a3565b60405180910390fd5b6001805f8481526020019081526020015f206004015f6101000a81548160ff0219169083151502179055506040518060400160405280600881526020017f526563616c6c656400000000000000000000000000000000000000000000000081525060015f8481526020019081526020015f206005019081610c579190611b26565b507f6e6436ac1c0629cca39b4bc5a42892c686a397bade5737a5b2ae50770e990cd682604051610c879190611d64565b60405180910390a15050565b7ffbd454f36a7e1a388bd6fc3ab10d434aa4578f811acbbcf33afb1c697486313c81565b6001602052805f5260405f205f91509050805f015490806001018054610cdc90611956565b80601f0160208091040260200160405190810160405280929190818152602001828054610d0890611956565b8015610d535780601f10610d2a57610100808354040283529160200191610d53565b820191905f5260205f20905b815481529060010190602001808311610d3657829003601f168201915b505050505090806002018054610d6890611956565b80601f0160208091040260200160405190810160405280929190818152602001828054610d9490611956565b8015610ddf5780601f10610db657610100808354040283529160200191610ddf565b820191905f5260205f20905b815481529060010190602001808311610dc257829003601f168201915b505050505090806003018054610df490611956565b80601f0160208091040260200160405190810160405280929190818152602001828054610e2090611956565b8015610e6b5780601f10610e4257610100808354040283529160200191610e6b565b820191905f5260205f20905b815481529060010190602001808311610e4e57829003601f168201915b505050505090806004015f9054906101000a900460ff1690806005018054610e9290611956565b80601f0160208091040260200160405190810160405280929190818152602001828054610ebe90611956565b8015610f095780601f10610ee057610100808354040283529160200191610f09565b820191905f5260205f20905b815481529060010190602001808311610eec57829003601f168201915b5050505050905086565b5f7f01ffc9a7000000000000000000000000000000000000000000000000000000007bffffffffffffffffffffffffffffffffffffffffffffffffffffffff1916827bffffffffffffffffffffffffffffffffffffffffffffffffffffffff1916149050919050565b610f8d81610f88611079565b611169565b50565b5f610f9b838361060e565b61106f5760015f5f8581526020019081526020015f205f015f8473ffffffffffffffffffffffffffffffffffffffff1673ffffffffffffffffffffffffffffffffffffffff1681526020019081526020015f205f6101000a81548160ff02191690831515021790555061100c611079565b73ffffffffffffffffffffffffffffffffffffffff168273ffffffffffffffffffffffffffffffffffffffff16847f2f8788117e7eff1d82e926ec794901d17c78024a50270940304540a733656f0d60405160405180910390a460019050611073565b5f90505b92915050565b5f33905090565b5f61108b838361060e565b1561115f575f5f5f8581526020019081526020015f205f015f8473ffffffffffffffffffffffffffffffffffffffff1673ffffffffffffffffffffffffffffffffffffffff1681526020019081526020015f205f6101000a81548160ff0219169083151502179055506110fc611079565b73ffffffffffffffffffffffffffffffffffffffff168273ffffffffffffffffffffffffffffffffffffffff16847ff6391f5c32d9c69d2a47ea670b442974b53935d1edc7fd64eb21e047a839171b60405160405180910390a460019050611163565b5f90505b92915050565b611173828261060e565b6111b65780826040517fe2517d3f0000000000000000000000000000000000000000000000000000000081526004016111ad929190611d8c565b60405180910390fd5b5050565b6040518060c001604052805f81526020016060815260200160608152602001606081526020015f15158152602001606081525090565b5f604051905090565b5f5ffd5b5f5ffd5b5f7fffffffff0000000000000000000000000000000000000000000000000000000082169050919050565b61123581611201565b811461123f575f5ffd5b50565b5f813590506112508161122c565b92915050565b5f6020828403121561126b5761126a6111f9565b5b5f61127884828501611242565b91505092915050565b5f8115159050919050565b61129581611281565b82525050565b5f6020820190506112ae5f83018461128c565b92915050565b5f819050919050565b6112c6816112b4565b82525050565b5f6020820190506112df5f8301846112bd565b92915050565b6112ee816112b4565b81146112f8575f5ffd5b50565b5f81359050611309816112e5565b92915050565b5f60208284031215611324576113236111f9565b5b5f611331848285016112fb565b91505092915050565b5f73ffffffffffffffffffffffffffffffffffffffff82169050919050565b5f6113638261133a565b9050919050565b61137381611359565b811461137d575f5ffd5b50565b5f8135905061138e8161136a565b92915050565b5f5f604083850312156113aa576113a96111f9565b5b5f6113b7858286016112fb565b92505060206113c885828601611380565b9150509250929050565b5f819050919050565b6113e4816113d2565b81146113ee575f5ffd5b50565b5f813590506113ff816113db565b92915050565b5f5ffd5b5f5ffd5b5f601f19601f8301169050919050565b7f4e487b71000000000000000000000000000000000000000000000000000000005f52604160045260245ffd5b6114538261140d565b810181811067ffffffffffffffff821117156114725761147161141d565b5b80604052505050565b5f6114846111f0565b9050611490828261144a565b919050565b5f67ffffffffffffffff8211156114af576114ae61141d565b5b6114b88261140d565b9050602081019050919050565b828183375f83830152505050565b5f6114e56114e084611495565b61147b565b90508281526020810184848401111561150157611500611409565b5b61150c8482856114c5565b509392505050565b5f82601f83011261152857611527611405565b5b81356115388482602086016114d3565b91505092915050565b5f5f60408385031215611557576115566111f9565b5b5f611564858286016113f1565b925050602083013567ffffffffffffffff811115611585576115846111fd565b5b61159185828601611514565b9150509250929050565b5f602082840312156115b0576115af6111f9565b5b5f6115bd848285016113f1565b91505092915050565b6115cf816113d2565b82525050565b5f81519050919050565b5f82825260208201905092915050565b8281835e5f83830152505050565b5f611607826115d5565b61161181856115df565b93506116218185602086016115ef565b61162a8161140d565b840191505092915050565b61163e81611281565b82525050565b5f60c083015f8301516116595f8601826115c6565b506020830151848203602086015261167182826115fd565b9150506040830151848203604086015261168b82826115fd565b915050606083015184820360608601526116a582826115fd565b91505060808301516116ba6080860182611635565b5060a083015184820360a08601526116d282826115fd565b9150508091505092915050565b5f6020820190508181035f8301526116f78184611644565b905092915050565b5f5f5f60608486031215611716576117156111f9565b5b5f611723868287016113f1565b935050602084013567ffffffffffffffff811115611744576117436111fd565b5b61175086828701611514565b925050604084013567ffffffffffffffff811115611771576117706111fd565b5b61177d86828701611514565b9150509250925092565b611790816113d2565b82525050565b5f82825260208201905092915050565b5f6117b0826115d5565b6117ba8185611796565b93506117ca8185602086016115ef565b6117d38161140d565b840191505092915050565b5f60c0820190506117f15f830189611787565b818103602083015261180381886117a6565b9050818103604083015261181781876117a6565b9050818103606083015261182b81866117a6565b905061183a608083018561128c565b81810360a083015261184c81846117a6565b9050979650505050505050565b7f4c6f7420646f6573206e6f7420657869737400000000000000000000000000005f82015250565b5f61188d601283611796565b915061189882611859565b602082019050919050565b5f6020820190508181035f8301526118ba81611881565b9050919050565b7f4c6f7420686173206265656e20726563616c6c656400000000000000000000005f82015250565b5f6118f5601583611796565b9150611900826118c1565b602082019050919050565b5f6020820190508181035f830152611922816118e9565b9050919050565b7f4e487b71000000000000000000000000000000000000000000000000000000005f52602260045260245ffd5b5f600282049050600182168061196d57607f821691505b6020821081036119805761197f611929565b5b50919050565b5f819050815f5260205f209050919050565b5f6020601f8301049050919050565b5f82821b905092915050565b5f600883026119e27fffffffffffffffffffffffffffffffffffffffffffffffffffffffffffffffff826119a7565b6119ec86836119a7565b95508019841693508086168417925050509392505050565b5f819050919050565b5f611a27611a22611a1d846113d2565b611a04565b6113d2565b9050919050565b5f819050919050565b611a4083611a0d565b611a54611a4c82611a2e565b8484546119b3565b825550505050565b5f5f905090565b611a6b611a5c565b611a76818484611a37565b505050565b5b81811015611a9957611a8e5f82611a63565b600181019050611a7c565b5050565b601f821115611ade57611aaf81611986565b611ab884611998565b81016020851015611ac7578190505b611adb611ad385611998565b830182611a7b565b50505b505050565b5f82821c905092915050565b5f611afe5f1984600802611ae3565b1980831691505092915050565b5f611b168383611aef565b9150826002028217905092915050565b611b2f826115d5565b67ffffffffffffffff811115611b4857611b4761141d565b5b611b528254611956565b611b5d828285611a9d565b5f60209050601f831160018114611b8e575f8415611b7c578287015190505b611b868582611b0b565b865550611bed565b601f198416611b9c86611986565b5f5b82811015611bc357848901518255600182019150602085019450602081019050611b9e565b86831015611be05784890151611bdc601f891682611aef565b8355505b6001600288020188555050505b505050505050565b5f8154611c0181611956565b611c0b8186611796565b9450600182165f8114611c255760018114611c3b57611c6d565b60ff198316865281151560200286019350611c6d565b611c4485611986565b5f5b83811015611c6557815481890152600182019150602081019050611c46565b808801955050505b50505092915050565b5f606082019050611c895f830186611787565b8181036020830152611c9b81856117a6565b90508181036040830152611caf8184611bf5565b9050949350505050565b7f4c6f7420616c72656164792065786973747300000000000000000000000000005f82015250565b5f611ced601283611796565b9150611cf882611cb9565b602082019050919050565b5f6020820190508181035f830152611d1a81611ce1565b9050919050565b5f606082019050611d345f830186611787565b8181036020830152611d4681856117a6565b90508181036040830152611d5a81846117a6565b9050949350505050565b5f602082019050611d775f830184611787565b92915050565b611d8681611359565b82525050565b5f604082019050611d9f5f830185611d7d565b611dac60208301846112bd565b939250505056fea2646970667358221220bf074a9d8462d512a84a3855fd3245f4f12bb81942436354880d9102e51a9ca164736f6c634300081e0033",
					"opcodes": "PUSH1 0x80 PUSH1 0x40 MSTORE CALLVALUE DUP1 ISZERO PUSH2 0xF JUMPI PUSH0 PUSH0 REVERT JUMPDEST POP PUSH2 0x22 PUSH0 PUSH0 SHL CALLER PUSH2 0x28 PUSH1 0x20 SHL PUSH1 0x20 SHR JUMP JUMPDEST POP PUSH2 0x187 JUMP JUMPDEST PUSH0 PUSH2 0x39 DUP4 DUP4 PUSH2 0x11D PUSH1 0x20 SHL PUSH1 0x20 SHR JUMP JUMPDEST PUSH2 0x113 JUMPI PUSH1 0x1 PUSH0 PUSH0 DUP6 DUP2 MSTORE PUSH1 0x20 ADD SWAP1 DUP2 MSTORE PUSH1 0x20 ADD PUSH0 KECCAK256 PUSH0 ADD PUSH0 DUP5 PUSH20 0xFFFFFFFFFFFFFFFFFFFFFFFFFFFFFFFFFFFFFFFF AND PUSH20 0xFFFFFFFFFFFFFFFFFFFFFFFFFFFFFFFFFFFFFFFF AND DUP2 MSTORE PUSH1 0x20 ADD SWAP1 DUP2 MSTORE PUSH1 0x20 ADD PUSH0 KECCAK256 PUSH0 PUSH2 0x100 EXP DUP2 SLOAD DUP2 PUSH1 0xFF MUL NOT AND SWAP1 DUP4 ISZERO ISZERO MUL OR SWAP1 SSTORE POP PUSH2 0xB0 PUSH2 0x180 PUSH1 0x20 SHL PUSH1 0x20 SHR JUMP JUMPDEST PUSH20 0xFFFFFFFFFFFFFFFFFFFFFFFFFFFFFFFFFFFFFFFF AND DUP3 PUSH20 0xFFFFFFFFFFFFFFFFFFFFFFFFFFFFFFFFFFFFFFFF AND DUP5 PUSH32 0x2F8788117E7EFF1D82E926EC794901D17C78024A50270940304540A733656F0D PUSH1 0x40 MLOAD PUSH1 0x40 MLOAD DUP1 SWAP2 SUB SWAP1 LOG4 PUSH1 0x1 SWAP1 POP PUSH2 0x117 JUMP JUMPDEST PUSH0 SWAP1 POP JUMPDEST SWAP3 SWAP2 POP POP JUMP JUMPDEST PUSH0 PUSH0 PUSH0 DUP5 DUP2 MSTORE PUSH1 0x20 ADD SWAP1 DUP2 MSTORE PUSH1 0x20 ADD PUSH0 KECCAK256 PUSH0 ADD PUSH0 DUP4 PUSH20 0xFFFFFFFFFFFFFFFFFFFFFFFFFFFFFFFFFFFFFFFF AND PUSH20 0xFFFFFFFFFFFFFFFFFFFFFFFFFFFFFFFFFFFFFFFF AND DUP2 MSTORE PUSH1 0x20 ADD SWAP1 DUP2 MSTORE PUSH1 0x20 ADD PUSH0 KECCAK256 PUSH0 SWAP1 SLOAD SWAP1 PUSH2 0x100 EXP SWAP1 DIV PUSH1 0xFF AND SWAP1 POP SWAP3 SWAP2 POP POP JUMP JUMPDEST PUSH0 CALLER SWAP1 POP SWAP1 JUMP JUMPDEST PUSH2 0x1DE9 DUP1 PUSH2 0x194 PUSH0 CODECOPY PUSH0 RETURN INVALID PUSH1 0x80 PUSH1 0x40 MSTORE CALLVALUE DUP1 ISZERO PUSH2 0xF JUMPI PUSH0 PUSH0 REVERT JUMPDEST POP PUSH1 0x4 CALLDATASIZE LT PUSH2 0xF3 JUMPI PUSH0 CALLDATALOAD PUSH1 0xE0 SHR DUP1 PUSH4 0xA217FDDF GT PUSH2 0x95 JUMPI DUP1 PUSH4 0xD547741F GT PUSH2 0x64 JUMPI DUP1 PUSH4 0xD547741F EQ PUSH2 0x281 JUMPI DUP1 PUSH4 0xE7862353 EQ PUSH2 0x29D JUMPI DUP1 PUSH4 0xF0BD87CC EQ PUSH2 0x2B9 JUMPI DUP1 PUSH4 0xF1648E84 EQ PUSH2 0x2D7 JUMPI PUSH2 0xF3 JUMP JUMPDEST DUP1 PUSH4 0xA217FDDF EQ PUSH2 0x1F9 JUMPI DUP1 PUSH4 0xAB995D12 EQ PUSH2 0x217 JUMPI DUP1 PUSH4 0xCB3E1FE7 EQ PUSH2 0x247 JUMPI DUP1 PUSH4 0xCE51E4DF EQ PUSH2 0x265 JUMPI PUSH2 0xF3 JUMP JUMPDEST DUP1 PUSH4 0x2F2FF15D GT PUSH2 0xD1 JUMPI DUP1 PUSH4 0x2F2FF15D EQ PUSH2 0x175 JUMPI DUP1 PUSH4 0x36568ABE EQ PUSH2 0x191 JUMPI DUP1 PUSH4 0x4EC0C9E9 EQ PUSH2 0x1AD JUMPI DUP1 PUSH4 0x91D14854 EQ PUSH2 0x1C9 JUMPI PUSH2 0xF3 JUMP JUMPDEST DUP1 PUSH4 0x1FFC9A7 EQ PUSH2 0xF7 JUMPI DUP1 PUSH4 0x144BF589 EQ PUSH2 0x127 JUMPI DUP1 PUSH4 0x248A9CA3 EQ PUSH2 0x145 JUMPI JUMPDEST PUSH0 PUSH0 REVERT JUMPDEST PUSH2 0x111 PUSH1 0x4 DUP1 CALLDATASIZE SUB DUP2 ADD SWAP1 PUSH2 0x10C SWAP2 SWAP1 PUSH2 0x1256 JUMP JUMPDEST PUSH2 0x30C JUMP JUMPDEST PUSH1 0x40 MLOAD PUSH2 0x11E SWAP2 SWAP1 PUSH2 0x129B JUMP JUMPDEST PUSH1 0x40 MLOAD DUP1 SWAP2 SUB SWAP1 RETURN JUMPDEST PUSH2 0x12F PUSH2 0x385 JUMP JUMPDEST PUSH1 0x40 MLOAD PUSH2 0x13C SWAP2 SWAP1 PUSH2 0x12CC JUMP JUMPDEST PUSH1 0x40 MLOAD DUP1 SWAP2 SUB SWAP1 RETURN JUMPDEST PUSH2 0x15F PUSH1 0x4 DUP1 CALLDATASIZE SUB DUP2 ADD SWAP1 PUSH2 0x15A SWAP2 SWAP1 PUSH2 0x130F JUMP JUMPDEST PUSH2 0x3A9 JUMP JUMPDEST PUSH1 0x40 MLOAD PUSH2 0x16C SWAP2 SWAP1 PUSH2 0x12CC JUMP JUMPDEST PUSH1 0x40 MLOAD DUP1 SWAP2 SUB SWAP1 RETURN JUMPDEST PUSH2 0x18F PUSH1 0x4 DUP1 CALLDATASIZE SUB DUP2 ADD SWAP1 PUSH2 0x18A SWAP2 SWAP1 PUSH2 0x1394 JUMP JUMPDEST PUSH2 0x3C5 JUMP JUMPDEST STOP JUMPDEST PUSH2 0x1AB PUSH1 0x4 DUP1 CALLDATASIZE SUB DUP2 ADD SWAP1 PUSH2 0x1A6 SWAP2 SWAP1 PUSH2 0x1394 JUMP JUMPDEST PUSH2 0x3E7 JUMP JUMPDEST STOP JUMPDEST PUSH2 0x1C7 PUSH1 0x4 DUP1 CALLDATASIZE SUB DUP2 ADD SWAP1 PUSH2 0x1C2 SWAP2 SWAP1 PUSH2 0x1541 JUMP JUMPDEST PUSH2 0x462 JUMP JUMPDEST STOP JUMPDEST PUSH2 0x1E3 PUSH1 0x4 DUP1 CALLDATASIZE SUB DUP2 ADD SWAP1 PUSH2 0x1DE SWAP2 SWAP1 PUSH2 0x1394 JUMP JUMPDEST PUSH2 0x60E JUMP JUMPDEST PUSH1 0x40 MLOAD PUSH2 0x1F0 SWAP2 SWAP1 PUSH2 0x129B JUMP JUMPDEST PUSH1 0x40 MLOAD DUP1 SWAP2 SUB SWAP1 RETURN JUMPDEST PUSH2 0x201 PUSH2 0x671 JUMP JUMPDEST PUSH1 0x40 MLOAD PUSH2 0x20E SWAP2 SWAP1 PUSH2 0x12CC JUMP JUMPDEST PUSH1 0x40 MLOAD DUP1 SWAP2 SUB SWAP1 RETURN JUMPDEST PUSH2 0x231 PUSH1 0x4 DUP1 CALLDATASIZE SUB DUP2 ADD SWAP1 PUSH2 0x22C SWAP2 SWAP1 PUSH2 0x159B JUMP JUMPDEST PUSH2 0x677 JUMP JUMPDEST PUSH1 0x40 MLOAD PUSH2 0x23E SWAP2 SWAP1 PUSH2 0x16DF JUMP JUMPDEST PUSH1 0x40 MLOAD DUP1 SWAP2 SUB SWAP1 RETURN JUMPDEST PUSH2 0x24F PUSH2 0x95A JUMP JUMPDEST PUSH1 0x40 MLOAD PUSH2 0x25C SWAP2 SWAP1 PUSH2 0x12CC JUMP JUMPDEST PUSH1 0x40 MLOAD DUP1 SWAP2 SUB SWAP1 RETURN JUMPDEST PUSH2 0x27F PUSH1 0x4 DUP1 CALLDATASIZE SUB DUP2 ADD SWAP1 PUSH2 0x27A SWAP2 SWAP1 PUSH2 0x16FF JUMP JUMPDEST PUSH2 0x97E JUMP JUMPDEST STOP JUMPDEST PUSH2 0x29B PUSH1 0x4 DUP1 CALLDATASIZE SUB DUP2 ADD SWAP1 PUSH2 0x296 SWAP2 SWAP1 PUSH2 0x1394 JUMP JUMPDEST PUSH2 0xB35 JUMP JUMPDEST STOP JUMPDEST PUSH2 0x2B7 PUSH1 0x4 DUP1 CALLDATASIZE SUB DUP2 ADD SWAP1 PUSH2 0x2B2 SWAP2 SWAP1 PUSH2 0x159B JUMP JUMPDEST PUSH2 0xB57 JUMP JUMPDEST STOP JUMPDEST PUSH2 0x2C1 PUSH2 0xC93 JUMP JUMPDEST PUSH1 0x40 MLOAD PUSH2 0x2CE SWAP2 SWAP1 PUSH2 0x12CC JUMP JUMPDEST PUSH1 0x40 MLOAD DUP1 SWAP2 SUB SWAP1 RETURN JUMPDEST PUSH2 0x2F1 PUSH1 0x4 DUP1 CALLDATASIZE SUB DUP2 ADD SWAP1 PUSH2 0x2EC SWAP2 SWAP1 PUSH2 0x159B JUMP JUMPDEST PUSH2 0xCB7 JUMP JUMPDEST PUSH1 0x40 MLOAD PUSH2 0x303 SWAP7 SWAP6 SWAP5 SWAP4 SWAP3 SWAP2 SWAP1 PUSH2 0x17DE JUMP JUMPDEST PUSH1 0x40 MLOAD DUP1 SWAP2 SUB SWAP1 RETURN JUMPDEST PUSH0 PUSH32 0x7965DB0B00000000000000000000000000000000000000000000000000000000 PUSH28 0xFFFFFFFFFFFFFFFFFFFFFFFFFFFFFFFFFFFFFFFFFFFFFFFFFFFFFFFF NOT AND DUP3 PUSH28 0xFFFFFFFFFFFFFFFFFFFFFFFFFFFFFFFFFFFFFFFFFFFFFFFFFFFFFFFF NOT AND EQ DUP1 PUSH2 0x37E JUMPI POP PUSH2 0x37D DUP3 PUSH2 0xF13 JUMP JUMPDEST JUMPDEST SWAP1 POP SWAP2 SWAP1 POP JUMP JUMPDEST PUSH32 0x20B5F7AC978E5D6199DE06401411960DFA81D2F762655F6206BDC61D46FC19E6 DUP2 JUMP JUMPDEST PUSH0 PUSH0 PUSH0 DUP4 DUP2 MSTORE PUSH1 0x20 ADD SWAP1 DUP2 MSTORE PUSH1 0x20 ADD PUSH0 KECCAK256 PUSH1 0x1 ADD SLOAD SWAP1 POP SWAP2 SWAP1 POP JUMP JUMPDEST PUSH2 0x3CE DUP3 PUSH2 0x3A9 JUMP JUMPDEST PUSH2 0x3D7 DUP2 PUSH2 0xF7C JUMP JUMPDEST PUSH2 0x3E1 DUP4 DUP4 PUSH2 0xF90 JUMP JUMPDEST POP POP POP POP JUMP JUMPDEST PUSH2 0x3EF PUSH2 0x1079 JUMP JUMPDEST PUSH20 0xFFFFFFFFFFFFFFFFFFFFFFFFFFFFFFFFFFFFFFFF AND DUP2 PUSH20 0xFFFFFFFFFFFFFFFFFFFFFFFFFFFFFFFFFFFFFFFF AND EQ PUSH2 0x453 JUMPI PUSH1 0x40 MLOAD PUSH32 0x6697B23200000000000000000000000000000000000000000000000000000000 DUP2 MSTORE PUSH1 0x4 ADD PUSH1 0x40 MLOAD DUP1 SWAP2 SUB SWAP1 REVERT JUMPDEST PUSH2 0x45D DUP3 DUP3 PUSH2 0x1080 JUMP JUMPDEST POP POP POP JUMP JUMPDEST PUSH32 0xFBD454F36A7E1A388BD6FC3AB10D434AA4578F811ACBBCF33AFB1C697486313C PUSH2 0x48C DUP2 PUSH2 0xF7C JUMP JUMPDEST PUSH0 PUSH1 0x1 PUSH0 DUP6 DUP2 MSTORE PUSH1 0x20 ADD SWAP1 DUP2 MSTORE PUSH1 0x20 ADD PUSH0 KECCAK256 PUSH0 ADD SLOAD SUB PUSH2 0x4E1 JUMPI PUSH1 0x40 MLOAD PUSH32 0x8C379A000000000000000000000000000000000000000000000000000000000 DUP2 MSTORE PUSH1 0x4 ADD PUSH2 0x4D8 SWAP1 PUSH2 0x18A3 JUMP JUMPDEST PUSH1 0x40 MLOAD DUP1 SWAP2 SUB SWAP1 REVERT JUMPDEST PUSH1 0x1 PUSH0 DUP5 DUP2 MSTORE PUSH1 0x20 ADD SWAP1 DUP2 MSTORE PUSH1 0x20 ADD PUSH0 KECCAK256 PUSH1 0x4 ADD PUSH0 SWAP1 SLOAD SWAP1 PUSH2 0x100 EXP SWAP1 DIV PUSH1 0xFF AND ISZERO PUSH2 0x542 JUMPI PUSH1 0x40 MLOAD PUSH32 0x8C379A000000000000000000000000000000000000000000000000000000000 DUP2 MSTORE PUSH1 0x4 ADD PUSH2 0x539 SWAP1 PUSH2 0x190B JUMP JUMPDEST PUSH1 0x40 MLOAD DUP1 SWAP2 SUB SWAP1 REVERT JUMPDEST DUP2 PUSH1 0x1 PUSH0 DUP6 DUP2 MSTORE PUSH1 0x20 ADD SWAP1 DUP2 MSTORE PUSH1 0x20 ADD PUSH0 KECCAK256 PUSH1 0x3 ADD SWAP1 DUP2 PUSH2 0x563 SWAP2 SWAP1 PUSH2 0x1B26 JUMP JUMPDEST POP PUSH1 0x40 MLOAD DUP1 PUSH1 0x40 ADD PUSH1 0x40 MSTORE DUP1 PUSH1 0x15 DUP2 MSTORE PUSH1 0x20 ADD PUSH32 0x496E205472616E736974202F204F6E205368656C660000000000000000000000 DUP2 MSTORE POP PUSH1 0x1 PUSH0 DUP6 DUP2 MSTORE PUSH1 0x20 ADD SWAP1 DUP2 MSTORE PUSH1 0x20 ADD PUSH0 KECCAK256 PUSH1 0x5 ADD SWAP1 DUP2 PUSH2 0x5BA SWAP2 SWAP1 PUSH2 0x1B26 JUMP JUMPDEST POP PUSH32 0x6CE3840DCA9A1BE4DDEA2D3472FE15348AD9F8944DE7EFBCC4C6E1222FCBAF12 DUP4 DUP4 PUSH1 0x1 PUSH0 DUP8 DUP2 MSTORE PUSH1 0x20 ADD SWAP1 DUP2 MSTORE PUSH1 0x20 ADD PUSH0 KECCAK256 PUSH1 0x5 ADD PUSH1 0x40 MLOAD PUSH2 0x601 SWAP4 SWAP3 SWAP2 SWAP1 PUSH2 0x1C76 JUMP JUMPDEST PUSH1 0x40 MLOAD DUP1 SWAP2 SUB SWAP1 LOG1 POP POP POP JUMP JUMPDEST PUSH0 PUSH0 PUSH0 DUP5 DUP2 MSTORE PUSH1 0x20 ADD SWAP1 DUP2 MSTORE PUSH1 0x20 ADD PUSH0 KECCAK256 PUSH0 ADD PUSH0 DUP4 PUSH20 0xFFFFFFFFFFFFFFFFFFFFFFFFFFFFFFFFFFFFFFFF AND PUSH20 0xFFFFFFFFFFFFFFFFFFFFFFFFFFFFFFFFFFFFFFFF AND DUP2 MSTORE PUSH1 0x20 ADD SWAP1 DUP2 MSTORE PUSH1 0x20 ADD PUSH0 KECCAK256 PUSH0 SWAP1 SLOAD SWAP1 PUSH2 0x100 EXP SWAP1 DIV PUSH1 0xFF AND SWAP1 POP SWAP3 SWAP2 POP POP JUMP JUMPDEST PUSH0 PUSH0 SHL DUP2 JUMP JUMPDEST PUSH2 0x67F PUSH2 0x11BA JUMP JUMPDEST PUSH0 PUSH1 0x1 PUSH0 DUP5 DUP2 MSTORE PUSH1 0x20 ADD SWAP1 DUP2 MSTORE PUSH1 0x20 ADD PUSH0 KECCAK256 PUSH0 ADD SLOAD SUB PUSH2 0x6D4 JUMPI PUSH1 0x40 MLOAD PUSH32 0x8C379A000000000000000000000000000000000000000000000000000000000 DUP2 MSTORE PUSH1 0x4 ADD PUSH2 0x6CB SWAP1 PUSH2 0x18A3 JUMP JUMPDEST PUSH1 0x40 MLOAD DUP1 SWAP2 SUB SWAP1 REVERT JUMPDEST PUSH1 0x1 PUSH0 DUP4 DUP2 MSTORE PUSH1 0x20 ADD SWAP1 DUP2 MSTORE PUSH1 0x20 ADD PUSH0 KECCAK256 PUSH1 0x40 MLOAD DUP1 PUSH1 0xC0 ADD PUSH1 0x40 MSTORE SWAP1 DUP2 PUSH0 DUP3 ADD SLOAD DUP2 MSTORE PUSH1 0x20 ADD PUSH1 0x1 DUP3 ADD DUP1 SLOAD PUSH2 0x709 SWAP1 PUSH2 0x1956 JUMP JUMPDEST DUP1 PUSH1 0x1F ADD PUSH1 0x20 DUP1 SWAP2 DIV MUL PUSH1 0x20 ADD PUSH1 0x40 MLOAD SWAP1 DUP2 ADD PUSH1 0x40 MSTORE DUP1 SWAP3 SWAP2 SWAP1 DUP2 DUP2 MSTORE PUSH1 0x20 ADD DUP3 DUP1 SLOAD PUSH2 0x735 SWAP1 PUSH2 0x1956 JUMP JUMPDEST DUP1 ISZERO PUSH2 0x780 JUMPI DUP1 PUSH1 0x1F LT PUSH2 0x757 JUMPI PUSH2 0x100 DUP1 DUP4 SLOAD DIV MUL DUP4 MSTORE SWAP2 PUSH1 0x20 ADD SWAP2 PUSH2 0x780 JUMP JUMPDEST DUP3 ADD SWAP2 SWAP1 PUSH0 MSTORE PUSH1 0x20 PUSH0 KECCAK256 SWAP1 JUMPDEST DUP2 SLOAD DUP2 MSTORE SWAP1 PUSH1 0x1 ADD SWAP1 PUSH1 0x20 ADD DUP1 DUP4 GT PUSH2 0x763 JUMPI DUP3 SWAP1 SUB PUSH1 0x1F AND DUP3 ADD SWAP2 JUMPDEST POP POP POP POP POP DUP2 MSTORE PUSH1 0x20 ADD PUSH1 0x2 DUP3 ADD DUP1 SLOAD PUSH2 0x799 SWAP1 PUSH2 0x1956 JUMP JUMPDEST DUP1 PUSH1 0x1F ADD PUSH1 0x20 DUP1 SWAP2 DIV MUL PUSH1 0x20 ADD PUSH1 0x40 MLOAD SWAP1 DUP2 ADD PUSH1 0x40 MSTORE DUP1 SWAP3 SWAP2 SWAP1 DUP2 DUP2 MSTORE PUSH1 0x20 ADD DUP3 DUP1 SLOAD PUSH2 0x7C5 SWAP1 PUSH2 0x1956 JUMP JUMPDEST DUP1 ISZERO PUSH2 0x810 JUMPI DUP1 PUSH1 0x1F LT PUSH2 0x7E7 JUMPI PUSH2 0x100 DUP1 DUP4 SLOAD DIV MUL DUP4 MSTORE SWAP2 PUSH1 0x20 ADD SWAP2 PUSH2 0x810 JUMP JUMPDEST DUP3 ADD SWAP2 SWAP1 PUSH0 MSTORE PUSH1 0x20 PUSH0 KECCAK256 SWAP1 JUMPDEST DUP2 SLOAD DUP2 MSTORE SWAP1 PUSH1 0x1 ADD SWAP1 PUSH1 0x20 ADD DUP1 DUP4 GT PUSH2 0x7F3 JUMPI DUP3 SWAP1 SUB PUSH1 0x1F AND DUP3 ADD SWAP2 JUMPDEST POP POP POP POP POP DUP2 MSTORE PUSH1 0x20 ADD PUSH1 0x3 DUP3 ADD DUP1 SLOAD PUSH2 0x829 SWAP1 PUSH2 0x1956 JUMP JUMPDEST DUP1 PUSH1 0x1F ADD PUSH1 0x20 DUP1 SWAP2 DIV MUL PUSH1 0x20 ADD PUSH1 0x40 MLOAD SWAP1 DUP2 ADD PUSH1 0x40 MSTORE DUP1 SWAP3 SWAP2 SWAP1 DUP2 DUP2 MSTORE PUSH1 0x20 ADD DUP3 DUP1 SLOAD PUSH2 0x855 SWAP1 PUSH2 0x1956 JUMP JUMPDEST DUP1 ISZERO PUSH2 0x8A0 JUMPI DUP1 PUSH1 0x1F LT PUSH2 0x877 JUMPI PUSH2 0x100 DUP1 DUP4 SLOAD DIV MUL DUP4 MSTORE SWAP2 PUSH1 0x20 ADD SWAP2 PUSH2 0x8A0 JUMP JUMPDEST DUP3 ADD SWAP2 SWAP1 PUSH0 MSTORE PUSH1 0x20 PUSH0 KECCAK256 SWAP1 JUMPDEST DUP2 SLOAD DUP2 MSTORE SWAP1 PUSH1 0x1 ADD SWAP1 PUSH1 0x20 ADD DUP1 DUP4 GT PUSH2 0x883 JUMPI DUP3 SWAP1 SUB PUSH1 0x1F AND DUP3 ADD SWAP2 JUMPDEST POP POP POP POP POP DUP2 MSTORE PUSH1 0x20 ADD PUSH1 0x4 DUP3 ADD PUSH0 SWAP1 SLOAD SWAP1 PUSH2 0x100 EXP SWAP1 DIV PUSH1 0xFF AND ISZERO ISZERO ISZERO ISZERO DUP2 MSTORE PUSH1 0x20 ADD PUSH1 0x5 DUP3 ADD DUP1 SLOAD PUSH2 0x8D3 SWAP1 PUSH2 0x1956 JUMP JUMPDEST DUP1 PUSH1 0x1F ADD PUSH1 0x20 DUP1 SWAP2 DIV MUL PUSH1 0x20 ADD PUSH1 0x40 MLOAD SWAP1 DUP2 ADD PUSH1 0x40 MSTORE DUP1 SWAP3 SWAP2 SWAP1 DUP2 DUP2 MSTORE PUSH1 0x20 ADD DUP3 DUP1 SLOAD PUSH2 0x8FF SWAP1 PUSH2 0x1956 JUMP JUMPDEST DUP1 ISZERO PUSH2 0x94A JUMPI DUP1 PUSH1 0x1F LT PUSH2 0x921 JUMPI PUSH2 0x100 DUP1 DUP4 SLOAD DIV MUL DUP4 MSTORE SWAP2 PUSH1 0x20 ADD SWAP2 PUSH2 0x94A JUMP JUMPDEST DUP3 ADD SWAP2 SWAP1 PUSH0 MSTORE PUSH1 0x20 PUSH0 KECCAK256 SWAP1 JUMPDEST DUP2 SLOAD DUP2 MSTORE SWAP1 PUSH1 0x1 ADD SWAP1 PUSH1 0x20 ADD DUP1 DUP4 GT PUSH2 0x92D JUMPI DUP3 SWAP1 SUB PUSH1 0x1F AND DUP3 ADD SWAP2 JUMPDEST POP POP POP POP POP DUP2 MSTORE POP POP SWAP1 POP SWAP2 SWAP1 POP JUMP JUMPDEST PUSH32 0x8EB467F061CA67F42A2D2CA4A346FC9FB645EFC0BA75056EE9F71C3A0CCC10A8 DUP2 JUMP JUMPDEST PUSH32 0x8EB467F061CA67F42A2D2CA4A346FC9FB645EFC0BA75056EE9F71C3A0CCC10A8 PUSH2 0x9A8 DUP2 PUSH2 0xF7C JUMP JUMPDEST PUSH0 PUSH1 0x1 PUSH0 DUP7 DUP2 MSTORE PUSH1 0x20 ADD SWAP1 DUP2 MSTORE PUSH1 0x20 ADD PUSH0 KECCAK256 PUSH0 ADD SLOAD EQ PUSH2 0x9FD JUMPI PUSH1 0x40 MLOAD PUSH32 0x8C379A000000000000000000000000000000000000000000000000000000000 DUP2 MSTORE PUSH1 0x4 ADD PUSH2 0x9F4 SWAP1 PUSH2 0x1D03 JUMP JUMPDEST PUSH1 0x40 MLOAD DUP1 SWAP2 SUB SWAP1 REVERT JUMPDEST PUSH1 0x40 MLOAD DUP1 PUSH1 0xC0 ADD PUSH1 0x40 MSTORE DUP1 DUP6 DUP2 MSTORE PUSH1 0x20 ADD DUP5 DUP2 MSTORE PUSH1 0x20 ADD DUP4 DUP2 MSTORE PUSH1 0x20 ADD DUP4 DUP2 MSTORE PUSH1 0x20 ADD PUSH0 ISZERO ISZERO DUP2 MSTORE PUSH1 0x20 ADD PUSH1 0x40 MLOAD DUP1 PUSH1 0x40 ADD PUSH1 0x40 MSTORE DUP1 PUSH1 0x8 DUP2 MSTORE PUSH1 0x20 ADD PUSH32 0x50726F6475636564000000000000000000000000000000000000000000000000 DUP2 MSTORE POP DUP2 MSTORE POP PUSH1 0x1 PUSH0 DUP7 DUP2 MSTORE PUSH1 0x20 ADD SWAP1 DUP2 MSTORE PUSH1 0x20 ADD PUSH0 KECCAK256 PUSH0 DUP3 ADD MLOAD DUP2 PUSH0 ADD SSTORE PUSH1 0x20 DUP3 ADD MLOAD DUP2 PUSH1 0x1 ADD SWAP1 DUP2 PUSH2 0xA8F SWAP2 SWAP1 PUSH2 0x1B26 JUMP JUMPDEST POP PUSH1 0x40 DUP3 ADD MLOAD DUP2 PUSH1 0x2 ADD SWAP1 DUP2 PUSH2 0xAA5 SWAP2 SWAP1 PUSH2 0x1B26 JUMP JUMPDEST POP PUSH1 0x60 DUP3 ADD MLOAD DUP2 PUSH1 0x3 ADD SWAP1 DUP2 PUSH2 0xABB SWAP2 SWAP1 PUSH2 0x1B26 JUMP JUMPDEST POP PUSH1 0x80 DUP3 ADD MLOAD DUP2 PUSH1 0x4 ADD PUSH0 PUSH2 0x100 EXP DUP2 SLOAD DUP2 PUSH1 0xFF MUL NOT AND SWAP1 DUP4 ISZERO ISZERO MUL OR SWAP1 SSTORE POP PUSH1 0xA0 DUP3 ADD MLOAD DUP2 PUSH1 0x5 ADD SWAP1 DUP2 PUSH2 0xAF0 SWAP2 SWAP1 PUSH2 0x1B26 JUMP JUMPDEST POP SWAP1 POP POP PUSH32 0x15B6890AF0E66873B46F545C2578A72329A3F376146D1847DD82E30D4B37BFD6 DUP5 DUP5 DUP5 PUSH1 0x40 MLOAD PUSH2 0xB27 SWAP4 SWAP3 SWAP2 SWAP1 PUSH2 0x1D21 JUMP JUMPDEST PUSH1 0x40 MLOAD DUP1 SWAP2 SUB SWAP1 LOG1 POP POP POP POP JUMP JUMPDEST PUSH2 0xB3E DUP3 PUSH2 0x3A9 JUMP JUMPDEST PUSH2 0xB47 DUP2 PUSH2 0xF7C JUMP JUMPDEST PUSH2 0xB51 DUP4 DUP4 PUSH2 0x1080 JUMP JUMPDEST POP POP POP POP JUMP JUMPDEST PUSH32 0x20B5F7AC978E5D6199DE06401411960DFA81D2F762655F6206BDC61D46FC19E6 PUSH2 0xB81 DUP2 PUSH2 0xF7C JUMP JUMPDEST PUSH0 PUSH1 0x1 PUSH0 DUP5 DUP2 MSTORE PUSH1 0x20 ADD SWAP1 DUP2 MSTORE PUSH1 0x20 ADD PUSH0 KECCAK256 PUSH0 ADD SLOAD SUB PUSH2 0xBD6 JUMPI PUSH1 0x40 MLOAD PUSH32 0x8C379A000000000000000000000000000000000000000000000000000000000 DUP2 MSTORE PUSH1 0x4 ADD PUSH2 0xBCD SWAP1 PUSH2 0x18A3 JUMP JUMPDEST PUSH1 0x40 MLOAD DUP1 SWAP2 SUB SWAP1 REVERT JUMPDEST PUSH1 0x1 DUP1 PUSH0 DUP5 DUP2 MSTORE PUSH1 0x20 ADD SWAP1 DUP2 MSTORE PUSH1 0x20 ADD PUSH0 KECCAK256 PUSH1 0x4 ADD PUSH0 PUSH2 0x100 EXP DUP2 SLOAD DUP2 PUSH1 0xFF MUL NOT AND SWAP1 DUP4 ISZERO ISZERO MUL OR SWAP1 SSTORE POP PUSH1 0x40 MLOAD DUP1 PUSH1 0x40 ADD PUSH1 0x40 MSTORE DUP1 PUSH1 0x8 DUP2 MSTORE PUSH1 0x20 ADD PUSH32 0x526563616C6C6564000000000000000000000000000000000000000000000000 DUP2 MSTORE POP PUSH1 0x1 PUSH0 DUP5 DUP2 MSTORE PUSH1 0x20 ADD SWAP1 DUP2 MSTORE PUSH1 0x20 ADD PUSH0 KECCAK256 PUSH1 0x5 ADD SWAP1 DUP2 PUSH2 0xC57 SWAP2 SWAP1 PUSH2 0x1B26 JUMP JUMPDEST POP PUSH32 0x6E6436AC1C0629CCA39B4BC5A42892C686A397BADE5737A5B2AE50770E990CD6 DUP3 PUSH1 0x40 MLOAD PUSH2 0xC87 SWAP2 SWAP1 PUSH2 0x1D64 JUMP JUMPDEST PUSH1 0x40 MLOAD DUP1 SWAP2 SUB SWAP1 LOG1 POP POP JUMP JUMPDEST PUSH32 0xFBD454F36A7E1A388BD6FC3AB10D434AA4578F811ACBBCF33AFB1C697486313C DUP2 JUMP JUMPDEST PUSH1 0x1 PUSH1 0x20 MSTORE DUP1 PUSH0 MSTORE PUSH1 0x40 PUSH0 KECCAK256 PUSH0 SWAP2 POP SWAP1 POP DUP1 PUSH0 ADD SLOAD SWAP1 DUP1 PUSH1 0x1 ADD DUP1 SLOAD PUSH2 0xCDC SWAP1 PUSH2 0x1956 JUMP JUMPDEST DUP1 PUSH1 0x1F ADD PUSH1 0x20 DUP1 SWAP2 DIV MUL PUSH1 0x20 ADD PUSH1 0x40 MLOAD SWAP1 DUP2 ADD PUSH1 0x40 MSTORE DUP1 SWAP3 SWAP2 SWAP1 DUP2 DUP2 MSTORE PUSH1 0x20 ADD DUP3 DUP1 SLOAD PUSH2 0xD08 SWAP1 PUSH2 0x1956 JUMP JUMPDEST DUP1 ISZERO PUSH2 0xD53 JUMPI DUP1 PUSH1 0x1F LT PUSH2 0xD2A JUMPI PUSH2 0x100 DUP1 DUP4 SLOAD DIV MUL DUP4 MSTORE SWAP2 PUSH1 0x20 ADD SWAP2 PUSH2 0xD53 JUMP JUMPDEST DUP3 ADD SWAP2 SWAP1 PUSH0 MSTORE PUSH1 0x20 PUSH0 KECCAK256 SWAP1 JUMPDEST DUP2 SLOAD DUP2 MSTORE SWAP1 PUSH1 0x1 ADD SWAP1 PUSH1 0x20 ADD DUP1 DUP4 GT PUSH2 0xD36 JUMPI DUP3 SWAP1 SUB PUSH1 0x1F AND DUP3 ADD SWAP2 JUMPDEST POP POP POP POP POP SWAP1 DUP1 PUSH1 0x2 ADD DUP1 SLOAD PUSH2 0xD68 SWAP1 PUSH2 0x1956 JUMP JUMPDEST DUP1 PUSH1 0x1F ADD PUSH1 0x20 DUP1 SWAP2 DIV MUL PUSH1 0x20 ADD PUSH1 0x40 MLOAD SWAP1 DUP2 ADD PUSH1 0x40 MSTORE DUP1 SWAP3 SWAP2 SWAP1 DUP2 DUP2 MSTORE PUSH1 0x20 ADD DUP3 DUP1 SLOAD PUSH2 0xD94 SWAP1 PUSH2 0x1956 JUMP JUMPDEST DUP1 ISZERO PUSH2 0xDDF JUMPI DUP1 PUSH1 0x1F LT PUSH2 0xDB6 JUMPI PUSH2 0x100 DUP1 DUP4 SLOAD DIV MUL DUP4 MSTORE SWAP2 PUSH1 0x20 ADD SWAP2 PUSH2 0xDDF JUMP JUMPDEST DUP3 ADD SWAP2 SWAP1 PUSH0 MSTORE PUSH1 0x20 PUSH0 KECCAK256 SWAP1 JUMPDEST DUP2 SLOAD DUP2 MSTORE SWAP1 PUSH1 0x1 ADD SWAP1 PUSH1 0x20 ADD DUP1 DUP4 GT PUSH2 0xDC2 JUMPI DUP3 SWAP1 SUB PUSH1 0x1F AND DUP3 ADD SWAP2 JUMPDEST POP POP POP POP POP SWAP1 DUP1 PUSH1 0x3 ADD DUP1 SLOAD PUSH2 0xDF4 SWAP1 PUSH2 0x1956 JUMP JUMPDEST DUP1 PUSH1 0x1F ADD PUSH1 0x20 DUP1 SWAP2 DIV MUL PUSH1 0x20 ADD PUSH1 0x40 MLOAD SWAP1 DUP2 ADD PUSH1 0x40 MSTORE DUP1 SWAP3 SWAP2 SWAP1 DUP2 DUP2 MSTORE PUSH1 0x20 ADD DUP3 DUP1 SLOAD PUSH2 0xE20 SWAP1 PUSH2 0x1956 JUMP JUMPDEST DUP1 ISZERO PUSH2 0xE6B JUMPI DUP1 PUSH1 0x1F LT PUSH2 0xE42 JUMPI PUSH2 0x100 DUP1 DUP4 SLOAD DIV MUL DUP4 MSTORE SWAP2 PUSH1 0x20 ADD SWAP2 PUSH2 0xE6B JUMP JUMPDEST DUP3 ADD SWAP2 SWAP1 PUSH0 MSTORE PUSH1 0x20 PUSH0 KECCAK256 SWAP1 JUMPDEST DUP2 SLOAD DUP2 MSTORE SWAP1 PUSH1 0x1 ADD SWAP1 PUSH1 0x20 ADD DUP1 DUP4 GT PUSH2 0xE4E JUMPI DUP3 SWAP1 SUB PUSH1 0x1F AND DUP3 ADD SWAP2 JUMPDEST POP POP POP POP POP SWAP1 DUP1 PUSH1 0x4 ADD PUSH0 SWAP1 SLOAD SWAP1 PUSH2 0x100 EXP SWAP1 DIV PUSH1 0xFF AND SWAP1 DUP1 PUSH1 0x5 ADD DUP1 SLOAD PUSH2 0xE92 SWAP1 PUSH2 0x1956 JUMP JUMPDEST DUP1 PUSH1 0x1F ADD PUSH1 0x20 DUP1 SWAP2 DIV MUL PUSH1 0x20 ADD PUSH1 0x40 MLOAD SWAP1 DUP2 ADD PUSH1 0x40 MSTORE DUP1 SWAP3 SWAP2 SWAP1 DUP2 DUP2 MSTORE PUSH1 0x20 ADD DUP3 DUP1 SLOAD PUSH2 0xEBE SWAP1 PUSH2 0x1956 JUMP JUMPDEST DUP1 ISZERO PUSH2 0xF09 JUMPI DUP1 PUSH1 0x1F LT PUSH2 0xEE0 JUMPI PUSH2 0x100 DUP1 DUP4 SLOAD DIV MUL DUP4 MSTORE SWAP2 PUSH1 0x20 ADD SWAP2 PUSH2 0xF09 JUMP JUMPDEST DUP3 ADD SWAP2 SWAP1 PUSH0 MSTORE PUSH1 0x20 PUSH0 KECCAK256 SWAP1 JUMPDEST DUP2 SLOAD DUP2 MSTORE SWAP1 PUSH1 0x1 ADD SWAP1 PUSH1 0x20 ADD DUP1 DUP4 GT PUSH2 0xEEC JUMPI DUP3 SWAP1 SUB PUSH1 0x1F AND DUP3 ADD SWAP2 JUMPDEST POP POP POP POP POP SWAP1 POP DUP7 JUMP JUMPDEST PUSH0 PUSH32 0x1FFC9A700000000000000000000000000000000000000000000000000000000 PUSH28 0xFFFFFFFFFFFFFFFFFFFFFFFFFFFFFFFFFFFFFFFFFFFFFFFFFFFFFFFF NOT AND DUP3 PUSH28 0xFFFFFFFFFFFFFFFFFFFFFFFFFFFFFFFFFFFFFFFFFFFFFFFFFFFFFFFF NOT AND EQ SWAP1 POP SWAP2 SWAP1 POP JUMP JUMPDEST PUSH2 0xF8D DUP2 PUSH2 0xF88 PUSH2 0x1079 JUMP JUMPDEST PUSH2 0x1169 JUMP JUMPDEST POP JUMP JUMPDEST PUSH0 PUSH2 0xF9B DUP4 DUP4 PUSH2 0x60E JUMP JUMPDEST PUSH2 0x106F JUMPI PUSH1 0x1 PUSH0 PUSH0 DUP6 DUP2 MSTORE PUSH1 0x20 ADD SWAP1 DUP2 MSTORE PUSH1 0x20 ADD PUSH0 KECCAK256 PUSH0 ADD PUSH0 DUP5 PUSH20 0xFFFFFFFFFFFFFFFFFFFFFFFFFFFFFFFFFFFFFFFF AND PUSH20 0xFFFFFFFFFFFFFFFFFFFFFFFFFFFFFFFFFFFFFFFF AND DUP2 MSTORE PUSH1 0x20 ADD SWAP1 DUP2 MSTORE PUSH1 0x20 ADD PUSH0 KECCAK256 PUSH0 PUSH2 0x100 EXP DUP2 SLOAD DUP2 PUSH1 0xFF MUL NOT AND SWAP1 DUP4 ISZERO ISZERO MUL OR SWAP1 SSTORE POP PUSH2 0x100C PUSH2 0x1079 JUMP JUMPDEST PUSH20 0xFFFFFFFFFFFFFFFFFFFFFFFFFFFFFFFFFFFFFFFF AND DUP3 PUSH20 0xFFFFFFFFFFFFFFFFFFFFFFFFFFFFFFFFFFFFFFFF AND DUP5 PUSH32 0x2F8788117E7EFF1D82E926EC794901D17C78024A50270940304540A733656F0D PUSH1 0x40 MLOAD PUSH1 0x40 MLOAD DUP1 SWAP2 SUB SWAP1 LOG4 PUSH1 0x1 SWAP1 POP PUSH2 0x1073 JUMP JUMPDEST PUSH0 SWAP1 POP JUMPDEST SWAP3 SWAP2 POP POP JUMP JUMPDEST PUSH0 CALLER SWAP1 POP SWAP1 JUMP JUMPDEST PUSH0 PUSH2 0x108B DUP4 DUP4 PUSH2 0x60E JUMP JUMPDEST ISZERO PUSH2 0x115F JUMPI PUSH0 PUSH0 PUSH0 DUP6 DUP2 MSTORE PUSH1 0x20 ADD SWAP1 DUP2 MSTORE PUSH1 0x20 ADD PUSH0 KECCAK256 PUSH0 ADD PUSH0 DUP5 PUSH20 0xFFFFFFFFFFFFFFFFFFFFFFFFFFFFFFFFFFFFFFFF AND PUSH20 0xFFFFFFFFFFFFFFFFFFFFFFFFFFFFFFFFFFFFFFFF AND DUP2 MSTORE PUSH1 0x20 ADD SWAP1 DUP2 MSTORE PUSH1 0x20 ADD PUSH0 KECCAK256 PUSH0 PUSH2 0x100 EXP DUP2 SLOAD DUP2 PUSH1 0xFF MUL NOT AND SWAP1 DUP4 ISZERO ISZERO MUL OR SWAP1 SSTORE POP PUSH2 0x10FC PUSH2 0x1079 JUMP JUMPDEST PUSH20 0xFFFFFFFFFFFFFFFFFFFFFFFFFFFFFFFFFFFFFFFF AND DUP3 PUSH20 0xFFFFFFFFFFFFFFFFFFFFFFFFFFFFFFFFFFFFFFFF AND DUP5 PUSH32 0xF6391F5C32D9C69D2A47EA670B442974B53935D1EDC7FD64EB21E047A839171B PUSH1 0x40 MLOAD PUSH1 0x40 MLOAD DUP1 SWAP2 SUB SWAP1 LOG4 PUSH1 0x1 SWAP1 POP PUSH2 0x1163 JUMP JUMPDEST PUSH0 SWAP1 POP JUMPDEST SWAP3 SWAP2 POP POP JUMP JUMPDEST PUSH2 0x1173 DUP3 DUP3 PUSH2 0x60E JUMP JUMPDEST PUSH2 0x11B6 JUMPI DUP1 DUP3 PUSH1 0x40 MLOAD PUSH32 0xE2517D3F00000000000000000000000000000000000000000000000000000000 DUP2 MSTORE PUSH1 0x4 ADD PUSH2 0x11AD SWAP3 SWAP2 SWAP1 PUSH2 0x1D8C JUMP JUMPDEST PUSH1 0x40 MLOAD DUP1 SWAP2 SUB SWAP1 REVERT JUMPDEST POP POP JUMP JUMPDEST PUSH1 0x40 MLOAD DUP1 PUSH1 0xC0 ADD PUSH1 0x40 MSTORE DUP1 PUSH0 DUP2 MSTORE PUSH1 0x20 ADD PUSH1 0x60 DUP2 MSTORE PUSH1 0x20 ADD PUSH1 0x60 DUP2 MSTORE PUSH1 0x20 ADD PUSH1 0x60 DUP2 MSTORE PUSH1 0x20 ADD PUSH0 ISZERO ISZERO DUP2 MSTORE PUSH1 0x20 ADD PUSH1 0x60 DUP2 MSTORE POP SWAP1 JUMP JUMPDEST PUSH0 PUSH1 0x40 MLOAD SWAP1 POP SWAP1 JUMP JUMPDEST PUSH0 PUSH0 REVERT JUMPDEST PUSH0 PUSH0 REVERT JUMPDEST PUSH0 PUSH32 0xFFFFFFFF00000000000000000000000000000000000000000000000000000000 DUP3 AND SWAP1 POP SWAP2 SWAP1 POP JUMP JUMPDEST PUSH2 0x1235 DUP2 PUSH2 0x1201 JUMP JUMPDEST DUP2 EQ PUSH2 0x123F JUMPI PUSH0 PUSH0 REVERT JUMPDEST POP JUMP JUMPDEST PUSH0 DUP2 CALLDATALOAD SWAP1 POP PUSH2 0x1250 DUP2 PUSH2 0x122C JUMP JUMPDEST SWAP3 SWAP2 POP POP JUMP JUMPDEST PUSH0 PUSH1 0x20 DUP3 DUP5 SUB SLT ISZERO PUSH2 0x126B JUMPI PUSH2 0x126A PUSH2 0x11F9 JUMP JUMPDEST JUMPDEST PUSH0 PUSH2 0x1278 DUP5 DUP3 DUP6 ADD PUSH2 0x1242 JUMP JUMPDEST SWAP2 POP POP SWAP3 SWAP2 POP POP JUMP JUMPDEST PUSH0 DUP2 ISZERO ISZERO SWAP1 POP SWAP2 SWAP1 POP JUMP JUMPDEST PUSH2 0x1295 DUP2 PUSH2 0x1281 JUMP JUMPDEST DUP3 MSTORE POP POP JUMP JUMPDEST PUSH0 PUSH1 0x20 DUP3 ADD SWAP1 POP PUSH2 0x12AE PUSH0 DUP4 ADD DUP5 PUSH2 0x128C JUMP JUMPDEST SWAP3 SWAP2 POP POP JUMP JUMPDEST PUSH0 DUP2 SWAP1 POP SWAP2 SWAP1 POP JUMP JUMPDEST PUSH2 0x12C6 DUP2 PUSH2 0x12B4 JUMP JUMPDEST DUP3 MSTORE POP POP JUMP JUMPDEST PUSH0 PUSH1 0x20 DUP3 ADD SWAP1 POP PUSH2 0x12DF PUSH0 DUP4 ADD DUP5 PUSH2 0x12BD JUMP JUMPDEST SWAP3 SWAP2 POP POP JUMP JUMPDEST PUSH2 0x12EE DUP2 PUSH2 0x12B4 JUMP JUMPDEST DUP2 EQ PUSH2 0x12F8 JUMPI PUSH0 PUSH0 REVERT JUMPDEST POP JUMP JUMPDEST PUSH0 DUP2 CALLDATALOAD SWAP1 POP PUSH2 0x1309 DUP2 PUSH2 0x12E5 JUMP JUMPDEST SWAP3 SWAP2 POP POP JUMP JUMPDEST PUSH0 PUSH1 0x20 DUP3 DUP5 SUB SLT ISZERO PUSH2 0x1324 JUMPI PUSH2 0x1323 PUSH2 0x11F9 JUMP JUMPDEST JUMPDEST PUSH0 PUSH2 0x1331 DUP5 DUP3 DUP6 ADD PUSH2 0x12FB JUMP JUMPDEST SWAP2 POP POP SWAP3 SWAP2 POP POP JUMP JUMPDEST PUSH0 PUSH20 0xFFFFFFFFFFFFFFFFFFFFFFFFFFFFFFFFFFFFFFFF DUP3 AND SWAP1 POP SWAP2 SWAP1 POP JUMP JUMPDEST PUSH0 PUSH2 0x1363 DUP3 PUSH2 0x133A JUMP JUMPDEST SWAP1 POP SWAP2 SWAP1 POP JUMP JUMPDEST PUSH2 0x1373 DUP2 PUSH2 0x1359 JUMP JUMPDEST DUP2 EQ PUSH2 0x137D JUMPI PUSH0 PUSH0 REVERT JUMPDEST POP JUMP JUMPDEST PUSH0 DUP2 CALLDATALOAD SWAP1 POP PUSH2 0x138E DUP2 PUSH2 0x136A JUMP JUMPDEST SWAP3 SWAP2 POP POP JUMP JUMPDEST PUSH0 PUSH0 PUSH1 0x40 DUP4 DUP6 SUB SLT ISZERO PUSH2 0x13AA JUMPI PUSH2 0x13A9 PUSH2 0x11F9 JUMP JUMPDEST JUMPDEST PUSH0 PUSH2 0x13B7 DUP6 DUP3 DUP7 ADD PUSH2 0x12FB JUMP JUMPDEST SWAP3 POP POP PUSH1 0x20 PUSH2 0x13C8 DUP6 DUP3 DUP7 ADD PUSH2 0x1380 JUMP JUMPDEST SWAP2 POP POP SWAP3 POP SWAP3 SWAP1 POP JUMP JUMPDEST PUSH0 DUP2 SWAP1 POP SWAP2 SWAP1 POP JUMP JUMPDEST PUSH2 0x13E4 DUP2 PUSH2 0x13D2 JUMP JUMPDEST DUP2 EQ PUSH2 0x13EE JUMPI PUSH0 PUSH0 REVERT JUMPDEST POP JUMP JUMPDEST PUSH0 DUP2 CALLDATALOAD SWAP1 POP PUSH2 0x13FF DUP2 PUSH2 0x13DB JUMP JUMPDEST SWAP3 SWAP2 POP POP JUMP JUMPDEST PUSH0 PUSH0 REVERT JUMPDEST PUSH0 PUSH0 REVERT JUMPDEST PUSH0 PUSH1 0x1F NOT PUSH1 0x1F DUP4 ADD AND SWAP1 POP SWAP2 SWAP1 POP JUMP JUMPDEST PUSH32 0x4E487B7100000000000000000000000000000000000000000000000000000000 PUSH0 MSTORE PUSH1 0x41 PUSH1 0x4 MSTORE PUSH1 0x24 PUSH0 REVERT JUMPDEST PUSH2 0x1453 DUP3 PUSH2 0x140D JUMP JUMPDEST DUP2 ADD DUP2 DUP2 LT PUSH8 0xFFFFFFFFFFFFFFFF DUP3 GT OR ISZERO PUSH2 0x1472 JUMPI PUSH2 0x1471 PUSH2 0x141D JUMP JUMPDEST JUMPDEST DUP1 PUSH1 0x40 MSTORE POP POP POP JUMP JUMPDEST PUSH0 PUSH2 0x1484 PUSH2 0x11F0 JUMP JUMPDEST SWAP1 POP PUSH2 0x1490 DUP3 DUP3 PUSH2 0x144A JUMP JUMPDEST SWAP2 SWAP1 POP JUMP JUMPDEST PUSH0 PUSH8 0xFFFFFFFFFFFFFFFF DUP3 GT ISZERO PUSH2 0x14AF JUMPI PUSH2 0x14AE PUSH2 0x141D JUMP JUMPDEST JUMPDEST PUSH2 0x14B8 DUP3 PUSH2 0x140D JUMP JUMPDEST SWAP1 POP PUSH1 0x20 DUP2 ADD SWAP1 POP SWAP2 SWAP1 POP JUMP JUMPDEST DUP3 DUP2 DUP4 CALLDATACOPY PUSH0 DUP4 DUP4 ADD MSTORE POP POP POP JUMP JUMPDEST PUSH0 PUSH2 0x14E5 PUSH2 0x14E0 DUP5 PUSH2 0x1495 JUMP JUMPDEST PUSH2 0x147B JUMP JUMPDEST SWAP1 POP DUP3 DUP2 MSTORE PUSH1 0x20 DUP2 ADD DUP5 DUP5 DUP5 ADD GT ISZERO PUSH2 0x1501 JUMPI PUSH2 0x1500 PUSH2 0x1409 JUMP JUMPDEST JUMPDEST PUSH2 0x150C DUP5 DUP3 DUP6 PUSH2 0x14C5 JUMP JUMPDEST POP SWAP4 SWAP3 POP POP POP JUMP JUMPDEST PUSH0 DUP3 PUSH1 0x1F DUP4 ADD SLT PUSH2 0x1528 JUMPI PUSH2 0x1527 PUSH2 0x1405 JUMP JUMPDEST JUMPDEST DUP2 CALLDATALOAD PUSH2 0x1538 DUP5 DUP3 PUSH1 0x20 DUP7 ADD PUSH2 0x14D3 JUMP JUMPDEST SWAP2 POP POP SWAP3 SWAP2 POP POP JUMP JUMPDEST PUSH0 PUSH0 PUSH1 0x40 DUP4 DUP6 SUB SLT ISZERO PUSH2 0x1557 JUMPI PUSH2 0x1556 PUSH2 0x11F9 JUMP JUMPDEST JUMPDEST PUSH0 PUSH2 0x1564 DUP6 DUP3 DUP7 ADD PUSH2 0x13F1 JUMP JUMPDEST SWAP3 POP POP PUSH1 0x20 DUP4 ADD CALLDATALOAD PUSH8 0xFFFFFFFFFFFFFFFF DUP2 GT ISZERO PUSH2 0x1585 JUMPI PUSH2 0x1584 PUSH2 0x11FD JUMP JUMPDEST JUMPDEST PUSH2 0x1591 DUP6 DUP3 DUP7 ADD PUSH2 0x1514 JUMP JUMPDEST SWAP2 POP POP SWAP3 POP SWAP3 SWAP1 POP JUMP JUMPDEST PUSH0 PUSH1 0x20 DUP3 DUP5 SUB SLT ISZERO PUSH2 0x15B0 JUMPI PUSH2 0x15AF PUSH2 0x11F9 JUMP JUMPDEST JUMPDEST PUSH0 PUSH2 0x15BD DUP5 DUP3 DUP6 ADD PUSH2 0x13F1 JUMP JUMPDEST SWAP2 POP POP SWAP3 SWAP2 POP POP JUMP JUMPDEST PUSH2 0x15CF DUP2 PUSH2 0x13D2 JUMP JUMPDEST DUP3 MSTORE POP POP JUMP JUMPDEST PUSH0 DUP2 MLOAD SWAP1 POP SWAP2 SWAP1 POP JUMP JUMPDEST PUSH0 DUP3 DUP3 MSTORE PUSH1 0x20 DUP3 ADD SWAP1 POP SWAP3 SWAP2 POP POP JUMP JUMPDEST DUP3 DUP2 DUP4 MCOPY PUSH0 DUP4 DUP4 ADD MSTORE POP POP POP JUMP JUMPDEST PUSH0 PUSH2 0x1607 DUP3 PUSH2 0x15D5 JUMP JUMPDEST PUSH2 0x1611 DUP2 DUP6 PUSH2 0x15DF JUMP JUMPDEST SWAP4 POP PUSH2 0x1621 DUP2 DUP6 PUSH1 0x20 DUP7 ADD PUSH2 0x15EF JUMP JUMPDEST PUSH2 0x162A DUP2 PUSH2 0x140D JUMP JUMPDEST DUP5 ADD SWAP2 POP POP SWAP3 SWAP2 POP POP JUMP JUMPDEST PUSH2 0x163E DUP2 PUSH2 0x1281 JUMP JUMPDEST DUP3 MSTORE POP POP JUMP JUMPDEST PUSH0 PUSH1 0xC0 DUP4 ADD PUSH0 DUP4 ADD MLOAD PUSH2 0x1659 PUSH0 DUP7 ADD DUP3 PUSH2 0x15C6 JUMP JUMPDEST POP PUSH1 0x20 DUP4 ADD MLOAD DUP5 DUP3 SUB PUSH1 0x20 DUP7 ADD MSTORE PUSH2 0x1671 DUP3 DUP3 PUSH2 0x15FD JUMP JUMPDEST SWAP2 POP POP PUSH1 0x40 DUP4 ADD MLOAD DUP5 DUP3 SUB PUSH1 0x40 DUP7 ADD MSTORE PUSH2 0x168B DUP3 DUP3 PUSH2 0x15FD JUMP JUMPDEST SWAP2 POP POP PUSH1 0x60 DUP4 ADD MLOAD DUP5 DUP3 SUB PUSH1 0x60 DUP7 ADD MSTORE PUSH2 0x16A5 DUP3 DUP3 PUSH2 0x15FD JUMP JUMPDEST SWAP2 POP POP PUSH1 0x80 DUP4 ADD MLOAD PUSH2 0x16BA PUSH1 0x80 DUP7 ADD DUP3 PUSH2 0x1635 JUMP JUMPDEST POP PUSH1 0xA0 DUP4 ADD MLOAD DUP5 DUP3 SUB PUSH1 0xA0 DUP7 ADD MSTORE PUSH2 0x16D2 DUP3 DUP3 PUSH2 0x15FD JUMP JUMPDEST SWAP2 POP POP DUP1 SWAP2 POP POP SWAP3 SWAP2 POP POP JUMP JUMPDEST PUSH0 PUSH1 0x20 DUP3 ADD SWAP1 POP DUP2 DUP2 SUB PUSH0 DUP4 ADD MSTORE PUSH2 0x16F7 DUP2 DUP5 PUSH2 0x1644 JUMP JUMPDEST SWAP1 POP SWAP3 SWAP2 POP POP JUMP JUMPDEST PUSH0 PUSH0 PUSH0 PUSH1 0x60 DUP5 DUP7 SUB SLT ISZERO PUSH2 0x1716 JUMPI PUSH2 0x1715 PUSH2 0x11F9 JUMP JUMPDEST JUMPDEST PUSH0 PUSH2 0x1723 DUP7 DUP3 DUP8 ADD PUSH2 0x13F1 JUMP JUMPDEST SWAP4 POP POP PUSH1 0x20 DUP5 ADD CALLDATALOAD PUSH8 0xFFFFFFFFFFFFFFFF DUP2 GT ISZERO PUSH2 0x1744 JUMPI PUSH2 0x1743 PUSH2 0x11FD JUMP JUMPDEST JUMPDEST PUSH2 0x1750 DUP7 DUP3 DUP8 ADD PUSH2 0x1514 JUMP JUMPDEST SWAP3 POP POP PUSH1 0x40 DUP5 ADD CALLDATALOAD PUSH8 0xFFFFFFFFFFFFFFFF DUP2 GT ISZERO PUSH2 0x1771 JUMPI PUSH2 0x1770 PUSH2 0x11FD JUMP JUMPDEST JUMPDEST PUSH2 0x177D DUP7 DUP3 DUP8 ADD PUSH2 0x1514 JUMP JUMPDEST SWAP2 POP POP SWAP3 POP SWAP3 POP SWAP3 JUMP JUMPDEST PUSH2 0x1790 DUP2 PUSH2 0x13D2 JUMP JUMPDEST DUP3 MSTORE POP POP JUMP JUMPDEST PUSH0 DUP3 DUP3 MSTORE PUSH1 0x20 DUP3 ADD SWAP1 POP SWAP3 SWAP2 POP POP JUMP JUMPDEST PUSH0 PUSH2 0x17B0 DUP3 PUSH2 0x15D5 JUMP JUMPDEST PUSH2 0x17BA DUP2 DUP6 PUSH2 0x1796 JUMP JUMPDEST SWAP4 POP PUSH2 0x17CA DUP2 DUP6 PUSH1 0x20 DUP7 ADD PUSH2 0x15EF JUMP JUMPDEST PUSH2 0x17D3 DUP2 PUSH2 0x140D JUMP JUMPDEST DUP5 ADD SWAP2 POP POP SWAP3 SWAP2 POP POP JUMP JUMPDEST PUSH0 PUSH1 0xC0 DUP3 ADD SWAP1 POP PUSH2 0x17F1 PUSH0 DUP4 ADD DUP10 PUSH2 0x1787 JUMP JUMPDEST DUP2 DUP2 SUB PUSH1 0x20 DUP4 ADD MSTORE PUSH2 0x1803 DUP2 DUP9 PUSH2 0x17A6 JUMP JUMPDEST SWAP1 POP DUP2 DUP2 SUB PUSH1 0x40 DUP4 ADD MSTORE PUSH2 0x1817 DUP2 DUP8 PUSH2 0x17A6 JUMP JUMPDEST SWAP1 POP DUP2 DUP2 SUB PUSH1 0x60 DUP4 ADD MSTORE PUSH2 0x182B DUP2 DUP7 PUSH2 0x17A6 JUMP JUMPDEST SWAP1 POP PUSH2 0x183A PUSH1 0x80 DUP4 ADD DUP6 PUSH2 0x128C JUMP JUMPDEST DUP2 DUP2 SUB PUSH1 0xA0 DUP4 ADD MSTORE PUSH2 0x184C DUP2 DUP5 PUSH2 0x17A6 JUMP JUMPDEST SWAP1 POP SWAP8 SWAP7 POP POP POP POP POP POP POP JUMP JUMPDEST PUSH32 0x4C6F7420646F6573206E6F742065786973740000000000000000000000000000 PUSH0 DUP3 ADD MSTORE POP JUMP JUMPDEST PUSH0 PUSH2 0x188D PUSH1 0x12 DUP4 PUSH2 0x1796 JUMP JUMPDEST SWAP2 POP PUSH2 0x1898 DUP3 PUSH2 0x1859 JUMP JUMPDEST PUSH1 0x20 DUP3 ADD SWAP1 POP SWAP2 SWAP1 POP JUMP JUMPDEST PUSH0 PUSH1 0x20 DUP3 ADD SWAP1 POP DUP2 DUP2 SUB PUSH0 DUP4 ADD MSTORE PUSH2 0x18BA DUP2 PUSH2 0x1881 JUMP JUMPDEST SWAP1 POP SWAP2 SWAP1 POP JUMP JUMPDEST PUSH32 0x4C6F7420686173206265656E20726563616C6C65640000000000000000000000 PUSH0 DUP3 ADD MSTORE POP JUMP JUMPDEST PUSH0 PUSH2 0x18F5 PUSH1 0x15 DUP4 PUSH2 0x1796 JUMP JUMPDEST SWAP2 POP PUSH2 0x1900 DUP3 PUSH2 0x18C1 JUMP JUMPDEST PUSH1 0x20 DUP3 ADD SWAP1 POP SWAP2 SWAP1 POP JUMP JUMPDEST PUSH0 PUSH1 0x20 DUP3 ADD SWAP1 POP DUP2 DUP2 SUB PUSH0 DUP4 ADD MSTORE PUSH2 0x1922 DUP2 PUSH2 0x18E9 JUMP JUMPDEST SWAP1 POP SWAP2 SWAP1 POP JUMP JUMPDEST PUSH32 0x4E487B7100000000000000000000000000000000000000000000000000000000 PUSH0 MSTORE PUSH1 0x22 PUSH1 0x4 MSTORE PUSH1 0x24 PUSH0 REVERT JUMPDEST PUSH0 PUSH1 0x2 DUP3 DIV SWAP1 POP PUSH1 0x1 DUP3 AND DUP1 PUSH2 0x196D JUMPI PUSH1 0x7F DUP3 AND SWAP2 POP JUMPDEST PUSH1 0x20 DUP3 LT DUP2 SUB PUSH2 0x1980 JUMPI PUSH2 0x197F PUSH2 0x1929 JUMP JUMPDEST JUMPDEST POP SWAP2 SWAP1 POP JUMP JUMPDEST PUSH0 DUP2 SWAP1 POP DUP2 PUSH0 MSTORE PUSH1 0x20 PUSH0 KECCAK256 SWAP1 POP SWAP2 SWAP1 POP JUMP JUMPDEST PUSH0 PUSH1 0x20 PUSH1 0x1F DUP4 ADD DIV SWAP1 POP SWAP2 SWAP1 POP JUMP JUMPDEST PUSH0 DUP3 DUP3 SHL SWAP1 POP SWAP3 SWAP2 POP POP JUMP JUMPDEST PUSH0 PUSH1 0x8 DUP4 MUL PUSH2 0x19E2 PUSH32 0xFFFFFFFFFFFFFFFFFFFFFFFFFFFFFFFFFFFFFFFFFFFFFFFFFFFFFFFFFFFFFFFF DUP3 PUSH2 0x19A7 JUMP JUMPDEST PUSH2 0x19EC DUP7 DUP4 PUSH2 0x19A7 JUMP JUMPDEST SWAP6 POP DUP1 NOT DUP5 AND SWAP4 POP DUP1 DUP7 AND DUP5 OR SWAP3 POP POP POP SWAP4 SWAP3 POP POP POP JUMP JUMPDEST PUSH0 DUP2 SWAP1 POP SWAP2 SWAP1 POP JUMP JUMPDEST PUSH0 PUSH2 0x1A27 PUSH2 0x1A22 PUSH2 0x1A1D DUP5 PUSH2 0x13D2 JUMP JUMPDEST PUSH2 0x1A04 JUMP JUMPDEST PUSH2 0x13D2 JUMP JUMPDEST SWAP1 POP SWAP2 SWAP1 POP JUMP JUMPDEST PUSH0 DUP2 SWAP1 POP SWAP2 SWAP1 POP JUMP JUMPDEST PUSH2 0x1A40 DUP4 PUSH2 0x1A0D JUMP JUMPDEST PUSH2 0x1A54 PUSH2 0x1A4C DUP3 PUSH2 0x1A2E JUMP JUMPDEST DUP5 DUP5 SLOAD PUSH2 0x19B3 JUMP JUMPDEST DUP3 SSTORE POP POP POP POP JUMP JUMPDEST PUSH0 PUSH0 SWAP1 POP SWAP1 JUMP JUMPDEST PUSH2 0x1A6B PUSH2 0x1A5C JUMP JUMPDEST PUSH2 0x1A76 DUP2 DUP5 DUP5 PUSH2 0x1A37 JUMP JUMPDEST POP POP POP JUMP JUMPDEST JUMPDEST DUP2 DUP2 LT ISZERO PUSH2 0x1A99 JUMPI PUSH2 0x1A8E PUSH0 DUP3 PUSH2 0x1A63 JUMP JUMPDEST PUSH1 0x1 DUP2 ADD SWAP1 POP PUSH2 0x1A7C JUMP JUMPDEST POP POP JUMP JUMPDEST PUSH1 0x1F DUP3 GT ISZERO PUSH2 0x1ADE JUMPI PUSH2 0x1AAF DUP2 PUSH2 0x1986 JUMP JUMPDEST PUSH2 0x1AB8 DUP5 PUSH2 0x1998 JUMP JUMPDEST DUP2 ADD PUSH1 0x20 DUP6 LT ISZERO PUSH2 0x1AC7 JUMPI DUP2 SWAP1 POP JUMPDEST PUSH2 0x1ADB PUSH2 0x1AD3 DUP6 PUSH2 0x1998 JUMP JUMPDEST DUP4 ADD DUP3 PUSH2 0x1A7B JUMP JUMPDEST POP POP JUMPDEST POP POP POP JUMP JUMPDEST PUSH0 DUP3 DUP3 SHR SWAP1 POP SWAP3 SWAP2 POP POP JUMP JUMPDEST PUSH0 PUSH2 0x1AFE PUSH0 NOT DUP5 PUSH1 0x8 MUL PUSH2 0x1AE3 JUMP JUMPDEST NOT DUP1 DUP4 AND SWAP2 POP POP SWAP3 SWAP2 POP POP JUMP JUMPDEST PUSH0 PUSH2 0x1B16 DUP4 DUP4 PUSH2 0x1AEF JUMP JUMPDEST SWAP2 POP DUP3 PUSH1 0x2 MUL DUP3 OR SWAP1 POP SWAP3 SWAP2 POP POP JUMP JUMPDEST PUSH2 0x1B2F DUP3 PUSH2 0x15D5 JUMP JUMPDEST PUSH8 0xFFFFFFFFFFFFFFFF DUP2 GT ISZERO PUSH2 0x1B48 JUMPI PUSH2 0x1B47 PUSH2 0x141D JUMP JUMPDEST JUMPDEST PUSH2 0x1B52 DUP3 SLOAD PUSH2 0x1956 JUMP JUMPDEST PUSH2 0x1B5D DUP3 DUP3 DUP6 PUSH2 0x1A9D JUMP JUMPDEST PUSH0 PUSH1 0x20 SWAP1 POP PUSH1 0x1F DUP4 GT PUSH1 0x1 DUP2 EQ PUSH2 0x1B8E JUMPI PUSH0 DUP5 ISZERO PUSH2 0x1B7C JUMPI DUP3 DUP8 ADD MLOAD SWAP1 POP JUMPDEST PUSH2 0x1B86 DUP6 DUP3 PUSH2 0x1B0B JUMP JUMPDEST DUP7 SSTORE POP PUSH2 0x1BED JUMP JUMPDEST PUSH1 0x1F NOT DUP5 AND PUSH2 0x1B9C DUP7 PUSH2 0x1986 JUMP JUMPDEST PUSH0 JUMPDEST DUP3 DUP2 LT ISZERO PUSH2 0x1BC3 JUMPI DUP5 DUP10 ADD MLOAD DUP3 SSTORE PUSH1 0x1 DUP3 ADD SWAP2 POP PUSH1 0x20 DUP6 ADD SWAP5 POP PUSH1 0x20 DUP2 ADD SWAP1 POP PUSH2 0x1B9E JUMP JUMPDEST DUP7 DUP4 LT ISZERO PUSH2 0x1BE0 JUMPI DUP5 DUP10 ADD MLOAD PUSH2 0x1BDC PUSH1 0x1F DUP10 AND DUP3 PUSH2 0x1AEF JUMP JUMPDEST DUP4 SSTORE POP JUMPDEST PUSH1 0x1 PUSH1 0x2 DUP9 MUL ADD DUP9 SSTORE POP POP POP JUMPDEST POP POP POP POP POP POP JUMP JUMPDEST PUSH0 DUP2 SLOAD PUSH2 0x1C01 DUP2 PUSH2 0x1956 JUMP JUMPDEST PUSH2 0x1C0B DUP2 DUP7 PUSH2 0x1796 JUMP JUMPDEST SWAP5 POP PUSH1 0x1 DUP3 AND PUSH0 DUP2 EQ PUSH2 0x1C25 JUMPI PUSH1 0x1 DUP2 EQ PUSH2 0x1C3B JUMPI PUSH2 0x1C6D JUMP JUMPDEST PUSH1 0xFF NOT DUP4 AND DUP7 MSTORE DUP2 ISZERO ISZERO PUSH1 0x20 MUL DUP7 ADD SWAP4 POP PUSH2 0x1C6D JUMP JUMPDEST PUSH2 0x1C44 DUP6 PUSH2 0x1986 JUMP JUMPDEST PUSH0 JUMPDEST DUP4 DUP2 LT ISZERO PUSH2 0x1C65 JUMPI DUP2 SLOAD DUP2 DUP10 ADD MSTORE PUSH1 0x1 DUP3 ADD SWAP2 POP PUSH1 0x20 DUP2 ADD SWAP1 POP PUSH2 0x1C46 JUMP JUMPDEST DUP1 DUP9 ADD SWAP6 POP POP POP JUMPDEST POP POP POP SWAP3 SWAP2 POP POP JUMP JUMPDEST PUSH0 PUSH1 0x60 DUP3 ADD SWAP1 POP PUSH2 0x1C89 PUSH0 DUP4 ADD DUP7 PUSH2 0x1787 JUMP JUMPDEST DUP2 DUP2 SUB PUSH1 0x20 DUP4 ADD MSTORE PUSH2 0x1C9B DUP2 DUP6 PUSH2 0x17A6 JUMP JUMPDEST SWAP1 POP DUP2 DUP2 SUB PUSH1 0x40 DUP4 ADD MSTORE PUSH2 0x1CAF DUP2 DUP5 PUSH2 0x1BF5 JUMP JUMPDEST SWAP1 POP SWAP5 SWAP4 POP POP POP POP JUMP JUMPDEST PUSH32 0x4C6F7420616C7265616479206578697374730000000000000000000000000000 PUSH0 DUP3 ADD MSTORE POP JUMP JUMPDEST PUSH0 PUSH2 0x1CED PUSH1 0x12 DUP4 PUSH2 0x1796 JUMP JUMPDEST SWAP2 POP PUSH2 0x1CF8 DUP3 PUSH2 0x1CB9 JUMP JUMPDEST PUSH1 0x20 DUP3 ADD SWAP1 POP SWAP2 SWAP1 POP JUMP JUMPDEST PUSH0 PUSH1 0x20 DUP3 ADD SWAP1 POP DUP2 DUP2 SUB PUSH0 DUP4 ADD MSTORE PUSH2 0x1D1A DUP2 PUSH2 0x1CE1 JUMP JUMPDEST SWAP1 POP SWAP2 SWAP1 POP JUMP JUMPDEST PUSH0 PUSH1 0x60 DUP3 ADD SWAP1 POP PUSH2 0x1D34 PUSH0 DUP4 ADD DUP7 PUSH2 0x1787 JUMP JUMPDEST DUP2 DUP2 SUB PUSH1 0x20 DUP4 ADD MSTORE PUSH2 0x1D46 DUP2 DUP6 PUSH2 0x17A6 JUMP JUMPDEST SWAP1 POP DUP2 DUP2 SUB PUSH1 0x40 DUP4 ADD MSTORE PUSH2 0x1D5A DUP2 DUP5 PUSH2 0x17A6 JUMP JUMPDEST SWAP1 POP SWAP5 SWAP4 POP POP POP POP JUMP JUMPDEST PUSH0 PUSH1 0x20 DUP3 ADD SWAP1 POP PUSH2 0x1D77 PUSH0 DUP4 ADD DUP5 PUSH2 0x1787 JUMP JUMPDEST SWAP3 SWAP2 POP POP JUMP JUMPDEST PUSH2 0x1D86 DUP2 PUSH2 0x1359 JUMP JUMPDEST DUP3 MSTORE POP POP JUMP JUMPDEST PUSH0 PUSH1 0x40 DUP3 ADD SWAP1 POP PUSH2 0x1D9F PUSH0 DUP4 ADD DUP6 PUSH2 0x1D7D JUMP JUMPDEST PUSH2 0x1DAC PUSH1 0x20 DUP4 ADD DUP5 PUSH2 0x12BD JUMP JUMPDEST SWAP4 SWAP3 POP POP POP JUMP INVALID LOG2 PUSH5 0x6970667358 0x22 SLT KECCAK256 0xBF SMOD BLOBBASEFEE SWAP14 DUP5 PUSH3 0xD512A8 BLOBBASEFEE CODESIZE SSTORE REVERT ORIGIN GASLIMIT DELEGATECALL CALL 0x2B 0xB8 NOT TIMESTAMP NUMBER PUSH4 0x54880D91 MUL JUMPF 0x1A9C LOG1 PUSH5 0x736F6C6343 STOP ADDMOD 0x1E STOP CALLER "
				},
				"gasEstimates": {
					"creation": {
						"codeDepositCost": "1531400",
						"executionCost": "infinite",
						"totalCost": "infinite"
					},
					"external": {
						"DEFAULT_ADMIN_ROLE()": "352",
						"DISTRIBUTOR_ROLE()": "391",
						"PRODUCER_ROLE()": "392",
						"REGULATOR_ROLE()": "371",
						"getLot(uint256)": "infinite",
						"getRoleAdmin(bytes32)": "infinite",
						"grantRole(bytes32,address)": "infinite",
						"hasRole(bytes32,address)": "3209",
						"lots(uint256)": "infinite",
						"recallLot(uint256)": "infinite",
						"registerLot(uint256,string,string)": "infinite",
						"renounceRole(bytes32,address)": "infinite",
						"revokeRole(bytes32,address)": "infinite",
						"supportsInterface(bytes4)": "741",
						"updateLocation(uint256,string)": "infinite"
					}
				},
				"methodIdentifiers": {
					"DEFAULT_ADMIN_ROLE()": "a217fddf",
					"DISTRIBUTOR_ROLE()": "f0bd87cc",
					"PRODUCER_ROLE()": "cb3e1fe7",
					"REGULATOR_ROLE()": "144bf589",
					"getLot(uint256)": "ab995d12",
					"getRoleAdmin(bytes32)": "248a9ca3",
					"grantRole(bytes32,address)": "2f2ff15d",
					"hasRole(bytes32,address)": "91d14854",
					"lots(uint256)": "f1648e84",
					"recallLot(uint256)": "e7862353",
					"registerLot(uint256,string,string)": "ce51e4df",
					"renounceRole(bytes32,address)": "36568abe",
					"revokeRole(bytes32,address)": "d547741f",
					"supportsInterface(bytes4)": "01ffc9a7",
					"updateLocation(uint256,string)": "4ec0c9e9"
				}
			},
			"storageLayout": {
				"storage": [
					{
						"astId": 27,
						"contract": "FoodSafe/FoodSafe.sol:FoodSafe",
						"label": "_roles",
						"offset": 0,
						"slot": "0",
						"type": "t_mapping(t_bytes32,t_struct(RoleData)22_storage)"
					},
					{
						"astId": 483,
						"contract": "FoodSafe/FoodSafe.sol:FoodSafe",
						"label": "lots",
						"offset": 0,
						"slot": "1",
						"type": "t_mapping(t_uint256,t_struct(FoodLot)478_storage)"
					}
				],
				"types": {
					"t_address": {
						"encoding": "inplace",
						"label": "address",
						"numberOfBytes": "20"
					},
					"t_bool": {
						"encoding": "inplace",
						"label": "bool",
						"numberOfBytes": "1"
					},
					"t_bytes32": {
						"encoding": "inplace",
						"label": "bytes32",
						"numberOfBytes": "32"
					},
					"t_mapping(t_address,t_bool)": {
						"encoding": "mapping",
						"key": "t_address",
						"label": "mapping(address => bool)",
						"numberOfBytes": "32",
						"value": "t_bool"
					},
					"t_mapping(t_bytes32,t_struct(RoleData)22_storage)": {
						"encoding": "mapping",
						"key": "t_bytes32",
						"label": "mapping(bytes32 => struct AccessControl.RoleData)",
						"numberOfBytes": "32",
						"value": "t_struct(RoleData)22_storage"
					},
					"t_mapping(t_uint256,t_struct(FoodLot)478_storage)": {
						"encoding": "mapping",
						"key": "t_uint256",
						"label": "mapping(uint256 => struct FoodSafe.FoodLot)",
						"numberOfBytes": "32",
						"value": "t_struct(FoodLot)478_storage"
					},
					"t_string_storage": {
						"encoding": "bytes",
						"label": "string",
						"numberOfBytes": "32"
					},
					"t_struct(FoodLot)478_storage": {
						"encoding": "inplace",
						"label": "struct FoodSafe.FoodLot",
						"members": [
							{
								"astId": 467,
								"contract": "FoodSafe/FoodSafe.sol:FoodSafe",
								"label": "lotId",
								"offset": 0,
								"slot": "0",
								"type": "t_uint256"
							},
							{
								"astId": 469,
								"contract": "FoodSafe/FoodSafe.sol:FoodSafe",
								"label": "description",
								"offset": 0,
								"slot": "1",
								"type": "t_string_storage"
							},
							{
								"astId": 471,
								"contract": "FoodSafe/FoodSafe.sol:FoodSafe",
								"label": "origin",
								"offset": 0,
								"slot": "2",
								"type": "t_string_storage"
							},
							{
								"astId": 473,
								"contract": "FoodSafe/FoodSafe.sol:FoodSafe",
								"label": "currentLocation",
								"offset": 0,
								"slot": "3",
								"type": "t_string_storage"
							},
							{
								"astId": 475,
								"contract": "FoodSafe/FoodSafe.sol:FoodSafe",
								"label": "recalled",
								"offset": 0,
								"slot": "4",
								"type": "t_bool"
							},
							{
								"astId": 477,
								"contract": "FoodSafe/FoodSafe.sol:FoodSafe",
								"label": "status",
								"offset": 0,
								"slot": "5",
								"type": "t_string_storage"
							}
						],
						"numberOfBytes": "192"
					},
					"t_struct(RoleData)22_storage": {
						"encoding": "inplace",
						"label": "struct AccessControl.RoleData",
						"members": [
							{
								"astId": 19,
								"contract": "FoodSafe/FoodSafe.sol:FoodSafe",
								"label": "hasRole",
								"offset": 0,
								"slot": "0",
								"type": "t_mapping(t_address,t_bool)"
							},
							{
								"astId": 21,
								"contract": "FoodSafe/FoodSafe.sol:FoodSafe",
								"label": "adminRole",
								"offset": 0,
								"slot": "1",
								"type": "t_bytes32"
							}
						],
						"numberOfBytes": "64"
					},
					"t_uint256": {
						"encoding": "inplace",
						"label": "uint256",
						"numberOfBytes": "32"
					}
				}
			},
			"userdoc": {
				"kind": "user",
				"methods": {},
				"version": 1
			}
		}
	}
}