{
	"data": {
		"bytecode": {
			"linkReferences": {},
			"object": "608060405234801561000f575f5ffd5b50604051613fd3380380613fd3833981810160405281019061003191906102c7565b6040518060400160405280601381526020017f466f6f6454726163656162696c6974794e4654000000000000000000000000008152506040518060400160405280600381526020017f46544e0000000000000000000000000000000000000000000000000000000000815250815f90816100ab919061052f565b5080600190816100bb919061052f565b5050506100d05f5f1b3361010860201b60201c565b506101017f20b5f7ac978e5d6199de06401411960dfa81d2f762655f6206bdc61d46fc19e68261010860201b60201c565b50506105fe565b5f61011983836101fe60201b60201c565b6101f457600160065f8581526020019081526020015f205f015f8473ffffffffffffffffffffffffffffffffffffffff1673ffffffffffffffffffffffffffffffffffffffff1681526020019081526020015f205f6101000a81548160ff02191690831515021790555061019161026260201b60201c565b73ffffffffffffffffffffffffffffffffffffffff168273ffffffffffffffffffffffffffffffffffffffff16847f2f8788117e7eff1d82e926ec794901d17c78024a50270940304540a733656f0d60405160405180910390a4600190506101f8565b5f90505b92915050565b5f60065f8481526020019081526020015f205f015f8373ffffffffffffffffffffffffffffffffffffffff1673ffffffffffffffffffffffffffffffffffffffff1681526020019081526020015f205f9054906101000a900460ff16905092915050565b5f33905090565b5f5ffd5b5f73ffffffffffffffffffffffffffffffffffffffff82169050919050565b5f6102968261026d565b9050919050565b6102a68161028c565b81146102b0575f5ffd5b50565b5f815190506102c18161029d565b92915050565b5f602082840312156102dc576102db610269565b5b5f6102e9848285016102b3565b91505092915050565b5f81519050919050565b7f4e487b71000000000000000000000000000000000000000000000000000000005f52604160045260245ffd5b7f4e487b71000000000000000000000000000000000000000000000000000000005f52602260045260245ffd5b5f600282049050600182168061036d57607f821691505b6020821081036103805761037f610329565b5b50919050565b5f819050815f5260205f209050919050565b5f6020601f8301049050919050565b5f82821b905092915050565b5f600883026103e27fffffffffffffffffffffffffffffffffffffffffffffffffffffffffffffffff826103a7565b6103ec86836103a7565b95508019841693508086168417925050509392505050565b5f819050919050565b5f819050919050565b5f61043061042b61042684610404565b61040d565b610404565b9050919050565b5f819050919050565b61044983610416565b61045d61045582610437565b8484546103b3565b825550505050565b5f5f905090565b610474610465565b61047f818484610440565b505050565b5b818110156104a2576104975f8261046c565b600181019050610485565b5050565b601f8211156104e7576104b881610386565b6104c184610398565b810160208510156104d0578190505b6104e46104dc85610398565b830182610484565b50505b505050565b5f82821c905092915050565b5f6105075f19846008026104ec565b1980831691505092915050565b5f61051f83836104f8565b9150826002028217905092915050565b610538826102f2565b67ffffffffffffffff811115610551576105506102fc565b5b61055b8254610356565b6105668282856104a6565b5f60209050601f831160018114610597575f8415610585578287015190505b61058f8582610514565b8655506105f6565b601f1984166105a586610386565b5f5b828110156105cc578489015182556001820191506020850194506020810190506105a7565b868310156105e957848901516105e5601f8916826104f8565b8355505b6001600288020188555050505b505050505050565b6139c88061060b5f395ff3fe608060405234801561000f575f5ffd5b50600436106101d8575f3560e01c80636352211e11610102578063a22cb465116100a0578063cb3e1fe71161006f578063cb3e1fe714610572578063d547741f14610590578063e985e9c5146105ac578063f0bd87cc146105dc576101d8565b8063a22cb465146104da578063ab995d12146104f6578063b88d4fde14610526578063c87b56dd14610542576101d8565b806370a08231116100dc57806370a082311461043e57806391d148541461046e57806395d89b411461049e578063a217fddf146104bc576101d8565b80636352211e146103d6578063639a7e7214610406578063704befa614610422576101d8565b806323b872dd1161017a57806336568abe1161014957806336568abe1461035257806342842e0e1461036e57806343e73ff11461038a578063565cf74f146103ba576101d8565b806323b872dd146102ce578063248a9ca3146102ea5780632561f7181461031a5780632f2ff15d14610336576101d8565b8063095ea7b3116101b6578063095ea7b31461025a5780630c1b117814610276578063144bf589146102925780632115e7bf146102b0576101d8565b806301ffc9a7146101dc57806306fdde031461020c578063081812fc1461022a575b5f5ffd5b6101f660048036038101906101f1919061292f565b6105fa565b6040516102039190612974565b60405180910390f35b61021461060b565b60405161022191906129fd565b60405180910390f35b610244600480360381019061023f9190612a50565b61069a565b6040516102519190612aba565b60405180910390f35b610274600480360381019061026f9190612afd565b6106b5565b005b610290600480360381019061028b9190612b3b565b6106cb565b005b61029a610724565b6040516102a79190612b7e565b60405180910390f35b6102b8610748565b6040516102c59190612b7e565b60405180910390f35b6102e860048036038101906102e39190612b97565b61076c565b005b61030460048036038101906102ff9190612c11565b61086b565b6040516103119190612b7e565b60405180910390f35b610334600480360381019061032f9190612b3b565b610888565b005b610350600480360381019061034b9190612c3c565b6108e1565b005b61036c60048036038101906103679190612c3c565b610903565b005b61038860048036038101906103839190612b97565b61097e565b005b6103a4600480360381019061039f9190612a50565b61099d565b6040516103b19190612e4c565b60405180910390f35b6103d460048036038101906103cf9190612a50565b610aea565b005b6103f060048036038101906103eb9190612a50565b610c98565b6040516103fd9190612aba565b60405180910390f35b610420600480360381019061041b9190612f98565b610ca9565b005b61043c6004803603810190610437919061305f565b610ea5565b005b61045860048036038101906104539190612b3b565b611115565b60405161046591906130da565b60405180910390f35b61048860048036038101906104839190612c3c565b6111cb565b6040516104959190612974565b60405180910390f35b6104a661122f565b6040516104b391906129fd565b60405180910390f35b6104c46112bf565b6040516104d19190612b7e565b60405180910390f35b6104f460048036038101906104ef919061311d565b6112c5565b005b610510600480360381019061050b9190612a50565b6112db565b60405161051d9190613281565b60405180910390f35b610540600480360381019061053b919061333f565b6115f8565b005b61055c60048036038101906105579190612a50565b61161d565b60405161056991906129fd565b60405180910390f35b61057a611683565b6040516105879190612b7e565b60405180910390f35b6105aa60048036038101906105a59190612c3c565b6116a7565b005b6105c660048036038101906105c191906133bf565b6116c9565b6040516105d39190612974565b60405180910390f35b6105e4611757565b6040516105f19190612b7e565b60405180910390f35b5f6106048261177b565b9050919050565b60605f80546106199061342a565b80601f01602080910402602001604051908101604052809291908181526020018280546106459061342a565b80156106905780601f1061066757610100808354040283529160200191610690565b820191905f5260205f20905b81548152906001019060200180831161067357829003601f168201915b5050505050905090565b5f6106a4826117f4565b506106ae8261187a565b9050919050565b6106c782826106c26118b3565b6118ba565b5050565b7f8eb467f061ca67f42a2d2ca4a346fc9fb645efc0ba75056ee9f71c3a0ccc10a86106f5816118cc565b61071f7ffbd454f36a7e1a388bd6fc3ab10d434aa4578f811acbbcf33afb1c697486313c836118e0565b505050565b7f20b5f7ac978e5d6199de06401411960dfa81d2f762655f6206bdc61d46fc19e681565b7f2a5f906c256a5d799494fcd066e1f6c077689de1cdb65052a1624de4bace99bf81565b5f73ffffffffffffffffffffffffffffffffffffffff168273ffffffffffffffffffffffffffffffffffffffff16036107dc575f6040517f64a0ae920000000000000000000000000000000000000000000000000000000081526004016107d39190612aba565b60405180910390fd5b5f6107ef83836107ea6118b3565b6119ca565b90508373ffffffffffffffffffffffffffffffffffffffff168173ffffffffffffffffffffffffffffffffffffffff1614610865578382826040517f64283d7b00000000000000000000000000000000000000000000000000000000815260040161085c9392919061345a565b60405180910390fd5b50505050565b5f60065f8381526020019081526020015f20600101549050919050565b7ffbd454f36a7e1a388bd6fc3ab10d434aa4578f811acbbcf33afb1c697486313c6108b2816118cc565b6108dc7f2a5f906c256a5d799494fcd066e1f6c077689de1cdb65052a1624de4bace99bf836118e0565b505050565b6108ea8261086b565b6108f3816118cc565b6108fd83836118e0565b50505050565b61090b6118b3565b73ffffffffffffffffffffffffffffffffffffffff168173ffffffffffffffffffffffffffffffffffffffff161461096f576040517f6697b23200000000000000000000000000000000000000000000000000000000815260040160405180910390fd5b6109798282611bd5565b505050565b61099883838360405180602001604052805f8152506115f8565b505050565b60606109a8826117f4565b5060085f8381526020019081526020015f20600401805480602002602001604051908101604052809291908181526020015f905b82821015610adf578382905f5260205f2090600302016040518060600160405290815f8201548152602001600182018054610a169061342a565b80601f0160208091040260200160405190810160405280929190818152602001828054610a429061342a565b8015610a8d5780601f10610a6457610100808354040283529160200191610a8d565b820191905f5260205f20905b815481529060010190602001808311610a7057829003601f168201915b50505050508152602001600282015f9054906101000a900460ff166003811115610aba57610ab9612cfa565b5b6003811115610acc57610acb612cfa565b5b81525050815260200190600101906109dc565b505050509050919050565b7f20b5f7ac978e5d6199de06401411960dfa81d2f762655f6206bdc61d46fc19e6610b14816118cc565b610b1d826117f4565b50600360085f8481526020019081526020015f2060030160146101000a81548160ff02191690836003811115610b5657610b55612cfa565b5b021790555060085f8381526020019081526020015f2060040160405180606001604052804281526020016040518060400160405280601081526020017f524543414c4c5f545249474745524544000000000000000000000000000000008152508152602001600380811115610bce57610bcd612cfa565b5b815250908060018154018082558091505060019003905f5260205f2090600302015f909190919091505f820151815f01556020820151816001019081610c14919061362f565b506040820151816002015f6101000a81548160ff02191690836003811115610c3f57610c3e612cfa565b5b021790555050503373ffffffffffffffffffffffffffffffffffffffff167fc63df715a472fdfebe6833ebc93a3b13e4fcc34339ec1a687ff0cde92f80d1bf83604051610c8c91906130da565b60405180910390a25050565b5f610ca2826117f4565b9050919050565b7f8eb467f061ca67f42a2d2ca4a346fc9fb645efc0ba75056ee9f71c3a0ccc10a8610cd3816118cc565b610cdd6007611cbf565b5f610ce86007611cd3565b9050610cf43382611cdf565b5f60405180606001604052804281526020018581526020015f6003811115610d1f57610d1e612cfa565b5b81525090505f60085f8481526020019081526020015f20905082815f018190555086816001019081610d51919061362f565b5085816002019081610d63919061362f565b5033816003015f6101000a81548173ffffffffffffffffffffffffffffffffffffffff021916908373ffffffffffffffffffffffffffffffffffffffff1602179055505f8160030160146101000a81548160ff02191690836003811115610dcd57610dcc612cfa565b5b02179055508060040182908060018154018082558091505060019003905f5260205f2090600302015f909190919091505f820151815f01556020820151816001019081610e1a919061362f565b506040820151816002015f6101000a81548160ff02191690836003811115610e4557610e44612cfa565b5b021790555050503373ffffffffffffffffffffffffffffffffffffffff167f1f3973f79dfaf5b2c872bd5bba8e6574e26d275dfca176912ac524fccbac4ee38489604051610e949291906136fe565b60405180910390a250505050505050565b610ecf7f8eb467f061ca67f42a2d2ca4a346fc9fb645efc0ba75056ee9f71c3a0ccc10a8336111cb565b80610f005750610eff7ffbd454f36a7e1a388bd6fc3ab10d434aa4578f811acbbcf33afb1c697486313c336111cb565b5b80610f315750610f307f2a5f906c256a5d799494fcd066e1f6c077689de1cdb65052a1624de4bace99bf336111cb565b5b610f70576040517f08c379a0000000000000000000000000000000000000000000000000000000008152600401610f6790613776565b60405180910390fd5b610f79836117f4565b508060085f8581526020019081526020015f2060030160146101000a81548160ff02191690836003811115610fb157610fb0612cfa565b5b02179055503360085f8581526020019081526020015f206003015f6101000a81548173ffffffffffffffffffffffffffffffffffffffff021916908373ffffffffffffffffffffffffffffffffffffffff16021790555060085f8481526020019081526020015f20600401604051806060016040528042815260200184815260200183600381111561104657611045612cfa565b5b815250908060018154018082558091505060019003905f5260205f2090600302015f909190919091505f820151815f0155602082015181600101908161108c919061362f565b506040820151816002015f6101000a81548160ff021916908360038111156110b7576110b6612cfa565b5b021790555050503373ffffffffffffffffffffffffffffffffffffffff167f3c8c009c43f43b88f7998103690c9b77dcc7d098030b2d4d3ecf180849c12e9c848385604051611108939291906137a3565b60405180910390a2505050565b5f5f73ffffffffffffffffffffffffffffffffffffffff168273ffffffffffffffffffffffffffffffffffffffff1603611186575f6040517f89c62b6400000000000000000000000000000000000000000000000000000000815260040161117d9190612aba565b60405180910390fd5b60035f8373ffffffffffffffffffffffffffffffffffffffff1673ffffffffffffffffffffffffffffffffffffffff1681526020019081526020015f20549050919050565b5f60065f8481526020019081526020015f205f015f8373ffffffffffffffffffffffffffffffffffffffff1673ffffffffffffffffffffffffffffffffffffffff1681526020019081526020015f205f9054906101000a900460ff16905092915050565b60606001805461123e9061342a565b80601f016020809104026020016040519081016040528092919081815260200182805461126a9061342a565b80156112b55780601f1061128c576101008083540402835291602001916112b5565b820191905f5260205f20905b81548152906001019060200180831161129857829003601f168201915b5050505050905090565b5f5f1b81565b6112d76112d06118b3565b8383611cfc565b5050565b6112e361286e565b6112ec826117f4565b5060085f8381526020019081526020015f206040518060c00160405290815f82015481526020016001820180546113229061342a565b80601f016020809104026020016040519081016040528092919081815260200182805461134e9061342a565b80156113995780601f1061137057610100808354040283529160200191611399565b820191905f5260205f20905b81548152906001019060200180831161137c57829003601f168201915b505050505081526020016002820180546113b29061342a565b80601f01602080910402602001604051908101604052809291908181526020018280546113de9061342a565b80156114295780601f1061140057610100808354040283529160200191611429565b820191905f5260205f20905b81548152906001019060200180831161140c57829003601f168201915b50505050508152602001600382015f9054906101000a900473ffffffffffffffffffffffffffffffffffffffff1673ffffffffffffffffffffffffffffffffffffffff1673ffffffffffffffffffffffffffffffffffffffff1681526020016003820160149054906101000a900460ff1660038111156114ac576114ab612cfa565b5b60038111156114be576114bd612cfa565b5b815260200160048201805480602002602001604051908101604052809291908181526020015f905b828210156115e9578382905f5260205f2090600302016040518060600160405290815f82015481526020016001820180546115209061342a565b80601f016020809104026020016040519081016040528092919081815260200182805461154c9061342a565b80156115975780601f1061156e57610100808354040283529160200191611597565b820191905f5260205f20905b81548152906001019060200180831161157a57829003601f168201915b50505050508152602001600282015f9054906101000a900460ff1660038111156115c4576115c3612cfa565b5b60038111156115d6576115d5612cfa565b5b81525050815260200190600101906114e6565b50505050815250509050919050565b61160384848461076c565b61161761160e6118b3565b85858585611e65565b50505050565b6060611628826117f4565b505f611632612011565b90505f8151116116505760405180602001604052805f81525061167b565b8061165a84612027565b60405160200161166b929190613819565b6040516020818303038152906040525b915050919050565b7f8eb467f061ca67f42a2d2ca4a346fc9fb645efc0ba75056ee9f71c3a0ccc10a881565b6116b08261086b565b6116b9816118cc565b6116c38383611bd5565b50505050565b5f60055f8473ffffffffffffffffffffffffffffffffffffffff1673ffffffffffffffffffffffffffffffffffffffff1681526020019081526020015f205f8373ffffffffffffffffffffffffffffffffffffffff1673ffffffffffffffffffffffffffffffffffffffff1681526020019081526020015f205f9054906101000a900460ff16905092915050565b7ffbd454f36a7e1a388bd6fc3ab10d434aa4578f811acbbcf33afb1c697486313c81565b5f7f7965db0b000000000000000000000000000000000000000000000000000000007bffffffffffffffffffffffffffffffffffffffffffffffffffffffff1916827bffffffffffffffffffffffffffffffffffffffffffffffffffffffff191614806117ed57506117ec826120f1565b5b9050919050565b5f5f6117ff836121d2565b90505f73ffffffffffffffffffffffffffffffffffffffff168173ffffffffffffffffffffffffffffffffffffffff160361187157826040517f7e27328900000000000000000000000000000000000000000000000000000000815260040161186891906130da565b60405180910390fd5b80915050919050565b5f60045f8381526020019081526020015f205f9054906101000a900473ffffffffffffffffffffffffffffffffffffffff169050919050565b5f33905090565b6118c7838383600161220b565b505050565b6118dd816118d86118b3565b6123ca565b50565b5f6118eb83836111cb565b6119c057600160065f8581526020019081526020015f205f015f8473ffffffffffffffffffffffffffffffffffffffff1673ffffffffffffffffffffffffffffffffffffffff1681526020019081526020015f205f6101000a81548160ff02191690831515021790555061195d6118b3565b73ffffffffffffffffffffffffffffffffffffffff168273ffffffffffffffffffffffffffffffffffffffff16847f2f8788117e7eff1d82e926ec794901d17c78024a50270940304540a733656f0d60405160405180910390a4600190506119c4565b5f90505b92915050565b5f5f6119d5846121d2565b90505f73ffffffffffffffffffffffffffffffffffffffff168373ffffffffffffffffffffffffffffffffffffffff1614611a1657611a1581848661241b565b5b5f73ffffffffffffffffffffffffffffffffffffffff168173ffffffffffffffffffffffffffffffffffffffff1614611aa157611a555f855f5f61220b565b600160035f8373ffffffffffffffffffffffffffffffffffffffff1673ffffffffffffffffffffffffffffffffffffffff1681526020019081526020015f205f82825403925050819055505b5f73ffffffffffffffffffffffffffffffffffffffff168573ffffffffffffffffffffffffffffffffffffffff1614611b2057600160035f8773ffffffffffffffffffffffffffffffffffffffff1673ffffffffffffffffffffffffffffffffffffffff1681526020019081526020015f205f82825401925050819055505b8460025f8681526020019081526020015f205f6101000a81548173ffffffffffffffffffffffffffffffffffffffff021916908373ffffffffffffffffffffffffffffffffffffffff160217905550838573ffffffffffffffffffffffffffffffffffffffff168273ffffffffffffffffffffffffffffffffffffffff167fddf252ad1be2c89b69c2b068fc378daa952ba7f163c4a11628f55a4df523b3ef60405160405180910390a4809150509392505050565b5f611be083836111cb565b15611cb5575f60065f8581526020019081526020015f205f015f8473ffffffffffffffffffffffffffffffffffffffff1673ffffffffffffffffffffffffffffffffffffffff1681526020019081526020015f205f6101000a81548160ff021916908315150217905550611c526118b3565b73ffffffffffffffffffffffffffffffffffffffff168273ffffffffffffffffffffffffffffffffffffffff16847ff6391f5c32d9c69d2a47ea670b442974b53935d1edc7fd64eb21e047a839171b60405160405180910390a460019050611cb9565b5f90505b92915050565b6001815f015f828254019250508190555050565b5f815f01549050919050565b611cf8828260405180602001604052805f8152506124de565b5050565b5f73ffffffffffffffffffffffffffffffffffffffff168273ffffffffffffffffffffffffffffffffffffffff1603611d6c57816040517f5b08ba18000000000000000000000000000000000000000000000000000000008152600401611d639190612aba565b60405180910390fd5b8060055f8573ffffffffffffffffffffffffffffffffffffffff1673ffffffffffffffffffffffffffffffffffffffff1681526020019081526020015f205f8473ffffffffffffffffffffffffffffffffffffffff1673ffffffffffffffffffffffffffffffffffffffff1681526020019081526020015f205f6101000a81548160ff0219169083151502179055508173ffffffffffffffffffffffffffffffffffffffff168373ffffffffffffffffffffffffffffffffffffffff167f17307eab39ab6107e8899845ad3d59bd9653f200f220920489ca2b5937696c3183604051611e589190612974565b60405180910390a3505050565b5f8373ffffffffffffffffffffffffffffffffffffffff163b111561200a578273ffffffffffffffffffffffffffffffffffffffff1663150b7a02868685856040518563ffffffff1660e01b8152600401611ec3949392919061388e565b6020604051808303815f875af1925050508015611efe57506040513d601f19601f82011682018060405250810190611efb91906138ec565b60015b611f7f573d805f8114611f2c576040519150601f19603f3d011682016040523d82523d5f602084013e611f31565b606091505b505f815103611f7757836040517f64a0ae92000000000000000000000000000000000000000000000000000000008152600401611f6e9190612aba565b60405180910390fd5b805160208201fd5b63150b7a0260e01b7bffffffffffffffffffffffffffffffffffffffffffffffffffffffff1916817bffffffffffffffffffffffffffffffffffffffffffffffffffffffff19161461200857836040517f64a0ae92000000000000000000000000000000000000000000000000000000008152600401611fff9190612aba565b60405180910390fd5b505b5050505050565b606060405180602001604052805f815250905090565b60605f600161203584612501565b0190505f8167ffffffffffffffff81111561205357612052612e74565b5b6040519080825280601f01601f1916602001820160405280156120855781602001600182028036833780820191505090505b5090505f82602083010190505b6001156120e6578080600190039150507f3031323334353637383961626364656600000000000000000000000000000000600a86061a8153600a85816120db576120da613917565b5b0494505f8503612092575b819350505050919050565b5f7f80ac58cd000000000000000000000000000000000000000000000000000000007bffffffffffffffffffffffffffffffffffffffffffffffffffffffff1916827bffffffffffffffffffffffffffffffffffffffffffffffffffffffff191614806121bb57507f5b5e139f000000000000000000000000000000000000000000000000000000007bffffffffffffffffffffffffffffffffffffffffffffffffffffffff1916827bffffffffffffffffffffffffffffffffffffffffffffffffffffffff1916145b806121cb57506121ca82612652565b5b9050919050565b5f60025f8381526020019081526020015f205f9054906101000a900473ffffffffffffffffffffffffffffffffffffffff169050919050565b808061224357505f73ffffffffffffffffffffffffffffffffffffffff168273ffffffffffffffffffffffffffffffffffffffff1614155b15612375575f612252846117f4565b90505f73ffffffffffffffffffffffffffffffffffffffff168373ffffffffffffffffffffffffffffffffffffffff16141580156122bc57508273ffffffffffffffffffffffffffffffffffffffff168173ffffffffffffffffffffffffffffffffffffffff1614155b80156122cf57506122cd81846116c9565b155b1561231157826040517fa9fbf51f0000000000000000000000000000000000000000000000000000000081526004016123089190612aba565b60405180910390fd5b811561237357838573ffffffffffffffffffffffffffffffffffffffff168273ffffffffffffffffffffffffffffffffffffffff167f8c5be1e5ebec7d5bd14f71427d1e84f3dd0314c0f7b2291e5b200ac8c7c3b92560405160405180910390a45b505b8360045f8581526020019081526020015f205f6101000a81548173ffffffffffffffffffffffffffffffffffffffff021916908373ffffffffffffffffffffffffffffffffffffffff16021790555050505050565b6123d482826111cb565b6124175780826040517fe2517d3f00000000000000000000000000000000000000000000000000000000815260040161240e929190613944565b60405180910390fd5b5050565b6124268383836126bb565b6124d9575f73ffffffffffffffffffffffffffffffffffffffff168373ffffffffffffffffffffffffffffffffffffffff160361249a57806040517f7e27328900000000000000000000000000000000000000000000000000000000815260040161249191906130da565b60405180910390fd5b81816040517f177e802f0000000000000000000000000000000000000000000000000000000081526004016124d092919061396b565b60405180910390fd5b505050565b6124e8838361277b565b6124fc6124f36118b3565b5f858585611e65565b505050565b5f5f5f90507a184f03e93ff9f4daa797ed6e38ed64bf6a1f010000000000000000831061255d577a184f03e93ff9f4daa797ed6e38ed64bf6a1f010000000000000000838161255357612552613917565b5b0492506040810190505b6d04ee2d6d415b85acef8100000000831061259a576d04ee2d6d415b85acef810000000083816125905761258f613917565b5b0492506020810190505b662386f26fc1000083106125c957662386f26fc1000083816125bf576125be613917565b5b0492506010810190505b6305f5e10083106125f2576305f5e10083816125e8576125e7613917565b5b0492506008810190505b612710831061261757612710838161260d5761260c613917565b5b0492506004810190505b6064831061263a57606483816126305761262f613917565b5b0492506002810190505b600a8310612649576001810190505b80915050919050565b5f7f01ffc9a7000000000000000000000000000000000000000000000000000000007bffffffffffffffffffffffffffffffffffffffffffffffffffffffff1916827bffffffffffffffffffffffffffffffffffffffffffffffffffffffff1916149050919050565b5f5f73ffffffffffffffffffffffffffffffffffffffff168373ffffffffffffffffffffffffffffffffffffffff161415801561277257508273ffffffffffffffffffffffffffffffffffffffff168473ffffffffffffffffffffffffffffffffffffffff161480612733575061273284846116c9565b5b8061277157508273ffffffffffffffffffffffffffffffffffffffff166127598361187a565b73ffffffffffffffffffffffffffffffffffffffff16145b5b90509392505050565b5f73ffffffffffffffffffffffffffffffffffffffff168273ffffffffffffffffffffffffffffffffffffffff16036127eb575f6040517f64a0ae920000000000000000000000000000000000000000000000000000000081526004016127e29190612aba565b60405180910390fd5b5f6127f783835f6119ca565b90505f73ffffffffffffffffffffffffffffffffffffffff168173ffffffffffffffffffffffffffffffffffffffff1614612869575f6040517f73c6ac6e0000000000000000000000000000000000000000000000000000000081526004016128609190612aba565b60405180910390fd5b505050565b6040518060c001604052805f815260200160608152602001606081526020015f73ffffffffffffffffffffffffffffffffffffffff1681526020015f60038111156128bc576128bb612cfa565b5b8152602001606081525090565b5f604051905090565b5f5ffd5b5f5ffd5b5f7fffffffff0000000000000000000000000000000000000000000000000000000082169050919050565b61290e816128da565b8114612918575f5ffd5b50565b5f8135905061292981612905565b92915050565b5f60208284031215612944576129436128d2565b5b5f6129518482850161291b565b91505092915050565b5f8115159050919050565b61296e8161295a565b82525050565b5f6020820190506129875f830184612965565b92915050565b5f81519050919050565b5f82825260208201905092915050565b8281835e5f83830152505050565b5f601f19601f8301169050919050565b5f6129cf8261298d565b6129d98185612997565b93506129e98185602086016129a7565b6129f2816129b5565b840191505092915050565b5f6020820190508181035f830152612a1581846129c5565b905092915050565b5f819050919050565b612a2f81612a1d565b8114612a39575f5ffd5b50565b5f81359050612a4a81612a26565b92915050565b5f60208284031215612a6557612a646128d2565b5b5f612a7284828501612a3c565b91505092915050565b5f73ffffffffffffffffffffffffffffffffffffffff82169050919050565b5f612aa482612a7b565b9050919050565b612ab481612a9a565b82525050565b5f602082019050612acd5f830184612aab565b92915050565b612adc81612a9a565b8114612ae6575f5ffd5b50565b5f81359050612af781612ad3565b92915050565b5f5f60408385031215612b1357612b126128d2565b5b5f612b2085828601612ae9565b9250506020612b3185828601612a3c565b9150509250929050565b5f60208284031215612b5057612b4f6128d2565b5b5f612b5d84828501612ae9565b91505092915050565b5f819050919050565b612b7881612b66565b82525050565b5f602082019050612b915f830184612b6f565b92915050565b5f5f5f60608486031215612bae57612bad6128d2565b5b5f612bbb86828701612ae9565b9350506020612bcc86828701612ae9565b9250506040612bdd86828701612a3c565b9150509250925092565b612bf081612b66565b8114612bfa575f5ffd5b50565b5f81359050612c0b81612be7565b92915050565b5f60208284031215612c2657612c256128d2565b5b5f612c3384828501612bfd565b91505092915050565b5f5f60408385031215612c5257612c516128d2565b5b5f612c5f85828601612bfd565b9250506020612c7085828601612ae9565b9150509250929050565b5f81519050919050565b5f82825260208201905092915050565b5f819050602082019050919050565b612cac81612a1d565b82525050565b5f82825260208201905092915050565b5f612ccc8261298d565b612cd68185612cb2565b9350612ce68185602086016129a7565b612cef816129b5565b840191505092915050565b7f4e487b71000000000000000000000000000000000000000000000000000000005f52602160045260245ffd5b60048110612d3857612d37612cfa565b5b50565b5f819050612d4882612d27565b919050565b5f612d5782612d3b565b9050919050565b612d6781612d4d565b82525050565b5f606083015f830151612d825f860182612ca3565b5060208301518482036020860152612d9a8282612cc2565b9150506040830151612daf6040860182612d5e565b508091505092915050565b5f612dc58383612d6d565b905092915050565b5f602082019050919050565b5f612de382612c7a565b612ded8185612c84565b935083602082028501612dff85612c94565b805f5b85811015612e3a5784840389528151612e1b8582612dba565b9450612e2683612dcd565b925060208a01995050600181019050612e02565b50829750879550505050505092915050565b5f6020820190508181035f830152612e648184612dd9565b905092915050565b5f5ffd5b5f5ffd5b7f4e487b71000000000000000000000000000000000000000000000000000000005f52604160045260245ffd5b612eaa826129b5565b810181811067ffffffffffffffff82111715612ec957612ec8612e74565b5b80604052505050565b5f612edb6128c9565b9050612ee78282612ea1565b919050565b5f67ffffffffffffffff821115612f0657612f05612e74565b5b612f0f826129b5565b9050602081019050919050565b828183375f83830152505050565b5f612f3c612f3784612eec565b612ed2565b905082815260208101848484011115612f5857612f57612e70565b5b612f63848285612f1c565b509392505050565b5f82601f830112612f7f57612f7e612e6c565b5b8135612f8f848260208601612f2a565b91505092915050565b5f5f5f60608486031215612faf57612fae6128d2565b5b5f84013567ffffffffffffffff811115612fcc57612fcb6128d6565b5b612fd886828701612f6b565b935050602084013567ffffffffffffffff811115612ff957612ff86128d6565b5b61300586828701612f6b565b925050604084013567ffffffffffffffff811115613026576130256128d6565b5b61303286828701612f6b565b9150509250925092565b60048110613048575f5ffd5b50565b5f813590506130598161303c565b92915050565b5f5f5f60608486031215613076576130756128d2565b5b5f61308386828701612a3c565b935050602084013567ffffffffffffffff8111156130a4576130a36128d6565b5b6130b086828701612f6b565b92505060406130c18682870161304b565b9150509250925092565b6130d481612a1d565b82525050565b5f6020820190506130ed5f8301846130cb565b92915050565b6130fc8161295a565b8114613106575f5ffd5b50565b5f81359050613117816130f3565b92915050565b5f5f60408385031215613133576131326128d2565b5b5f61314085828601612ae9565b925050602061315185828601613109565b9150509250929050565b61316481612a9a565b82525050565b5f82825260208201905092915050565b5f61318482612c7a565b61318e818561316a565b9350836020820285016131a085612c94565b805f5b858110156131db57848403895281516131bc8582612dba565b94506131c783612dcd565b925060208a019950506001810190506131a3565b50829750879550505050505092915050565b5f60c083015f8301516132025f860182612ca3565b506020830151848203602086015261321a8282612cc2565b915050604083015184820360408601526132348282612cc2565b9150506060830151613249606086018261315b565b50608083015161325c6080860182612d5e565b5060a083015184820360a0860152613274828261317a565b9150508091505092915050565b5f6020820190508181035f83015261329981846131ed565b905092915050565b5f67ffffffffffffffff8211156132bb576132ba612e74565b5b6132c4826129b5565b9050602081019050919050565b5f6132e36132de846132a1565b612ed2565b9050828152602081018484840111156132ff576132fe612e70565b5b61330a848285612f1c565b509392505050565b5f82601f83011261332657613325612e6c565b5b81356133368482602086016132d1565b91505092915050565b5f5f5f5f60808587031215613357576133566128d2565b5b5f61336487828801612ae9565b945050602061337587828801612ae9565b935050604061338687828801612a3c565b925050606085013567ffffffffffffffff8111156133a7576133a66128d6565b5b6133b387828801613312565b91505092959194509250565b5f5f604083850312156133d5576133d46128d2565b5b5f6133e285828601612ae9565b92505060206133f385828601612ae9565b9150509250929050565b7f4e487b71000000000000000000000000000000000000000000000000000000005f52602260045260245ffd5b5f600282049050600182168061344157607f821691505b602082108103613454576134536133fd565b5b50919050565b5f60608201905061346d5f830186612aab565b61347a60208301856130cb565b6134876040830184612aab565b949350505050565b5f819050815f5260205f209050919050565b5f6020601f8301049050919050565b5f82821b905092915050565b5f600883026134eb7fffffffffffffffffffffffffffffffffffffffffffffffffffffffffffffffff826134b0565b6134f586836134b0565b95508019841693508086168417925050509392505050565b5f819050919050565b5f61353061352b61352684612a1d565b61350d565b612a1d565b9050919050565b5f819050919050565b61354983613516565b61355d61355582613537565b8484546134bc565b825550505050565b5f5f905090565b613574613565565b61357f818484613540565b505050565b5b818110156135a2576135975f8261356c565b600181019050613585565b5050565b601f8211156135e7576135b88161348f565b6135c1846134a1565b810160208510156135d0578190505b6135e46135dc856134a1565b830182613584565b50505b505050565b5f82821c905092915050565b5f6136075f19846008026135ec565b1980831691505092915050565b5f61361f83836135f8565b9150826002028217905092915050565b6136388261298d565b67ffffffffffffffff81111561365157613650612e74565b5b61365b825461342a565b6136668282856135a6565b5f60209050601f831160018114613697575f8415613685578287015190505b61368f8582613614565b8655506136f6565b601f1984166136a58661348f565b5f5b828110156136cc578489015182556001820191506020850194506020810190506136a7565b868310156136e957848901516136e5601f8916826135f8565b8355505b6001600288020188555050505b505050505050565b5f6040820190506137115f8301856130cb565b818103602083015261372381846129c5565b90509392505050565b7f556e617574686f72697a656420726f6c650000000000000000000000000000005f82015250565b5f613760601183612997565b915061376b8261372c565b602082019050919050565b5f6020820190508181035f83015261378d81613754565b9050919050565b61379d81612d4d565b82525050565b5f6060820190506137b65f8301866130cb565b6137c36020830185613794565b81810360408301526137d581846129c5565b9050949350505050565b5f81905092915050565b5f6137f38261298d565b6137fd81856137df565b935061380d8185602086016129a7565b80840191505092915050565b5f61382482856137e9565b915061383082846137e9565b91508190509392505050565b5f81519050919050565b5f82825260208201905092915050565b5f6138608261383c565b61386a8185613846565b935061387a8185602086016129a7565b613883816129b5565b840191505092915050565b5f6080820190506138a15f830187612aab565b6138ae6020830186612aab565b6138bb60408301856130cb565b81810360608301526138cd8184613856565b905095945050505050565b5f815190506138e681612905565b92915050565b5f60208284031215613901576139006128d2565b5b5f61390e848285016138d8565b91505092915050565b7f4e487b71000000000000000000000000000000000000000000000000000000005f52601260045260245ffd5b5f6040820190506139575f830185612aab565b6139646020830184612b6f565b9392505050565b5f60408201905061397e5f830185612aab565b61398b60208301846130cb565b939250505056fea264697066735822122031d954d558cb66b97c96862f6eae987f174651a39a5023b6cbf1ec7d8d70723164736f6c634300081e0033",
			"opcodes": "PUSH1 0x80 PUSH1 0x40 MSTORE CALLVALUE DUP1 ISZERO PUSH2 0xF JUMPI PUSH0 PUSH0 REVERT JUMPDEST POP PUSH1 0x40 MLOAD PUSH2 0x3FD3 CODESIZE SUB DUP1 PUSH2 0x3FD3 DUP4 CODECOPY DUP2 DUP2 ADD PUSH1 0x40 MSTORE DUP2 ADD SWAP1 PUSH2 0x31 SWAP2 SWAP1 PUSH2 0x2C7 JUMP JUMPDEST PUSH1 0x40 MLOAD DUP1 PUSH1 0x40 ADD PUSH1 0x40 MSTORE DUP1 PUSH1 0x13 DUP2 MSTORE PUSH1 0x20 ADD PUSH32 0x466F6F6454726163656162696C6974794E465400000000000000000000000000 DUP2 MSTORE POP PUSH1 0x40 MLOAD DUP1 PUSH1 0x40 ADD PUSH1 0x40 MSTORE DUP1 PUSH1 0x3 DUP2 MSTORE PUSH1 0x20 ADD PUSH32 0x46544E0000000000000000000000000000000000000000000000000000000000 DUP2 MSTORE POP DUP2 PUSH0 SWAP1 DUP2 PUSH2 0xAB SWAP2 SWAP1 PUSH2 0x52F JUMP JUMPDEST POP DUP1 PUSH1 0x1 SWAP1 DUP2 PUSH2 0xBB SWAP2 SWAP1 PUSH2 0x52F JUMP JUMPDEST POP POP POP PUSH2 0xD0 PUSH0 PUSH0 SHL CALLER PUSH2 0x108 PUSH1 0x20 SHL PUSH1 0x20 SHR JUMP JUMPDEST POP PUSH2 0x101 PUSH32 0x20B5F7AC978E5D6199DE06401411960DFA81D2F762655F6206BDC61D46FC19E6 DUP3 PUSH2 0x108 PUSH1 0x20 SHL PUSH1 0x20 SHR JUMP JUMPDEST POP POP PUSH2 0x5FE JUMP JUMPDEST PUSH0 PUSH2 0x119 DUP4 DUP4 PUSH2 0x1FE PUSH1 0x20 SHL PUSH1 0x20 SHR JUMP JUMPDEST PUSH2 0x1F4 JUMPI PUSH1 0x1 PUSH1 0x6 PUSH0 DUP6 DUP2 MSTORE PUSH1 0x20 ADD SWAP1 DUP2 MSTORE PUSH1 0x20 ADD PUSH0 KECCAK256 PUSH0 ADD PUSH0 DUP5 PUSH20 0xFFFFFFFFFFFFFFFFFFFFFFFFFFFFFFFFFFFFFFFF AND PUSH20 0xFFFFFFFFFFFFFFFFFFFFFFFFFFFFFFFFFFFFFFFF AND DUP2 MSTORE PUSH1 0x20 ADD SWAP1 DUP2 MSTORE PUSH1 0x20 ADD PUSH0 KECCAK256 PUSH0 PUSH2 0x100 EXP DUP2 SLOAD DUP2 PUSH1 0xFF MUL NOT AND SWAP1 DUP4 ISZERO ISZERO MUL OR SWAP1 SSTORE POP PUSH2 0x191 PUSH2 0x262 PUSH1 0x20 SHL PUSH1 0x20 SHR JUMP JUMPDEST PUSH20 0xFFFFFFFFFFFFFFFFFFFFFFFFFFFFFFFFFFFFFFFF AND DUP3 PUSH20 0xFFFFFFFFFFFFFFFFFFFFFFFFFFFFFFFFFFFFFFFF AND DUP5 PUSH32 0x2F8788117E7EFF1D82E926EC794901D17C78024A50270940304540A733656F0D PUSH1 0x40 MLOAD PUSH1 0x40 MLOAD DUP1 SWAP2 SUB SWAP1 LOG4 PUSH1 0x1 SWAP1 POP PUSH2 0x1F8 JUMP JUMPDEST PUSH0 SWAP1 POP JUMPDEST SWAP3 SWAP2 POP POP JUMP JUMPDEST PUSH0 PUSH1 0x6 PUSH0 DUP5 DUP2 MSTORE PUSH1 0x20 ADD SWAP1 DUP2 MSTORE PUSH1 0x20 ADD PUSH0 KECCAK256 PUSH0 ADD PUSH0 DUP4 PUSH20 0xFFFFFFFFFFFFFFFFFFFFFFFFFFFFFFFFFFFFFFFF AND PUSH20 0xFFFFFFFFFFFFFFFFFFFFFFFFFFFFFFFFFFFFFFFF AND DUP2 MSTORE PUSH1 0x20 ADD SWAP1 DUP2 MSTORE PUSH1 0x20 ADD PUSH0 KECCAK256 PUSH0 SWAP1 SLOAD SWAP1 PUSH2 0x100 EXP SWAP1 DIV PUSH1 0xFF AND SWAP1 POP SWAP3 SWAP2 POP POP JUMP JUMPDEST PUSH0 CALLER SWAP1 POP SWAP1 JUMP JUMPDEST PUSH0 PUSH0 REVERT JUMPDEST PUSH0 PUSH20 0xFFFFFFFFFFFFFFFFFFFFFFFFFFFFFFFFFFFFFFFF DUP3 AND SWAP1 POP SWAP2 SWAP1 POP JUMP JUMPDEST PUSH0 PUSH2 0x296 DUP3 PUSH2 0x26D JUMP JUMPDEST SWAP1 POP SWAP2 SWAP1 POP JUMP JUMPDEST PUSH2 0x2A6 DUP2 PUSH2 0x28C JUMP JUMPDEST DUP2 EQ PUSH2 0x2B0 JUMPI PUSH0 PUSH0 REVERT JUMPDEST POP JUMP JUMPDEST PUSH0 DUP2 MLOAD SWAP1 POP PUSH2 0x2C1 DUP2 PUSH2 0x29D JUMP JUMPDEST SWAP3 SWAP2 POP POP JUMP JUMPDEST PUSH0 PUSH1 0x20 DUP3 DUP5 SUB SLT ISZERO PUSH2 0x2DC JUMPI PUSH2 0x2DB PUSH2 0x269 JUMP JUMPDEST JUMPDEST PUSH0 PUSH2 0x2E9 DUP5 DUP3 DUP6 ADD PUSH2 0x2B3 JUMP JUMPDEST SWAP2 POP POP SWAP3 SWAP2 POP POP JUMP JUMPDEST PUSH0 DUP2 MLOAD SWAP1 POP SWAP2 SWAP1 POP JUMP JUMPDEST PUSH32 0x4E487B7100000000000000000000000000000000000000000000000000000000 PUSH0 MSTORE PUSH1 0x41 PUSH1 0x4 MSTORE PUSH1 0x24 PUSH0 REVERT JUMPDEST PUSH32 0x4E487B7100000000000000000000000000000000000000000000000000000000 PUSH0 MSTORE PUSH1 0x22 PUSH1 0x4 MSTORE PUSH1 0x24 PUSH0 REVERT JUMPDEST PUSH0 PUSH1 0x2 DUP3 DIV SWAP1 POP PUSH1 0x1 DUP3 AND DUP1 PUSH2 0x36D JUMPI PUSH1 0x7F DUP3 AND SWAP2 POP JUMPDEST PUSH1 0x20 DUP3 LT DUP2 SUB PUSH2 0x380 JUMPI PUSH2 0x37F PUSH2 0x329 JUMP JUMPDEST JUMPDEST POP SWAP2 SWAP1 POP JUMP JUMPDEST PUSH0 DUP2 SWAP1 POP DUP2 PUSH0 MSTORE PUSH1 0x20 PUSH0 KECCAK256 SWAP1 POP SWAP2 SWAP1 POP JUMP JUMPDEST PUSH0 PUSH1 0x20 PUSH1 0x1F DUP4 ADD DIV SWAP1 POP SWAP2 SWAP1 POP JUMP JUMPDEST PUSH0 DUP3 DUP3 SHL SWAP1 POP SWAP3 SWAP2 POP POP JUMP JUMPDEST PUSH0 PUSH1 0x8 DUP4 MUL PUSH2 0x3E2 PUSH32 0xFFFFFFFFFFFFFFFFFFFFFFFFFFFFFFFFFFFFFFFFFFFFFFFFFFFFFFFFFFFFFFFF DUP3 PUSH2 0x3A7 JUMP JUMPDEST PUSH2 0x3EC DUP7 DUP4 PUSH2 0x3A7 JUMP JUMPDEST SWAP6 POP DUP1 NOT DUP5 AND SWAP4 POP DUP1 DUP7 AND DUP5 OR SWAP3 POP POP POP SWAP4 SWAP3 POP POP POP JUMP JUMPDEST PUSH0 DUP2 SWAP1 POP SWAP2 SWAP1 POP JUMP JUMPDEST PUSH0 DUP2 SWAP1 POP SWAP2 SWAP1 POP JUMP JUMPDEST PUSH0 PUSH2 0x430 PUSH2 0x42B PUSH2 0x426 DUP5 PUSH2 0x404 JUMP JUMPDEST PUSH2 0x40D JUMP JUMPDEST PUSH2 0x404 JUMP JUMPDEST SWAP1 POP SWAP2 SWAP1 POP JUMP JUMPDEST PUSH0 DUP2 SWAP1 POP SWAP2 SWAP1 POP JUMP JUMPDEST PUSH2 0x449 DUP4 PUSH2 0x416 JUMP JUMPDEST PUSH2 0x45D PUSH2 0x455 DUP3 PUSH2 0x437 JUMP JUMPDEST DUP5 DUP5 SLOAD PUSH2 0x3B3 JUMP JUMPDEST DUP3 SSTORE POP POP POP POP JUMP JUMPDEST PUSH0 PUSH0 SWAP1 POP SWAP1 JUMP JUMPDEST PUSH2 0x474 PUSH2 0x465 JUMP JUMPDEST PUSH2 0x47F DUP2 DUP5 DUP5 PUSH2 0x440 JUMP JUMPDEST POP POP POP JUMP JUMPDEST JUMPDEST DUP2 DUP2 LT ISZERO PUSH2 0x4A2 JUMPI PUSH2 0x497 PUSH0 DUP3 PUSH2 0x46C JUMP JUMPDEST PUSH1 0x1 DUP2 ADD SWAP1 POP PUSH2 0x485 JUMP JUMPDEST POP POP JUMP JUMPDEST PUSH1 0x1F DUP3 GT ISZERO PUSH2 0x4E7 JUMPI PUSH2 0x4B8 DUP2 PUSH2 0x386 JUMP JUMPDEST PUSH2 0x4C1 DUP5 PUSH2 0x398 JUMP JUMPDEST DUP2 ADD PUSH1 0x20 DUP6 LT ISZERO PUSH2 0x4D0 JUMPI DUP2 SWAP1 POP JUMPDEST PUSH2 0x4E4 PUSH2 0x4DC DUP6 PUSH2 0x398 JUMP JUMPDEST DUP4 ADD DUP3 PUSH2 0x484 JUMP JUMPDEST POP POP JUMPDEST POP POP POP JUMP JUMPDEST PUSH0 DUP3 DUP3 SHR SWAP1 POP SWAP3 SWAP2 POP POP JUMP JUMPDEST PUSH0 PUSH2 0x507 PUSH0 NOT DUP5 PUSH1 0x8 MUL PUSH2 0x4EC JUMP JUMPDEST NOT DUP1 DUP4 AND SWAP2 POP POP SWAP3 SWAP2 POP POP JUMP JUMPDEST PUSH0 PUSH2 0x51F DUP4 DUP4 PUSH2 0x4F8 JUMP JUMPDEST SWAP2 POP DUP3 PUSH1 0x2 MUL DUP3 OR SWAP1 POP SWAP3 SWAP2 POP POP JUMP JUMPDEST PUSH2 0x538 DUP3 PUSH2 0x2F2 JUMP JUMPDEST PUSH8 0xFFFFFFFFFFFFFFFF DUP2 GT ISZERO PUSH2 0x551 JUMPI PUSH2 0x550 PUSH2 0x2FC JUMP JUMPDEST JUMPDEST PUSH2 0x55B DUP3 SLOAD PUSH2 0x356 JUMP JUMPDEST PUSH2 0x566 DUP3 DUP3 DUP6 PUSH2 0x4A6 JUMP JUMPDEST PUSH0 PUSH1 0x20 SWAP1 POP PUSH1 0x1F DUP4 GT PUSH1 0x1 DUP2 EQ PUSH2 0x597 JUMPI PUSH0 DUP5 ISZERO PUSH2 0x585 JUMPI DUP3 DUP8 ADD MLOAD SWAP1 POP JUMPDEST PUSH2 0x58F DUP6 DUP3 PUSH2 0x514 JUMP JUMPDEST DUP7 SSTORE POP PUSH2 0x5F6 JUMP JUMPDEST PUSH1 0x1F NOT DUP5 AND PUSH2 0x5A5 DUP7 PUSH2 0x386 JUMP JUMPDEST PUSH0 JUMPDEST DUP3 DUP2 LT ISZERO PUSH2 0x5CC JUMPI DUP5 DUP10 ADD MLOAD DUP3 SSTORE PUSH1 0x1 DUP3 ADD SWAP2 POP PUSH1 0x20 DUP6 ADD SWAP5 POP PUSH1 0x20 DUP2 ADD SWAP1 POP PUSH2 0x5A7 JUMP JUMPDEST DUP7 DUP4 LT ISZERO PUSH2 0x5E9 JUMPI DUP5 DUP10 ADD MLOAD PUSH2 0x5E5 PUSH1 0x1F DUP10 AND DUP3 PUSH2 0x4F8 JUMP JUMPDEST DUP4 SSTORE POP JUMPDEST PUSH1 0x1 PUSH1 0x2 DUP9 MUL ADD DUP9 SSTORE POP POP POP JUMPDEST POP POP POP POP POP POP JUMP JUMPDEST PUSH2 0x39C8 DUP1 PUSH2 0x60B PUSH0 CODECOPY PUSH0 RETURN INVALID PUSH1 0x80 PUSH1 0x40 MSTORE CALLVALUE DUP1 ISZERO PUSH2 0xF JUMPI PUSH0 PUSH0 REVERT JUMPDEST POP PUSH1 0x4 CALLDATASIZE LT PUSH2 0x1D8 JUMPI PUSH0 CALLDATALOAD PUSH1 0xE0 SHR DUP1 PUSH4 0x6352211E GT PUSH2 0x102 JUMPI DUP1 PUSH4 0xA22CB465 GT PUSH2 0xA0 JUMPI DUP1 PUSH4 0xCB3E1FE7 GT PUSH2 0x6F JUMPI DUP1 PUSH4 0xCB3E1FE7 EQ PUSH2 0x572 JUMPI DUP1 PUSH4 0xD547741F EQ PUSH2 0x590 JUMPI DUP1 PUSH4 0xE985E9C5 EQ PUSH2 0x5AC JUMPI DUP1 PUSH4 0xF0BD87CC EQ PUSH2 0x5DC JUMPI PUSH2 0x1D8 JUMP JUMPDEST DUP1 PUSH4 0xA22CB465 EQ PUSH2 0x4DA JUMPI DUP1 PUSH4 0xAB995D12 EQ PUSH2 0x4F6 JUMPI DUP1 PUSH4 0xB88D4FDE EQ PUSH2 0x526 JUMPI DUP1 PUSH4 0xC87B56DD EQ PUSH2 0x542 JUMPI PUSH2 0x1D8 JUMP JUMPDEST DUP1 PUSH4 0x70A08231 GT PUSH2 0xDC JUMPI DUP1 PUSH4 0x70A08231 EQ PUSH2 0x43E JUMPI DUP1 PUSH4 0x91D14854 EQ PUSH2 0x46E JUMPI DUP1 PUSH4 0x95D89B41 EQ PUSH2 0x49E JUMPI DUP1 PUSH4 0xA217FDDF EQ PUSH2 0x4BC JUMPI PUSH2 0x1D8 JUMP JUMPDEST DUP1 PUSH4 0x6352211E EQ PUSH2 0x3D6 JUMPI DUP1 PUSH4 0x639A7E72 EQ PUSH2 0x406 JUMPI DUP1 PUSH4 0x704BEFA6 EQ PUSH2 0x422 JUMPI PUSH2 0x1D8 JUMP JUMPDEST DUP1 PUSH4 0x23B872DD GT PUSH2 0x17A JUMPI DUP1 PUSH4 0x36568ABE GT PUSH2 0x149 JUMPI DUP1 PUSH4 0x36568ABE EQ PUSH2 0x352 JUMPI DUP1 PUSH4 0x42842E0E EQ PUSH2 0x36E JUMPI DUP1 PUSH4 0x43E73FF1 EQ PUSH2 0x38A JUMPI DUP1 PUSH4 0x565CF74F EQ PUSH2 0x3BA JUMPI PUSH2 0x1D8 JUMP JUMPDEST DUP1 PUSH4 0x23B872DD EQ PUSH2 0x2CE JUMPI DUP1 PUSH4 0x248A9CA3 EQ PUSH2 0x2EA JUMPI DUP1 PUSH4 0x2561F718 EQ PUSH2 0x31A JUMPI DUP1 PUSH4 0x2F2FF15D EQ PUSH2 0x336 JUMPI PUSH2 0x1D8 JUMP JUMPDEST DUP1 PUSH4 0x95EA7B3 GT PUSH2 0x1B6 JUMPI DUP1 PUSH4 0x95EA7B3 EQ PUSH2 0x25A JUMPI DUP1 PUSH4 0xC1B1178 EQ PUSH2 0x276 JUMPI DUP1 PUSH4 0x144BF589 EQ PUSH2 0x292 JUMPI DUP1 PUSH4 0x2115E7BF EQ PUSH2 0x2B0 JUMPI PUSH2 0x1D8 JUMP JUMPDEST DUP1 PUSH4 0x1FFC9A7 EQ PUSH2 0x1DC JUMPI DUP1 PUSH4 0x6FDDE03 EQ PUSH2 0x20C JUMPI DUP1 PUSH4 0x81812FC EQ PUSH2 0x22A JUMPI JUMPDEST PUSH0 PUSH0 REVERT JUMPDEST PUSH2 0x1F6 PUSH1 0x4 DUP1 CALLDATASIZE SUB DUP2 ADD SWAP1 PUSH2 0x1F1 SWAP2 SWAP1 PUSH2 0x292F JUMP JUMPDEST PUSH2 0x5FA JUMP JUMPDEST PUSH1 0x40 MLOAD PUSH2 0x203 SWAP2 SWAP1 PUSH2 0x2974 JUMP JUMPDEST PUSH1 0x40 MLOAD DUP1 SWAP2 SUB SWAP1 RETURN JUMPDEST PUSH2 0x214 PUSH2 0x60B JUMP JUMPDEST PUSH1 0x40 MLOAD PUSH2 0x221 SWAP2 SWAP1 PUSH2 0x29FD JUMP JUMPDEST PUSH1 0x40 MLOAD DUP1 SWAP2 SUB SWAP1 RETURN JUMPDEST PUSH2 0x244 PUSH1 0x4 DUP1 CALLDATASIZE SUB DUP2 ADD SWAP1 PUSH2 0x23F SWAP2 SWAP1 PUSH2 0x2A50 JUMP JUMPDEST PUSH2 0x69A JUMP JUMPDEST PUSH1 0x40 MLOAD PUSH2 0x251 SWAP2 SWAP1 PUSH2 0x2ABA JUMP JUMPDEST PUSH1 0x40 MLOAD DUP1 SWAP2 SUB SWAP1 RETURN JUMPDEST PUSH2 0x274 PUSH1 0x4 DUP1 CALLDATASIZE SUB DUP2 ADD SWAP1 PUSH2 0x26F SWAP2 SWAP1 PUSH2 0x2AFD JUMP JUMPDEST PUSH2 0x6B5 JUMP JUMPDEST STOP JUMPDEST PUSH2 0x290 PUSH1 0x4 DUP1 CALLDATASIZE SUB DUP2 ADD SWAP1 PUSH2 0x28B SWAP2 SWAP1 PUSH2 0x2B3B JUMP JUMPDEST PUSH2 0x6CB JUMP JUMPDEST STOP JUMPDEST PUSH2 0x29A PUSH2 0x724 JUMP JUMPDEST PUSH1 0x40 MLOAD PUSH2 0x2A7 SWAP2 SWAP1 PUSH2 0x2B7E JUMP JUMPDEST PUSH1 0x40 MLOAD DUP1 SWAP2 SUB SWAP1 RETURN JUMPDEST PUSH2 0x2B8 PUSH2 0x748 JUMP JUMPDEST PUSH1 0x40 MLOAD PUSH2 0x2C5 SWAP2 SWAP1 PUSH2 0x2B7E JUMP JUMPDEST PUSH1 0x40 MLOAD DUP1 SWAP2 SUB SWAP1 RETURN JUMPDEST PUSH2 0x2E8 PUSH1 0x4 DUP1 CALLDATASIZE SUB DUP2 ADD SWAP1 PUSH2 0x2E3 SWAP2 SWAP1 PUSH2 0x2B97 JUMP JUMPDEST PUSH2 0x76C JUMP JUMPDEST STOP JUMPDEST PUSH2 0x304 PUSH1 0x4 DUP1 CALLDATASIZE SUB DUP2 ADD SWAP1 PUSH2 0x2FF SWAP2 SWAP1 PUSH2 0x2C11 JUMP JUMPDEST PUSH2 0x86B JUMP JUMPDEST PUSH1 0x40 MLOAD PUSH2 0x311 SWAP2 SWAP1 PUSH2 0x2B7E JUMP JUMPDEST PUSH1 0x40 MLOAD DUP1 SWAP2 SUB SWAP1 RETURN JUMPDEST PUSH2 0x334 PUSH1 0x4 DUP1 CALLDATASIZE SUB DUP2 ADD SWAP1 PUSH2 0x32F SWAP2 SWAP1 PUSH2 0x2B3B JUMP JUMPDEST PUSH2 0x888 JUMP JUMPDEST STOP JUMPDEST PUSH2 0x350 PUSH1 0x4 DUP1 CALLDATASIZE SUB DUP2 ADD SWAP1 PUSH2 0x34B SWAP2 SWAP1 PUSH2 0x2C3C JUMP JUMPDEST PUSH2 0x8E1 JUMP JUMPDEST STOP JUMPDEST PUSH2 0x36C PUSH1 0x4 DUP1 CALLDATASIZE SUB DUP2 ADD SWAP1 PUSH2 0x367 SWAP2 SWAP1 PUSH2 0x2C3C JUMP JUMPDEST PUSH2 0x903 JUMP JUMPDEST STOP JUMPDEST PUSH2 0x388 PUSH1 0x4 DUP1 CALLDATASIZE SUB DUP2 ADD SWAP1 PUSH2 0x383 SWAP2 SWAP1 PUSH2 0x2B97 JUMP JUMPDEST PUSH2 0x97E JUMP JUMPDEST STOP JUMPDEST PUSH2 0x3A4 PUSH1 0x4 DUP1 CALLDATASIZE SUB DUP2 ADD SWAP1 PUSH2 0x39F SWAP2 SWAP1 PUSH2 0x2A50 JUMP JUMPDEST PUSH2 0x99D JUMP JUMPDEST PUSH1 0x40 MLOAD PUSH2 0x3B1 SWAP2 SWAP1 PUSH2 0x2E4C JUMP JUMPDEST PUSH1 0x40 MLOAD DUP1 SWAP2 SUB SWAP1 RETURN JUMPDEST PUSH2 0x3D4 PUSH1 0x4 DUP1 CALLDATASIZE SUB DUP2 ADD SWAP1 PUSH2 0x3CF SWAP2 SWAP1 PUSH2 0x2A50 JUMP JUMPDEST PUSH2 0xAEA JUMP JUMPDEST STOP JUMPDEST PUSH2 0x3F0 PUSH1 0x4 DUP1 CALLDATASIZE SUB DUP2 ADD SWAP1 PUSH2 0x3EB SWAP2 SWAP1 PUSH2 0x2A50 JUMP JUMPDEST PUSH2 0xC98 JUMP JUMPDEST PUSH1 0x40 MLOAD PUSH2 0x3FD SWAP2 SWAP1 PUSH2 0x2ABA JUMP JUMPDEST PUSH1 0x40 MLOAD DUP1 SWAP2 SUB SWAP1 RETURN JUMPDEST PUSH2 0x420 PUSH1 0x4 DUP1 CALLDATASIZE SUB DUP2 ADD SWAP1 PUSH2 0x41B SWAP2 SWAP1 PUSH2 0x2F98 JUMP JUMPDEST PUSH2 0xCA9 JUMP JUMPDEST STOP JUMPDEST PUSH2 0x43C PUSH1 0x4 DUP1 CALLDATASIZE SUB DUP2 ADD SWAP1 PUSH2 0x437 SWAP2 SWAP1 PUSH2 0x305F JUMP JUMPDEST PUSH2 0xEA5 JUMP JUMPDEST STOP JUMPDEST PUSH2 0x458 PUSH1 0x4 DUP1 CALLDATASIZE SUB DUP2 ADD SWAP1 PUSH2 0x453 SWAP2 SWAP1 PUSH2 0x2B3B JUMP JUMPDEST PUSH2 0x1115 JUMP JUMPDEST PUSH1 0x40 MLOAD PUSH2 0x465 SWAP2 SWAP1 PUSH2 0x30DA JUMP JUMPDEST PUSH1 0x40 MLOAD DUP1 SWAP2 SUB SWAP1 RETURN JUMPDEST PUSH2 0x488 PUSH1 0x4 DUP1 CALLDATASIZE SUB DUP2 ADD SWAP1 PUSH2 0x483 SWAP2 SWAP1 PUSH2 0x2C3C JUMP JUMPDEST PUSH2 0x11CB JUMP JUMPDEST PUSH1 0x40 MLOAD PUSH2 0x495 SWAP2 SWAP1 PUSH2 0x2974 JUMP JUMPDEST PUSH1 0x40 MLOAD DUP1 SWAP2 SUB SWAP1 RETURN JUMPDEST PUSH2 0x4A6 PUSH2 0x122F JUMP JUMPDEST PUSH1 0x40 MLOAD PUSH2 0x4B3 SWAP2 SWAP1 PUSH2 0x29FD JUMP JUMPDEST PUSH1 0x40 MLOAD DUP1 SWAP2 SUB SWAP1 RETURN JUMPDEST PUSH2 0x4C4 PUSH2 0x12BF JUMP JUMPDEST PUSH1 0x40 MLOAD PUSH2 0x4D1 SWAP2 SWAP1 PUSH2 0x2B7E JUMP JUMPDEST PUSH1 0x40 MLOAD DUP1 SWAP2 SUB SWAP1 RETURN JUMPDEST PUSH2 0x4F4 PUSH1 0x4 DUP1 CALLDATASIZE SUB DUP2 ADD SWAP1 PUSH2 0x4EF SWAP2 SWAP1 PUSH2 0x311D JUMP JUMPDEST PUSH2 0x12C5 JUMP JUMPDEST STOP JUMPDEST PUSH2 0x510 PUSH1 0x4 DUP1 CALLDATASIZE SUB DUP2 ADD SWAP1 PUSH2 0x50B SWAP2 SWAP1 PUSH2 0x2A50 JUMP JUMPDEST PUSH2 0x12DB JUMP JUMPDEST PUSH1 0x40 MLOAD PUSH2 0x51D SWAP2 SWAP1 PUSH2 0x3281 JUMP JUMPDEST PUSH1 0x40 MLOAD DUP1 SWAP2 SUB SWAP1 RETURN JUMPDEST PUSH2 0x540 PUSH1 0x4 DUP1 CALLDATASIZE SUB DUP2 ADD SWAP1 PUSH2 0x53B SWAP2 SWAP1 PUSH2 0x333F JUMP JUMPDEST PUSH2 0x15F8 JUMP JUMPDEST STOP JUMPDEST PUSH2 0x55C PUSH1 0x4 DUP1 CALLDATASIZE SUB DUP2 ADD SWAP1 PUSH2 0x557 SWAP2 SWAP1 PUSH2 0x2A50 JUMP JUMPDEST PUSH2 0x161D JUMP JUMPDEST PUSH1 0x40 MLOAD PUSH2 0x569 SWAP2 SWAP1 PUSH2 0x29FD JUMP JUMPDEST PUSH1 0x40 MLOAD DUP1 SWAP2 SUB SWAP1 RETURN JUMPDEST PUSH2 0x57A PUSH2 0x1683 JUMP JUMPDEST PUSH1 0x40 MLOAD PUSH2 0x587 SWAP2 SWAP1 PUSH2 0x2B7E JUMP JUMPDEST PUSH1 0x40 MLOAD DUP1 SWAP2 SUB SWAP1 RETURN JUMPDEST PUSH2 0x5AA PUSH1 0x4 DUP1 CALLDATASIZE SUB DUP2 ADD SWAP1 PUSH2 0x5A5 SWAP2 SWAP1 PUSH2 0x2C3C JUMP JUMPDEST PUSH2 0x16A7 JUMP JUMPDEST STOP JUMPDEST PUSH2 0x5C6 PUSH1 0x4 DUP1 CALLDATASIZE SUB DUP2 ADD SWAP1 PUSH2 0x5C1 SWAP2 SWAP1 PUSH2 0x33BF JUMP JUMPDEST PUSH2 0x16C9 JUMP JUMPDEST PUSH1 0x40 MLOAD PUSH2 0x5D3 SWAP2 SWAP1 PUSH2 0x2974 JUMP JUMPDEST PUSH1 0x40 MLOAD DUP1 SWAP2 SUB SWAP1 RETURN JUMPDEST PUSH2 0x5E4 PUSH2 0x1757 JUMP JUMPDEST PUSH1 0x40 MLOAD PUSH2 0x5F1 SWAP2 SWAP1 PUSH2 0x2B7E JUMP JUMPDEST PUSH1 0x40 MLOAD DUP1 SWAP2 SUB SWAP1 RETURN JUMPDEST PUSH0 PUSH2 0x604 DUP3 PUSH2 0x177B JUMP JUMPDEST SWAP1 POP SWAP2 SWAP1 POP JUMP JUMPDEST PUSH1 0x60 PUSH0 DUP1 SLOAD PUSH2 0x619 SWAP1 PUSH2 0x342A JUMP JUMPDEST DUP1 PUSH1 0x1F ADD PUSH1 0x20 DUP1 SWAP2 DIV MUL PUSH1 0x20 ADD PUSH1 0x40 MLOAD SWAP1 DUP2 ADD PUSH1 0x40 MSTORE DUP1 SWAP3 SWAP2 SWAP1 DUP2 DUP2 MSTORE PUSH1 0x20 ADD DUP3 DUP1 SLOAD PUSH2 0x645 SWAP1 PUSH2 0x342A JUMP JUMPDEST DUP1 ISZERO PUSH2 0x690 JUMPI DUP1 PUSH1 0x1F LT PUSH2 0x667 JUMPI PUSH2 0x100 DUP1 DUP4 SLOAD DIV MUL DUP4 MSTORE SWAP2 PUSH1 0x20 ADD SWAP2 PUSH2 0x690 JUMP JUMPDEST DUP3 ADD SWAP2 SWAP1 PUSH0 MSTORE PUSH1 0x20 PUSH0 KECCAK256 SWAP1 JUMPDEST DUP2 SLOAD DUP2 MSTORE SWAP1 PUSH1 0x1 ADD SWAP1 PUSH1 0x20 ADD DUP1 DUP4 GT PUSH2 0x673 JUMPI DUP3 SWAP1 SUB PUSH1 0x1F AND DUP3 ADD SWAP2 JUMPDEST POP POP POP POP POP SWAP1 POP SWAP1 JUMP JUMPDEST PUSH0 PUSH2 0x6A4 DUP3 PUSH2 0x17F4 JUMP JUMPDEST POP PUSH2 0x6AE DUP3 PUSH2 0x187A JUMP JUMPDEST SWAP1 POP SWAP2 SWAP1 POP JUMP JUMPDEST PUSH2 0x6C7 DUP3 DUP3 PUSH2 0x6C2 PUSH2 0x18B3 JUMP JUMPDEST PUSH2 0x18BA JUMP JUMPDEST POP POP JUMP JUMPDEST PUSH32 0x8EB467F061CA67F42A2D2CA4A346FC9FB645EFC0BA75056EE9F71C3A0CCC10A8 PUSH2 0x6F5 DUP2 PUSH2 0x18CC JUMP JUMPDEST PUSH2 0x71F PUSH32 0xFBD454F36A7E1A388BD6FC3AB10D434AA4578F811ACBBCF33AFB1C697486313C DUP4 PUSH2 0x18E0 JUMP JUMPDEST POP POP POP JUMP JUMPDEST PUSH32 0x20B5F7AC978E5D6199DE06401411960DFA81D2F762655F6206BDC61D46FC19E6 DUP2 JUMP JUMPDEST PUSH32 0x2A5F906C256A5D799494FCD066E1F6C077689DE1CDB65052A1624DE4BACE99BF DUP2 JUMP JUMPDEST PUSH0 PUSH20 0xFFFFFFFFFFFFFFFFFFFFFFFFFFFFFFFFFFFFFFFF AND DUP3 PUSH20 0xFFFFFFFFFFFFFFFFFFFFFFFFFFFFFFFFFFFFFFFF AND SUB PUSH2 0x7DC JUMPI PUSH0 PUSH1 0x40 MLOAD PUSH32 0x64A0AE9200000000000000000000000000000000000000000000000000000000 DUP2 MSTORE PUSH1 0x4 ADD PUSH2 0x7D3 SWAP2 SWAP1 PUSH2 0x2ABA JUMP JUMPDEST PUSH1 0x40 MLOAD DUP1 SWAP2 SUB SWAP1 REVERT JUMPDEST PUSH0 PUSH2 0x7EF DUP4 DUP4 PUSH2 0x7EA PUSH2 0x18B3 JUMP JUMPDEST PUSH2 0x19CA JUMP JUMPDEST SWAP1 POP DUP4 PUSH20 0xFFFFFFFFFFFFFFFFFFFFFFFFFFFFFFFFFFFFFFFF AND DUP2 PUSH20 0xFFFFFFFFFFFFFFFFFFFFFFFFFFFFFFFFFFFFFFFF AND EQ PUSH2 0x865 JUMPI DUP4 DUP3 DUP3 PUSH1 0x40 MLOAD PUSH32 0x64283D7B00000000000000000000000000000000000000000000000000000000 DUP2 MSTORE PUSH1 0x4 ADD PUSH2 0x85C SWAP4 SWAP3 SWAP2 SWAP1 PUSH2 0x345A JUMP JUMPDEST PUSH1 0x40 MLOAD DUP1 SWAP2 SUB SWAP1 REVERT JUMPDEST POP POP POP POP JUMP JUMPDEST PUSH0 PUSH1 0x6 PUSH0 DUP4 DUP2 MSTORE PUSH1 0x20 ADD SWAP1 DUP2 MSTORE PUSH1 0x20 ADD PUSH0 KECCAK256 PUSH1 0x1 ADD SLOAD SWAP1 POP SWAP2 SWAP1 POP JUMP JUMPDEST PUSH32 0xFBD454F36A7E1A388BD6FC3AB10D434AA4578F811ACBBCF33AFB1C697486313C PUSH2 0x8B2 DUP2 PUSH2 0x18CC JUMP JUMPDEST PUSH2 0x8DC PUSH32 0x2A5F906C256A5D799494FCD066E1F6C077689DE1CDB65052A1624DE4BACE99BF DUP4 PUSH2 0x18E0 JUMP JUMPDEST POP POP POP JUMP JUMPDEST PUSH2 0x8EA DUP3 PUSH2 0x86B JUMP JUMPDEST PUSH2 0x8F3 DUP2 PUSH2 0x18CC JUMP JUMPDEST PUSH2 0x8FD DUP4 DUP4 PUSH2 0x18E0 JUMP JUMPDEST POP POP POP POP JUMP JUMPDEST PUSH2 0x90B PUSH2 0x18B3 JUMP JUMPDEST PUSH20 0xFFFFFFFFFFFFFFFFFFFFFFFFFFFFFFFFFFFFFFFF AND DUP2 PUSH20 0xFFFFFFFFFFFFFFFFFFFFFFFFFFFFFFFFFFFFFFFF AND EQ PUSH2 0x96F JUMPI PUSH1 0x40 MLOAD PUSH32 0x6697B23200000000000000000000000000000000000000000000000000000000 DUP2 MSTORE PUSH1 0x4 ADD PUSH1 0x40 MLOAD DUP1 SWAP2 SUB SWAP1 REVERT JUMPDEST PUSH2 0x979 DUP3 DUP3 PUSH2 0x1BD5 JUMP JUMPDEST POP POP POP JUMP JUMPDEST PUSH2 0x998 DUP4 DUP4 DUP4 PUSH1 0x40 MLOAD DUP1 PUSH1 0x20 ADD PUSH1 0x40 MSTORE DUP1 PUSH0 DUP2 MSTORE POP PUSH2 0x15F8 JUMP JUMPDEST POP POP POP JUMP JUMPDEST PUSH1 0x60 PUSH2 0x9A8 DUP3 PUSH2 0x17F4 JUMP JUMPDEST POP PUSH1 0x8 PUSH0 DUP4 DUP2 MSTORE PUSH1 0x20 ADD SWAP1 DUP2 MSTORE PUSH1 0x20 ADD PUSH0 KECCAK256 PUSH1 0x4 ADD DUP1 SLOAD DUP1 PUSH1 0x20 MUL PUSH1 0x20 ADD PUSH1 0x40 MLOAD SWAP1 DUP2 ADD PUSH1 0x40 MSTORE DUP1 SWAP3 SWAP2 SWAP1 DUP2 DUP2 MSTORE PUSH1 0x20 ADD PUSH0 SWAP1 JUMPDEST DUP3 DUP3 LT ISZERO PUSH2 0xADF JUMPI DUP4 DUP3 SWAP1 PUSH0 MSTORE PUSH1 0x20 PUSH0 KECCAK256 SWAP1 PUSH1 0x3 MUL ADD PUSH1 0x40 MLOAD DUP1 PUSH1 0x60 ADD PUSH1 0x40 MSTORE SWAP1 DUP2 PUSH0 DUP3 ADD SLOAD DUP2 MSTORE PUSH1 0x20 ADD PUSH1 0x1 DUP3 ADD DUP1 SLOAD PUSH2 0xA16 SWAP1 PUSH2 0x342A JUMP JUMPDEST DUP1 PUSH1 0x1F ADD PUSH1 0x20 DUP1 SWAP2 DIV MUL PUSH1 0x20 ADD PUSH1 0x40 MLOAD SWAP1 DUP2 ADD PUSH1 0x40 MSTORE DUP1 SWAP3 SWAP2 SWAP1 DUP2 DUP2 MSTORE PUSH1 0x20 ADD DUP3 DUP1 SLOAD PUSH2 0xA42 SWAP1 PUSH2 0x342A JUMP JUMPDEST DUP1 ISZERO PUSH2 0xA8D JUMPI DUP1 PUSH1 0x1F LT PUSH2 0xA64 JUMPI PUSH2 0x100 DUP1 DUP4 SLOAD DIV MUL DUP4 MSTORE SWAP2 PUSH1 0x20 ADD SWAP2 PUSH2 0xA8D JUMP JUMPDEST DUP3 ADD SWAP2 SWAP1 PUSH0 MSTORE PUSH1 0x20 PUSH0 KECCAK256 SWAP1 JUMPDEST DUP2 SLOAD DUP2 MSTORE SWAP1 PUSH1 0x1 ADD SWAP1 PUSH1 0x20 ADD DUP1 DUP4 GT PUSH2 0xA70 JUMPI DUP3 SWAP1 SUB PUSH1 0x1F AND DUP3 ADD SWAP2 JUMPDEST POP POP POP POP POP DUP2 MSTORE PUSH1 0x20 ADD PUSH1 0x2 DUP3 ADD PUSH0 SWAP1 SLOAD SWAP1 PUSH2 0x100 EXP SWAP1 DIV PUSH1 0xFF AND PUSH1 0x3 DUP2 GT ISZERO PUSH2 0xABA JUMPI PUSH2 0xAB9 PUSH2 0x2CFA JUMP JUMPDEST JUMPDEST PUSH1 0x3 DUP2 GT ISZERO PUSH2 0xACC JUMPI PUSH2 0xACB PUSH2 0x2CFA JUMP JUMPDEST JUMPDEST DUP2 MSTORE POP POP DUP2 MSTORE PUSH1 0x20 ADD SWAP1 PUSH1 0x1 ADD SWAP1 PUSH2 0x9DC JUMP JUMPDEST POP POP POP POP SWAP1 POP SWAP2 SWAP1 POP JUMP JUMPDEST PUSH32 0x20B5F7AC978E5D6199DE06401411960DFA81D2F762655F6206BDC61D46FC19E6 PUSH2 0xB14 DUP2 PUSH2 0x18CC JUMP JUMPDEST PUSH2 0xB1D DUP3 PUSH2 0x17F4 JUMP JUMPDEST POP PUSH1 0x3 PUSH1 0x8 PUSH0 DUP5 DUP2 MSTORE PUSH1 0x20 ADD SWAP1 DUP2 MSTORE PUSH1 0x20 ADD PUSH0 KECCAK256 PUSH1 0x3 ADD PUSH1 0x14 PUSH2 0x100 EXP DUP2 SLOAD DUP2 PUSH1 0xFF MUL NOT AND SWAP1 DUP4 PUSH1 0x3 DUP2 GT ISZERO PUSH2 0xB56 JUMPI PUSH2 0xB55 PUSH2 0x2CFA JUMP JUMPDEST JUMPDEST MUL OR SWAP1 SSTORE POP PUSH1 0x8 PUSH0 DUP4 DUP2 MSTORE PUSH1 0x20 ADD SWAP1 DUP2 MSTORE PUSH1 0x20 ADD PUSH0 KECCAK256 PUSH1 0x4 ADD PUSH1 0x40 MLOAD DUP1 PUSH1 0x60 ADD PUSH1 0x40 MSTORE DUP1 TIMESTAMP DUP2 MSTORE PUSH1 0x20 ADD PUSH1 0x40 MLOAD DUP1 PUSH1 0x40 ADD PUSH1 0x40 MSTORE DUP1 PUSH1 0x10 DUP2 MSTORE PUSH1 0x20 ADD PUSH32 0x524543414C4C5F54524947474552454400000000000000000000000000000000 DUP2 MSTORE POP DUP2 MSTORE PUSH1 0x20 ADD PUSH1 0x3 DUP1 DUP2 GT ISZERO PUSH2 0xBCE JUMPI PUSH2 0xBCD PUSH2 0x2CFA JUMP JUMPDEST JUMPDEST DUP2 MSTORE POP SWAP1 DUP1 PUSH1 0x1 DUP2 SLOAD ADD DUP1 DUP3 SSTORE DUP1 SWAP2 POP POP PUSH1 0x1 SWAP1 SUB SWAP1 PUSH0 MSTORE PUSH1 0x20 PUSH0 KECCAK256 SWAP1 PUSH1 0x3 MUL ADD PUSH0 SWAP1 SWAP2 SWAP1 SWAP2 SWAP1 SWAP2 POP PUSH0 DUP3 ADD MLOAD DUP2 PUSH0 ADD SSTORE PUSH1 0x20 DUP3 ADD MLOAD DUP2 PUSH1 0x1 ADD SWAP1 DUP2 PUSH2 0xC14 SWAP2 SWAP1 PUSH2 0x362F JUMP JUMPDEST POP PUSH1 0x40 DUP3 ADD MLOAD DUP2 PUSH1 0x2 ADD PUSH0 PUSH2 0x100 EXP DUP2 SLOAD DUP2 PUSH1 0xFF MUL NOT AND SWAP1 DUP4 PUSH1 0x3 DUP2 GT ISZERO PUSH2 0xC3F JUMPI PUSH2 0xC3E PUSH2 0x2CFA JUMP JUMPDEST JUMPDEST MUL OR SWAP1 SSTORE POP POP POP CALLER PUSH20 0xFFFFFFFFFFFFFFFFFFFFFFFFFFFFFFFFFFFFFFFF AND PUSH32 0xC63DF715A472FDFEBE6833EBC93A3B13E4FCC34339EC1A687FF0CDE92F80D1BF DUP4 PUSH1 0x40 MLOAD PUSH2 0xC8C SWAP2 SWAP1 PUSH2 0x30DA JUMP JUMPDEST PUSH1 0x40 MLOAD DUP1 SWAP2 SUB SWAP1 LOG2 POP POP JUMP JUMPDEST PUSH0 PUSH2 0xCA2 DUP3 PUSH2 0x17F4 JUMP JUMPDEST SWAP1 POP SWAP2 SWAP1 POP JUMP JUMPDEST PUSH32 0x8EB467F061CA67F42A2D2CA4A346FC9FB645EFC0BA75056EE9F71C3A0CCC10A8 PUSH2 0xCD3 DUP2 PUSH2 0x18CC JUMP JUMPDEST PUSH2 0xCDD PUSH1 0x7 PUSH2 0x1CBF JUMP JUMPDEST PUSH0 PUSH2 0xCE8 PUSH1 0x7 PUSH2 0x1CD3 JUMP JUMPDEST SWAP1 POP PUSH2 0xCF4 CALLER DUP3 PUSH2 0x1CDF JUMP JUMPDEST PUSH0 PUSH1 0x40 MLOAD DUP1 PUSH1 0x60 ADD PUSH1 0x40 MSTORE DUP1 TIMESTAMP DUP2 MSTORE PUSH1 0x20 ADD DUP6 DUP2 MSTORE PUSH1 0x20 ADD PUSH0 PUSH1 0x3 DUP2 GT ISZERO PUSH2 0xD1F JUMPI PUSH2 0xD1E PUSH2 0x2CFA JUMP JUMPDEST JUMPDEST DUP2 MSTORE POP SWAP1 POP PUSH0 PUSH1 0x8 PUSH0 DUP5 DUP2 MSTORE PUSH1 0x20 ADD SWAP1 DUP2 MSTORE PUSH1 0x20 ADD PUSH0 KECCAK256 SWAP1 POP DUP3 DUP2 PUSH0 ADD DUP2 SWAP1 SSTORE POP DUP7 DUP2 PUSH1 0x1 ADD SWAP1 DUP2 PUSH2 0xD51 SWAP2 SWAP1 PUSH2 0x362F JUMP JUMPDEST POP DUP6 DUP2 PUSH1 0x2 ADD SWAP1 DUP2 PUSH2 0xD63 SWAP2 SWAP1 PUSH2 0x362F JUMP JUMPDEST POP CALLER DUP2 PUSH1 0x3 ADD PUSH0 PUSH2 0x100 EXP DUP2 SLOAD DUP2 PUSH20 0xFFFFFFFFFFFFFFFFFFFFFFFFFFFFFFFFFFFFFFFF MUL NOT AND SWAP1 DUP4 PUSH20 0xFFFFFFFFFFFFFFFFFFFFFFFFFFFFFFFFFFFFFFFF AND MUL OR SWAP1 SSTORE POP PUSH0 DUP2 PUSH1 0x3 ADD PUSH1 0x14 PUSH2 0x100 EXP DUP2 SLOAD DUP2 PUSH1 0xFF MUL NOT AND SWAP1 DUP4 PUSH1 0x3 DUP2 GT ISZERO PUSH2 0xDCD JUMPI PUSH2 0xDCC PUSH2 0x2CFA JUMP JUMPDEST JUMPDEST MUL OR SWAP1 SSTORE POP DUP1 PUSH1 0x4 ADD DUP3 SWAP1 DUP1 PUSH1 0x1 DUP2 SLOAD ADD DUP1 DUP3 SSTORE DUP1 SWAP2 POP POP PUSH1 0x1 SWAP1 SUB SWAP1 PUSH0 MSTORE PUSH1 0x20 PUSH0 KECCAK256 SWAP1 PUSH1 0x3 MUL ADD PUSH0 SWAP1 SWAP2 SWAP1 SWAP2 SWAP1 SWAP2 POP PUSH0 DUP3 ADD MLOAD DUP2 PUSH0 ADD SSTORE PUSH1 0x20 DUP3 ADD MLOAD DUP2 PUSH1 0x1 ADD SWAP1 DUP2 PUSH2 0xE1A SWAP2 SWAP1 PUSH2 0x362F JUMP JUMPDEST POP PUSH1 0x40 DUP3 ADD MLOAD DUP2 PUSH1 0x2 ADD PUSH0 PUSH2 0x100 EXP DUP2 SLOAD DUP2 PUSH1 0xFF MUL NOT AND SWAP1 DUP4 PUSH1 0x3 DUP2 GT ISZERO PUSH2 0xE45 JUMPI PUSH2 0xE44 PUSH2 0x2CFA JUMP JUMPDEST JUMPDEST MUL OR SWAP1 SSTORE POP POP POP CALLER PUSH20 0xFFFFFFFFFFFFFFFFFFFFFFFFFFFFFFFFFFFFFFFF AND PUSH32 0x1F3973F79DFAF5B2C872BD5BBA8E6574E26D275DFCA176912AC524FCCBAC4EE3 DUP5 DUP10 PUSH1 0x40 MLOAD PUSH2 0xE94 SWAP3 SWAP2 SWAP1 PUSH2 0x36FE JUMP JUMPDEST PUSH1 0x40 MLOAD DUP1 SWAP2 SUB SWAP1 LOG2 POP POP POP POP POP POP POP JUMP JUMPDEST PUSH2 0xECF PUSH32 0x8EB467F061CA67F42A2D2CA4A346FC9FB645EFC0BA75056EE9F71C3A0CCC10A8 CALLER PUSH2 0x11CB JUMP JUMPDEST DUP1 PUSH2 0xF00 JUMPI POP PUSH2 0xEFF PUSH32 0xFBD454F36A7E1A388BD6FC3AB10D434AA4578F811ACBBCF33AFB1C697486313C CALLER PUSH2 0x11CB JUMP JUMPDEST JUMPDEST DUP1 PUSH2 0xF31 JUMPI POP PUSH2 0xF30 PUSH32 0x2A5F906C256A5D799494FCD066E1F6C077689DE1CDB65052A1624DE4BACE99BF CALLER PUSH2 0x11CB JUMP JUMPDEST JUMPDEST PUSH2 0xF70 JUMPI PUSH1 0x40 MLOAD PUSH32 0x8C379A000000000000000000000000000000000000000000000000000000000 DUP2 MSTORE PUSH1 0x4 ADD PUSH2 0xF67 SWAP1 PUSH2 0x3776 JUMP JUMPDEST PUSH1 0x40 MLOAD DUP1 SWAP2 SUB SWAP1 REVERT JUMPDEST PUSH2 0xF79 DUP4 PUSH2 0x17F4 JUMP JUMPDEST POP DUP1 PUSH1 0x8 PUSH0 DUP6 DUP2 MSTORE PUSH1 0x20 ADD SWAP1 DUP2 MSTORE PUSH1 0x20 ADD PUSH0 KECCAK256 PUSH1 0x3 ADD PUSH1 0x14 PUSH2 0x100 EXP DUP2 SLOAD DUP2 PUSH1 0xFF MUL NOT AND SWAP1 DUP4 PUSH1 0x3 DUP2 GT ISZERO PUSH2 0xFB1 JUMPI PUSH2 0xFB0 PUSH2 0x2CFA JUMP JUMPDEST JUMPDEST MUL OR SWAP1 SSTORE POP CALLER PUSH1 0x8 PUSH0 DUP6 DUP2 MSTORE PUSH1 0x20 ADD SWAP1 DUP2 MSTORE PUSH1 0x20 ADD PUSH0 KECCAK256 PUSH1 0x3 ADD PUSH0 PUSH2 0x100 EXP DUP2 SLOAD DUP2 PUSH20 0xFFFFFFFFFFFFFFFFFFFFFFFFFFFFFFFFFFFFFFFF MUL NOT AND SWAP1 DUP4 PUSH20 0xFFFFFFFFFFFFFFFFFFFFFFFFFFFFFFFFFFFFFFFF AND MUL OR SWAP1 SSTORE POP PUSH1 0x8 PUSH0 DUP5 DUP2 MSTORE PUSH1 0x20 ADD SWAP1 DUP2 MSTORE PUSH1 0x20 ADD PUSH0 KECCAK256 PUSH1 0x4 ADD PUSH1 0x40 MLOAD DUP1 PUSH1 0x60 ADD PUSH1 0x40 MSTORE DUP1 TIMESTAMP DUP2 MSTORE PUSH1 0x20 ADD DUP5 DUP2 MSTORE PUSH1 0x20 ADD DUP4 PUSH1 0x3 DUP2 GT ISZERO PUSH2 0x1046 JUMPI PUSH2 0x1045 PUSH2 0x2CFA JUMP JUMPDEST JUMPDEST DUP2 MSTORE POP SWAP1 DUP1 PUSH1 0x1 DUP2 SLOAD ADD DUP1 DUP3 SSTORE DUP1 SWAP2 POP POP PUSH1 0x1 SWAP1 SUB SWAP1 PUSH0 MSTORE PUSH1 0x20 PUSH0 KECCAK256 SWAP1 PUSH1 0x3 MUL ADD PUSH0 SWAP1 SWAP2 SWAP1 SWAP2 SWAP1 SWAP2 POP PUSH0 DUP3 ADD MLOAD DUP2 PUSH0 ADD SSTORE PUSH1 0x20 DUP3 ADD MLOAD DUP2 PUSH1 0x1 ADD SWAP1 DUP2 PUSH2 0x108C SWAP2 SWAP1 PUSH2 0x362F JUMP JUMPDEST POP PUSH1 0x40 DUP3 ADD MLOAD DUP2 PUSH1 0x2 ADD PUSH0 PUSH2 0x100 EXP DUP2 SLOAD DUP2 PUSH1 0xFF MUL NOT AND SWAP1 DUP4 PUSH1 0x3 DUP2 GT ISZERO PUSH2 0x10B7 JUMPI PUSH2 0x10B6 PUSH2 0x2CFA JUMP JUMPDEST JUMPDEST MUL OR SWAP1 SSTORE POP POP POP CALLER PUSH20 0xFFFFFFFFFFFFFFFFFFFFFFFFFFFFFFFFFFFFFFFF AND PUSH32 0x3C8C009C43F43B88F7998103690C9B77DCC7D098030B2D4D3ECF180849C12E9C DUP5 DUP4 DUP6 PUSH1 0x40 MLOAD PUSH2 0x1108 SWAP4 SWAP3 SWAP2 SWAP1 PUSH2 0x37A3 JUMP JUMPDEST PUSH1 0x40 MLOAD DUP1 SWAP2 SUB SWAP1 LOG2 POP POP POP JUMP JUMPDEST PUSH0 PUSH0 PUSH20 0xFFFFFFFFFFFFFFFFFFFFFFFFFFFFFFFFFFFFFFFF AND DUP3 PUSH20 0xFFFFFFFFFFFFFFFFFFFFFFFFFFFFFFFFFFFFFFFF AND SUB PUSH2 0x1186 JUMPI PUSH0 PUSH1 0x40 MLOAD PUSH32 0x89C62B6400000000000000000000000000000000000000000000000000000000 DUP2 MSTORE PUSH1 0x4 ADD PUSH2 0x117D SWAP2 SWAP1 PUSH2 0x2ABA JUMP JUMPDEST PUSH1 0x40 MLOAD DUP1 SWAP2 SUB SWAP1 REVERT JUMPDEST PUSH1 0x3 PUSH0 DUP4 PUSH20 0xFFFFFFFFFFFFFFFFFFFFFFFFFFFFFFFFFFFFFFFF AND PUSH20 0xFFFFFFFFFFFFFFFFFFFFFFFFFFFFFFFFFFFFFFFF AND DUP2 MSTORE PUSH1 0x20 ADD SWAP1 DUP2 MSTORE PUSH1 0x20 ADD PUSH0 KECCAK256 SLOAD SWAP1 POP SWAP2 SWAP1 POP JUMP JUMPDEST PUSH0 PUSH1 0x6 PUSH0 DUP5 DUP2 MSTORE PUSH1 0x20 ADD SWAP1 DUP2 MSTORE PUSH1 0x20 ADD PUSH0 KECCAK256 PUSH0 ADD PUSH0 DUP4 PUSH20 0xFFFFFFFFFFFFFFFFFFFFFFFFFFFFFFFFFFFFFFFF AND PUSH20 0xFFFFFFFFFFFFFFFFFFFFFFFFFFFFFFFFFFFFFFFF AND DUP2 MSTORE PUSH1 0x20 ADD SWAP1 DUP2 MSTORE PUSH1 0x20 ADD PUSH0 KECCAK256 PUSH0 SWAP1 SLOAD SWAP1 PUSH2 0x100 EXP SWAP1 DIV PUSH1 0xFF AND SWAP1 POP SWAP3 SWAP2 POP POP JUMP JUMPDEST PUSH1 0x60 PUSH1 0x1 DUP1 SLOAD PUSH2 0x123E SWAP1 PUSH2 0x342A JUMP JUMPDEST DUP1 PUSH1 0x1F ADD PUSH1 0x20 DUP1 SWAP2 DIV MUL PUSH1 0x20 ADD PUSH1 0x40 MLOAD SWAP1 DUP2 ADD PUSH1 0x40 MSTORE DUP1 SWAP3 SWAP2 SWAP1 DUP2 DUP2 MSTORE PUSH1 0x20 ADD DUP3 DUP1 SLOAD PUSH2 0x126A SWAP1 PUSH2 0x342A JUMP JUMPDEST DUP1 ISZERO PUSH2 0x12B5 JUMPI DUP1 PUSH1 0x1F LT PUSH2 0x128C JUMPI PUSH2 0x100 DUP1 DUP4 SLOAD DIV MUL DUP4 MSTORE SWAP2 PUSH1 0x20 ADD SWAP2 PUSH2 0x12B5 JUMP JUMPDEST DUP3 ADD SWAP2 SWAP1 PUSH0 MSTORE PUSH1 0x20 PUSH0 KECCAK256 SWAP1 JUMPDEST DUP2 SLOAD DUP2 MSTORE SWAP1 PUSH1 0x1 ADD SWAP1 PUSH1 0x20 ADD DUP1 DUP4 GT PUSH2 0x1298 JUMPI DUP3 SWAP1 SUB PUSH1 0x1F AND DUP3 ADD SWAP2 JUMPDEST POP POP POP POP POP SWAP1 POP SWAP1 JUMP JUMPDEST PUSH0 PUSH0 SHL DUP2 JUMP JUMPDEST PUSH2 0x12D7 PUSH2 0x12D0 PUSH2 0x18B3 JUMP JUMPDEST DUP4 DUP4 PUSH2 0x1CFC JUMP JUMPDEST POP POP JUMP JUMPDEST PUSH2 0x12E3 PUSH2 0x286E JUMP JUMPDEST PUSH2 0x12EC DUP3 PUSH2 0x17F4 JUMP JUMPDEST POP PUSH1 0x8 PUSH0 DUP4 DUP2 MSTORE PUSH1 0x20 ADD SWAP1 DUP2 MSTORE PUSH1 0x20 ADD PUSH0 KECCAK256 PUSH1 0x40 MLOAD DUP1 PUSH1 0xC0 ADD PUSH1 0x40 MSTORE SWAP1 DUP2 PUSH0 DUP3 ADD SLOAD DUP2 MSTORE PUSH1 0x20 ADD PUSH1 0x1 DUP3 ADD DUP1 SLOAD PUSH2 0x1322 SWAP1 PUSH2 0x342A JUMP JUMPDEST DUP1 PUSH1 0x1F ADD PUSH1 0x20 DUP1 SWAP2 DIV MUL PUSH1 0x20 ADD PUSH1 0x40 MLOAD SWAP1 DUP2 ADD PUSH1 0x40 MSTORE DUP1 SWAP3 SWAP2 SWAP1 DUP2 DUP2 MSTORE PUSH1 0x20 ADD DUP3 DUP1 SLOAD PUSH2 0x134E SWAP1 PUSH2 0x342A JUMP JUMPDEST DUP1 ISZERO PUSH2 0x1399 JUMPI DUP1 PUSH1 0x1F LT PUSH2 0x1370 JUMPI PUSH2 0x100 DUP1 DUP4 SLOAD DIV MUL DUP4 MSTORE SWAP2 PUSH1 0x20 ADD SWAP2 PUSH2 0x1399 JUMP JUMPDEST DUP3 ADD SWAP2 SWAP1 PUSH0 MSTORE PUSH1 0x20 PUSH0 KECCAK256 SWAP1 JUMPDEST DUP2 SLOAD DUP2 MSTORE SWAP1 PUSH1 0x1 ADD SWAP1 PUSH1 0x20 ADD DUP1 DUP4 GT PUSH2 0x137C JUMPI DUP3 SWAP1 SUB PUSH1 0x1F AND DUP3 ADD SWAP2 JUMPDEST POP POP POP POP POP DUP2 MSTORE PUSH1 0x20 ADD PUSH1 0x2 DUP3 ADD DUP1 SLOAD PUSH2 0x13B2 SWAP1 PUSH2 0x342A JUMP JUMPDEST DUP1 PUSH1 0x1F ADD PUSH1 0x20 DUP1 SWAP2 DIV MUL PUSH1 0x20 ADD PUSH1 0x40 MLOAD SWAP1 DUP2 ADD PUSH1 0x40 MSTORE DUP1 SWAP3 SWAP2 SWAP1 DUP2 DUP2 MSTORE PUSH1 0x20 ADD DUP3 DUP1 SLOAD PUSH2 0x13DE SWAP1 PUSH2 0x342A JUMP JUMPDEST DUP1 ISZERO PUSH2 0x1429 JUMPI DUP1 PUSH1 0x1F LT PUSH2 0x1400 JUMPI PUSH2 0x100 DUP1 DUP4 SLOAD DIV MUL DUP4 MSTORE SWAP2 PUSH1 0x20 ADD SWAP2 PUSH2 0x1429 JUMP JUMPDEST DUP3 ADD SWAP2 SWAP1 PUSH0 MSTORE PUSH1 0x20 PUSH0 KECCAK256 SWAP1 JUMPDEST DUP2 SLOAD DUP2 MSTORE SWAP1 PUSH1 0x1 ADD SWAP1 PUSH1 0x20 ADD DUP1 DUP4 GT PUSH2 0x140C JUMPI DUP3 SWAP1 SUB PUSH1 0x1F AND DUP3 ADD SWAP2 JUMPDEST POP POP POP POP POP DUP2 MSTORE PUSH1 0x20 ADD PUSH1 0x3 DUP3 ADD PUSH0 SWAP1 SLOAD SWAP1 PUSH2 0x100 EXP SWAP1 DIV PUSH20 0xFFFFFFFFFFFFFFFFFFFFFFFFFFFFFFFFFFFFFFFF AND PUSH20 0xFFFFFFFFFFFFFFFFFFFFFFFFFFFFFFFFFFFFFFFF AND PUSH20 0xFFFFFFFFFFFFFFFFFFFFFFFFFFFFFFFFFFFFFFFF AND DUP2 MSTORE PUSH1 0x20 ADD PUSH1 0x3 DUP3 ADD PUSH1 0x14 SWAP1 SLOAD SWAP1 PUSH2 0x100 EXP SWAP1 DIV PUSH1 0xFF AND PUSH1 0x3 DUP2 GT ISZERO PUSH2 0x14AC JUMPI PUSH2 0x14AB PUSH2 0x2CFA JUMP JUMPDEST JUMPDEST PUSH1 0x3 DUP2 GT ISZERO PUSH2 0x14BE JUMPI PUSH2 0x14BD PUSH2 0x2CFA JUMP JUMPDEST JUMPDEST DUP2 MSTORE PUSH1 0x20 ADD PUSH1 0x4 DUP3 ADD DUP1 SLOAD DUP1 PUSH1 0x20 MUL PUSH1 0x20 ADD PUSH1 0x40 MLOAD SWAP1 DUP2 ADD PUSH1 0x40 MSTORE DUP1 SWAP3 SWAP2 SWAP1 DUP2 DUP2 MSTORE PUSH1 0x20 ADD PUSH0 SWAP1 JUMPDEST DUP3 DUP3 LT ISZERO PUSH2 0x15E9 JUMPI DUP4 DUP3 SWAP1 PUSH0 MSTORE PUSH1 0x20 PUSH0 KECCAK256 SWAP1 PUSH1 0x3 MUL ADD PUSH1 0x40 MLOAD DUP1 PUSH1 0x60 ADD PUSH1 0x40 MSTORE SWAP1 DUP2 PUSH0 DUP3 ADD SLOAD DUP2 MSTORE PUSH1 0x20 ADD PUSH1 0x1 DUP3 ADD DUP1 SLOAD PUSH2 0x1520 SWAP1 PUSH2 0x342A JUMP JUMPDEST DUP1 PUSH1 0x1F ADD PUSH1 0x20 DUP1 SWAP2 DIV MUL PUSH1 0x20 ADD PUSH1 0x40 MLOAD SWAP1 DUP2 ADD PUSH1 0x40 MSTORE DUP1 SWAP3 SWAP2 SWAP1 DUP2 DUP2 MSTORE PUSH1 0x20 ADD DUP3 DUP1 SLOAD PUSH2 0x154C SWAP1 PUSH2 0x342A JUMP JUMPDEST DUP1 ISZERO PUSH2 0x1597 JUMPI DUP1 PUSH1 0x1F LT PUSH2 0x156E JUMPI PUSH2 0x100 DUP1 DUP4 SLOAD DIV MUL DUP4 MSTORE SWAP2 PUSH1 0x20 ADD SWAP2 PUSH2 0x1597 JUMP JUMPDEST DUP3 ADD SWAP2 SWAP1 PUSH0 MSTORE PUSH1 0x20 PUSH0 KECCAK256 SWAP1 JUMPDEST DUP2 SLOAD DUP2 MSTORE SWAP1 PUSH1 0x1 ADD SWAP1 PUSH1 0x20 ADD DUP1 DUP4 GT PUSH2 0x157A JUMPI DUP3 SWAP1 SUB PUSH1 0x1F AND DUP3 ADD SWAP2 JUMPDEST POP POP POP POP POP DUP2 MSTORE PUSH1 0x20 ADD PUSH1 0x2 DUP3 ADD PUSH0 SWAP1 SLOAD SWAP1 PUSH2 0x100 EXP SWAP1 DIV PUSH1 0xFF AND PUSH1 0x3 DUP2 GT ISZERO PUSH2 0x15C4 JUMPI PUSH2 0x15C3 PUSH2 0x2CFA JUMP JUMPDEST JUMPDEST PUSH1 0x3 DUP2 GT ISZERO PUSH2 0x15D6 JUMPI PUSH2 0x15D5 PUSH2 0x2CFA JUMP JUMPDEST JUMPDEST DUP2 MSTORE POP POP DUP2 MSTORE PUSH1 0x20 ADD SWAP1 PUSH1 0x1 ADD SWAP1 PUSH2 0x14E6 JUMP JUMPDEST POP POP POP POP DUP2 MSTORE POP POP SWAP1 POP SWAP2 SWAP1 POP JUMP JUMPDEST PUSH2 0x1603 DUP5 DUP5 DUP5 PUSH2 0x76C JUMP JUMPDEST PUSH2 0x1617 PUSH2 0x160E PUSH2 0x18B3 JUMP JUMPDEST DUP6 DUP6 DUP6 DUP6 PUSH2 0x1E65 JUMP JUMPDEST POP POP POP POP JUMP JUMPDEST PUSH1 0x60 PUSH2 0x1628 DUP3 PUSH2 0x17F4 JUMP JUMPDEST POP PUSH0 PUSH2 0x1632 PUSH2 0x2011 JUMP JUMPDEST SWAP1 POP PUSH0 DUP2 MLOAD GT PUSH2 0x1650 JUMPI PUSH1 0x40 MLOAD DUP1 PUSH1 0x20 ADD PUSH1 0x40 MSTORE DUP1 PUSH0 DUP2 MSTORE POP PUSH2 0x167B JUMP JUMPDEST DUP1 PUSH2 0x165A DUP5 PUSH2 0x2027 JUMP JUMPDEST PUSH1 0x40 MLOAD PUSH1 0x20 ADD PUSH2 0x166B SWAP3 SWAP2 SWAP1 PUSH2 0x3819 JUMP JUMPDEST PUSH1 0x40 MLOAD PUSH1 0x20 DUP2 DUP4 SUB SUB DUP2 MSTORE SWAP1 PUSH1 0x40 MSTORE JUMPDEST SWAP2 POP POP SWAP2 SWAP1 POP JUMP JUMPDEST PUSH32 0x8EB467F061CA67F42A2D2CA4A346FC9FB645EFC0BA75056EE9F71C3A0CCC10A8 DUP2 JUMP JUMPDEST PUSH2 0x16B0 DUP3 PUSH2 0x86B JUMP JUMPDEST PUSH2 0x16B9 DUP2 PUSH2 0x18CC JUMP JUMPDEST PUSH2 0x16C3 DUP4 DUP4 PUSH2 0x1BD5 JUMP JUMPDEST POP POP POP POP JUMP JUMPDEST PUSH0 PUSH1 0x5 PUSH0 DUP5 PUSH20 0xFFFFFFFFFFFFFFFFFFFFFFFFFFFFFFFFFFFFFFFF AND PUSH20 0xFFFFFFFFFFFFFFFFFFFFFFFFFFFFFFFFFFFFFFFF AND DUP2 MSTORE PUSH1 0x20 ADD SWAP1 DUP2 MSTORE PUSH1 0x20 ADD PUSH0 KECCAK256 PUSH0 DUP4 PUSH20 0xFFFFFFFFFFFFFFFFFFFFFFFFFFFFFFFFFFFFFFFF AND PUSH20 0xFFFFFFFFFFFFFFFFFFFFFFFFFFFFFFFFFFFFFFFF AND DUP2 MSTORE PUSH1 0x20 ADD SWAP1 DUP2 MSTORE PUSH1 0x20 ADD PUSH0 KECCAK256 PUSH0 SWAP1 SLOAD SWAP1 PUSH2 0x100 EXP SWAP1 DIV PUSH1 0xFF AND SWAP1 POP SWAP3 SWAP2 POP POP JUMP JUMPDEST PUSH32 0xFBD454F36A7E1A388BD6FC3AB10D434AA4578F811ACBBCF33AFB1C697486313C DUP2 JUMP JUMPDEST PUSH0 PUSH32 0x7965DB0B00000000000000000000000000000000000000000000000000000000 PUSH28 0xFFFFFFFFFFFFFFFFFFFFFFFFFFFFFFFFFFFFFFFFFFFFFFFFFFFFFFFF NOT AND DUP3 PUSH28 0xFFFFFFFFFFFFFFFFFFFFFFFFFFFFFFFFFFFFFFFFFFFFFFFFFFFFFFFF NOT AND EQ DUP1 PUSH2 0x17ED JUMPI POP PUSH2 0x17EC DUP3 PUSH2 0x20F1 JUMP JUMPDEST JUMPDEST SWAP1 POP SWAP2 SWAP1 POP JUMP JUMPDEST PUSH0 PUSH0 PUSH2 0x17FF DUP4 PUSH2 0x21D2 JUMP JUMPDEST SWAP1 POP PUSH0 PUSH20 0xFFFFFFFFFFFFFFFFFFFFFFFFFFFFFFFFFFFFFFFF AND DUP2 PUSH20 0xFFFFFFFFFFFFFFFFFFFFFFFFFFFFFFFFFFFFFFFF AND SUB PUSH2 0x1871 JUMPI DUP3 PUSH1 0x40 MLOAD PUSH32 0x7E27328900000000000000000000000000000000000000000000000000000000 DUP2 MSTORE PUSH1 0x4 ADD PUSH2 0x1868 SWAP2 SWAP1 PUSH2 0x30DA JUMP JUMPDEST PUSH1 0x40 MLOAD DUP1 SWAP2 SUB SWAP1 REVERT JUMPDEST DUP1 SWAP2 POP POP SWAP2 SWAP1 POP JUMP JUMPDEST PUSH0 PUSH1 0x4 PUSH0 DUP4 DUP2 MSTORE PUSH1 0x20 ADD SWAP1 DUP2 MSTORE PUSH1 0x20 ADD PUSH0 KECCAK256 PUSH0 SWAP1 SLOAD SWAP1 PUSH2 0x100 EXP SWAP1 DIV PUSH20 0xFFFFFFFFFFFFFFFFFFFFFFFFFFFFFFFFFFFFFFFF AND SWAP1 POP SWAP2 SWAP1 POP JUMP JUMPDEST PUSH0 CALLER SWAP1 POP SWAP1 JUMP JUMPDEST PUSH2 0x18C7 DUP4 DUP4 DUP4 PUSH1 0x1 PUSH2 0x220B JUMP JUMPDEST POP POP POP JUMP JUMPDEST PUSH2 0x18DD DUP2 PUSH2 0x18D8 PUSH2 0x18B3 JUMP JUMPDEST PUSH2 0x23CA JUMP JUMPDEST POP JUMP JUMPDEST PUSH0 PUSH2 0x18EB DUP4 DUP4 PUSH2 0x11CB JUMP JUMPDEST PUSH2 0x19C0 JUMPI PUSH1 0x1 PUSH1 0x6 PUSH0 DUP6 DUP2 MSTORE PUSH1 0x20 ADD SWAP1 DUP2 MSTORE PUSH1 0x20 ADD PUSH0 KECCAK256 PUSH0 ADD PUSH0 DUP5 PUSH20 0xFFFFFFFFFFFFFFFFFFFFFFFFFFFFFFFFFFFFFFFF AND PUSH20 0xFFFFFFFFFFFFFFFFFFFFFFFFFFFFFFFFFFFFFFFF AND DUP2 MSTORE PUSH1 0x20 ADD SWAP1 DUP2 MSTORE PUSH1 0x20 ADD PUSH0 KECCAK256 PUSH0 PUSH2 0x100 EXP DUP2 SLOAD DUP2 PUSH1 0xFF MUL NOT AND SWAP1 DUP4 ISZERO ISZERO MUL OR SWAP1 SSTORE POP PUSH2 0x195D PUSH2 0x18B3 JUMP JUMPDEST PUSH20 0xFFFFFFFFFFFFFFFFFFFFFFFFFFFFFFFFFFFFFFFF AND DUP3 PUSH20 0xFFFFFFFFFFFFFFFFFFFFFFFFFFFFFFFFFFFFFFFF AND DUP5 PUSH32 0x2F8788117E7EFF1D82E926EC794901D17C78024A50270940304540A733656F0D PUSH1 0x40 MLOAD PUSH1 0x40 MLOAD DUP1 SWAP2 SUB SWAP1 LOG4 PUSH1 0x1 SWAP1 POP PUSH2 0x19C4 JUMP JUMPDEST PUSH0 SWAP1 POP JUMPDEST SWAP3 SWAP2 POP POP JUMP JUMPDEST PUSH0 PUSH0 PUSH2 0x19D5 DUP5 PUSH2 0x21D2 JUMP JUMPDEST SWAP1 POP PUSH0 PUSH20 0xFFFFFFFFFFFFFFFFFFFFFFFFFFFFFFFFFFFFFFFF AND DUP4 PUSH20 0xFFFFFFFFFFFFFFFFFFFFFFFFFFFFFFFFFFFFFFFF AND EQ PUSH2 0x1A16 JUMPI PUSH2 0x1A15 DUP2 DUP5 DUP7 PUSH2 0x241B JUMP JUMPDEST JUMPDEST PUSH0 PUSH20 0xFFFFFFFFFFFFFFFFFFFFFFFFFFFFFFFFFFFFFFFF AND DUP2 PUSH20 0xFFFFFFFFFFFFFFFFFFFFFFFFFFFFFFFFFFFFFFFF AND EQ PUSH2 0x1AA1 JUMPI PUSH2 0x1A55 PUSH0 DUP6 PUSH0 PUSH0 PUSH2 0x220B JUMP JUMPDEST PUSH1 0x1 PUSH1 0x3 PUSH0 DUP4 PUSH20 0xFFFFFFFFFFFFFFFFFFFFFFFFFFFFFFFFFFFFFFFF AND PUSH20 0xFFFFFFFFFFFFFFFFFFFFFFFFFFFFFFFFFFFFFFFF AND DUP2 MSTORE PUSH1 0x20 ADD SWAP1 DUP2 MSTORE PUSH1 0x20 ADD PUSH0 KECCAK256 PUSH0 DUP3 DUP3 SLOAD SUB SWAP3 POP POP DUP2 SWAP1 SSTORE POP JUMPDEST PUSH0 PUSH20 0xFFFFFFFFFFFFFFFFFFFFFFFFFFFFFFFFFFFFFFFF AND DUP6 PUSH20 0xFFFFFFFFFFFFFFFFFFFFFFFFFFFFFFFFFFFFFFFF AND EQ PUSH2 0x1B20 JUMPI PUSH1 0x1 PUSH1 0x3 PUSH0 DUP8 PUSH20 0xFFFFFFFFFFFFFFFFFFFFFFFFFFFFFFFFFFFFFFFF AND PUSH20 0xFFFFFFFFFFFFFFFFFFFFFFFFFFFFFFFFFFFFFFFF AND DUP2 MSTORE PUSH1 0x20 ADD SWAP1 DUP2 MSTORE PUSH1 0x20 ADD PUSH0 KECCAK256 PUSH0 DUP3 DUP3 SLOAD ADD SWAP3 POP POP DUP2 SWAP1 SSTORE POP JUMPDEST DUP5 PUSH1 0x2 PUSH0 DUP7 DUP2 MSTORE PUSH1 0x20 ADD SWAP1 DUP2 MSTORE PUSH1 0x20 ADD PUSH0 KECCAK256 PUSH0 PUSH2 0x100 EXP DUP2 SLOAD DUP2 PUSH20 0xFFFFFFFFFFFFFFFFFFFFFFFFFFFFFFFFFFFFFFFF MUL NOT AND SWAP1 DUP4 PUSH20 0xFFFFFFFFFFFFFFFFFFFFFFFFFFFFFFFFFFFFFFFF AND MUL OR SWAP1 SSTORE POP DUP4 DUP6 PUSH20 0xFFFFFFFFFFFFFFFFFFFFFFFFFFFFFFFFFFFFFFFF AND DUP3 PUSH20 0xFFFFFFFFFFFFFFFFFFFFFFFFFFFFFFFFFFFFFFFF AND PUSH32 0xDDF252AD1BE2C89B69C2B068FC378DAA952BA7F163C4A11628F55A4DF523B3EF PUSH1 0x40 MLOAD PUSH1 0x40 MLOAD DUP1 SWAP2 SUB SWAP1 LOG4 DUP1 SWAP2 POP POP SWAP4 SWAP3 POP POP POP JUMP JUMPDEST PUSH0 PUSH2 0x1BE0 DUP4 DUP4 PUSH2 0x11CB JUMP JUMPDEST ISZERO PUSH2 0x1CB5 JUMPI PUSH0 PUSH1 0x6 PUSH0 DUP6 DUP2 MSTORE PUSH1 0x20 ADD SWAP1 DUP2 MSTORE PUSH1 0x20 ADD PUSH0 KECCAK256 PUSH0 ADD PUSH0 DUP5 PUSH20 0xFFFFFFFFFFFFFFFFFFFFFFFFFFFFFFFFFFFFFFFF AND PUSH20 0xFFFFFFFFFFFFFFFFFFFFFFFFFFFFFFFFFFFFFFFF AND DUP2 MSTORE PUSH1 0x20 ADD SWAP1 DUP2 MSTORE PUSH1 0x20 ADD PUSH0 KECCAK256 PUSH0 PUSH2 0x100 EXP DUP2 SLOAD DUP2 PUSH1 0xFF MUL NOT AND SWAP1 DUP4 ISZERO ISZERO MUL OR SWAP1 SSTORE POP PUSH2 0x1C52 PUSH2 0x18B3 JUMP JUMPDEST PUSH20 0xFFFFFFFFFFFFFFFFFFFFFFFFFFFFFFFFFFFFFFFF AND DUP3 PUSH20 0xFFFFFFFFFFFFFFFFFFFFFFFFFFFFFFFFFFFFFFFF AND DUP5 PUSH32 0xF6391F5C32D9C69D2A47EA670B442974B53935D1EDC7FD64EB21E047A839171B PUSH1 0x40 MLOAD PUSH1 0x40 MLOAD DUP1 SWAP2 SUB SWAP1 LOG4 PUSH1 0x1 SWAP1 POP PUSH2 0x1CB9 JUMP JUMPDEST PUSH0 SWAP1 POP JUMPDEST SWAP3 SWAP2 POP POP JUMP JUMPDEST PUSH1 0x1 DUP2 PUSH0 ADD PUSH0 DUP3 DUP3 SLOAD ADD SWAP3 POP POP DUP2 SWAP1 SSTORE POP POP JUMP JUMPDEST PUSH0 DUP2 PUSH0 ADD SLOAD SWAP1 POP SWAP2 SWAP1 POP JUMP JUMPDEST PUSH2 0x1CF8 DUP3 DUP3 PUSH1 0x40 MLOAD DUP1 PUSH1 0x20 ADD PUSH1 0x40 MSTORE DUP1 PUSH0 DUP2 MSTORE POP PUSH2 0x24DE JUMP JUMPDEST POP POP JUMP JUMPDEST PUSH0 PUSH20 0xFFFFFFFFFFFFFFFFFFFFFFFFFFFFFFFFFFFFFFFF AND DUP3 PUSH20 0xFFFFFFFFFFFFFFFFFFFFFFFFFFFFFFFFFFFFFFFF AND SUB PUSH2 0x1D6C JUMPI DUP2 PUSH1 0x40 MLOAD PUSH32 0x5B08BA1800000000000000000000000000000000000000000000000000000000 DUP2 MSTORE PUSH1 0x4 ADD PUSH2 0x1D63 SWAP2 SWAP1 PUSH2 0x2ABA JUMP JUMPDEST PUSH1 0x40 MLOAD DUP1 SWAP2 SUB SWAP1 REVERT JUMPDEST DUP1 PUSH1 0x5 PUSH0 DUP6 PUSH20 0xFFFFFFFFFFFFFFFFFFFFFFFFFFFFFFFFFFFFFFFF AND PUSH20 0xFFFFFFFFFFFFFFFFFFFFFFFFFFFFFFFFFFFFFFFF AND DUP2 MSTORE PUSH1 0x20 ADD SWAP1 DUP2 MSTORE PUSH1 0x20 ADD PUSH0 KECCAK256 PUSH0 DUP5 PUSH20 0xFFFFFFFFFFFFFFFFFFFFFFFFFFFFFFFFFFFFFFFF AND PUSH20 0xFFFFFFFFFFFFFFFFFFFFFFFFFFFFFFFFFFFFFFFF AND DUP2 MSTORE PUSH1 0x20 ADD SWAP1 DUP2 MSTORE PUSH1 0x20 ADD PUSH0 KECCAK256 PUSH0 PUSH2 0x100 EXP DUP2 SLOAD DUP2 PUSH1 0xFF MUL NOT AND SWAP1 DUP4 ISZERO ISZERO MUL OR SWAP1 SSTORE POP DUP2 PUSH20 0xFFFFFFFFFFFFFFFFFFFFFFFFFFFFFFFFFFFFFFFF AND DUP4 PUSH20 0xFFFFFFFFFFFFFFFFFFFFFFFFFFFFFFFFFFFFFFFF AND PUSH32 0x17307EAB39AB6107E8899845AD3D59BD9653F200F220920489CA2B5937696C31 DUP4 PUSH1 0x40 MLOAD PUSH2 0x1E58 SWAP2 SWAP1 PUSH2 0x2974 JUMP JUMPDEST PUSH1 0x40 MLOAD DUP1 SWAP2 SUB SWAP1 LOG3 POP POP POP JUMP JUMPDEST PUSH0 DUP4 PUSH20 0xFFFFFFFFFFFFFFFFFFFFFFFFFFFFFFFFFFFFFFFF AND EXTCODESIZE GT ISZERO PUSH2 0x200A JUMPI DUP3 PUSH20 0xFFFFFFFFFFFFFFFFFFFFFFFFFFFFFFFFFFFFFFFF AND PUSH4 0x150B7A02 DUP7 DUP7 DUP6 DUP6 PUSH1 0x40 MLOAD DUP6 PUSH4 0xFFFFFFFF AND PUSH1 0xE0 SHL DUP2 MSTORE PUSH1 0x4 ADD PUSH2 0x1EC3 SWAP5 SWAP4 SWAP3 SWAP2 SWAP1 PUSH2 0x388E JUMP JUMPDEST PUSH1 0x20 PUSH1 0x40 MLOAD DUP1 DUP4 SUB DUP2 PUSH0 DUP8 GAS CALL SWAP3 POP POP POP DUP1 ISZERO PUSH2 0x1EFE JUMPI POP PUSH1 0x40 MLOAD RETURNDATASIZE PUSH1 0x1F NOT PUSH1 0x1F DUP3 ADD AND DUP3 ADD DUP1 PUSH1 0x40 MSTORE POP DUP2 ADD SWAP1 PUSH2 0x1EFB SWAP2 SWAP1 PUSH2 0x38EC JUMP JUMPDEST PUSH1 0x1 JUMPDEST PUSH2 0x1F7F JUMPI RETURNDATASIZE DUP1 PUSH0 DUP2 EQ PUSH2 0x1F2C JUMPI PUSH1 0x40 MLOAD SWAP2 POP PUSH1 0x1F NOT PUSH1 0x3F RETURNDATASIZE ADD AND DUP3 ADD PUSH1 0x40 MSTORE RETURNDATASIZE DUP3 MSTORE RETURNDATASIZE PUSH0 PUSH1 0x20 DUP5 ADD RETURNDATACOPY PUSH2 0x1F31 JUMP JUMPDEST PUSH1 0x60 SWAP2 POP JUMPDEST POP PUSH0 DUP2 MLOAD SUB PUSH2 0x1F77 JUMPI DUP4 PUSH1 0x40 MLOAD PUSH32 0x64A0AE9200000000000000000000000000000000000000000000000000000000 DUP2 MSTORE PUSH1 0x4 ADD PUSH2 0x1F6E SWAP2 SWAP1 PUSH2 0x2ABA JUMP JUMPDEST PUSH1 0x40 MLOAD DUP1 SWAP2 SUB SWAP1 REVERT JUMPDEST DUP1 MLOAD PUSH1 0x20 DUP3 ADD REVERT JUMPDEST PUSH4 0x150B7A02 PUSH1 0xE0 SHL PUSH28 0xFFFFFFFFFFFFFFFFFFFFFFFFFFFFFFFFFFFFFFFFFFFFFFFFFFFFFFFF NOT AND DUP2 PUSH28 0xFFFFFFFFFFFFFFFFFFFFFFFFFFFFFFFFFFFFFFFFFFFFFFFFFFFFFFFF NOT AND EQ PUSH2 0x2008 JUMPI DUP4 PUSH1 0x40 MLOAD PUSH32 0x64A0AE9200000000000000000000000000000000000000000000000000000000 DUP2 MSTORE PUSH1 0x4 ADD PUSH2 0x1FFF SWAP2 SWAP1 PUSH2 0x2ABA JUMP JUMPDEST PUSH1 0x40 MLOAD DUP1 SWAP2 SUB SWAP1 REVERT JUMPDEST POP JUMPDEST POP POP POP POP POP JUMP JUMPDEST PUSH1 0x60 PUSH1 0x40 MLOAD DUP1 PUSH1 0x20 ADD PUSH1 0x40 MSTORE DUP1 PUSH0 DUP2 MSTORE POP SWAP1 POP SWAP1 JUMP JUMPDEST PUSH1 0x60 PUSH0 PUSH1 0x1 PUSH2 0x2035 DUP5 PUSH2 0x2501 JUMP JUMPDEST ADD SWAP1 POP PUSH0 DUP2 PUSH8 0xFFFFFFFFFFFFFFFF DUP2 GT ISZERO PUSH2 0x2053 JUMPI PUSH2 0x2052 PUSH2 0x2E74 JUMP JUMPDEST JUMPDEST PUSH1 0x40 MLOAD SWAP1 DUP1 DUP3 MSTORE DUP1 PUSH1 0x1F ADD PUSH1 0x1F NOT AND PUSH1 0x20 ADD DUP3 ADD PUSH1 0x40 MSTORE DUP1 ISZERO PUSH2 0x2085 JUMPI DUP2 PUSH1 0x20 ADD PUSH1 0x1 DUP3 MUL DUP1 CALLDATASIZE DUP4 CALLDATACOPY DUP1 DUP3 ADD SWAP2 POP POP SWAP1 POP JUMPDEST POP SWAP1 POP PUSH0 DUP3 PUSH1 0x20 DUP4 ADD ADD SWAP1 POP JUMPDEST PUSH1 0x1 ISZERO PUSH2 0x20E6 JUMPI DUP1 DUP1 PUSH1 0x1 SWAP1 SUB SWAP2 POP POP PUSH32 0x3031323334353637383961626364656600000000000000000000000000000000 PUSH1 0xA DUP7 MOD BYTE DUP2 MSTORE8 PUSH1 0xA DUP6 DUP2 PUSH2 0x20DB JUMPI PUSH2 0x20DA PUSH2 0x3917 JUMP JUMPDEST JUMPDEST DIV SWAP5 POP PUSH0 DUP6 SUB PUSH2 0x2092 JUMPI JUMPDEST DUP2 SWAP4 POP POP POP POP SWAP2 SWAP1 POP JUMP JUMPDEST PUSH0 PUSH32 0x80AC58CD00000000000000000000000000000000000000000000000000000000 PUSH28 0xFFFFFFFFFFFFFFFFFFFFFFFFFFFFFFFFFFFFFFFFFFFFFFFFFFFFFFFF NOT AND DUP3 PUSH28 0xFFFFFFFFFFFFFFFFFFFFFFFFFFFFFFFFFFFFFFFFFFFFFFFFFFFFFFFF NOT AND EQ DUP1 PUSH2 0x21BB JUMPI POP PUSH32 0x5B5E139F00000000000000000000000000000000000000000000000000000000 PUSH28 0xFFFFFFFFFFFFFFFFFFFFFFFFFFFFFFFFFFFFFFFFFFFFFFFFFFFFFFFF NOT AND DUP3 PUSH28 0xFFFFFFFFFFFFFFFFFFFFFFFFFFFFFFFFFFFFFFFFFFFFFFFFFFFFFFFF NOT AND EQ JUMPDEST DUP1 PUSH2 0x21CB JUMPI POP PUSH2 0x21CA DUP3 PUSH2 0x2652 JUMP JUMPDEST JUMPDEST SWAP1 POP SWAP2 SWAP1 POP JUMP JUMPDEST PUSH0 PUSH1 0x2 PUSH0 DUP4 DUP2 MSTORE PUSH1 0x20 ADD SWAP1 DUP2 MSTORE PUSH1 0x20 ADD PUSH0 KECCAK256 PUSH0 SWAP1 SLOAD SWAP1 PUSH2 0x100 EXP SWAP1 DIV PUSH20 0xFFFFFFFFFFFFFFFFFFFFFFFFFFFFFFFFFFFFFFFF AND SWAP1 POP SWAP2 SWAP1 POP JUMP JUMPDEST DUP1 DUP1 PUSH2 0x2243 JUMPI POP PUSH0 PUSH20 0xFFFFFFFFFFFFFFFFFFFFFFFFFFFFFFFFFFFFFFFF AND DUP3 PUSH20 0xFFFFFFFFFFFFFFFFFFFFFFFFFFFFFFFFFFFFFFFF AND EQ ISZERO JUMPDEST ISZERO PUSH2 0x2375 JUMPI PUSH0 PUSH2 0x2252 DUP5 PUSH2 0x17F4 JUMP JUMPDEST SWAP1 POP PUSH0 PUSH20 0xFFFFFFFFFFFFFFFFFFFFFFFFFFFFFFFFFFFFFFFF AND DUP4 PUSH20 0xFFFFFFFFFFFFFFFFFFFFFFFFFFFFFFFFFFFFFFFF AND EQ ISZERO DUP1 ISZERO PUSH2 0x22BC JUMPI POP DUP3 PUSH20 0xFFFFFFFFFFFFFFFFFFFFFFFFFFFFFFFFFFFFFFFF AND DUP2 PUSH20 0xFFFFFFFFFFFFFFFFFFFFFFFFFFFFFFFFFFFFFFFF AND EQ ISZERO JUMPDEST DUP1 ISZERO PUSH2 0x22CF JUMPI POP PUSH2 0x22CD DUP2 DUP5 PUSH2 0x16C9 JUMP JUMPDEST ISZERO JUMPDEST ISZERO PUSH2 0x2311 JUMPI DUP3 PUSH1 0x40 MLOAD PUSH32 0xA9FBF51F00000000000000000000000000000000000000000000000000000000 DUP2 MSTORE PUSH1 0x4 ADD PUSH2 0x2308 SWAP2 SWAP1 PUSH2 0x2ABA JUMP JUMPDEST PUSH1 0x40 MLOAD DUP1 SWAP2 SUB SWAP1 REVERT JUMPDEST DUP2 ISZERO PUSH2 0x2373 JUMPI DUP4 DUP6 PUSH20 0xFFFFFFFFFFFFFFFFFFFFFFFFFFFFFFFFFFFFFFFF AND DUP3 PUSH20 0xFFFFFFFFFFFFFFFFFFFFFFFFFFFFFFFFFFFFFFFF AND PUSH32 0x8C5BE1E5EBEC7D5BD14F71427D1E84F3DD0314C0F7B2291E5B200AC8C7C3B925 PUSH1 0x40 MLOAD PUSH1 0x40 MLOAD DUP1 SWAP2 SUB SWAP1 LOG4 JUMPDEST POP JUMPDEST DUP4 PUSH1 0x4 PUSH0 DUP6 DUP2 MSTORE PUSH1 0x20 ADD SWAP1 DUP2 MSTORE PUSH1 0x20 ADD PUSH0 KECCAK256 PUSH0 PUSH2 0x100 EXP DUP2 SLOAD DUP2 PUSH20 0xFFFFFFFFFFFFFFFFFFFFFFFFFFFFFFFFFFFFFFFF MUL NOT AND SWAP1 DUP4 PUSH20 0xFFFFFFFFFFFFFFFFFFFFFFFFFFFFFFFFFFFFFFFF AND MUL OR SWAP1 SSTORE POP POP POP POP POP JUMP JUMPDEST PUSH2 0x23D4 DUP3 DUP3 PUSH2 0x11CB JUMP JUMPDEST PUSH2 0x2417 JUMPI DUP1 DUP3 PUSH1 0x40 MLOAD PUSH32 0xE2517D3F00000000000000000000000000000000000000000000000000000000 DUP2 MSTORE PUSH1 0x4 ADD PUSH2 0x240E SWAP3 SWAP2 SWAP1 PUSH2 0x3944 JUMP JUMPDEST PUSH1 0x40 MLOAD DUP1 SWAP2 SUB SWAP1 REVERT JUMPDEST POP POP JUMP JUMPDEST PUSH2 0x2426 DUP4 DUP4 DUP4 PUSH2 0x26BB JUMP JUMPDEST PUSH2 0x24D9 JUMPI PUSH0 PUSH20 0xFFFFFFFFFFFFFFFFFFFFFFFFFFFFFFFFFFFFFFFF AND DUP4 PUSH20 0xFFFFFFFFFFFFFFFFFFFFFFFFFFFFFFFFFFFFFFFF AND SUB PUSH2 0x249A JUMPI DUP1 PUSH1 0x40 MLOAD PUSH32 0x7E27328900000000000000000000000000000000000000000000000000000000 DUP2 MSTORE PUSH1 0x4 ADD PUSH2 0x2491 SWAP2 SWAP1 PUSH2 0x30DA JUMP JUMPDEST PUSH1 0x40 MLOAD DUP1 SWAP2 SUB SWAP1 REVERT JUMPDEST DUP2 DUP2 PUSH1 0x40 MLOAD PUSH32 0x177E802F00000000000000000000000000000000000000000000000000000000 DUP2 MSTORE PUSH1 0x4 ADD PUSH2 0x24D0 SWAP3 SWAP2 SWAP1 PUSH2 0x396B JUMP JUMPDEST PUSH1 0x40 MLOAD DUP1 SWAP2 SUB SWAP1 REVERT JUMPDEST POP POP POP JUMP JUMPDEST PUSH2 0x24E8 DUP4 DUP4 PUSH2 0x277B JUMP JUMPDEST PUSH2 0x24FC PUSH2 0x24F3 PUSH2 0x18B3 JUMP JUMPDEST PUSH0 DUP6 DUP6 DUP6 PUSH2 0x1E65 JUMP JUMPDEST POP POP POP JUMP JUMPDEST PUSH0 PUSH0 PUSH0 SWAP1 POP PUSH27 0x184F03E93FF9F4DAA797ED6E38ED64BF6A1F010000000000000000 DUP4 LT PUSH2 0x255D JUMPI PUSH27 0x184F03E93FF9F4DAA797ED6E38ED64BF6A1F010000000000000000 DUP4 DUP2 PUSH2 0x2553 JUMPI PUSH2 0x2552 PUSH2 0x3917 JUMP JUMPDEST JUMPDEST DIV SWAP3 POP PUSH1 0x40 DUP2 ADD SWAP1 POP JUMPDEST PUSH14 0x4EE2D6D415B85ACEF8100000000 DUP4 LT PUSH2 0x259A JUMPI PUSH14 0x4EE2D6D415B85ACEF8100000000 DUP4 DUP2 PUSH2 0x2590 JUMPI PUSH2 0x258F PUSH2 0x3917 JUMP JUMPDEST JUMPDEST DIV SWAP3 POP PUSH1 0x20 DUP2 ADD SWAP1 POP JUMPDEST PUSH7 0x2386F26FC10000 DUP4 LT PUSH2 0x25C9 JUMPI PUSH7 0x2386F26FC10000 DUP4 DUP2 PUSH2 0x25BF JUMPI PUSH2 0x25BE PUSH2 0x3917 JUMP JUMPDEST JUMPDEST DIV SWAP3 POP PUSH1 0x10 DUP2 ADD SWAP1 POP JUMPDEST PUSH4 0x5F5E100 DUP4 LT PUSH2 0x25F2 JUMPI PUSH4 0x5F5E100 DUP4 DUP2 PUSH2 0x25E8 JUMPI PUSH2 0x25E7 PUSH2 0x3917 JUMP JUMPDEST JUMPDEST DIV SWAP3 POP PUSH1 0x8 DUP2 ADD SWAP1 POP JUMPDEST PUSH2 0x2710 DUP4 LT PUSH2 0x2617 JUMPI PUSH2 0x2710 DUP4 DUP2 PUSH2 0x260D JUMPI PUSH2 0x260C PUSH2 0x3917 JUMP JUMPDEST JUMPDEST DIV SWAP3 POP PUSH1 0x4 DUP2 ADD SWAP1 POP JUMPDEST PUSH1 0x64 DUP4 LT PUSH2 0x263A JUMPI PUSH1 0x64 DUP4 DUP2 PUSH2 0x2630 JUMPI PUSH2 0x262F PUSH2 0x3917 JUMP JUMPDEST JUMPDEST DIV SWAP3 POP PUSH1 0x2 DUP2 ADD SWAP1 POP JUMPDEST PUSH1 0xA DUP4 LT PUSH2 0x2649 JUMPI PUSH1 0x1 DUP2 ADD SWAP1 POP JUMPDEST DUP1 SWAP2 POP POP SWAP2 SWAP1 POP JUMP JUMPDEST PUSH0 PUSH32 0x1FFC9A700000000000000000000000000000000000000000000000000000000 PUSH28 0xFFFFFFFFFFFFFFFFFFFFFFFFFFFFFFFFFFFFFFFFFFFFFFFFFFFFFFFF NOT AND DUP3 PUSH28 0xFFFFFFFFFFFFFFFFFFFFFFFFFFFFFFFFFFFFFFFFFFFFFFFFFFFFFFFF NOT AND EQ SWAP1 POP SWAP2 SWAP1 POP JUMP JUMPDEST PUSH0 PUSH0 PUSH20 0xFFFFFFFFFFFFFFFFFFFFFFFFFFFFFFFFFFFFFFFF AND DUP4 PUSH20 0xFFFFFFFFFFFFFFFFFFFFFFFFFFFFFFFFFFFFFFFF AND EQ ISZERO DUP1 ISZERO PUSH2 0x2772 JUMPI POP DUP3 PUSH20 0xFFFFFFFFFFFFFFFFFFFFFFFFFFFFFFFFFFFFFFFF AND DUP5 PUSH20 0xFFFFFFFFFFFFFFFFFFFFFFFFFFFFFFFFFFFFFFFF AND EQ DUP1 PUSH2 0x2733 JUMPI POP PUSH2 0x2732 DUP5 DUP5 PUSH2 0x16C9 JUMP JUMPDEST JUMPDEST DUP1 PUSH2 0x2771 JUMPI POP DUP3 PUSH20 0xFFFFFFFFFFFFFFFFFFFFFFFFFFFFFFFFFFFFFFFF AND PUSH2 0x2759 DUP4 PUSH2 0x187A JUMP JUMPDEST PUSH20 0xFFFFFFFFFFFFFFFFFFFFFFFFFFFFFFFFFFFFFFFF AND EQ JUMPDEST JUMPDEST SWAP1 POP SWAP4 SWAP3 POP POP POP JUMP JUMPDEST PUSH0 PUSH20 0xFFFFFFFFFFFFFFFFFFFFFFFFFFFFFFFFFFFFFFFF AND DUP3 PUSH20 0xFFFFFFFFFFFFFFFFFFFFFFFFFFFFFFFFFFFFFFFF AND SUB PUSH2 0x27EB JUMPI PUSH0 PUSH1 0x40 MLOAD PUSH32 0x64A0AE9200000000000000000000000000000000000000000000000000000000 DUP2 MSTORE PUSH1 0x4 ADD PUSH2 0x27E2 SWAP2 SWAP1 PUSH2 0x2ABA JUMP JUMPDEST PUSH1 0x40 MLOAD DUP1 SWAP2 SUB SWAP1 REVERT JUMPDEST PUSH0 PUSH2 0x27F7 DUP4 DUP4 PUSH0 PUSH2 0x19CA JUMP JUMPDEST SWAP1 POP PUSH0 PUSH20 0xFFFFFFFFFFFFFFFFFFFFFFFFFFFFFFFFFFFFFFFF AND DUP2 PUSH20 0xFFFFFFFFFFFFFFFFFFFFFFFFFFFFFFFFFFFFFFFF AND EQ PUSH2 0x2869 JUMPI PUSH0 PUSH1 0x40 MLOAD PUSH32 0x73C6AC6E00000000000000000000000000000000000000000000000000000000 DUP2 MSTORE PUSH1 0x4 ADD PUSH2 0x2860 SWAP2 SWAP1 PUSH2 0x2ABA JUMP JUMPDEST PUSH1 0x40 MLOAD DUP1 SWAP2 SUB SWAP1 REVERT JUMPDEST POP POP POP JUMP JUMPDEST PUSH1 0x40 MLOAD DUP1 PUSH1 0xC0 ADD PUSH1 0x40 MSTORE DUP1 PUSH0 DUP2 MSTORE PUSH1 0x20 ADD PUSH1 0x60 DUP2 MSTORE PUSH1 0x20 ADD PUSH1 0x60 DUP2 MSTORE PUSH1 0x20 ADD PUSH0 PUSH20 0xFFFFFFFFFFFFFFFFFFFFFFFFFFFFFFFFFFFFFFFF AND DUP2 MSTORE PUSH1 0x20 ADD PUSH0 PUSH1 0x3 DUP2 GT ISZERO PUSH2 0x28BC JUMPI PUSH2 0x28BB PUSH2 0x2CFA JUMP JUMPDEST JUMPDEST DUP2 MSTORE PUSH1 0x20 ADD PUSH1 0x60 DUP2 MSTORE POP SWAP1 JUMP JUMPDEST PUSH0 PUSH1 0x40 MLOAD SWAP1 POP SWAP1 JUMP JUMPDEST PUSH0 PUSH0 REVERT JUMPDEST PUSH0 PUSH0 REVERT JUMPDEST PUSH0 PUSH32 0xFFFFFFFF00000000000000000000000000000000000000000000000000000000 DUP3 AND SWAP1 POP SWAP2 SWAP1 POP JUMP JUMPDEST PUSH2 0x290E DUP2 PUSH2 0x28DA JUMP JUMPDEST DUP2 EQ PUSH2 0x2918 JUMPI PUSH0 PUSH0 REVERT JUMPDEST POP JUMP JUMPDEST PUSH0 DUP2 CALLDATALOAD SWAP1 POP PUSH2 0x2929 DUP2 PUSH2 0x2905 JUMP JUMPDEST SWAP3 SWAP2 POP POP JUMP JUMPDEST PUSH0 PUSH1 0x20 DUP3 DUP5 SUB SLT ISZERO PUSH2 0x2944 JUMPI PUSH2 0x2943 PUSH2 0x28D2 JUMP JUMPDEST JUMPDEST PUSH0 PUSH2 0x2951 DUP5 DUP3 DUP6 ADD PUSH2 0x291B JUMP JUMPDEST SWAP2 POP POP SWAP3 SWAP2 POP POP JUMP JUMPDEST PUSH0 DUP2 ISZERO ISZERO SWAP1 POP SWAP2 SWAP1 POP JUMP JUMPDEST PUSH2 0x296E DUP2 PUSH2 0x295A JUMP JUMPDEST DUP3 MSTORE POP POP JUMP JUMPDEST PUSH0 PUSH1 0x20 DUP3 ADD SWAP1 POP PUSH2 0x2987 PUSH0 DUP4 ADD DUP5 PUSH2 0x2965 JUMP JUMPDEST SWAP3 SWAP2 POP POP JUMP JUMPDEST PUSH0 DUP2 MLOAD SWAP1 POP SWAP2 SWAP1 POP JUMP JUMPDEST PUSH0 DUP3 DUP3 MSTORE PUSH1 0x20 DUP3 ADD SWAP1 POP SWAP3 SWAP2 POP POP JUMP JUMPDEST DUP3 DUP2 DUP4 MCOPY PUSH0 DUP4 DUP4 ADD MSTORE POP POP POP JUMP JUMPDEST PUSH0 PUSH1 0x1F NOT PUSH1 0x1F DUP4 ADD AND SWAP1 POP SWAP2 SWAP1 POP JUMP JUMPDEST PUSH0 PUSH2 0x29CF DUP3 PUSH2 0x298D JUMP JUMPDEST PUSH2 0x29D9 DUP2 DUP6 PUSH2 0x2997 JUMP JUMPDEST SWAP4 POP PUSH2 0x29E9 DUP2 DUP6 PUSH1 0x20 DUP7 ADD PUSH2 0x29A7 JUMP JUMPDEST PUSH2 0x29F2 DUP2 PUSH2 0x29B5 JUMP JUMPDEST DUP5 ADD SWAP2 POP POP SWAP3 SWAP2 POP POP JUMP JUMPDEST PUSH0 PUSH1 0x20 DUP3 ADD SWAP1 POP DUP2 DUP2 SUB PUSH0 DUP4 ADD MSTORE PUSH2 0x2A15 DUP2 DUP5 PUSH2 0x29C5 JUMP JUMPDEST SWAP1 POP SWAP3 SWAP2 POP POP JUMP JUMPDEST PUSH0 DUP2 SWAP1 POP SWAP2 SWAP1 POP JUMP JUMPDEST PUSH2 0x2A2F DUP2 PUSH2 0x2A1D JUMP JUMPDEST DUP2 EQ PUSH2 0x2A39 JUMPI PUSH0 PUSH0 REVERT JUMPDEST POP JUMP JUMPDEST PUSH0 DUP2 CALLDATALOAD SWAP1 POP PUSH2 0x2A4A DUP2 PUSH2 0x2A26 JUMP JUMPDEST SWAP3 SWAP2 POP POP JUMP JUMPDEST PUSH0 PUSH1 0x20 DUP3 DUP5 SUB SLT ISZERO PUSH2 0x2A65 JUMPI PUSH2 0x2A64 PUSH2 0x28D2 JUMP JUMPDEST JUMPDEST PUSH0 PUSH2 0x2A72 DUP5 DUP3 DUP6 ADD PUSH2 0x2A3C JUMP JUMPDEST SWAP2 POP POP SWAP3 SWAP2 POP POP JUMP JUMPDEST PUSH0 PUSH20 0xFFFFFFFFFFFFFFFFFFFFFFFFFFFFFFFFFFFFFFFF DUP3 AND SWAP1 POP SWAP2 SWAP1 POP JUMP JUMPDEST PUSH0 PUSH2 0x2AA4 DUP3 PUSH2 0x2A7B JUMP JUMPDEST SWAP1 POP SWAP2 SWAP1 POP JUMP JUMPDEST PUSH2 0x2AB4 DUP2 PUSH2 0x2A9A JUMP JUMPDEST DUP3 MSTORE POP POP JUMP JUMPDEST PUSH0 PUSH1 0x20 DUP3 ADD SWAP1 POP PUSH2 0x2ACD PUSH0 DUP4 ADD DUP5 PUSH2 0x2AAB JUMP JUMPDEST SWAP3 SWAP2 POP POP JUMP JUMPDEST PUSH2 0x2ADC DUP2 PUSH2 0x2A9A JUMP JUMPDEST DUP2 EQ PUSH2 0x2AE6 JUMPI PUSH0 PUSH0 REVERT JUMPDEST POP JUMP JUMPDEST PUSH0 DUP2 CALLDATALOAD SWAP1 POP PUSH2 0x2AF7 DUP2 PUSH2 0x2AD3 JUMP JUMPDEST SWAP3 SWAP2 POP POP JUMP JUMPDEST PUSH0 PUSH0 PUSH1 0x40 DUP4 DUP6 SUB SLT ISZERO PUSH2 0x2B13 JUMPI PUSH2 0x2B12 PUSH2 0x28D2 JUMP JUMPDEST JUMPDEST PUSH0 PUSH2 0x2B20 DUP6 DUP3 DUP7 ADD PUSH2 0x2AE9 JUMP JUMPDEST SWAP3 POP POP PUSH1 0x20 PUSH2 0x2B31 DUP6 DUP3 DUP7 ADD PUSH2 0x2A3C JUMP JUMPDEST SWAP2 POP POP SWAP3 POP SWAP3 SWAP1 POP JUMP JUMPDEST PUSH0 PUSH1 0x20 DUP3 DUP5 SUB SLT ISZERO PUSH2 0x2B50 JUMPI PUSH2 0x2B4F PUSH2 0x28D2 JUMP JUMPDEST JUMPDEST PUSH0 PUSH2 0x2B5D DUP5 DUP3 DUP6 ADD PUSH2 0x2AE9 JUMP JUMPDEST SWAP2 POP POP SWAP3 SWAP2 POP POP JUMP JUMPDEST PUSH0 DUP2 SWAP1 POP SWAP2 SWAP1 POP JUMP JUMPDEST PUSH2 0x2B78 DUP2 PUSH2 0x2B66 JUMP JUMPDEST DUP3 MSTORE POP POP JUMP JUMPDEST PUSH0 PUSH1 0x20 DUP3 ADD SWAP1 POP PUSH2 0x2B91 PUSH0 DUP4 ADD DUP5 PUSH2 0x2B6F JUMP JUMPDEST SWAP3 SWAP2 POP POP JUMP JUMPDEST PUSH0 PUSH0 PUSH0 PUSH1 0x60 DUP5 DUP7 SUB SLT ISZERO PUSH2 0x2BAE JUMPI PUSH2 0x2BAD PUSH2 0x28D2 JUMP JUMPDEST JUMPDEST PUSH0 PUSH2 0x2BBB DUP7 DUP3 DUP8 ADD PUSH2 0x2AE9 JUMP JUMPDEST SWAP4 POP POP PUSH1 0x20 PUSH2 0x2BCC DUP7 DUP3 DUP8 ADD PUSH2 0x2AE9 JUMP JUMPDEST SWAP3 POP POP PUSH1 0x40 PUSH2 0x2BDD DUP7 DUP3 DUP8 ADD PUSH2 0x2A3C JUMP JUMPDEST SWAP2 POP POP SWAP3 POP SWAP3 POP SWAP3 JUMP JUMPDEST PUSH2 0x2BF0 DUP2 PUSH2 0x2B66 JUMP JUMPDEST DUP2 EQ PUSH2 0x2BFA JUMPI PUSH0 PUSH0 REVERT JUMPDEST POP JUMP JUMPDEST PUSH0 DUP2 CALLDATALOAD SWAP1 POP PUSH2 0x2C0B DUP2 PUSH2 0x2BE7 JUMP JUMPDEST SWAP3 SWAP2 POP POP JUMP JUMPDEST PUSH0 PUSH1 0x20 DUP3 DUP5 SUB SLT ISZERO PUSH2 0x2C26 JUMPI PUSH2 0x2C25 PUSH2 0x28D2 JUMP JUMPDEST JUMPDEST PUSH0 PUSH2 0x2C33 DUP5 DUP3 DUP6 ADD PUSH2 0x2BFD JUMP JUMPDEST SWAP2 POP POP SWAP3 SWAP2 POP POP JUMP JUMPDEST PUSH0 PUSH0 PUSH1 0x40 DUP4 DUP6 SUB SLT ISZERO PUSH2 0x2C52 JUMPI PUSH2 0x2C51 PUSH2 0x28D2 JUMP JUMPDEST JUMPDEST PUSH0 PUSH2 0x2C5F DUP6 DUP3 DUP7 ADD PUSH2 0x2BFD JUMP JUMPDEST SWAP3 POP POP PUSH1 0x20 PUSH2 0x2C70 DUP6 DUP3 DUP7 ADD PUSH2 0x2AE9 JUMP JUMPDEST SWAP2 POP POP SWAP3 POP SWAP3 SWAP1 POP JUMP JUMPDEST PUSH0 DUP2 MLOAD SWAP1 POP SWAP2 SWAP1 POP JUMP JUMPDEST PUSH0 DUP3 DUP3 MSTORE PUSH1 0x20 DUP3 ADD SWAP1 POP SWAP3 SWAP2 POP POP JUMP JUMPDEST PUSH0 DUP2 SWAP1 POP PUSH1 0x20 DUP3 ADD SWAP1 POP SWAP2 SWAP1 POP JUMP JUMPDEST PUSH2 0x2CAC DUP2 PUSH2 0x2A1D JUMP JUMPDEST DUP3 MSTORE POP POP JUMP JUMPDEST PUSH0 DUP3 DUP3 MSTORE PUSH1 0x20 DUP3 ADD SWAP1 POP SWAP3 SWAP2 POP POP JUMP JUMPDEST PUSH0 PUSH2 0x2CCC DUP3 PUSH2 0x298D JUMP JUMPDEST PUSH2 0x2CD6 DUP2 DUP6 PUSH2 0x2CB2 JUMP JUMPDEST SWAP4 POP PUSH2 0x2CE6 DUP2 DUP6 PUSH1 0x20 DUP7 ADD PUSH2 0x29A7 JUMP JUMPDEST PUSH2 0x2CEF DUP2 PUSH2 0x29B5 JUMP JUMPDEST DUP5 ADD SWAP2 POP POP SWAP3 SWAP2 POP POP JUMP JUMPDEST PUSH32 0x4E487B7100000000000000000000000000000000000000000000000000000000 PUSH0 MSTORE PUSH1 0x21 PUSH1 0x4 MSTORE PUSH1 0x24 PUSH0 REVERT JUMPDEST PUSH1 0x4 DUP2 LT PUSH2 0x2D38 JUMPI PUSH2 0x2D37 PUSH2 0x2CFA JUMP JUMPDEST JUMPDEST POP JUMP JUMPDEST PUSH0 DUP2 SWAP1 POP PUSH2 0x2D48 DUP3 PUSH2 0x2D27 JUMP JUMPDEST SWAP2 SWAP1 POP JUMP JUMPDEST PUSH0 PUSH2 0x2D57 DUP3 PUSH2 0x2D3B JUMP JUMPDEST SWAP1 POP SWAP2 SWAP1 POP JUMP JUMPDEST PUSH2 0x2D67 DUP2 PUSH2 0x2D4D JUMP JUMPDEST DUP3 MSTORE POP POP JUMP JUMPDEST PUSH0 PUSH1 0x60 DUP4 ADD PUSH0 DUP4 ADD MLOAD PUSH2 0x2D82 PUSH0 DUP7 ADD DUP3 PUSH2 0x2CA3 JUMP JUMPDEST POP PUSH1 0x20 DUP4 ADD MLOAD DUP5 DUP3 SUB PUSH1 0x20 DUP7 ADD MSTORE PUSH2 0x2D9A DUP3 DUP3 PUSH2 0x2CC2 JUMP JUMPDEST SWAP2 POP POP PUSH1 0x40 DUP4 ADD MLOAD PUSH2 0x2DAF PUSH1 0x40 DUP7 ADD DUP3 PUSH2 0x2D5E JUMP JUMPDEST POP DUP1 SWAP2 POP POP SWAP3 SWAP2 POP POP JUMP JUMPDEST PUSH0 PUSH2 0x2DC5 DUP4 DUP4 PUSH2 0x2D6D JUMP JUMPDEST SWAP1 POP SWAP3 SWAP2 POP POP JUMP JUMPDEST PUSH0 PUSH1 0x20 DUP3 ADD SWAP1 POP SWAP2 SWAP1 POP JUMP JUMPDEST PUSH0 PUSH2 0x2DE3 DUP3 PUSH2 0x2C7A JUMP JUMPDEST PUSH2 0x2DED DUP2 DUP6 PUSH2 0x2C84 JUMP JUMPDEST SWAP4 POP DUP4 PUSH1 0x20 DUP3 MUL DUP6 ADD PUSH2 0x2DFF DUP6 PUSH2 0x2C94 JUMP JUMPDEST DUP1 PUSH0 JUMPDEST DUP6 DUP2 LT ISZERO PUSH2 0x2E3A JUMPI DUP5 DUP5 SUB DUP10 MSTORE DUP2 MLOAD PUSH2 0x2E1B DUP6 DUP3 PUSH2 0x2DBA JUMP JUMPDEST SWAP5 POP PUSH2 0x2E26 DUP4 PUSH2 0x2DCD JUMP JUMPDEST SWAP3 POP PUSH1 0x20 DUP11 ADD SWAP10 POP POP PUSH1 0x1 DUP2 ADD SWAP1 POP PUSH2 0x2E02 JUMP JUMPDEST POP DUP3 SWAP8 POP DUP8 SWAP6 POP POP POP POP POP POP SWAP3 SWAP2 POP POP JUMP JUMPDEST PUSH0 PUSH1 0x20 DUP3 ADD SWAP1 POP DUP2 DUP2 SUB PUSH0 DUP4 ADD MSTORE PUSH2 0x2E64 DUP2 DUP5 PUSH2 0x2DD9 JUMP JUMPDEST SWAP1 POP SWAP3 SWAP2 POP POP JUMP JUMPDEST PUSH0 PUSH0 REVERT JUMPDEST PUSH0 PUSH0 REVERT JUMPDEST PUSH32 0x4E487B7100000000000000000000000000000000000000000000000000000000 PUSH0 MSTORE PUSH1 0x41 PUSH1 0x4 MSTORE PUSH1 0x24 PUSH0 REVERT JUMPDEST PUSH2 0x2EAA DUP3 PUSH2 0x29B5 JUMP JUMPDEST DUP2 ADD DUP2 DUP2 LT PUSH8 0xFFFFFFFFFFFFFFFF DUP3 GT OR ISZERO PUSH2 0x2EC9 JUMPI PUSH2 0x2EC8 PUSH2 0x2E74 JUMP JUMPDEST JUMPDEST DUP1 PUSH1 0x40 MSTORE POP POP POP JUMP JUMPDEST PUSH0 PUSH2 0x2EDB PUSH2 0x28C9 JUMP JUMPDEST SWAP1 POP PUSH2 0x2EE7 DUP3 DUP3 PUSH2 0x2EA1 JUMP JUMPDEST SWAP2 SWAP1 POP JUMP JUMPDEST PUSH0 PUSH8 0xFFFFFFFFFFFFFFFF DUP3 GT ISZERO PUSH2 0x2F06 JUMPI PUSH2 0x2F05 PUSH2 0x2E74 JUMP JUMPDEST JUMPDEST PUSH2 0x2F0F DUP3 PUSH2 0x29B5 JUMP JUMPDEST SWAP1 POP PUSH1 0x20 DUP2 ADD SWAP1 POP SWAP2 SWAP1 POP JUMP JUMPDEST DUP3 DUP2 DUP4 CALLDATACOPY PUSH0 DUP4 DUP4 ADD MSTORE POP POP POP JUMP JUMPDEST PUSH0 PUSH2 0x2F3C PUSH2 0x2F37 DUP5 PUSH2 0x2EEC JUMP JUMPDEST PUSH2 0x2ED2 JUMP JUMPDEST SWAP1 POP DUP3 DUP2 MSTORE PUSH1 0x20 DUP2 ADD DUP5 DUP5 DUP5 ADD GT ISZERO PUSH2 0x2F58 JUMPI PUSH2 0x2F57 PUSH2 0x2E70 JUMP JUMPDEST JUMPDEST PUSH2 0x2F63 DUP5 DUP3 DUP6 PUSH2 0x2F1C JUMP JUMPDEST POP SWAP4 SWAP3 POP POP POP JUMP JUMPDEST PUSH0 DUP3 PUSH1 0x1F DUP4 ADD SLT PUSH2 0x2F7F JUMPI PUSH2 0x2F7E PUSH2 0x2E6C JUMP JUMPDEST JUMPDEST DUP2 CALLDATALOAD PUSH2 0x2F8F DUP5 DUP3 PUSH1 0x20 DUP7 ADD PUSH2 0x2F2A JUMP JUMPDEST SWAP2 POP POP SWAP3 SWAP2 POP POP JUMP JUMPDEST PUSH0 PUSH0 PUSH0 PUSH1 0x60 DUP5 DUP7 SUB SLT ISZERO PUSH2 0x2FAF JUMPI PUSH2 0x2FAE PUSH2 0x28D2 JUMP JUMPDEST JUMPDEST PUSH0 DUP5 ADD CALLDATALOAD PUSH8 0xFFFFFFFFFFFFFFFF DUP2 GT ISZERO PUSH2 0x2FCC JUMPI PUSH2 0x2FCB PUSH2 0x28D6 JUMP JUMPDEST JUMPDEST PUSH2 0x2FD8 DUP7 DUP3 DUP8 ADD PUSH2 0x2F6B JUMP JUMPDEST SWAP4 POP POP PUSH1 0x20 DUP5 ADD CALLDATALOAD PUSH8 0xFFFFFFFFFFFFFFFF DUP2 GT ISZERO PUSH2 0x2FF9 JUMPI PUSH2 0x2FF8 PUSH2 0x28D6 JUMP JUMPDEST JUMPDEST PUSH2 0x3005 DUP7 DUP3 DUP8 ADD PUSH2 0x2F6B JUMP JUMPDEST SWAP3 POP POP PUSH1 0x40 DUP5 ADD CALLDATALOAD PUSH8 0xFFFFFFFFFFFFFFFF DUP2 GT ISZERO PUSH2 0x3026 JUMPI PUSH2 0x3025 PUSH2 0x28D6 JUMP JUMPDEST JUMPDEST PUSH2 0x3032 DUP7 DUP3 DUP8 ADD PUSH2 0x2F6B JUMP JUMPDEST SWAP2 POP POP SWAP3 POP SWAP3 POP SWAP3 JUMP JUMPDEST PUSH1 0x4 DUP2 LT PUSH2 0x3048 JUMPI PUSH0 PUSH0 REVERT JUMPDEST POP JUMP JUMPDEST PUSH0 DUP2 CALLDATALOAD SWAP1 POP PUSH2 0x3059 DUP2 PUSH2 0x303C JUMP JUMPDEST SWAP3 SWAP2 POP POP JUMP JUMPDEST PUSH0 PUSH0 PUSH0 PUSH1 0x60 DUP5 DUP7 SUB SLT ISZERO PUSH2 0x3076 JUMPI PUSH2 0x3075 PUSH2 0x28D2 JUMP JUMPDEST JUMPDEST PUSH0 PUSH2 0x3083 DUP7 DUP3 DUP8 ADD PUSH2 0x2A3C JUMP JUMPDEST SWAP4 POP POP PUSH1 0x20 DUP5 ADD CALLDATALOAD PUSH8 0xFFFFFFFFFFFFFFFF DUP2 GT ISZERO PUSH2 0x30A4 JUMPI PUSH2 0x30A3 PUSH2 0x28D6 JUMP JUMPDEST JUMPDEST PUSH2 0x30B0 DUP7 DUP3 DUP8 ADD PUSH2 0x2F6B JUMP JUMPDEST SWAP3 POP POP PUSH1 0x40 PUSH2 0x30C1 DUP7 DUP3 DUP8 ADD PUSH2 0x304B JUMP JUMPDEST SWAP2 POP POP SWAP3 POP SWAP3 POP SWAP3 JUMP JUMPDEST PUSH2 0x30D4 DUP2 PUSH2 0x2A1D JUMP JUMPDEST DUP3 MSTORE POP POP JUMP JUMPDEST PUSH0 PUSH1 0x20 DUP3 ADD SWAP1 POP PUSH2 0x30ED PUSH0 DUP4 ADD DUP5 PUSH2 0x30CB JUMP JUMPDEST SWAP3 SWAP2 POP POP JUMP JUMPDEST PUSH2 0x30FC DUP2 PUSH2 0x295A JUMP JUMPDEST DUP2 EQ PUSH2 0x3106 JUMPI PUSH0 PUSH0 REVERT JUMPDEST POP JUMP JUMPDEST PUSH0 DUP2 CALLDATALOAD SWAP1 POP PUSH2 0x3117 DUP2 PUSH2 0x30F3 JUMP JUMPDEST SWAP3 SWAP2 POP POP JUMP JUMPDEST PUSH0 PUSH0 PUSH1 0x40 DUP4 DUP6 SUB SLT ISZERO PUSH2 0x3133 JUMPI PUSH2 0x3132 PUSH2 0x28D2 JUMP JUMPDEST JUMPDEST PUSH0 PUSH2 0x3140 DUP6 DUP3 DUP7 ADD PUSH2 0x2AE9 JUMP JUMPDEST SWAP3 POP POP PUSH1 0x20 PUSH2 0x3151 DUP6 DUP3 DUP7 ADD PUSH2 0x3109 JUMP JUMPDEST SWAP2 POP POP SWAP3 POP SWAP3 SWAP1 POP JUMP JUMPDEST PUSH2 0x3164 DUP2 PUSH2 0x2A9A JUMP JUMPDEST DUP3 MSTORE POP POP JUMP JUMPDEST PUSH0 DUP3 DUP3 MSTORE PUSH1 0x20 DUP3 ADD SWAP1 POP SWAP3 SWAP2 POP POP JUMP JUMPDEST PUSH0 PUSH2 0x3184 DUP3 PUSH2 0x2C7A JUMP JUMPDEST PUSH2 0x318E DUP2 DUP6 PUSH2 0x316A JUMP JUMPDEST SWAP4 POP DUP4 PUSH1 0x20 DUP3 MUL DUP6 ADD PUSH2 0x31A0 DUP6 PUSH2 0x2C94 JUMP JUMPDEST DUP1 PUSH0 JUMPDEST DUP6 DUP2 LT ISZERO PUSH2 0x31DB JUMPI DUP5 DUP5 SUB DUP10 MSTORE DUP2 MLOAD PUSH2 0x31BC DUP6 DUP3 PUSH2 0x2DBA JUMP JUMPDEST SWAP5 POP PUSH2 0x31C7 DUP4 PUSH2 0x2DCD JUMP JUMPDEST SWAP3 POP PUSH1 0x20 DUP11 ADD SWAP10 POP POP PUSH1 0x1 DUP2 ADD SWAP1 POP PUSH2 0x31A3 JUMP JUMPDEST POP DUP3 SWAP8 POP DUP8 SWAP6 POP POP POP POP POP POP SWAP3 SWAP2 POP POP JUMP JUMPDEST PUSH0 PUSH1 0xC0 DUP4 ADD PUSH0 DUP4 ADD MLOAD PUSH2 0x3202 PUSH0 DUP7 ADD DUP3 PUSH2 0x2CA3 JUMP JUMPDEST POP PUSH1 0x20 DUP4 ADD MLOAD DUP5 DUP3 SUB PUSH1 0x20 DUP7 ADD MSTORE PUSH2 0x321A DUP3 DUP3 PUSH2 0x2CC2 JUMP JUMPDEST SWAP2 POP POP PUSH1 0x40 DUP4 ADD MLOAD DUP5 DUP3 SUB PUSH1 0x40 DUP7 ADD MSTORE PUSH2 0x3234 DUP3 DUP3 PUSH2 0x2CC2 JUMP JUMPDEST SWAP2 POP POP PUSH1 0x60 DUP4 ADD MLOAD PUSH2 0x3249 PUSH1 0x60 DUP7 ADD DUP3 PUSH2 0x315B JUMP JUMPDEST POP PUSH1 0x80 DUP4 ADD MLOAD PUSH2 0x325C PUSH1 0x80 DUP7 ADD DUP3 PUSH2 0x2D5E JUMP JUMPDEST POP PUSH1 0xA0 DUP4 ADD MLOAD DUP5 DUP3 SUB PUSH1 0xA0 DUP7 ADD MSTORE PUSH2 0x3274 DUP3 DUP3 PUSH2 0x317A JUMP JUMPDEST SWAP2 POP POP DUP1 SWAP2 POP POP SWAP3 SWAP2 POP POP JUMP JUMPDEST PUSH0 PUSH1 0x20 DUP3 ADD SWAP1 POP DUP2 DUP2 SUB PUSH0 DUP4 ADD MSTORE PUSH2 0x3299 DUP2 DUP5 PUSH2 0x31ED JUMP JUMPDEST SWAP1 POP SWAP3 SWAP2 POP POP JUMP JUMPDEST PUSH0 PUSH8 0xFFFFFFFFFFFFFFFF DUP3 GT ISZERO PUSH2 0x32BB JUMPI PUSH2 0x32BA PUSH2 0x2E74 JUMP JUMPDEST JUMPDEST PUSH2 0x32C4 DUP3 PUSH2 0x29B5 JUMP JUMPDEST SWAP1 POP PUSH1 0x20 DUP2 ADD SWAP1 POP SWAP2 SWAP1 POP JUMP JUMPDEST PUSH0 PUSH2 0x32E3 PUSH2 0x32DE DUP5 PUSH2 0x32A1 JUMP JUMPDEST PUSH2 0x2ED2 JUMP JUMPDEST SWAP1 POP DUP3 DUP2 MSTORE PUSH1 0x20 DUP2 ADD DUP5 DUP5 DUP5 ADD GT ISZERO PUSH2 0x32FF JUMPI PUSH2 0x32FE PUSH2 0x2E70 JUMP JUMPDEST JUMPDEST PUSH2 0x330A DUP5 DUP3 DUP6 PUSH2 0x2F1C JUMP JUMPDEST POP SWAP4 SWAP3 POP POP POP JUMP JUMPDEST PUSH0 DUP3 PUSH1 0x1F DUP4 ADD SLT PUSH2 0x3326 JUMPI PUSH2 0x3325 PUSH2 0x2E6C JUMP JUMPDEST JUMPDEST DUP2 CALLDATALOAD PUSH2 0x3336 DUP5 DUP3 PUSH1 0x20 DUP7 ADD PUSH2 0x32D1 JUMP JUMPDEST SWAP2 POP POP SWAP3 SWAP2 POP POP JUMP JUMPDEST PUSH0 PUSH0 PUSH0 PUSH0 PUSH1 0x80 DUP6 DUP8 SUB SLT ISZERO PUSH2 0x3357 JUMPI PUSH2 0x3356 PUSH2 0x28D2 JUMP JUMPDEST JUMPDEST PUSH0 PUSH2 0x3364 DUP8 DUP3 DUP9 ADD PUSH2 0x2AE9 JUMP JUMPDEST SWAP5 POP POP PUSH1 0x20 PUSH2 0x3375 DUP8 DUP3 DUP9 ADD PUSH2 0x2AE9 JUMP JUMPDEST SWAP4 POP POP PUSH1 0x40 PUSH2 0x3386 DUP8 DUP3 DUP9 ADD PUSH2 0x2A3C JUMP JUMPDEST SWAP3 POP POP PUSH1 0x60 DUP6 ADD CALLDATALOAD PUSH8 0xFFFFFFFFFFFFFFFF DUP2 GT ISZERO PUSH2 0x33A7 JUMPI PUSH2 0x33A6 PUSH2 0x28D6 JUMP JUMPDEST JUMPDEST PUSH2 0x33B3 DUP8 DUP3 DUP9 ADD PUSH2 0x3312 JUMP JUMPDEST SWAP2 POP POP SWAP3 SWAP6 SWAP2 SWAP5 POP SWAP3 POP JUMP JUMPDEST PUSH0 PUSH0 PUSH1 0x40 DUP4 DUP6 SUB SLT ISZERO PUSH2 0x33D5 JUMPI PUSH2 0x33D4 PUSH2 0x28D2 JUMP JUMPDEST JUMPDEST PUSH0 PUSH2 0x33E2 DUP6 DUP3 DUP7 ADD PUSH2 0x2AE9 JUMP JUMPDEST SWAP3 POP POP PUSH1 0x20 PUSH2 0x33F3 DUP6 DUP3 DUP7 ADD PUSH2 0x2AE9 JUMP JUMPDEST SWAP2 POP POP SWAP3 POP SWAP3 SWAP1 POP JUMP JUMPDEST PUSH32 0x4E487B7100000000000000000000000000000000000000000000000000000000 PUSH0 MSTORE PUSH1 0x22 PUSH1 0x4 MSTORE PUSH1 0x24 PUSH0 REVERT JUMPDEST PUSH0 PUSH1 0x2 DUP3 DIV SWAP1 POP PUSH1 0x1 DUP3 AND DUP1 PUSH2 0x3441 JUMPI PUSH1 0x7F DUP3 AND SWAP2 POP JUMPDEST PUSH1 0x20 DUP3 LT DUP2 SUB PUSH2 0x3454 JUMPI PUSH2 0x3453 PUSH2 0x33FD JUMP JUMPDEST JUMPDEST POP SWAP2 SWAP1 POP JUMP JUMPDEST PUSH0 PUSH1 0x60 DUP3 ADD SWAP1 POP PUSH2 0x346D PUSH0 DUP4 ADD DUP7 PUSH2 0x2AAB JUMP JUMPDEST PUSH2 0x347A PUSH1 0x20 DUP4 ADD DUP6 PUSH2 0x30CB JUMP JUMPDEST PUSH2 0x3487 PUSH1 0x40 DUP4 ADD DUP5 PUSH2 0x2AAB JUMP JUMPDEST SWAP5 SWAP4 POP POP POP POP JUMP JUMPDEST PUSH0 DUP2 SWAP1 POP DUP2 PUSH0 MSTORE PUSH1 0x20 PUSH0 KECCAK256 SWAP1 POP SWAP2 SWAP1 POP JUMP JUMPDEST PUSH0 PUSH1 0x20 PUSH1 0x1F DUP4 ADD DIV SWAP1 POP SWAP2 SWAP1 POP JUMP JUMPDEST PUSH0 DUP3 DUP3 SHL SWAP1 POP SWAP3 SWAP2 POP POP JUMP JUMPDEST PUSH0 PUSH1 0x8 DUP4 MUL PUSH2 0x34EB PUSH32 0xFFFFFFFFFFFFFFFFFFFFFFFFFFFFFFFFFFFFFFFFFFFFFFFFFFFFFFFFFFFFFFFF DUP3 PUSH2 0x34B0 JUMP JUMPDEST PUSH2 0x34F5 DUP7 DUP4 PUSH2 0x34B0 JUMP JUMPDEST SWAP6 POP DUP1 NOT DUP5 AND SWAP4 POP DUP1 DUP7 AND DUP5 OR SWAP3 POP POP POP SWAP4 SWAP3 POP POP POP JUMP JUMPDEST PUSH0 DUP2 SWAP1 POP SWAP2 SWAP1 POP JUMP JUMPDEST PUSH0 PUSH2 0x3530 PUSH2 0x352B PUSH2 0x3526 DUP5 PUSH2 0x2A1D JUMP JUMPDEST PUSH2 0x350D JUMP JUMPDEST PUSH2 0x2A1D JUMP JUMPDEST SWAP1 POP SWAP2 SWAP1 POP JUMP JUMPDEST PUSH0 DUP2 SWAP1 POP SWAP2 SWAP1 POP JUMP JUMPDEST PUSH2 0x3549 DUP4 PUSH2 0x3516 JUMP JUMPDEST PUSH2 0x355D PUSH2 0x3555 DUP3 PUSH2 0x3537 JUMP JUMPDEST DUP5 DUP5 SLOAD PUSH2 0x34BC JUMP JUMPDEST DUP3 SSTORE POP POP POP POP JUMP JUMPDEST PUSH0 PUSH0 SWAP1 POP SWAP1 JUMP JUMPDEST PUSH2 0x3574 PUSH2 0x3565 JUMP JUMPDEST PUSH2 0x357F DUP2 DUP5 DUP5 PUSH2 0x3540 JUMP JUMPDEST POP POP POP JUMP JUMPDEST JUMPDEST DUP2 DUP2 LT ISZERO PUSH2 0x35A2 JUMPI PUSH2 0x3597 PUSH0 DUP3 PUSH2 0x356C JUMP JUMPDEST PUSH1 0x1 DUP2 ADD SWAP1 POP PUSH2 0x3585 JUMP JUMPDEST POP POP JUMP JUMPDEST PUSH1 0x1F DUP3 GT ISZERO PUSH2 0x35E7 JUMPI PUSH2 0x35B8 DUP2 PUSH2 0x348F JUMP JUMPDEST PUSH2 0x35C1 DUP5 PUSH2 0x34A1 JUMP JUMPDEST DUP2 ADD PUSH1 0x20 DUP6 LT ISZERO PUSH2 0x35D0 JUMPI DUP2 SWAP1 POP JUMPDEST PUSH2 0x35E4 PUSH2 0x35DC DUP6 PUSH2 0x34A1 JUMP JUMPDEST DUP4 ADD DUP3 PUSH2 0x3584 JUMP JUMPDEST POP POP JUMPDEST POP POP POP JUMP JUMPDEST PUSH0 DUP3 DUP3 SHR SWAP1 POP SWAP3 SWAP2 POP POP JUMP JUMPDEST PUSH0 PUSH2 0x3607 PUSH0 NOT DUP5 PUSH1 0x8 MUL PUSH2 0x35EC JUMP JUMPDEST NOT DUP1 DUP4 AND SWAP2 POP POP SWAP3 SWAP2 POP POP JUMP JUMPDEST PUSH0 PUSH2 0x361F DUP4 DUP4 PUSH2 0x35F8 JUMP JUMPDEST SWAP2 POP DUP3 PUSH1 0x2 MUL DUP3 OR SWAP1 POP SWAP3 SWAP2 POP POP JUMP JUMPDEST PUSH2 0x3638 DUP3 PUSH2 0x298D JUMP JUMPDEST PUSH8 0xFFFFFFFFFFFFFFFF DUP2 GT ISZERO PUSH2 0x3651 JUMPI PUSH2 0x3650 PUSH2 0x2E74 JUMP JUMPDEST JUMPDEST PUSH2 0x365B DUP3 SLOAD PUSH2 0x342A JUMP JUMPDEST PUSH2 0x3666 DUP3 DUP3 DUP6 PUSH2 0x35A6 JUMP JUMPDEST PUSH0 PUSH1 0x20 SWAP1 POP PUSH1 0x1F DUP4 GT PUSH1 0x1 DUP2 EQ PUSH2 0x3697 JUMPI PUSH0 DUP5 ISZERO PUSH2 0x3685 JUMPI DUP3 DUP8 ADD MLOAD SWAP1 POP JUMPDEST PUSH2 0x368F DUP6 DUP3 PUSH2 0x3614 JUMP JUMPDEST DUP7 SSTORE POP PUSH2 0x36F6 JUMP JUMPDEST PUSH1 0x1F NOT DUP5 AND PUSH2 0x36A5 DUP7 PUSH2 0x348F JUMP JUMPDEST PUSH0 JUMPDEST DUP3 DUP2 LT ISZERO PUSH2 0x36CC JUMPI DUP5 DUP10 ADD MLOAD DUP3 SSTORE PUSH1 0x1 DUP3 ADD SWAP2 POP PUSH1 0x20 DUP6 ADD SWAP5 POP PUSH1 0x20 DUP2 ADD SWAP1 POP PUSH2 0x36A7 JUMP JUMPDEST DUP7 DUP4 LT ISZERO PUSH2 0x36E9 JUMPI DUP5 DUP10 ADD MLOAD PUSH2 0x36E5 PUSH1 0x1F DUP10 AND DUP3 PUSH2 0x35F8 JUMP JUMPDEST DUP4 SSTORE POP JUMPDEST PUSH1 0x1 PUSH1 0x2 DUP9 MUL ADD DUP9 SSTORE POP POP POP JUMPDEST POP POP POP POP POP POP JUMP JUMPDEST PUSH0 PUSH1 0x40 DUP3 ADD SWAP1 POP PUSH2 0x3711 PUSH0 DUP4 ADD DUP6 PUSH2 0x30CB JUMP JUMPDEST DUP2 DUP2 SUB PUSH1 0x20 DUP4 ADD MSTORE PUSH2 0x3723 DUP2 DUP5 PUSH2 0x29C5 JUMP JUMPDEST SWAP1 POP SWAP4 SWAP3 POP POP POP JUMP JUMPDEST PUSH32 0x556E617574686F72697A656420726F6C65000000000000000000000000000000 PUSH0 DUP3 ADD MSTORE POP JUMP JUMPDEST PUSH0 PUSH2 0x3760 PUSH1 0x11 DUP4 PUSH2 0x2997 JUMP JUMPDEST SWAP2 POP PUSH2 0x376B DUP3 PUSH2 0x372C JUMP JUMPDEST PUSH1 0x20 DUP3 ADD SWAP1 POP SWAP2 SWAP1 POP JUMP JUMPDEST PUSH0 PUSH1 0x20 DUP3 ADD SWAP1 POP DUP2 DUP2 SUB PUSH0 DUP4 ADD MSTORE PUSH2 0x378D DUP2 PUSH2 0x3754 JUMP JUMPDEST SWAP1 POP SWAP2 SWAP1 POP JUMP JUMPDEST PUSH2 0x379D DUP2 PUSH2 0x2D4D JUMP JUMPDEST DUP3 MSTORE POP POP JUMP JUMPDEST PUSH0 PUSH1 0x60 DUP3 ADD SWAP1 POP PUSH2 0x37B6 PUSH0 DUP4 ADD DUP7 PUSH2 0x30CB JUMP JUMPDEST PUSH2 0x37C3 PUSH1 0x20 DUP4 ADD DUP6 PUSH2 0x3794 JUMP JUMPDEST DUP2 DUP2 SUB PUSH1 0x40 DUP4 ADD MSTORE PUSH2 0x37D5 DUP2 DUP5 PUSH2 0x29C5 JUMP JUMPDEST SWAP1 POP SWAP5 SWAP4 POP POP POP POP JUMP JUMPDEST PUSH0 DUP2 SWAP1 POP SWAP3 SWAP2 POP POP JUMP JUMPDEST PUSH0 PUSH2 0x37F3 DUP3 PUSH2 0x298D JUMP JUMPDEST PUSH2 0x37FD DUP2 DUP6 PUSH2 0x37DF JUMP JUMPDEST SWAP4 POP PUSH2 0x380D DUP2 DUP6 PUSH1 0x20 DUP7 ADD PUSH2 0x29A7 JUMP JUMPDEST DUP1 DUP5 ADD SWAP2 POP POP SWAP3 SWAP2 POP POP JUMP JUMPDEST PUSH0 PUSH2 0x3824 DUP3 DUP6 PUSH2 0x37E9 JUMP JUMPDEST SWAP2 POP PUSH2 0x3830 DUP3 DUP5 PUSH2 0x37E9 JUMP JUMPDEST SWAP2 POP DUP2 SWAP1 POP SWAP4 SWAP3 POP POP POP JUMP JUMPDEST PUSH0 DUP2 MLOAD SWAP1 POP SWAP2 SWAP1 POP JUMP JUMPDEST PUSH0 DUP3 DUP3 MSTORE PUSH1 0x20 DUP3 ADD SWAP1 POP SWAP3 SWAP2 POP POP JUMP JUMPDEST PUSH0 PUSH2 0x3860 DUP3 PUSH2 0x383C JUMP JUMPDEST PUSH2 0x386A DUP2 DUP6 PUSH2 0x3846 JUMP JUMPDEST SWAP4 POP PUSH2 0x387A DUP2 DUP6 PUSH1 0x20 DUP7 ADD PUSH2 0x29A7 JUMP JUMPDEST PUSH2 0x3883 DUP2 PUSH2 0x29B5 JUMP JUMPDEST DUP5 ADD SWAP2 POP POP SWAP3 SWAP2 POP POP JUMP JUMPDEST PUSH0 PUSH1 0x80 DUP3 ADD SWAP1 POP PUSH2 0x38A1 PUSH0 DUP4 ADD DUP8 PUSH2 0x2AAB JUMP JUMPDEST PUSH2 0x38AE PUSH1 0x20 DUP4 ADD DUP7 PUSH2 0x2AAB JUMP JUMPDEST PUSH2 0x38BB PUSH1 0x40 DUP4 ADD DUP6 PUSH2 0x30CB JUMP JUMPDEST DUP2 DUP2 SUB PUSH1 0x60 DUP4 ADD MSTORE PUSH2 0x38CD DUP2 DUP5 PUSH2 0x3856 JUMP JUMPDEST SWAP1 POP SWAP6 SWAP5 POP POP POP POP POP JUMP JUMPDEST PUSH0 DUP2 MLOAD SWAP1 POP PUSH2 0x38E6 DUP2 PUSH2 0x2905 JUMP JUMPDEST SWAP3 SWAP2 POP POP JUMP JUMPDEST PUSH0 PUSH1 0x20 DUP3 DUP5 SUB SLT ISZERO PUSH2 0x3901 JUMPI PUSH2 0x3900 PUSH2 0x28D2 JUMP JUMPDEST JUMPDEST PUSH0 PUSH2 0x390E DUP5 DUP3 DUP6 ADD PUSH2 0x38D8 JUMP JUMPDEST SWAP2 POP POP SWAP3 SWAP2 POP POP JUMP JUMPDEST PUSH32 0x4E487B7100000000000000000000000000000000000000000000000000000000 PUSH0 MSTORE PUSH1 0x12 PUSH1 0x4 MSTORE PUSH1 0x24 PUSH0 REVERT JUMPDEST PUSH0 PUSH1 0x40 DUP3 ADD SWAP1 POP PUSH2 0x3957 PUSH0 DUP4 ADD DUP6 PUSH2 0x2AAB JUMP JUMPDEST PUSH2 0x3964 PUSH1 0x20 DUP4 ADD DUP5 PUSH2 0x2B6F JUMP JUMPDEST SWAP4 SWAP3 POP POP POP JUMP JUMPDEST PUSH0 PUSH1 0x40 DUP3 ADD SWAP1 POP PUSH2 0x397E PUSH0 DUP4 ADD DUP6 PUSH2 0x2AAB JUMP JUMPDEST PUSH2 0x398B PUSH1 0x20 DUP4 ADD DUP5 PUSH2 0x30CB JUMP JUMPDEST SWAP4 SWAP3 POP POP POP JUMP INVALID LOG2 PUSH5 0x6970667358 0x22 SLT KECCAK256 BALANCE 0xD9 SLOAD 0xD5 PC 0xCB PUSH7 0xB97C96862F6EAE SWAP9 PUSH32 0x174651A39A5023B6CBF1EC7D8D70723164736F6C634300081E00330000000000 "
		},
		"gasEstimates": {
			"creation": {
				"codeDepositCost": "2958400",
				"executionCost": "infinite",
				"totalCost": "infinite"
			},
			"external": {
				"DEFAULT_ADMIN_ROLE()": "440",
				"DISTRIBUTOR_ROLE()": "435",
				"PRODUCER_ROLE()": "369",
				"REGULATOR_ROLE()": "415",
				"RETAILER_ROLE()": "437",
				"approve(address,uint256)": "infinite",
				"assignDistributor(address)": "infinite",
				"assignRetailer(address)": "infinite",
				"balanceOf(address)": "infinite",
				"getApproved(uint256)": "infinite",
				"getLot(uint256)": "infinite",
				"getLotHistory(uint256)": "infinite",
				"getRoleAdmin(bytes32)": "infinite",
				"grantRole(bytes32,address)": "infinite",
				"hasRole(bytes32,address)": "3188",
				"isApprovedForAll(address,address)": "infinite",
				"name()": "infinite",
				"ownerOf(uint256)": "infinite",
				"registerLot(string,string,string)": "infinite",
				"renounceRole(bytes32,address)": "infinite",
				"revokeRole(bytes32,address)": "infinite",
				"safeTransferFrom(address,address,uint256)": "infinite",
				"safeTransferFrom(address,address,uint256,bytes)": "infinite",
				"setApprovalForAll(address,bool)": "infinite",
				"supportsInterface(bytes4)": "940",
				"symbol()": "infinite",
				"tokenURI(uint256)": "infinite",
				"transferFrom(address,address,uint256)": "infinite",
				"triggerRecall(uint256)": "infinite",
				"updateLot(uint256,string,uint8)": "infinite"
			}
		},
		"methodIdentifiers": {
			"DEFAULT_ADMIN_ROLE()": "a217fddf",
			"DISTRIBUTOR_ROLE()": "f0bd87cc",
			"PRODUCER_ROLE()": "cb3e1fe7",
			"REGULATOR_ROLE()": "144bf589",
			"RETAILER_ROLE()": "2115e7bf",
			"approve(address,uint256)": "095ea7b3",
			"assignDistributor(address)": "0c1b1178",
			"assignRetailer(address)": "2561f718",
			"balanceOf(address)": "70a08231",
			"getApproved(uint256)": "081812fc",
			"getLot(uint256)": "ab995d12",
			"getLotHistory(uint256)": "43e73ff1",
			"getRoleAdmin(bytes32)": "248a9ca3",
			"grantRole(bytes32,address)": "2f2ff15d",
			"hasRole(bytes32,address)": "91d14854",
			"isApprovedForAll(address,address)": "e985e9c5",
			"name()": "06fdde03",
			"ownerOf(uint256)": "6352211e",
			"registerLot(string,string,string)": "639a7e72",
			"renounceRole(bytes32,address)": "36568abe",
			"revokeRole(bytes32,address)": "d547741f",
			"safeTransferFrom(address,address,uint256)": "42842e0e",
			"safeTransferFrom(address,address,uint256,bytes)": "b88d4fde",
			"setApprovalForAll(address,bool)": "a22cb465",
			"supportsInterface(bytes4)": "01ffc9a7",
			"symbol()": "95d89b41",
			"tokenURI(uint256)": "c87b56dd",
			"transferFrom(address,address,uint256)": "23b872dd",
			"triggerRecall(uint256)": "565cf74f",
			"updateLot(uint256,string,uint8)": "704befa6"
		}
	},
	"abi": [
		{
			"inputs": [
				{
					"internalType": "address",
					"name": "regulator",
					"type": "address"
				}
			],
			"stateMutability": "nonpayable",
			"type": "constructor"
		},
		{
			"inputs": [],
			"name": "AccessControlBadConfirmation",
			"type": "error"
		},
		{
			"inputs": [
				{
					"internalType": "address",
					"name": "account",
					"type": "address"
				},
				{
					"internalType": "bytes32",
					"name": "neededRole",
					"type": "bytes32"
				}
			],
			"name": "AccessControlUnauthorizedAccount",
			"type": "error"
		},
		{
			"inputs": [
				{
					"internalType": "address",
					"name": "sender",
					"type": "address"
				},
				{
					"internalType": "uint256",
					"name": "tokenId",
					"type": "uint256"
				},
				{
					"internalType": "address",
					"name": "owner",
					"type": "address"
				}
			],
			"name": "ERC721IncorrectOwner",
			"type": "error"
		},
		{
			"inputs": [
				{
					"internalType": "address",
					"name": "operator",
					"type": "address"
				},
				{
					"internalType": "uint256",
					"name": "tokenId",
					"type": "uint256"
				}
			],
			"name": "ERC721InsufficientApproval",
			"type": "error"
		},
		{
			"inputs": [
				{
					"internalType": "address",
					"name": "approver",
					"type": "address"
				}
			],
			"name": "ERC721InvalidApprover",
			"type": "error"
		},
		{
			"inputs": [
				{
					"internalType": "address",
					"name": "operator",
					"type": "address"
				}
			],
			"name": "ERC721InvalidOperator",
			"type": "error"
		},
		{
			"inputs": [
				{
					"internalType": "address",
					"name": "owner",
					"type": "address"
				}
			],
			"name": "ERC721InvalidOwner",
			"type": "error"
		},
		{
			"inputs": [
				{
					"internalType": "address",
					"name": "receiver",
					"type": "address"
				}
			],
			"name": "ERC721InvalidReceiver",
			"type": "error"
		},
		{
			"inputs": [
				{
					"internalType": "address",
					"name": "sender",
					"type": "address"
				}
			],
			"name": "ERC721InvalidSender",
			"type": "error"
		},
		{
			"inputs": [
				{
					"internalType": "uint256",
					"name": "tokenId",
					"type": "uint256"
				}
			],
			"name": "ERC721NonexistentToken",
			"type": "error"
		},
		{
			"anonymous": false,
			"inputs": [
				{
					"indexed": true,
					"internalType": "address",
					"name": "owner",
					"type": "address"
				},
				{
					"indexed": true,
					"internalType": "address",
					"name": "approved",
					"type": "address"
				},
				{
					"indexed": true,
					"internalType": "uint256",
					"name": "tokenId",
					"type": "uint256"
				}
			],
			"name": "Approval",
			"type": "event"
		},
		{
			"anonymous": false,
			"inputs": [
				{
					"indexed": true,
					"internalType": "address",
					"name": "owner",
					"type": "address"
				},
				{
					"indexed": true,
					"internalType": "address",
					"name": "operator",
					"type": "address"
				},
				{
					"indexed": false,
					"internalType": "bool",
					"name": "approved",
					"type": "bool"
				}
			],
			"name": "ApprovalForAll",
			"type": "event"
		},
		{
			"anonymous": false,
			"inputs": [
				{
					"indexed": false,
					"internalType": "uint256",
					"name": "lotId",
					"type": "uint256"
				},
				{
					"indexed": true,
					"internalType": "address",
					"name": "regulator",
					"type": "address"
				}
			],
			"name": "LotRecalled",
			"type": "event"
		},
		{
			"anonymous": false,
			"inputs": [
				{
					"indexed": false,
					"internalType": "uint256",
					"name": "lotId",
					"type": "uint256"
				},
				{
					"indexed": false,
					"internalType": "string",
					"name": "productName",
					"type": "string"
				},
				{
					"indexed": true,
					"internalType": "address",
					"name": "producer",
					"type": "address"
				}
			],
			"name": "LotRegistered",
			"type": "event"
		},
		{
			"anonymous": false,
			"inputs": [
				{
					"indexed": false,
					"internalType": "uint256",
					"name": "lotId",
					"type": "uint256"
				},
				{
					"indexed": false,
					"internalType": "enum FoodTraceability.Status",
					"name": "newStatus",
					"type": "uint8"
				},
				{
					"indexed": false,
					"internalType": "string",
					"name": "ipfsHash",
					"type": "string"
				},
				{
					"indexed": true,
					"internalType": "address",
					"name": "updater",
					"type": "address"
				}
			],
			"name": "LotStatusUpdated",
			"type": "event"
		},
		{
			"anonymous": false,
			"inputs": [
				{
					"indexed": true,
					"internalType": "bytes32",
					"name": "role",
					"type": "bytes32"
				},
				{
					"indexed": true,
					"internalType": "bytes32",
					"name": "previousAdminRole",
					"type": "bytes32"
				},
				{
					"indexed": true,
					"internalType": "bytes32",
					"name": "newAdminRole",
					"type": "bytes32"
				}
			],
			"name": "RoleAdminChanged",
			"type": "event"
		},
		{
			"anonymous": false,
			"inputs": [
				{
					"indexed": true,
					"internalType": "bytes32",
					"name": "role",
					"type": "bytes32"
				},
				{
					"indexed": true,
					"internalType": "address",
					"name": "account",
					"type": "address"
				},
				{
					"indexed": true,
					"internalType": "address",
					"name": "sender",
					"type": "address"
				}
			],
			"name": "RoleGranted",
			"type": "event"
		},
		{
			"anonymous": false,
			"inputs": [
				{
					"indexed": true,
					"internalType": "bytes32",
					"name": "role",
					"type": "bytes32"
				},
				{
					"indexed": true,
					"internalType": "address",
					"name": "account",
					"type": "address"
				},
				{
					"indexed": true,
					"internalType": "address",
					"name": "sender",
					"type": "address"
				}
			],
			"name": "RoleRevoked",
			"type": "event"
		},
		{
			"anonymous": false,
			"inputs": [
				{
					"indexed": true,
					"internalType": "address",
					"name": "from",
					"type": "address"
				},
				{
					"indexed": true,
					"internalType": "address",
					"name": "to",
					"type": "address"
				},
				{
					"indexed": true,
					"internalType": "uint256",
					"name": "tokenId",
					"type": "uint256"
				}
			],
			"name": "Transfer",
			"type": "event"
		},
		{
			"inputs": [],
			"name": "DEFAULT_ADMIN_ROLE",
			"outputs": [
				{
					"internalType": "bytes32",
					"name": "",
					"type": "bytes32"
				}
			],
			"stateMutability": "view",
			"type": "function"
		},
		{
			"inputs": [],
			"name": "DISTRIBUTOR_ROLE",
			"outputs": [
				{
					"internalType": "bytes32",
					"name": "",
					"type": "bytes32"
				}
			],
			"stateMutability": "view",
			"type": "function"
		},
		{
			"inputs": [],
			"name": "PRODUCER_ROLE",
			"outputs": [
				{
					"internalType": "bytes32",
					"name": "",
					"type": "bytes32"
				}
			],
			"stateMutability": "view",
			"type": "function"
		},
		{
			"inputs": [],
			"name": "REGULATOR_ROLE",
			"outputs": [
				{
					"internalType": "bytes32",
					"name": "",
					"type": "bytes32"
				}
			],
			"stateMutability": "view",
			"type": "function"
		},
		{
			"inputs": [],
			"name": "RETAILER_ROLE",
			"outputs": [
				{
					"internalType": "bytes32",
					"name": "",
					"type": "bytes32"
				}
			],
			"stateMutability": "view",
			"type": "function"
		},
		{
			"inputs": [
				{
					"internalType": "address",
					"name": "to",
					"type": "address"
				},
				{
					"internalType": "uint256",
					"name": "tokenId",
					"type": "uint256"
				}
			],
			"name": "approve",
			"outputs": [],
			"stateMutability": "nonpayable",
			"type": "function"
		},
		{
			"inputs": [
				{
					"internalType": "address",
					"name": "account",
					"type": "address"
				}
			],
			"name": "assignDistributor",
			"outputs": [],
			"stateMutability": "nonpayable",
			"type": "function"
		},
		{
			"inputs": [
				{
					"internalType": "address",
					"name": "account",
					"type": "address"
				}
			],
			"name": "assignRetailer",
			"outputs": [],
			"stateMutability": "nonpayable",
			"type": "function"
		},
		{
			"inputs": [
				{
					"internalType": "address",
					"name": "owner",
					"type": "address"
				}
			],
			"name": "balanceOf",
			"outputs": [
				{
					"internalType": "uint256",
					"name": "",
					"type": "uint256"
				}
			],
			"stateMutability": "view",
			"type": "function"
		},
		{
			"inputs": [
				{
					"internalType": "uint256",
					"name": "tokenId",
					"type": "uint256"
				}
			],
			"name": "getApproved",
			"outputs": [
				{
					"internalType": "address",
					"name": "",
					"type": "address"
				}
			],
			"stateMutability": "view",
			"type": "function"
		},
		{
			"inputs": [
				{
					"internalType": "uint256",
					"name": "_lotId",
					"type": "uint256"
				}
			],
			"name": "getLot",
			"outputs": [
				{
					"components": [
						{
							"internalType": "uint256",
							"name": "lotId",
							"type": "uint256"
						},
						{
							"internalType": "string",
							"name": "productName",
							"type": "string"
						},
						{
							"internalType": "string",
							"name": "origin",
							"type": "string"
						},
						{
							"internalType": "address",
							"name": "currentOwner",
							"type": "address"
						},
						{
							"internalType": "enum FoodTraceability.Status",
							"name": "status",
							"type": "uint8"
						},
						{
							"components": [
								{
									"internalType": "uint256",
									"name": "timestamp",
									"type": "uint256"
								},
								{
									"internalType": "string",
									"name": "ipfsHash",
									"type": "string"
								},
								{
									"internalType": "enum FoodTraceability.Status",
									"name": "status",
									"type": "uint8"
								}
							],
							"internalType": "struct FoodTraceability.HistoryEntry[]",
							"name": "history",
							"type": "tuple[]"
						}
					],
					"internalType": "struct FoodTraceability.FoodLot",
					"name": "",
					"type": "tuple"
				}
			],
			"stateMutability": "view",
			"type": "function"
		},
		{
			"inputs": [
				{
					"internalType": "uint256",
					"name": "_lotId",
					"type": "uint256"
				}
			],
			"name": "getLotHistory",
			"outputs": [
				{
					"components": [
						{
							"internalType": "uint256",
							"name": "timestamp",
							"type": "uint256"
						},
						{
							"internalType": "string",
							"name": "ipfsHash",
							"type": "string"
						},
						{
							"internalType": "enum FoodTraceability.Status",
							"name": "status",
							"type": "uint8"
						}
					],
					"internalType": "struct FoodTraceability.HistoryEntry[]",
					"name": "",
					"type": "tuple[]"
				}
			],
			"stateMutability": "view",
			"type": "function"
		},
		{
			"inputs": [
				{
					"internalType": "bytes32",
					"name": "role",
					"type": "bytes32"
				}
			],
			"name": "getRoleAdmin",
			"outputs": [
				{
					"internalType": "bytes32",
					"name": "",
					"type": "bytes32"
				}
			],
			"stateMutability": "view",
			"type": "function"
		},
		{
			"inputs": [
				{
					"internalType": "bytes32",
					"name": "role",
					"type": "bytes32"
				},
				{
					"internalType": "address",
					"name": "account",
					"type": "address"
				}
			],
			"name": "grantRole",
			"outputs": [],
			"stateMutability": "nonpayable",
			"type": "function"
		},
		{
			"inputs": [
				{
					"internalType": "bytes32",
					"name": "role",
					"type": "bytes32"
				},
				{
					"internalType": "address",
					"name": "account",
					"type": "address"
				}
			],
			"name": "hasRole",
			"outputs": [
				{
					"internalType": "bool",
					"name": "",
					"type": "bool"
				}
			],
			"stateMutability": "view",
			"type": "function"
		},
		{
			"inputs": [
				{
					"internalType": "address",
					"name": "owner",
					"type": "address"
				},
				{
					"internalType": "address",
					"name": "operator",
					"type": "address"
				}
			],
			"name": "isApprovedForAll",
			"outputs": [
				{
					"internalType": "bool",
					"name": "",
					"type": "bool"
				}
			],
			"stateMutability": "view",
			"type": "function"
		},
		{
			"inputs": [],
			"name": "name",
			"outputs": [
				{
					"internalType": "string",
					"name": "",
					"type": "string"
				}
			],
			"stateMutability": "view",
			"type": "function"
		},
		{
			"inputs": [
				{
					"internalType": "uint256",
					"name": "tokenId",
					"type": "uint256"
				}
			],
			"name": "ownerOf",
			"outputs": [
				{
					"internalType": "address",
					"name": "",
					"type": "address"
				}
			],
			"stateMutability": "view",
			"type": "function"
		},
		{
			"inputs": [
				{
					"internalType": "string",
					"name": "_productName",
					"type": "string"
				},
				{
					"internalType": "string",
					"name": "_origin",
					"type": "string"
				},
				{
					"internalType": "string",
					"name": "_ipfsHash",
					"type": "string"
				}
			],
			"name": "registerLot",
			"outputs": [],
			"stateMutability": "nonpayable",
			"type": "function"
		},
		{
			"inputs": [
				{
					"internalType": "bytes32",
					"name": "role",
					"type": "bytes32"
				},
				{
					"internalType": "address",
					"name": "callerConfirmation",
					"type": "address"
				}
			],
			"name": "renounceRole",
			"outputs": [],
			"stateMutability": "nonpayable",
			"type": "function"
		},
		{
			"inputs": [
				{
					"internalType": "bytes32",
					"name": "role",
					"type": "bytes32"
				},
				{
					"internalType": "address",
					"name": "account",
					"type": "address"
				}
			],
			"name": "revokeRole",
			"outputs": [],
			"stateMutability": "nonpayable",
			"type": "function"
		},
		{
			"inputs": [
				{
					"internalType": "address",
					"name": "from",
					"type": "address"
				},
				{
					"internalType": "address",
					"name": "to",
					"type": "address"
				},
				{
					"internalType": "uint256",
					"name": "tokenId",
					"type": "uint256"
				}
			],
			"name": "safeTransferFrom",
			"outputs": [],
			"stateMutability": "nonpayable",
			"type": "function"
		},
		{
			"inputs": [
				{
					"internalType": "address",
					"name": "from",
					"type": "address"
				},
				{
					"internalType": "address",
					"name": "to",
					"type": "address"
				},
				{
					"internalType": "uint256",
					"name": "tokenId",
					"type": "uint256"
				},
				{
					"internalType": "bytes",
					"name": "data",
					"type": "bytes"
				}
			],
			"name": "safeTransferFrom",
			"outputs": [],
			"stateMutability": "nonpayable",
			"type": "function"
		},
		{
			"inputs": [
				{
					"internalType": "address",
					"name": "operator",
					"type": "address"
				},
				{
					"internalType": "bool",
					"name": "approved",
					"type": "bool"
				}
			],
			"name": "setApprovalForAll",
			"outputs": [],
			"stateMutability": "nonpayable",
			"type": "function"
		},
		{
			"inputs": [
				{
					"internalType": "bytes4",
					"name": "interfaceId",
					"type": "bytes4"
				}
			],
			"name": "supportsInterface",
			"outputs": [
				{
					"internalType": "bool",
					"name": "",
					"type": "bool"
				}
			],
			"stateMutability": "view",
			"type": "function"
		},
		{
			"inputs": [],
			"name": "symbol",
			"outputs": [
				{
					"internalType": "string",
					"name": "",
					"type": "string"
				}
			],
			"stateMutability": "view",
			"type": "function"
		},
		{
			"inputs": [
				{
					"internalType": "uint256",
					"name": "tokenId",
					"type": "uint256"
				}
			],
			"name": "tokenURI",
			"outputs": [
				{
					"internalType": "string",
					"name": "",
					"type": "string"
				}
			],
			"stateMutability": "view",
			"type": "function"
		},
		{
			"inputs": [
				{
					"internalType": "address",
					"name": "from",
					"type": "address"
				},
				{
					"internalType": "address",
					"name": "to",
					"type": "address"
				},
				{
					"internalType": "uint256",
					"name": "tokenId",
					"type": "uint256"
				}
			],
			"name": "transferFrom",
			"outputs": [],
			"stateMutability": "nonpayable",
			"type": "function"
		},
		{
			"inputs": [
				{
					"internalType": "uint256",
					"name": "_lotId",
					"type": "uint256"
				}
			],
			"name": "triggerRecall",
			"outputs": [],
			"stateMutability": "nonpayable",
			"type": "function"
		},
		{
			"inputs": [
				{
					"internalType": "uint256",
					"name": "_lotId",
					"type": "uint256"
				},
				{
					"internalType": "string",
					"name": "_ipfsHash",
					"type": "string"
				},
				{
					"internalType": "enum FoodTraceability.Status",
					"name": "_newStatus",
					"type": "uint8"
				}
			],
			"name": "updateLot",
			"outputs": [],
			"stateMutability": "nonpayable",
			"type": "function"
		}
	]
}